{
  "contractName": "System",
  "abi": [
    {
      "inputs": [
        {
          "internalType": "address",
          "name": "_peggedTokenAddress",
          "type": "address"
        }
      ],
      "payable": false,
      "stateMutability": "nonpayable",
      "type": "constructor"
    },
    {
      "anonymous": false,
      "inputs": [
        {
          "indexed": false,
          "internalType": "string",
          "name": "message",
          "type": "string"
        }
      ],
      "name": "ConsoleLog",
      "type": "event"
    },
    {
      "anonymous": false,
      "inputs": [
        {
          "indexed": false,
          "internalType": "uint256",
          "name": "number",
          "type": "uint256"
        }
      ],
      "name": "ConsoleLogNumber",
      "type": "event"
    },
    {
      "constant": true,
      "inputs": [],
      "name": "HIGH_TRUST_FEEDS",
      "outputs": [
        {
          "internalType": "uint32",
          "name": "",
          "type": "uint32"
        }
      ],
      "payable": false,
      "stateMutability": "view",
      "type": "function"
    },
    {
      "constant": true,
      "inputs": [],
      "name": "MEDIUM_TRUST_FEEDS",
      "outputs": [
        {
          "internalType": "uint32",
          "name": "",
          "type": "uint32"
        }
      ],
      "payable": false,
      "stateMutability": "view",
      "type": "function"
    },
    {
      "constant": true,
      "inputs": [],
      "name": "callTime",
      "outputs": [
        {
          "internalType": "uint256",
          "name": "",
          "type": "uint256"
        }
      ],
      "payable": false,
      "stateMutability": "view",
      "type": "function"
    },
    {
      "constant": true,
      "inputs": [
        {
          "internalType": "uint256",
          "name": "",
          "type": "uint256"
        }
      ],
      "name": "dailySystemVariables",
      "outputs": [
        {
          "internalType": "uint32",
          "name": "startDay",
          "type": "uint32"
        },
        {
          "internalType": "uint256",
          "name": "ethPrice",
          "type": "uint256"
        },
        {
          "internalType": "uint256",
          "name": "pegPrice",
          "type": "uint256"
        },
        {
          "internalType": "uint256",
          "name": "loansFeeRate",
          "type": "uint256"
        },
        {
          "internalType": "uint256",
          "name": "feedsFeeRate",
          "type": "uint256"
        },
        {
          "internalType": "uint256",
          "name": "savingsInterestRate",
          "type": "uint256"
        }
      ],
      "payable": false,
      "stateMutability": "view",
      "type": "function"
    },
    {
      "constant": true,
      "inputs": [
        {
          "internalType": "uint256",
          "name": "",
          "type": "uint256"
        }
      ],
      "name": "feedFinalizedStateList",
      "outputs": [
        {
          "internalType": "address",
          "name": "priceFeedAddress",
          "type": "address"
        },
        {
          "internalType": "uint256",
          "name": "totalAllocation",
          "type": "uint256"
        },
        {
          "internalType": "uint256",
          "name": "ethPrice",
          "type": "uint256"
        },
        {
          "internalType": "uint256",
          "name": "pegPrice",
          "type": "uint256"
        },
        {
          "internalType": "bool",
          "name": "isProcessed",
          "type": "bool"
        }
      ],
      "payable": false,
      "stateMutability": "view",
      "type": "function"
    },
    {
      "constant": true,
      "inputs": [],
      "name": "firstTime",
      "outputs": [
        {
          "internalType": "uint256",
          "name": "",
          "type": "uint256"
        }
      ],
      "payable": false,
      "stateMutability": "view",
      "type": "function"
    },
    {
      "constant": true,
      "inputs": [],
      "name": "instantPriceReportingState",
      "outputs": [
        {
          "internalType": "enum System.InstantPriceReportingState",
          "name": "",
          "type": "uint8"
        }
      ],
      "payable": false,
      "stateMutability": "view",
      "type": "function"
    },
    {
      "constant": true,
      "inputs": [],
      "name": "lastFinalizedDay",
      "outputs": [
        {
          "internalType": "uint256",
          "name": "",
          "type": "uint256"
        }
      ],
      "payable": false,
      "stateMutability": "view",
      "type": "function"
    },
    {
      "constant": true,
      "inputs": [
        {
          "internalType": "uint256",
          "name": "",
          "type": "uint256"
        }
      ],
      "name": "lastFinalizedPeriodUnit",
      "outputs": [
        {
          "internalType": "uint256",
          "name": "",
          "type": "uint256"
        }
      ],
      "payable": false,
      "stateMutability": "view",
      "type": "function"
    },
    {
      "constant": true,
      "inputs": [],
      "name": "lastInstantPrice",
      "outputs": [
        {
          "internalType": "uint256",
          "name": "",
          "type": "uint256"
        }
      ],
      "payable": false,
      "stateMutability": "view",
      "type": "function"
    },
    {
      "constant": true,
      "inputs": [],
      "name": "peggedToken",
      "outputs": [
        {
          "internalType": "contract PeggedToken",
          "name": "",
          "type": "address"
        }
      ],
      "payable": false,
      "stateMutability": "view",
      "type": "function"
    },
    {
      "constant": true,
      "inputs": [
        {
          "internalType": "uint256",
          "name": "",
          "type": "uint256"
        },
        {
          "internalType": "uint256",
          "name": "",
          "type": "uint256"
        }
      ],
      "name": "periodicSystemVariables",
      "outputs": [
        {
          "internalType": "uint32",
          "name": "startDay",
          "type": "uint32"
        },
        {
          "internalType": "uint256",
          "name": "ethPrice",
          "type": "uint256"
        },
        {
          "internalType": "uint256",
          "name": "pegPrice",
          "type": "uint256"
        },
        {
          "internalType": "uint256",
          "name": "loansFeeRate",
          "type": "uint256"
        },
        {
          "internalType": "uint256",
          "name": "feedsFeeRate",
          "type": "uint256"
        },
        {
          "internalType": "uint256",
          "name": "savingsInterestRate",
          "type": "uint256"
        }
      ],
      "payable": false,
      "stateMutability": "view",
      "type": "function"
    },
    {
      "constant": true,
      "inputs": [],
      "name": "systemFeedsAddress",
      "outputs": [
        {
          "internalType": "address",
          "name": "",
          "type": "address"
        }
      ],
      "payable": false,
      "stateMutability": "view",
      "type": "function"
    },
    {
      "constant": true,
      "inputs": [],
      "name": "systemLoansAddress",
      "outputs": [
        {
          "internalType": "address",
          "name": "",
          "type": "address"
        }
      ],
      "payable": false,
      "stateMutability": "view",
      "type": "function"
    },
    {
      "constant": true,
      "inputs": [],
      "name": "systemSavingsAddress",
      "outputs": [
        {
          "internalType": "address",
          "name": "",
          "type": "address"
        }
      ],
      "payable": false,
      "stateMutability": "view",
      "type": "function"
    },
    {
      "constant": true,
      "inputs": [
        {
          "internalType": "address",
          "name": "",
          "type": "address"
        }
      ],
      "name": "trustedPriceFeedMap",
      "outputs": [
        {
          "internalType": "bool",
          "name": "isTrustedPriceFeed",
          "type": "bool"
        },
        {
          "internalType": "uint256",
          "name": "lastInstantEthPrice",
          "type": "uint256"
        },
        {
          "internalType": "uint256",
          "name": "lastInstantCallTime",
          "type": "uint256"
        }
      ],
      "payable": false,
      "stateMutability": "view",
      "type": "function"
    },
    {
      "constant": false,
      "inputs": [
        {
          "internalType": "address",
          "name": "_systemFeedsAddress",
          "type": "address"
        },
        {
          "internalType": "address",
          "name": "_systemLoansAddress",
          "type": "address"
        },
        {
          "internalType": "address",
          "name": "_systemSavingsAddress",
          "type": "address"
        }
      ],
      "name": "initialize",
      "outputs": [],
      "payable": false,
      "stateMutability": "nonpayable",
      "type": "function"
    },
    {
      "constant": false,
      "inputs": [
        {
          "internalType": "uint32",
          "name": "finalizeDay",
          "type": "uint32"
        },
        {
          "components": [
            {
              "internalType": "address",
              "name": "priceFeedAddress",
              "type": "address"
            },
            {
              "internalType": "uint256",
              "name": "totalAllocation",
              "type": "uint256"
            },
            {
              "internalType": "uint256",
              "name": "ethPrice",
              "type": "uint256"
            },
            {
              "internalType": "uint256",
              "name": "pegPrice",
              "type": "uint256"
            },
            {
              "internalType": "bool",
              "name": "isProcessed",
              "type": "bool"
            }
          ],
          "internalType": "struct SystemFeeds.FeedProcessState[25]",
          "name": "_feedFinalizedStateList",
          "type": "tuple[25]"
        }
      ],
      "name": "finalizePriceFeedState",
      "outputs": [],
      "payable": false,
      "stateMutability": "nonpayable",
      "type": "function"
    },
    {
      "constant": true,
      "inputs": [
        {
          "internalType": "uint256",
          "name": "_lastInterestTime",
          "type": "uint256"
        },
        {
          "internalType": "uint256",
          "name": "_callTime",
          "type": "uint256"
        },
        {
          "internalType": "uint256",
          "name": "_registeredBalance",
          "type": "uint256"
        }
      ],
      "name": "calculateInterest",
      "outputs": [
        {
          "internalType": "uint256",
          "name": "",
          "type": "uint256"
        }
      ],
      "payable": false,
      "stateMutability": "pure",
      "type": "function"
    },
    {
      "constant": false,
      "inputs": [],
      "name": "getDelayedPrice",
      "outputs": [
        {
          "internalType": "enum System.DelayedPriceReportingState",
          "name": "",
          "type": "uint8"
        },
        {
          "internalType": "uint256",
          "name": "",
          "type": "uint256"
        }
      ],
      "payable": false,
      "stateMutability": "nonpayable",
      "type": "function"
    },
    {
      "constant": true,
      "inputs": [],
      "name": "getInstantPrice",
      "outputs": [
        {
          "internalType": "enum System.InstantPriceReportingState",
          "name": "",
          "type": "uint8"
        },
        {
          "internalType": "uint256",
          "name": "",
          "type": "uint256"
        }
      ],
      "payable": false,
      "stateMutability": "view",
      "type": "function"
    },
    {
      "constant": false,
      "inputs": [
        {
          "internalType": "address",
          "name": "_callingPriceFeedAddress",
          "type": "address"
        },
        {
          "components": [
            {
              "internalType": "uint256",
              "name": "ethPrice",
              "type": "uint256"
            },
            {
              "internalType": "uint256",
              "name": "callTime",
              "type": "uint256"
            }
          ],
          "internalType": "struct PriceFeed.InstantPrice",
          "name": "_instantPrice",
          "type": "tuple"
        }
      ],
      "name": "reportInstantPrice",
      "outputs": [],
      "payable": false,
      "stateMutability": "nonpayable",
      "type": "function"
    }
  ],
  "bytecode": "0x6080604052600161014860006101000a81548160ff021916908360048111156200002557fe5b02179055503480156200003757600080fd5b50604051620021603803806200216083398181016040526200005d9190810190620001c8565b600073ffffffffffffffffffffffffffffffffffffffff166000809054906101000a900473ffffffffffffffffffffffffffffffffffffffff1673ffffffffffffffffffffffffffffffffffffffff1614620000f0576040517f08c379a0000000000000000000000000000000000000000000000000000000008152600401620000e7906200029e565b60405180910390fd5b600073ffffffffffffffffffffffffffffffffffffffff168173ffffffffffffffffffffffffffffffffffffffff16141562000163576040517f08c379a00000000000000000000000000000000000000000000000000000000081526004016200015a90620002c0565b60405180910390fd5b806000806101000a81548173ffffffffffffffffffffffffffffffffffffffff021916908373ffffffffffffffffffffffffffffffffffffffff160217905550426004819055505062000341565b600081519050620001c28162000327565b92915050565b600060208284031215620001db57600080fd5b6000620001eb84828501620001b1565b91505092915050565b600062000203601f83620002e2565b91507f706567676564546f6b656e20616464726573732073686f756c642062652030006000830152602082019050919050565b600062000245602383620002e2565b91507f5f706567676564546f6b656e416464726573732073686f756c64206e6f74206260008301527f65203000000000000000000000000000000000000000000000000000000000006020830152604082019050919050565b60006020820190508181036000830152620002b981620001f4565b9050919050565b60006020820190508181036000830152620002db8162000236565b9050919050565b600082825260208201905092915050565b6000620003008262000307565b9050919050565b600073ffffffffffffffffffffffffffffffffffffffff82169050919050565b6200033281620002f3565b81146200033e57600080fd5b50565b611e0f80620003516000396000f3fe608060405234801561001057600080fd5b50600436106101415760003560e01c8063879faddb116100b8578063e161ba371161007c578063e161ba3714610388578063e237ea60146103a6578063ea637590146103c5578063ea9103f6146103e4578063ef47e51d14610416578063f9ffdfa21461043457610141565b8063879faddb146102e05780639b2f2b7f146102fc578063b8beb4bf1461031a578063c0c53b8b14610338578063d0b6e5321461035457610141565b806339d5e1f71161010a57806339d5e1f71461021c5780633d196e4a1461023857806341d76a9c146102565780634278c9ae14610274578063586c94a0146102a45780637edc22cd146102c257610141565b8062e77aa61461014657806305e1bd8c146101645780630f5e07c7146101945780631e63e170146101b257806326b1e4a5146101e7575b600080fd5b61014e610452565b60405161015b91906119e4565b60405180910390f35b61017e6004803603610179919081019061157d565b610477565b60405161018b9190611b6c565b60405180910390f35b61019c6104a5565b6040516101a99190611b6c565b60405180910390f35b6101cc60048036036101c79190810190611541565b6104ac565b6040516101de96959493929190611bbd565b60405180910390f35b61020160048036036101fc9190810190611518565b61050b565b60405161021396959493929190611bbd565b60405180910390f35b610236600480360361023191908101906114dc565b61055a565b005b6102406109be565b60405161024d9190611a28565b60405180910390f35b61025e6109d2565b60405161026b9190611b6c565b60405180910390f35b61028e60048036036102899190810190611518565b6109d8565b60405161029b9190611b6c565b60405180910390f35b6102ac6109f0565b6040516102b9919061193f565b60405180910390f35b6102ca610a16565b6040516102d79190611b6c565b60405180910390f35b6102fa60048036036102f591908101906115cc565b610a1d565b005b610304610cda565b6040516103119190611b6c565b60405180910390f35b610322610ce0565b60405161032f9190611ba2565b60405180910390f35b610352600480360361034d919081019061148d565b610ce5565b005b61036e60048036036103699190810190611518565b6110b0565b60405161037f95949392919061195a565b60405180910390f35b610390611116565b60405161039d919061193f565b60405180910390f35b6103ae61113c565b6040516103bc929190611a43565b60405180910390f35b6103cd61115c565b6040516103db9291906119ff565b60405180910390f35b6103fe60048036036103f99190810190611464565b61116e565b60405161040d939291906119ad565b60405180910390f35b61041e6111a6565b60405161042b9190611ba2565b60405180910390f35b61043c6111ab565b604051610449919061193f565b60405180910390f35b6000809054906101000a900473ffffffffffffffffffffffffffffffffffffffff1681565b6000610164620151806064020263ffffffff16828585036201000002028161049b57fe5b0490509392505050565b61014b5481565b603082600581106104b957fe5b601e020181600581106104c857fe5b60060201600091509150508060000160009054906101000a900463ffffffff16908060010154908060020154908060030154908060040154908060050154905086565b6005816007811061051857fe5b600602016000915090508060000160009054906101000a900463ffffffff16908060010154908060020154908060030154908060040154908060050154905086565b600260009054906101000a900473ffffffffffffffffffffffffffffffffffffffff1673ffffffffffffffffffffffffffffffffffffffff163373ffffffffffffffffffffffffffffffffffffffff16146105ea576040517f08c379a00000000000000000000000000000000000000000000000000000000081526004016105e190611aac565b60405180910390fd5b6105f26111d1565b600161014a60008473ffffffffffffffffffffffffffffffffffffffff1673ffffffffffffffffffffffffffffffffffffffff16815260200190815260200160002060000160006101000a81548160ff021916908315150217905550806000015161014a60008473ffffffffffffffffffffffffffffffffffffffff1673ffffffffffffffffffffffffffffffffffffffff16815260200190815260200160002060010181905550806020015161014a60008473ffffffffffffffffffffffffffffffffffffffff1673ffffffffffffffffffffffffffffffffffffffff168152602001908152602001600020600201819055506106ee6112a6565b60008060008090505b600563ffffffff168163ffffffff16101561081d57600061014a600060cb8463ffffffff166019811061072657fe5b6005020160000160009054906101000a900473ffffffffffffffffffffffffffffffffffffffff1673ffffffffffffffffffffffffffffffffffffffff1673ffffffffffffffffffffffffffffffffffffffff16815260200190815260200160002090508060000160009054906101000a900460ff161561080f57600081600101541461080e5760006201518063ffffffff16826002015461014b5403816107ca57fe5b04141561080d578060010154840193508060010154858463ffffffff16600581106107f157fe5b60200201818152505061080485846111db565b82806001019350505b5b5b5080806001019150506106f7565b5060008163ffffffff16838161082f57fe5b049050600080905060006001840390505b8160020163ffffffff168163ffffffff16111561086d578180600101925050808060019003915050610840565b858163ffffffff166005811061087f57fe5b60200201516101498190555060008463ffffffff1614156108c457600161014860006101000a81548160ff021916908360048111156108ba57fe5b02179055506109b4565b601483026064876001870363ffffffff16600581106108df57fe5b6020020151886000600581106108f157fe5b60200201510302111561092857600461014860006101000a81548160ff0219169083600481111561091e57fe5b02179055506109b3565b600583026064876001870363ffffffff166005811061094357fe5b60200201518860006005811061095557fe5b60200201510302111561098c57600361014860006101000a81548160ff0219169083600481111561098257fe5b02179055506109b2565b600261014860006101000a81548160ff021916908360048111156109ac57fe5b02179055505b5b5b5050505050505050565b61014860009054906101000a900460ff1681565b60045481565b60c681600581106109e557fe5b016000915090505481565b600360009054906101000a900473ffffffffffffffffffffffffffffffffffffffff1681565b6101495481565b600260009054906101000a900473ffffffffffffffffffffffffffffffffffffffff1673ffffffffffffffffffffffffffffffffffffffff163373ffffffffffffffffffffffffffffffffffffffff1614610aad576040517f08c379a0000000000000000000000000000000000000000000000000000000008152600401610aa490611aac565b60405180910390fd5b8163ffffffff16602f8190555080600060198110610ac757fe5b602002015160400151600560078463ffffffff1681610ae257fe5b0663ffffffff1660078110610af357fe5b600602016001018190555080600060198110610b0b57fe5b602002015160600151600560078463ffffffff1681610b2657fe5b0663ffffffff1660078110610b3757fe5b600602016002018190555081600560078463ffffffff1681610b5557fe5b0663ffffffff1660078110610b6657fe5b6006020160000160006101000a81548163ffffffff021916908363ffffffff1602179055507f0f8db0708c4e6b233e2c285fe1ed66015dee71bd374ac8e835534be5f592d6a2604051610bb890611aec565b60405180910390a17fc5e7336b6af56c0d5886a6770a98ad781a55197d13051b6c60663e75ab59c74282604051610bef9190611b87565b60405180910390a160008090505b601963ffffffff168163ffffffff161015610cd557818163ffffffff1660198110610c2457fe5b602002015160cb8263ffffffff1660198110610c3c57fe5b6005020160008201518160000160006101000a81548173ffffffffffffffffffffffffffffffffffffffff021916908373ffffffffffffffffffffffffffffffffffffffff16021790555060208201518160010155604082015181600201556060820151816003015560808201518160040160006101000a81548160ff0219169083151502179055509050508080600101915050610bfd565b505050565b602f5481565b601981565b600073ffffffffffffffffffffffffffffffffffffffff16600260009054906101000a900473ffffffffffffffffffffffffffffffffffffffff1673ffffffffffffffffffffffffffffffffffffffff1614610d76576040517f08c379a0000000000000000000000000000000000000000000000000000000008152600401610d6d90611a6c565b60405180910390fd5b600073ffffffffffffffffffffffffffffffffffffffff168373ffffffffffffffffffffffffffffffffffffffff161415610de6576040517f08c379a0000000000000000000000000000000000000000000000000000000008152600401610ddd90611acc565b60405180910390fd5b600073ffffffffffffffffffffffffffffffffffffffff16600160009054906101000a900473ffffffffffffffffffffffffffffffffffffffff1673ffffffffffffffffffffffffffffffffffffffff1614610e77576040517f08c379a0000000000000000000000000000000000000000000000000000000008152600401610e6e90611b2c565b60405180910390fd5b600073ffffffffffffffffffffffffffffffffffffffff168273ffffffffffffffffffffffffffffffffffffffff161415610ee7576040517f08c379a0000000000000000000000000000000000000000000000000000000008152600401610ede90611a8c565b60405180910390fd5b600073ffffffffffffffffffffffffffffffffffffffff16600360009054906101000a900473ffffffffffffffffffffffffffffffffffffffff1673ffffffffffffffffffffffffffffffffffffffff1614610f78576040517f08c379a0000000000000000000000000000000000000000000000000000000008152600401610f6f90611b4c565b60405180910390fd5b600073ffffffffffffffffffffffffffffffffffffffff168173ffffffffffffffffffffffffffffffffffffffff161415610fe8576040517f08c379a0000000000000000000000000000000000000000000000000000000008152600401610fdf90611b0c565b60405180910390fd5b82600260006101000a81548173ffffffffffffffffffffffffffffffffffffffff021916908373ffffffffffffffffffffffffffffffffffffffff16021790555081600160006101000a81548173ffffffffffffffffffffffffffffffffffffffff021916908373ffffffffffffffffffffffffffffffffffffffff16021790555080600360006101000a81548173ffffffffffffffffffffffffffffffffffffffff021916908373ffffffffffffffffffffffffffffffffffffffff160217905550505050565b60cb81601981106110bd57fe5b600502016000915090508060000160009054906101000a900473ffffffffffffffffffffffffffffffffffffffff16908060010154908060020154908060030154908060040160009054906101000a900460ff16905085565b600160009054906101000a900473ffffffffffffffffffffffffffffffffffffffff1681565b60008061014860009054906101000a900460ff1661014954915091509091565b60008060046000809050915091509091565b61014a6020528060005260406000206000915090508060000160009054906101000a900460ff16908060010154908060020154905083565b600581565b600260009054906101000a900473ffffffffffffffffffffffffffffffffffffffff1681565b4261014b81905550565b60008163ffffffff1611801561121f5750816001820363ffffffff166005811061120157fe5b6020020151828263ffffffff166005811061121857fe5b6020020151115b156112a2576000828263ffffffff166005811061123857fe5b60200201519050826001830363ffffffff166005811061125457fe5b6020020151838363ffffffff166005811061126b57fe5b60200201818152505080836001840363ffffffff166005811061128a57fe5b6020020181815250506112a083600184036111db565b505b5050565b6040518060a00160405280600590602082028038833980820191505090505090565b6000813590506112d781611d70565b92915050565b600082601f8301126112ee57600080fd5b60196113016112fc82611c4b565b611c1e565b915081838560a084028201111561131757600080fd5b60005b83811015611347578161132d8882611366565b845260208401935060a0830192505060018101905061131a565b5050505092915050565b60008135905061136081611d87565b92915050565b600060a0828403121561137857600080fd5b61138260a0611c1e565b90506000611392848285016112c8565b60008301525060206113a68482850161143a565b60208301525060406113ba8482850161143a565b60408301525060606113ce8482850161143a565b60608301525060806113e284828501611351565b60808301525092915050565b60006040828403121561140057600080fd5b61140a6040611c1e565b9050600061141a8482850161143a565b600083015250602061142e8482850161143a565b60208301525092915050565b60008135905061144981611d9e565b92915050565b60008135905061145e81611db5565b92915050565b60006020828403121561147657600080fd5b6000611484848285016112c8565b91505092915050565b6000806000606084860312156114a257600080fd5b60006114b0868287016112c8565b93505060206114c1868287016112c8565b92505060406114d2868287016112c8565b9150509250925092565b600080606083850312156114ef57600080fd5b60006114fd858286016112c8565b925050602061150e858286016113ee565b9150509250929050565b60006020828403121561152a57600080fd5b60006115388482850161143a565b91505092915050565b6000806040838503121561155457600080fd5b60006115628582860161143a565b92505060206115738582860161143a565b9150509250929050565b60008060006060848603121561159257600080fd5b60006115a08682870161143a565b93505060206115b18682870161143a565b92505060406115c28682870161143a565b9150509250925092565b600080610fc083850312156115e057600080fd5b60006115ee8582860161144f565b92505060206115ff858286016112dd565b9150509250929050565b61161281611c7e565b82525050565b61162181611c90565b82525050565b61163081611cfc565b82525050565b61163f81611d20565b82525050565b61164e81611d32565b82525050565b6000611661601e83611c6d565b91507f73797374656d4665656473416464726573732073686f756c64206265203000006000830152602082019050919050565b60006116a1602383611c6d565b91507f5f73797374656d4c6f616e73416464726573732073686f756c64206e6f74206260008301527f65203000000000000000000000000000000000000000000000000000000000006020830152604082019050919050565b6000611707602483611c6d565b91507f63616c6c6572206d7573742062652073797374656d20666565647320636f6e7460008301527f72616374000000000000000000000000000000000000000000000000000000006020830152604082019050919050565b600061176d602383611c6d565b91507f5f73797374656d4665656473416464726573732073686f756c64206e6f74206260008301527f65203000000000000000000000000000000000000000000000000000000000006020830152604082019050919050565b60006117d3602583611c6d565b91507f3e53797374656d2e66696e616c697a655661726961626c65732066696e616c6960008301527f7a654461790000000000000000000000000000000000000000000000000000006020830152604082019050919050565b6000611839602483611c6d565b91507f73797374656d536176696e6773416464726573732073686f756c64206e6f742060008301527f62652030000000000000000000000000000000000000000000000000000000006020830152604082019050919050565b600061189f601e83611c6d565b91507f73797374656d4c6f616e73416464726573732073686f756c64206265203000006000830152602082019050919050565b60006118df602083611c6d565b91507f73797374656d536176696e6773416464726573732073686f756c6420626520306000830152602082019050919050565b61191b81611ce2565b82525050565b61192a81611d44565b82525050565b61193981611cec565b82525050565b60006020820190506119546000830184611609565b92915050565b600060a08201905061196f6000830188611609565b61197c6020830187611912565b6119896040830186611912565b6119966060830185611912565b6119a36080830184611618565b9695505050505050565b60006060820190506119c26000830186611618565b6119cf6020830185611912565b6119dc6040830184611912565b949350505050565b60006020820190506119f96000830184611627565b92915050565b6000604082019050611a146000830185611636565b611a216020830184611912565b9392505050565b6000602082019050611a3d6000830184611645565b92915050565b6000604082019050611a586000830185611645565b611a656020830184611912565b9392505050565b60006020820190508181036000830152611a8581611654565b9050919050565b60006020820190508181036000830152611aa581611694565b9050919050565b60006020820190508181036000830152611ac5816116fa565b9050919050565b60006020820190508181036000830152611ae581611760565b9050919050565b60006020820190508181036000830152611b05816117c6565b9050919050565b60006020820190508181036000830152611b258161182c565b9050919050565b60006020820190508181036000830152611b4581611892565b9050919050565b60006020820190508181036000830152611b65816118d2565b9050919050565b6000602082019050611b816000830184611912565b92915050565b6000602082019050611b9c6000830184611921565b92915050565b6000602082019050611bb76000830184611930565b92915050565b600060c082019050611bd26000830189611930565b611bdf6020830188611912565b611bec6040830187611912565b611bf96060830186611912565b611c066080830185611912565b611c1360a0830184611912565b979650505050505050565b6000604051905081810181811067ffffffffffffffff82111715611c4157600080fd5b8060405250919050565b600067ffffffffffffffff821115611c6257600080fd5b602082029050919050565b600082825260208201905092915050565b6000611c8982611cc2565b9050919050565b60008115159050919050565b6000819050611caa82611d56565b919050565b6000819050611cbd82611d63565b919050565b600073ffffffffffffffffffffffffffffffffffffffff82169050919050565b6000819050919050565b600063ffffffff82169050919050565b6000611d0782611d0e565b9050919050565b6000611d1982611cc2565b9050919050565b6000611d2b82611c9c565b9050919050565b6000611d3d82611caf565b9050919050565b6000611d4f82611cec565b9050919050565b60058110611d6057fe5b50565b60058110611d6d57fe5b50565b611d7981611c7e565b8114611d8457600080fd5b50565b611d9081611c90565b8114611d9b57600080fd5b50565b611da781611ce2565b8114611db257600080fd5b50565b611dbe81611cec565b8114611dc957600080fd5b5056fea365627a7a723158209222f6b161cbee2cae389840896c0b0d59e5679a47dae01c863aad4f8be2aacf6c6578706572696d656e74616cf564736f6c634300050c0040",
  "source": "pragma solidity ^0.5.11;\npragma experimental ABIEncoderV2;\n\nimport \"./PeggedToken.sol\";\nimport \"./Loan.sol\";\nimport \"./SystemLoans.sol\";\nimport \"./SystemFeeds.sol\";\nimport \"./PriceFeed.sol\";\n\ncontract System {\n    PeggedToken public peggedToken;\n    address public systemLoansAddress;\n    address public systemFeedsAddress;\n    address public systemSavingsAddress;\n    uint256 public firstTime;\n\n    constructor(\n        address _peggedTokenAddress\n    ) public {\n        require(address(peggedToken) == address(0), \"peggedToken address should be 0\");\n        require(_peggedTokenAddress != address(0), \"_peggedTokenAddress should not be 0\");\n        peggedToken = PeggedToken(_peggedTokenAddress);\n        firstTime = block.timestamp;\n    }\n\n    function initialize(\n        address _systemFeedsAddress,\n        address _systemLoansAddress,\n        address _systemSavingsAddress\n    )\n    public\n    {\n        require(systemFeedsAddress == address(0), \"systemFeedsAddress should be 0\");\n        require(_systemFeedsAddress != address(0), \"_systemFeedsAddress should not be 0\");\n        require(systemLoansAddress == address(0), \"systemLoansAddress should be 0\");\n        require(_systemLoansAddress != address(0), \"_systemLoansAddress should not be 0\");\n        require(systemSavingsAddress == address(0), \"systemSavingsAddress should be 0\");\n        require(_systemSavingsAddress != address(0), \"systemSavingsAddress should not be 0\");\n        systemFeedsAddress = _systemFeedsAddress;\n        systemLoansAddress = _systemLoansAddress;\n        systemSavingsAddress = _systemSavingsAddress;\n    }\n\n    uint32 constant DAYS_PER_WEEK = 7;\n    uint32 constant UNITS_PER_PERIOD = 5;\n    uint32 constant ORDERS_OF_PERIODS = 5; // 0 (~1 mnth) , 1 (~0.48 yr), 2 (~2.4 yr), 3 (~12 yr), 4 (~60 yr) - Total (~299.45 yr)\n\n    SystemVariables[DAYS_PER_WEEK] public dailySystemVariables;\n    uint256 public lastFinalizedDay;\n    SystemVariables[ORDERS_OF_PERIODS][UNITS_PER_PERIOD] public periodicSystemVariables;\n    uint256[ORDERS_OF_PERIODS] public lastFinalizedPeriodUnit;\n\n    struct SystemVariables {\n        uint32 startDay;\n        uint256 ethPrice;\n        uint256 pegPrice;\n        uint256 loansFeeRate;\n        uint256 feedsFeeRate;\n        uint256 savingsInterestRate;\n    }\n\n    uint32 constant public HIGH_TRUST_FEEDS = 5; // Maximum number of high trust price feeds\n    uint32 constant public MEDIUM_TRUST_FEEDS = 25; // Maximum number of medium trust price feeds\n    SystemFeeds.FeedProcessState[MEDIUM_TRUST_FEEDS] public feedFinalizedStateList;\n\n    function finalizePriceFeedState\n    (\n        uint32 finalizeDay,\n        SystemFeeds.FeedProcessState[MEDIUM_TRUST_FEEDS] memory _feedFinalizedStateList\n    )\n    public\n    {\n        require(msg.sender == systemFeedsAddress, \"caller must be system feeds contract\");\n        lastFinalizedDay = finalizeDay;\n        dailySystemVariables[finalizeDay % 7].ethPrice = _feedFinalizedStateList[0].ethPrice;\n        dailySystemVariables[finalizeDay % 7].pegPrice = _feedFinalizedStateList[0].pegPrice;\n        dailySystemVariables[finalizeDay % 7].startDay = finalizeDay;\n\n        emit ConsoleLog(\">System.finalizeVariables finalizeDay\");\n        emit ConsoleLogNumber(finalizeDay);\n\n        for(uint32 i = 0; i < MEDIUM_TRUST_FEEDS; i++) {\n            feedFinalizedStateList[i] = _feedFinalizedStateList[i];\n        }\n    }\n\n    uint32 constant SECONDS_PER_DAY = 86400; // SECONDS_PER_MINUTE * MINUTES_PER_HOUR * HOURS_PER_DAY = 60 * 60 * 24\n\n\n    function calculateInterest\n    (\n        uint256 _lastInterestTime,\n        uint256 _callTime,\n        uint256 _registeredBalance\n    )\n    public\n    pure\n    returns (uint256)\n    {\n        return (2 ** 16 * (_callTime - _lastInterestTime) * _registeredBalance) / (100 * SECONDS_PER_DAY * 356);\n    }\n\n    enum DelayedPriceReportingState { Unspecified, Normal, Unstable, Disputed, Empty }\n\n    function getDelayedPrice() public returns (DelayedPriceReportingState, uint256) {\n        return (DelayedPriceReportingState.Empty, 0);\n    }\n\n    enum InstantPriceReportingState { Unspecified, Empty, Stable, Unstable, Dispute }\n    InstantPriceReportingState public instantPriceReportingState = InstantPriceReportingState.Empty;\n    uint256 public lastInstantPrice;\n\n    function getInstantPrice() public view returns (InstantPriceReportingState, uint256) {\n        return (instantPriceReportingState, lastInstantPrice);\n    }\n\n    mapping (address => TrustedPriceFeedState) public trustedPriceFeedMap;\n    struct TrustedPriceFeedState {\n        bool isTrustedPriceFeed;\n        uint256 lastInstantEthPrice;\n        uint256 lastInstantCallTime;\n    }\n\n    function reportInstantPrice(address _callingPriceFeedAddress, PriceFeed.InstantPrice memory _instantPrice) public {\n        require(msg.sender == systemFeedsAddress, \"caller must be system feeds contract\");\n        setCallTime();\n\n        trustedPriceFeedMap[_callingPriceFeedAddress].isTrustedPriceFeed = true;\n        trustedPriceFeedMap[_callingPriceFeedAddress].lastInstantEthPrice = _instantPrice.ethPrice;\n        trustedPriceFeedMap[_callingPriceFeedAddress].lastInstantCallTime = _instantPrice.callTime;\n\n        uint256[HIGH_TRUST_FEEDS] memory sortedEthPrices; // Largest value at index 0 (top), Smallest value at last index (bottom)\n        uint256 sum;\n        uint32 count;\n        for (uint32 i = 0; i < HIGH_TRUST_FEEDS; i++) { // Iterate through valid prices\n            TrustedPriceFeedState storage trustedFeedState = trustedPriceFeedMap[feedFinalizedStateList[i].priceFeedAddress];\n            if(trustedFeedState.isTrustedPriceFeed){\n                if(trustedFeedState.lastInstantEthPrice != 0) {\n                    if ((callTime - trustedFeedState.lastInstantCallTime) / SECONDS_PER_DAY == 0) {\n                        sum += trustedFeedState.lastInstantEthPrice;\n                        sortedEthPrices[count] = trustedFeedState.lastInstantEthPrice;\n                        bubbleSort(sortedEthPrices, count);\n                        count++;\n                    }\n                }\n            }\n        }\n        uint256 averageEthPrice = sum / count;\n\n        // Pick instant price to be just the position below median\n        uint32 topIndex = 0;\n        uint32 bottomIndex = count - 1;\n        while(bottomIndex > 2 + topIndex) {\n            topIndex++;\n            bottomIndex--;\n        }\n        lastInstantPrice = sortedEthPrices[bottomIndex];\n\n        if (count == 0) { // There are no instant prices reported\n            instantPriceReportingState = InstantPriceReportingState.Empty;\n        } else if ((sortedEthPrices[0] - sortedEthPrices[count - 1]) * 100 > averageEthPrice * 20 ) { // Max - Min > 20% * Avg - Disputed state\n            instantPriceReportingState = InstantPriceReportingState.Dispute;\n        } else if ((sortedEthPrices[0] - sortedEthPrices[count - 1]) * 100 > averageEthPrice * 5 ) { // Max - Min > 5% * Avg - Unstable state\n            instantPriceReportingState = InstantPriceReportingState.Unstable;\n        } else { // We are in stable state\n            instantPriceReportingState = InstantPriceReportingState.Stable;\n        }\n    }\n\n    function bubbleSort(uint256[HIGH_TRUST_FEEDS] memory array, uint32 index) private {\n        if (index > 0 && array[index] > array[index - 1]) {\n            uint256 swap = array[index];\n            array[index] = array[index - 1];\n            array[index - 1] = swap;\n\n            bubbleSort(array, index - 1);\n        }\n    }\n\n    uint256 public callTime;\n    function setCallTime() private\n    {\n        callTime = block.timestamp;\n    }\n\n    event ConsoleLog(string message);\n    event ConsoleLogNumber(uint256 number);\n\n}",
  "sourcePath": "/Users/nimakamoosi/repos/nimakam-private/stable-coin/ethereum/contracts/System.sol",
  "compiler": {
    "name": "solc",
    "version": "0.5.12+commit.7709ece9.Emscripten.clang"
  },
  "schemaVersion": "3.0.19",
  "updatedAt": "2020-01-22T22:16:12.157Z",
  "devdoc": {
    "methods": {}
  },
  "userdoc": {
    "methods": {}
  }
}