{
  "contractName": "Loan",
  "abi": [
    {
      "inputs": [
        {
          "internalType": "address",
          "name": "_owner",
          "type": "address"
        },
        {
          "internalType": "address",
          "name": "_systemAddress",
          "type": "address"
        },
        {
          "internalType": "address",
          "name": "_peggedTokenAddress",
          "type": "address"
        }
      ],
      "payable": false,
      "stateMutability": "nonpayable",
      "type": "constructor"
    },
    {
      "anonymous": false,
      "inputs": [
        {
          "indexed": false,
          "internalType": "string",
          "name": "message",
          "type": "string"
        }
      ],
      "name": "ConsoleLog",
      "type": "event"
    },
    {
      "anonymous": false,
      "inputs": [
        {
          "indexed": false,
          "internalType": "uint256",
          "name": "number",
          "type": "uint256"
        }
      ],
      "name": "ConsoleLogNumber",
      "type": "event"
    },
    {
      "constant": true,
      "inputs": [],
      "name": "ALLOCATION_100_PERCENT",
      "outputs": [
        {
          "internalType": "uint32",
          "name": "",
          "type": "uint32"
        }
      ],
      "payable": false,
      "stateMutability": "view",
      "type": "function"
    },
    {
      "constant": true,
      "inputs": [],
      "name": "MAX_ALLOCATIONS",
      "outputs": [
        {
          "internalType": "uint32",
          "name": "",
          "type": "uint32"
        }
      ],
      "payable": false,
      "stateMutability": "view",
      "type": "function"
    },
    {
      "constant": true,
      "inputs": [],
      "name": "callTime",
      "outputs": [
        {
          "internalType": "uint256",
          "name": "",
          "type": "uint256"
        }
      ],
      "payable": false,
      "stateMutability": "view",
      "type": "function"
    },
    {
      "constant": true,
      "inputs": [],
      "name": "currentIssuance",
      "outputs": [
        {
          "internalType": "uint256",
          "name": "",
          "type": "uint256"
        }
      ],
      "payable": false,
      "stateMutability": "view",
      "type": "function"
    },
    {
      "constant": true,
      "inputs": [],
      "name": "isPriceFeedAllocated",
      "outputs": [
        {
          "internalType": "bool",
          "name": "",
          "type": "bool"
        }
      ],
      "payable": false,
      "stateMutability": "view",
      "type": "function"
    },
    {
      "constant": true,
      "inputs": [],
      "name": "lastChangeTime",
      "outputs": [
        {
          "internalType": "uint256",
          "name": "",
          "type": "uint256"
        }
      ],
      "payable": false,
      "stateMutability": "view",
      "type": "function"
    },
    {
      "constant": true,
      "inputs": [],
      "name": "owner",
      "outputs": [
        {
          "internalType": "address",
          "name": "",
          "type": "address"
        }
      ],
      "payable": false,
      "stateMutability": "view",
      "type": "function"
    },
    {
      "constant": true,
      "inputs": [],
      "name": "peggedToken",
      "outputs": [
        {
          "internalType": "contract PeggedToken",
          "name": "",
          "type": "address"
        }
      ],
      "payable": false,
      "stateMutability": "view",
      "type": "function"
    },
    {
      "constant": true,
      "inputs": [],
      "name": "prepaidFees",
      "outputs": [
        {
          "internalType": "uint256",
          "name": "",
          "type": "uint256"
        }
      ],
      "payable": false,
      "stateMutability": "view",
      "type": "function"
    },
    {
      "constant": true,
      "inputs": [
        {
          "internalType": "uint256",
          "name": "",
          "type": "uint256"
        }
      ],
      "name": "priceFeedAllocations",
      "outputs": [
        {
          "internalType": "address",
          "name": "priceFeedAddress",
          "type": "address"
        },
        {
          "internalType": "uint32",
          "name": "percentAllocation",
          "type": "uint32"
        },
        {
          "internalType": "bool",
          "name": "isAllocation",
          "type": "bool"
        }
      ],
      "payable": false,
      "stateMutability": "view",
      "type": "function"
    },
    {
      "constant": true,
      "inputs": [],
      "name": "system",
      "outputs": [
        {
          "internalType": "contract System",
          "name": "",
          "type": "address"
        }
      ],
      "payable": false,
      "stateMutability": "view",
      "type": "function"
    },
    {
      "constant": true,
      "inputs": [],
      "name": "systemLoans",
      "outputs": [
        {
          "internalType": "contract SystemLoans",
          "name": "",
          "type": "address"
        }
      ],
      "payable": false,
      "stateMutability": "view",
      "type": "function"
    },
    {
      "constant": false,
      "inputs": [],
      "name": "depositEth",
      "outputs": [],
      "payable": true,
      "stateMutability": "payable",
      "type": "function"
    },
    {
      "constant": false,
      "inputs": [
        {
          "components": [
            {
              "internalType": "address",
              "name": "priceFeedAddress",
              "type": "address"
            },
            {
              "internalType": "uint32",
              "name": "percentAllocation",
              "type": "uint32"
            },
            {
              "internalType": "bool",
              "name": "isAllocation",
              "type": "bool"
            }
          ],
          "internalType": "struct Loan.PriceFeedAllocation[5]",
          "name": "newPriceFeedAllocations",
          "type": "tuple[5]"
        }
      ],
      "name": "allocatePriceFeeds",
      "outputs": [],
      "payable": false,
      "stateMutability": "nonpayable",
      "type": "function"
    },
    {
      "constant": false,
      "inputs": [
        {
          "internalType": "uint256",
          "name": "_issuanceValue",
          "type": "uint256"
        }
      ],
      "name": "issueCurrency",
      "outputs": [],
      "payable": false,
      "stateMutability": "nonpayable",
      "type": "function"
    },
    {
      "constant": false,
      "inputs": [
        {
          "internalType": "uint256",
          "name": "_returnValue",
          "type": "uint256"
        }
      ],
      "name": "returnCurrency",
      "outputs": [],
      "payable": false,
      "stateMutability": "nonpayable",
      "type": "function"
    },
    {
      "constant": false,
      "inputs": [
        {
          "internalType": "address payable",
          "name": "_withdrawToAddress",
          "type": "address"
        },
        {
          "internalType": "uint256",
          "name": "_withdrawValue",
          "type": "uint256"
        }
      ],
      "name": "withdrawEth",
      "outputs": [],
      "payable": false,
      "stateMutability": "nonpayable",
      "type": "function"
    },
    {
      "constant": false,
      "inputs": [
        {
          "internalType": "address",
          "name": "_withdrawToAddress",
          "type": "address"
        },
        {
          "internalType": "uint256",
          "name": "_withdrawValue",
          "type": "uint256"
        }
      ],
      "name": "withdrawCurrency",
      "outputs": [],
      "payable": false,
      "stateMutability": "nonpayable",
      "type": "function"
    },
    {
      "constant": true,
      "inputs": [
        {
          "internalType": "address",
          "name": "x",
          "type": "address"
        }
      ],
      "name": "add2str",
      "outputs": [
        {
          "internalType": "string",
          "name": "str",
          "type": "string"
        }
      ],
      "payable": false,
      "stateMutability": "pure",
      "type": "function"
    },
    {
      "constant": true,
      "inputs": [
        {
          "internalType": "bytes1",
          "name": "b",
          "type": "bytes1"
        }
      ],
      "name": "char",
      "outputs": [
        {
          "internalType": "bytes1",
          "name": "c",
          "type": "bytes1"
        }
      ],
      "payable": false,
      "stateMutability": "pure",
      "type": "function"
    },
    {
      "constant": true,
      "inputs": [
        {
          "internalType": "uint256",
          "name": "value",
          "type": "uint256"
        }
      ],
      "name": "uint2str",
      "outputs": [
        {
          "internalType": "string",
          "name": "str",
          "type": "string"
        }
      ],
      "payable": false,
      "stateMutability": "pure",
      "type": "function"
    }
  ],
  "bytecode": "0x60806040523480156200001157600080fd5b5060405162002cff38038062002cff83398181016040526200003791908101906200015a565b826000806101000a81548173ffffffffffffffffffffffffffffffffffffffff021916908373ffffffffffffffffffffffffffffffffffffffff16021790555033600260006101000a81548173ffffffffffffffffffffffffffffffffffffffff021916908373ffffffffffffffffffffffffffffffffffffffff16021790555081600160006101000a81548173ffffffffffffffffffffffffffffffffffffffff021916908373ffffffffffffffffffffffffffffffffffffffff16021790555080600360006101000a81548173ffffffffffffffffffffffffffffffffffffffff021916908373ffffffffffffffffffffffffffffffffffffffff160217905550505050620001fe565b6000815190506200015481620001e4565b92915050565b6000806000606084860312156200017057600080fd5b6000620001808682870162000143565b9350506020620001938682870162000143565b9250506040620001a68682870162000143565b9150509250925092565b6000620001bd82620001c4565b9050919050565b600073ffffffffffffffffffffffffffffffffffffffff82169050919050565b620001ef81620001b0565b8114620001fb57600080fd5b50565b612af1806200020e6000396000f3fe6080604052600436106101295760003560e01c806347098309116100ab578063c61304fa1161006f578063c61304fa1461039c578063c90e3f1b146103d9578063d404808914610418578063ec40247f14610443578063f76f950e1461046e578063fb9883cb146104ab57610129565b806347098309146102b757806369f9ad2f146102e05780638da5cb5b1461031d57806395bf75fd14610348578063b9035b381461037357610129565b80631b9a91a4116100f25780631b9a91a4146102035780632cf0c8961461022c5780632f62acbd146102575780633020324014610282578063439370b1146102ad57610129565b8062e77aa61461012e57806302dee45914610159578063086e2f70146101845780630f5e07c7146101ad578063120339a8146101d8575b600080fd5b34801561013a57600080fd5b506101436104d4565b60405161015091906124e4565b60405180910390f35b34801561016557600080fd5b5061016e6104fa565b60405161017b91906124ae565b60405180910390f35b34801561019057600080fd5b506101ab60048036036101a69190810190611d6a565b61050d565b005b3480156101b957600080fd5b506101c26108db565b6040516101cf9190612677565b60405180910390f35b3480156101e457600080fd5b506101ed6108e1565b6040516101fa91906124ff565b60405180910390f35b34801561020f57600080fd5b5061022a60048036036102259190810190611cf2565b610907565b005b34801561023857600080fd5b50610241610aa7565b60405161024e9190612757565b60405180910390f35b34801561026357600080fd5b5061026c610aac565b6040516102799190612757565b60405180910390f35b34801561028e57600080fd5b50610297610ab1565b6040516102a49190612677565b60405180910390f35b6102b5610ab7565b005b3480156102c357600080fd5b506102de60048036036102d99190810190611de6565b610d27565b005b3480156102ec57600080fd5b5061030760048036036103029190810190611dbd565b61113d565b60405161031491906124c9565b60405180910390f35b34801561032957600080fd5b50610332611171565b60405161033f91906123f9565b60405180910390f35b34801561035457600080fd5b5061035d611196565b60405161036a919061251a565b60405180910390f35b34801561037f57600080fd5b5061039a60048036036103959190810190611de6565b6111bc565b005b3480156103a857600080fd5b506103c360048036036103be9190810190611cc9565b6115de565b6040516103d09190612535565b60405180910390f35b3480156103e557600080fd5b5061040060048036036103fb9190810190611de6565b61172d565b60405161040f9392919061243d565b60405180910390f35b34801561042457600080fd5b5061042d611794565b60405161043a9190612677565b60405180910390f35b34801561044f57600080fd5b5061045861179a565b6040516104659190612677565b60405180910390f35b34801561047a57600080fd5b5061049560048036036104909190810190611de6565b6117a0565b6040516104a29190612535565b60405180910390f35b3480156104b757600080fd5b506104d260048036036104cd9190810190611d2e565b6118d4565b005b600360009054906101000a900473ffffffffffffffffffffffffffffffffffffffff1681565b600c60009054906101000a900460ff1681565b3373ffffffffffffffffffffffffffffffffffffffff166000809054906101000a900473ffffffffffffffffffffffffffffffffffffffff1673ffffffffffffffffffffffffffffffffffffffff161461059c576040517f08c379a000000000000000000000000000000000000000000000000000000000815260040161059390612617565b60405180910390fd5b7f0f8db0708c4e6b233e2c285fe1ed66015dee71bd374ac8e835534be5f592d6a26040516105c990612577565b60405180910390a17f0f8db0708c4e6b233e2c285fe1ed66015dee71bd374ac8e835534be5f592d6a26105fd6004546117a0565b60405161060a9190612535565b60405180910390a1600260009054906101000a900473ffffffffffffffffffffffffffffffffffffffff1673ffffffffffffffffffffffffffffffffffffffff16636bc7cd3b6007836004546040518463ffffffff1660e01b815260040161067493929190612474565b600060405180830381600087803b15801561068e57600080fd5b505af11580156106a2573d6000803e3d6000fd5b505050506001600c60006101000a81548160ff021916908315150217905550600080905060008090505b600160050363ffffffff16811015610887578281600581106106ea57fe5b602002015160400151156108165782816005811061070457fe5b60200201516020015182019150606463ffffffff168263ffffffff161115610761576040517f08c379a0000000000000000000000000000000000000000000000000000000008152600401610758906125d7565b60405180910390fd5b82816005811061076d57fe5b60200201516007826005811061077f57fe5b0160008201518160000160006101000a81548173ffffffffffffffffffffffffffffffffffffffff021916908373ffffffffffffffffffffffffffffffffffffffff16021790555060208201518160000160146101000a81548163ffffffff021916908363ffffffff16021790555060408201518160000160186101000a81548160ff02191690831515021790555090505061087a565b6007816005811061082357fe5b01600080820160006101000a81549073ffffffffffffffffffffffffffffffffffffffff02191690556000820160146101000a81549063ffffffff02191690556000820160186101000a81549060ff021916905550505b80806001019150506106cc565b50606463ffffffff168163ffffffff16146108d7576040517f08c379a00000000000000000000000000000000000000000000000000000000081526004016108ce906125d7565b60405180910390fd5b5050565b600d5481565b600260009054906101000a900473ffffffffffffffffffffffffffffffffffffffff1681565b3373ffffffffffffffffffffffffffffffffffffffff166000809054906101000a900473ffffffffffffffffffffffffffffffffffffffff1673ffffffffffffffffffffffffffffffffffffffff1614610996576040517f08c379a000000000000000000000000000000000000000000000000000000000815260040161098d90612617565b60405180910390fd5b600260009054906101000a900473ffffffffffffffffffffffffffffffffffffffff1673ffffffffffffffffffffffffffffffffffffffff166311adaeee3073ffffffffffffffffffffffffffffffffffffffff1631833073ffffffffffffffffffffffffffffffffffffffff16310360045460076040518563ffffffff1660e01b8152600401610a2a94939291906126bc565b600060405180830381600087803b158015610a4457600080fd5b505af1158015610a58573d6000803e3d6000fd5b505050508173ffffffffffffffffffffffffffffffffffffffff166108fc829081150290604051600060405180830381858888f19350505050158015610aa2573d6000803e3d6000fd5b505050565b606481565b600581565b60055481565b3373ffffffffffffffffffffffffffffffffffffffff166000809054906101000a900473ffffffffffffffffffffffffffffffffffffffff1673ffffffffffffffffffffffffffffffffffffffff1614610b46576040517f08c379a0000000000000000000000000000000000000000000000000000000008152600401610b3d90612617565b60405180910390fd5b600c60009054906101000a900460ff16610b95576040517f08c379a0000000000000000000000000000000000000000000000000000000008152600401610b8c90612657565b60405180910390fd5b7f0f8db0708c4e6b233e2c285fe1ed66015dee71bd374ac8e835534be5f592d6a2604051610bc2906125f7565b60405180910390a17f0f8db0708c4e6b233e2c285fe1ed66015dee71bd374ac8e835534be5f592d6a2610c0b3073ffffffffffffffffffffffffffffffffffffffff16316117a0565b604051610c189190612535565b60405180910390a17f0f8db0708c4e6b233e2c285fe1ed66015dee71bd374ac8e835534be5f592d6a2610c4a346117a0565b604051610c579190612535565b60405180910390a1600260009054906101000a900473ffffffffffffffffffffffffffffffffffffffff1673ffffffffffffffffffffffffffffffffffffffff166311adaeee343073ffffffffffffffffffffffffffffffffffffffff1631033073ffffffffffffffffffffffffffffffffffffffff163160045460076040518563ffffffff1660e01b8152600401610cf394939291906126bc565b600060405180830381600087803b158015610d0d57600080fd5b505af1158015610d21573d6000803e3d6000fd5b50505050565b3373ffffffffffffffffffffffffffffffffffffffff166000809054906101000a900473ffffffffffffffffffffffffffffffffffffffff1673ffffffffffffffffffffffffffffffffffffffff1614610db6576040517f08c379a0000000000000000000000000000000000000000000000000000000008152600401610dad90612617565b60405180910390fd5b610dbe611b59565b7f0f8db0708c4e6b233e2c285fe1ed66015dee71bd374ac8e835534be5f592d6a2604051610deb90612557565b60405180910390a17f0f8db0708c4e6b233e2c285fe1ed66015dee71bd374ac8e835534be5f592d6a2610e1d826117a0565b604051610e2a9190612535565b60405180910390a160006201518063ffffffff16600654600d540381610e4c57fe5b0490506000618e94600483600454020281610e6357fe5b049050600554811015610e855780600560008282540392505081905550610e95565b6000600581905550600554810390505b600260009054906101000a900473ffffffffffffffffffffffffffffffffffffffff1673ffffffffffffffffffffffffffffffffffffffff1663745b824860045485600454033073ffffffffffffffffffffffffffffffffffffffff1631600760016040518663ffffffff1660e01b8152600401610f17959493929190612702565b600060405180830381600087803b158015610f3157600080fd5b505af1158015610f45573d6000803e3d6000fd5b505050507f0f8db0708c4e6b233e2c285fe1ed66015dee71bd374ac8e835534be5f592d6a2604051610f7690612597565b60405180910390a17f0f8db0708c4e6b233e2c285fe1ed66015dee71bd374ac8e835534be5f592d6a2610fa8826117a0565b604051610fb59190612535565b60405180910390a1600360009054906101000a900473ffffffffffffffffffffffffffffffffffffffff1673ffffffffffffffffffffffffffffffffffffffff1663a9059cbb600260009054906101000a900473ffffffffffffffffffffffffffffffffffffffff16836040518363ffffffff1660e01b815260040161103c929190612414565b602060405180830381600087803b15801561105657600080fd5b505af115801561106a573d6000803e3d6000fd5b505050506040513d601f19601f8201168201806040525061108e9190810190611d94565b50600260009054906101000a900473ffffffffffffffffffffffffffffffffffffffff1673ffffffffffffffffffffffffffffffffffffffff1663f89037188260076040518363ffffffff1660e01b81526004016110ed929190612692565b600060405180830381600087803b15801561110757600080fd5b505af115801561111b573d6000803e3d6000fd5b5050505082600460008282540392505081905550600d54600681905550505050565b6000600a8260f81c60ff16101561115f5760308260f81c0160f81b905061116c565b60578260f81c0160f81b90505b919050565b6000809054906101000a900473ffffffffffffffffffffffffffffffffffffffff1681565b600160009054906101000a900473ffffffffffffffffffffffffffffffffffffffff1681565b3373ffffffffffffffffffffffffffffffffffffffff166000809054906101000a900473ffffffffffffffffffffffffffffffffffffffff1673ffffffffffffffffffffffffffffffffffffffff161461124b576040517f08c379a000000000000000000000000000000000000000000000000000000000815260040161124290612617565b60405180910390fd5b611253611b59565b7f0f8db0708c4e6b233e2c285fe1ed66015dee71bd374ac8e835534be5f592d6a2604051611280906125b7565b60405180910390a17f0f8db0708c4e6b233e2c285fe1ed66015dee71bd374ac8e835534be5f592d6a26112b46004546117a0565b6040516112c19190612535565b60405180910390a17f0f8db0708c4e6b233e2c285fe1ed66015dee71bd374ac8e835534be5f592d6a26112f3826117a0565b6040516113009190612535565b60405180910390a17f0f8db0708c4e6b233e2c285fe1ed66015dee71bd374ac8e835534be5f592d6a26113493073ffffffffffffffffffffffffffffffffffffffff16316117a0565b6040516113569190612535565b60405180910390a1600260009054906101000a900473ffffffffffffffffffffffffffffffffffffffff1673ffffffffffffffffffffffffffffffffffffffff1663745b824860045483600454013073ffffffffffffffffffffffffffffffffffffffff1631600760006040518663ffffffff1660e01b81526004016113e0959493929190612702565b600060405180830381600087803b1580156113fa57600080fd5b505af115801561140e573d6000803e3d6000fd5b5050505060006201518063ffffffff16600654600d54038161142c57fe5b049050600080905060006006541461145e5761016d606460048460045402028161145257fe5b048161145a57fe5b0490505b600360009054906101000a900473ffffffffffffffffffffffffffffffffffffffff1673ffffffffffffffffffffffffffffffffffffffff1663a9059cbb600260009054906101000a900473ffffffffffffffffffffffffffffffffffffffff16836040518363ffffffff1660e01b81526004016114dd929190612414565b602060405180830381600087803b1580156114f757600080fd5b505af115801561150b573d6000803e3d6000fd5b505050506040513d601f19601f8201168201806040525061152f9190810190611d94565b50600260009054906101000a900473ffffffffffffffffffffffffffffffffffffffff1673ffffffffffffffffffffffffffffffffffffffff1663f89037188260076040518363ffffffff1660e01b815260040161158e929190612692565b600060405180830381600087803b1580156115a857600080fd5b505af11580156115bc573d6000803e3d6000fd5b5050505082600460008282540192505081905550600d54600681905550505050565b60608060286040519080825280601f01601f1916602001820160405280156116155781602001600182028038833980820191505090505b50905060008090505b60148110156117235760008160130360080260020a8573ffffffffffffffffffffffffffffffffffffffff168161165157fe5b0460f81b9050600060108260f81c60ff168161166957fe5b0460f81b905060008160f81c6010028360f81c0360f81b905061168b8261113d565b85856002028151811061169a57fe5b60200101907effffffffffffffffffffffffffffffffffffffffffffffffffffffffffffff1916908160001a9053506116d28161113d565b8560018660020201815181106116e457fe5b60200101907effffffffffffffffffffffffffffffffffffffffffffffffffffffffffffff1916908160001a905350505050808060010191505061161e565b5080915050919050565b6007816005811061173a57fe5b016000915090508060000160009054906101000a900473ffffffffffffffffffffffffffffffffffffffff16908060000160149054906101000a900463ffffffff16908060000160189054906101000a900460ff16905083565b60045481565b60065481565b6060600082905060008114156117ee576040518060400160405280600181526020017f30000000000000000000000000000000000000000000000000000000000000008152509150506118cf565b600081905060005b60008214611818578080600101915050600a828161181057fe5b0491506117f6565b6060816040519080825280601f01601f19166020018201604052801561184d5781602001600182028038833980820191505090505b50905060006001830390505b600085146118c657600a858161186b57fe5b0660300160f81b8282806001900393508151811061188557fe5b60200101907effffffffffffffffffffffffffffffffffffffffffffffffffffffffffffff1916908160001a905350600a85816118be57fe5b049450611859565b81955050505050505b919050565b3373ffffffffffffffffffffffffffffffffffffffff166000809054906101000a900473ffffffffffffffffffffffffffffffffffffffff1673ffffffffffffffffffffffffffffffffffffffff1614611963576040517f08c379a000000000000000000000000000000000000000000000000000000000815260040161195a90612617565b60405180910390fd5b7f0f8db0708c4e6b233e2c285fe1ed66015dee71bd374ac8e835534be5f592d6a260405161199090612637565b60405180910390a17f0f8db0708c4e6b233e2c285fe1ed66015dee71bd374ac8e835534be5f592d6a26119c2836115de565b6040516119cf9190612535565b60405180910390a17f0f8db0708c4e6b233e2c285fe1ed66015dee71bd374ac8e835534be5f592d6a2611a01826117a0565b604051611a0e9190612535565b60405180910390a1600360009054906101000a900473ffffffffffffffffffffffffffffffffffffffff1673ffffffffffffffffffffffffffffffffffffffff1663a9059cbb83836040518363ffffffff1660e01b8152600401611a73929190612414565b602060405180830381600087803b158015611a8d57600080fd5b505af1158015611aa1573d6000803e3d6000fd5b505050506040513d601f19601f82011682018060405250611ac59190810190611d94565b50600260009054906101000a900473ffffffffffffffffffffffffffffffffffffffff1673ffffffffffffffffffffffffffffffffffffffff1663fb9883cb83836040518363ffffffff1660e01b8152600401611b23929190612414565b600060405180830381600087803b158015611b3d57600080fd5b505af1158015611b51573d6000803e3d6000fd5b505050505050565b42600d81905550565b600081359050611b7181612a24565b92915050565b600081359050611b8681612a3b565b92915050565b600082601f830112611b9d57600080fd5b6005611bb0611bab8261279f565b612772565b91508183856060840282011115611bc657600080fd5b60005b83811015611bf65781611bdc8882611c3f565b845260208401935060608301925050600181019050611bc9565b5050505092915050565b600081359050611c0f81612a52565b92915050565b600081519050611c2481612a52565b92915050565b600081359050611c3981612a69565b92915050565b600060608284031215611c5157600080fd5b611c5b6060612772565b90506000611c6b84828501611b62565b6000830152506020611c7f84828501611cb4565b6020830152506040611c9384828501611c00565b60408301525092915050565b600081359050611cae81612a80565b92915050565b600081359050611cc381612a97565b92915050565b600060208284031215611cdb57600080fd5b6000611ce984828501611b62565b91505092915050565b60008060408385031215611d0557600080fd5b6000611d1385828601611b77565b9250506020611d2485828601611c9f565b9150509250929050565b60008060408385031215611d4157600080fd5b6000611d4f85828601611b62565b9250506020611d6085828601611c9f565b9150509250929050565b60006101e08284031215611d7d57600080fd5b6000611d8b84828501611b8c565b91505092915050565b600060208284031215611da657600080fd5b6000611db484828501611c15565b91505092915050565b600060208284031215611dcf57600080fd5b6000611ddd84828501611c2a565b91505092915050565b600060208284031215611df857600080fd5b6000611e0684828501611c9f565b91505092915050565b6000611e1b8383612333565b60608301905092915050565b6000611e338383612375565b60608301905092915050565b611e4881612869565b82525050565b611e5781612869565b82525050565b611e66816127d5565b611e708184612810565b9250611e7b826127c1565b8060005b83811015611eac578151611e938782611e0f565b9650611e9e836127f6565b925050600181019050611e7f565b505050505050565b611ebd816127e0565b611ec78184612810565b9250611ed2826127cb565b8060005b83811015611f025781611ee98782611e27565b9650611ef483612803565b925050600181019050611ed6565b505050505050565b611f138161288d565b82525050565b611f228161288d565b82525050565b611f3181612899565b82525050565b611f40816128ff565b82525050565b611f4f81612923565b82525050565b611f5e81612947565b82525050565b6000611f6f826127eb565b611f79818561281b565b9350611f8981856020860161296b565b611f92816129ec565b840191505092915050565b6000611faa60218361281b565b91507f3e4c6f616e2e72657475726e43757272656e6379205f72657475726e56616c7560008301527f65000000000000000000000000000000000000000000000000000000000000006020830152604082019050919050565b600061201060288361281b565b91507f3e4c6f616e2e616c6c6f63617465507269636546656564732063757272656e7460008301527f49737375616e63650000000000000000000000000000000000000000000000006020830152604082019050919050565b600061207660268361281b565b91507f3e4c6f616e2e697373756543757272656e63792066656553696e63654c61737460008301527f4368616e676500000000000000000000000000000000000000000000000000006020830152604082019050919050565b60006120dc60488361281b565b91507f3e4c6f616e2e697373756543757272656e63792063757272656e74497373756160008301527f6e6365205f69737375616e636556616c7565206164647265737328746869732960208301527f2e62616c616e63650000000000000000000000000000000000000000000000006040830152606082019050919050565b6000612168602d8361281b565b91507f53756d206f66206e657720616c6c6f636174696f6e2070657263656e7473207360008301527f686f756c642062652031303025000000000000000000000000000000000000006020830152604082019050919050565b60006121ce602a8361281b565b91507f6465706f73697445746820616464726573732874686973292e62616c616e636560008301527f206d73672e76616c7565000000000000000000000000000000000000000000006020830152604082019050919050565b600061223460168361281b565b91507f73656e6465722073686f756c64206265206f776e6572000000000000000000006000830152602082019050919050565b600061227460338361281b565b91507f3e776974686472617743757272656e6379205f7769746864726177546f41646460008301527f72657373205f776974686472617756616c7565000000000000000000000000006020830152604082019050919050565b60006122da602c8361281b565b91507f7072696365206665656420616c6c6f636174696f6e732073686f756c6420626560008301527f20696e697469616c697a656400000000000000000000000000000000000000006020830152604082019050919050565b6060820160008201516123496000850182611e3f565b50602082015161235c60208501826123db565b50604082015161236f6040850182611f0a565b50505050565b60608201600080830154905061238a8161299e565b6123976000860182611e3f565b506123a1816129b8565b6123ae60208601826123db565b506123b8816129d2565b6123c56040860182611f0a565b5050505050565b6123d5816128e5565b82525050565b6123e4816128ef565b82525050565b6123f3816128ef565b82525050565b600060208201905061240e6000830184611e4e565b92915050565b60006040820190506124296000830185611e4e565b61243660208301846123cc565b9392505050565b60006060820190506124526000830186611e4e565b61245f60208301856123ea565b61246c6040830184611f19565b949350505050565b60006103e08201905061248a6000830186611eb4565b6124986101e0830185611e5d565b6124a66103c08301846123cc565b949350505050565b60006020820190506124c36000830184611f19565b92915050565b60006020820190506124de6000830184611f28565b92915050565b60006020820190506124f96000830184611f37565b92915050565b60006020820190506125146000830184611f46565b92915050565b600060208201905061252f6000830184611f55565b92915050565b6000602082019050818103600083015261254f8184611f64565b905092915050565b6000602082019050818103600083015261257081611f9d565b9050919050565b6000602082019050818103600083015261259081612003565b9050919050565b600060208201905081810360008301526125b081612069565b9050919050565b600060208201905081810360008301526125d0816120cf565b9050919050565b600060208201905081810360008301526125f08161215b565b9050919050565b60006020820190508181036000830152612610816121c1565b9050919050565b6000602082019050818103600083015261263081612227565b9050919050565b6000602082019050818103600083015261265081612267565b9050919050565b60006020820190508181036000830152612670816122cd565b9050919050565b600060208201905061268c60008301846123cc565b92915050565b6000610200820190506126a860008301856123cc565b6126b56020830184611eb4565b9392505050565b6000610240820190506126d260008301876123cc565b6126df60208301866123cc565b6126ec60408301856123cc565b6126f96060830184611eb4565b95945050505050565b60006102608201905061271860008301886123cc565b61272560208301876123cc565b61273260408301866123cc565b61273f6060830185611eb4565b61274d610240830184611f19565b9695505050505050565b600060208201905061276c60008301846123ea565b92915050565b6000604051905081810181811067ffffffffffffffff8211171561279557600080fd5b8060405250919050565b600067ffffffffffffffff8211156127b657600080fd5b602082029050919050565b6000819050919050565b6000819050919050565b600060059050919050565b600060059050919050565b600081519050919050565b6000602082019050919050565b6000600182019050919050565b600081905092915050565b600082825260208201905092915050565b600073ffffffffffffffffffffffffffffffffffffffff82169050919050565b600060ff82169050919050565b600063ffffffff82169050919050565b6000612874826128c5565b9050919050565b6000612886826128c5565b9050919050565b60008115159050919050565b60007fff0000000000000000000000000000000000000000000000000000000000000082169050919050565b600073ffffffffffffffffffffffffffffffffffffffff82169050919050565b6000819050919050565b600063ffffffff82169050919050565b600061290a82612911565b9050919050565b600061291c826128c5565b9050919050565b600061292e82612935565b9050919050565b6000612940826128c5565b9050919050565b600061295282612959565b9050919050565b6000612964826128c5565b9050919050565b60005b8381101561298957808201518184015260208101905061296e565b83811115612998576000848401525b50505050565b60006129b16129ac836129fd565b61282c565b9050919050565b60006129cb6129c683612a0a565b612859565b9050919050565b60006129e56129e083612a17565b61284c565b9050919050565b6000601f19601f8301169050919050565b60008160001c9050919050565b60008160a01c9050919050565b60008160c01c9050919050565b612a2d81612869565b8114612a3857600080fd5b50565b612a448161287b565b8114612a4f57600080fd5b50565b612a5b8161288d565b8114612a6657600080fd5b50565b612a7281612899565b8114612a7d57600080fd5b50565b612a89816128e5565b8114612a9457600080fd5b50565b612aa0816128ef565b8114612aab57600080fd5b5056fea365627a7a72315820257e2642a8f3d065cfd8376e40273d588c96de657a8afbe6f16507640561e44d6c6578706572696d656e74616cf564736f6c634300050c0040",
  "source": "pragma solidity ^0.5.11;\npragma experimental ABIEncoderV2;\n\nimport \"./System.sol\";\nimport \"./PeggedToken.sol\";\n\n/// @author Nima Kamoosi\n/// @title Loan contract of the \\{\\{PegLoan\\}\\} currency peg system\n/// @notice The Loan contract holds the state of a given loan, as part of the \\{\\{PegLoan\\}\\} currency peg system.\n/// It works alongside the System, PriceFeed, and PeggedCurrency contracts to make the whole system function.\n/// @dev The contained state includes the contract owner, ETH deposit balance the issued currency balance, the currency balance,\n/// price feed allocations, last date of fee payments and any pending liquidation requests.\ncontract Loan {\n    address public owner; // Loan owner account or contract\n    System public system; // The main system contract instance\n    SystemLoans public systemLoans; // The main system loans contract instance\n    PeggedToken public peggedToken; // The main pegged token contract instance\n\n    uint32 constant public MAX_ALLOCATIONS = 5; // Maximum price feed allocations\n    uint32 constant public ALLOCATION_100_PERCENT = 100; // Allocation percent value at 100% = 100\n    uint32 constant SECONDS_PER_DAY = 86400; // SECONDS_PER_MINUTE * MINUTES_PER_HOUR * HOURS_PER_DAY = 60 * 60 * 24\n    uint256 public currentIssuance;\n    uint256 public prepaidFees;\n    uint256 public lastChangeTime;\n\n    PriceFeedAllocation[MAX_ALLOCATIONS] public priceFeedAllocations;\n    bool public isPriceFeedAllocated;\n    struct PriceFeedAllocation {\n        address priceFeedAddress;\n        uint32 percentAllocation;\n        bool isAllocation;\n    }\n\n    /// Constructor\n    /// @param _owner is owner of the loan and is set at time of creation\n    /// @dev creats the loan instnace, sets its owner, and assigns the main system contract instance\n    constructor(\n        address _owner,\n        address _systemAddress,\n        address _peggedTokenAddress\n    ) public {\n        owner = _owner;\n        systemLoans = SystemLoans(msg.sender);\n        system = System(_systemAddress);\n        peggedToken = PeggedToken(_peggedTokenAddress);\n    }\n\n    function depositEth() public payable {\n        require(owner == msg.sender, \"sender should be owner\");\n        require(isPriceFeedAllocated, \"price feed allocations should be initialized\");\n\n        emit ConsoleLog(\"depositEth address(this).balance msg.value\");\n        emit ConsoleLog(uint2str(address(this).balance));\n        emit ConsoleLog(uint2str(msg.value));\n\n        systemLoans.changeDepositEth(address(this).balance - msg.value, address(this).balance, currentIssuance, priceFeedAllocations);\n    }\n\n    function allocatePriceFeeds(\n        PriceFeedAllocation[MAX_ALLOCATIONS] memory newPriceFeedAllocations\n    )\n    public\n    {\n        require(owner == msg.sender, \"sender should be owner\");\n\n        emit ConsoleLog(\">Loan.allocatePriceFeeds currentIssuance\");\n        emit ConsoleLog(uint2str(currentIssuance));\n\n        systemLoans.changeAllocation(priceFeedAllocations, newPriceFeedAllocations, currentIssuance);\n\n        isPriceFeedAllocated = true;\n        uint32 percentAllocationSum = 0;\n        for (uint i = 0; i < MAX_ALLOCATIONS - 1; i++) {\n            if(newPriceFeedAllocations[i].isAllocation)\n            {\n                percentAllocationSum += newPriceFeedAllocations[i].percentAllocation;\n                require(percentAllocationSum <= ALLOCATION_100_PERCENT, \"Sum of new allocation percents should be 100%\");\n                priceFeedAllocations[i] = newPriceFeedAllocations[i];\n            }\n            else\n            {\n                delete priceFeedAllocations[i];\n            }\n        }\n        require(percentAllocationSum == ALLOCATION_100_PERCENT, \"Sum of new allocation percents should be 100%\");\n    }\n\n    function issueCurrency(uint256 _issuanceValue) public {\n        require(owner == msg.sender, \"sender should be owner\");\n        setCallTime();\n\n        emit ConsoleLog(\">Loan.issueCurrency currentIssuance _issuanceValue address(this).balance\");\n        emit ConsoleLog(uint2str(currentIssuance));\n        emit ConsoleLog(uint2str(_issuanceValue));\n        emit ConsoleLog(uint2str(address(this).balance));\n\n        //systemLoans.issueCurrency(currentIssuance, _issuanceValue, address(this).balance, priceFeedAllocations);\n        systemLoans.changeCurrencyIssuance(currentIssuance, currentIssuance + _issuanceValue, address(this).balance, priceFeedAllocations, false);\n\n        uint daysSinceLastChange = (callTime - lastChangeTime) / SECONDS_PER_DAY;\n        uint feeSinceLastChange = 0;\n        if(lastChangeTime != 0) {\n            //feeSinceLastChange = currentIssuance * system.priceFeedDailyFeeRate() * daysSinceLastChange;\n            feeSinceLastChange = currentIssuance * daysSinceLastChange * 4 / 100 / 365; // 1/365/100 represents daily rate for 4% yearly fee\n        }\n\n        // if(feeSinceLastChange < prepaidFees) {\n        //     prepaidFees -= feeSinceLastChange;\n        // } else {\n        //     prepaidFees = 0;\n        //     feeSinceLastChange -= prepaidFees;\n        // }\n\n        // //uint currentFeePrepayment = _issuanceValue * system.priceFeedDailyFeeRate() * SECONDS_PER_DAY * 7 * 5;\n        // uint256 currentFeePrepayment = _issuanceValue * 4 / 36500; // 1/365/100 represents daily rate for 4% yearly fee\n        // prepaidFees += currentFeePrepayment;\n\n        // emit ConsoleLog(\">Loan.issueCurrency feeSinceLastChange + currentFeePrepayment\");\n        // emit ConsoleLog(uint2str(feeSinceLastChange + currentFeePrepayment));\n\n        // peggedToken.transfer(address(systemLoans), feeSinceLastChange + currentFeePrepayment);\n        // systemLoans.payLoanFee(feeSinceLastChange + currentFeePrepayment, priceFeedAllocations);\n        peggedToken.transfer(address(systemLoans), feeSinceLastChange);\n        systemLoans.payLoanFee(feeSinceLastChange, priceFeedAllocations);\n\n        currentIssuance += _issuanceValue;\n        lastChangeTime = callTime;\n    }\n\n    function returnCurrency(uint256 _returnValue) public {\n        require(owner == msg.sender, \"sender should be owner\");\n        setCallTime();\n\n        emit ConsoleLog(\">Loan.returnCurrency _returnValue\");\n        emit ConsoleLog(uint2str(_returnValue));\n\n        uint daysSinceLastChange = (callTime - lastChangeTime) / SECONDS_PER_DAY;\n        //uint feeSinceLastChange = currentIssuance * system.priceFeedDailyFeeRate() * daysSinceLastChange;\n        uint feeSinceLastChange = currentIssuance * daysSinceLastChange * 4 / 36500; // 1/365/100 represents daily rate for 4% yearly fee\n\n        if(feeSinceLastChange < prepaidFees) {\n            prepaidFees -= feeSinceLastChange;\n        } else {\n            prepaidFees = 0;\n            feeSinceLastChange -= prepaidFees;\n        }\n\n        systemLoans.changeCurrencyIssuance(currentIssuance, currentIssuance - _returnValue, address(this).balance, priceFeedAllocations, true);\n        //systemLoans.returnCurrency(currentIssuance, _returnValue, address(this).balance);\n\n        emit ConsoleLog(\">Loan.issueCurrency feeSinceLastChange\");\n        emit ConsoleLog(uint2str(feeSinceLastChange));\n\n        peggedToken.transfer(address(systemLoans), feeSinceLastChange);\n        systemLoans.payLoanFee(feeSinceLastChange, priceFeedAllocations);\n\n        currentIssuance -= _returnValue;\n        lastChangeTime = callTime;\n    }\n\n    function withdrawEth(address payable _withdrawToAddress, uint256 _withdrawValue) public {\n        require(owner == msg.sender, \"sender should be owner\");\n\n        //systemLoans.withdrawEth(currentIssuance, _withdrawValue, address(this).balance);\n        systemLoans.changeDepositEth(address(this).balance, address(this).balance - _withdrawValue, currentIssuance, priceFeedAllocations);\n\n        _withdrawToAddress.transfer(_withdrawValue);\n    }\n\n    function withdrawCurrency(address _withdrawToAddress, uint256 _withdrawValue) public {\n        require(owner == msg.sender, \"sender should be owner\");\n\n        emit ConsoleLog(\">withdrawCurrency _withdrawToAddress _withdrawValue\");\n        emit ConsoleLog(add2str(_withdrawToAddress));\n        emit ConsoleLog(uint2str(_withdrawValue));\n\n        peggedToken.transfer(_withdrawToAddress, _withdrawValue);\n\n        systemLoans.withdrawCurrency(_withdrawToAddress, _withdrawValue);\n    }\n\n    uint256 public callTime;\n    function setCallTime() private\n    {\n        callTime = block.timestamp;\n    }\n\n    function add2str(address x) public pure returns (string memory str) {\n        bytes memory s = new bytes(40);\n        for (uint i = 0; i < 20; i++) {\n            byte b = byte(uint8(uint(x) / (2**(8*(19 - i)))));\n            byte hi = byte(uint8(b) / 16);\n            byte lo = byte(uint8(b) - 16 * uint8(hi));\n            s[2*i] = char(hi);\n            s[2*i+1] = char(lo);\n        }\n        return string(s);\n    }\n\n    function char(byte b) public pure returns (byte c) {\n        if (uint8(b) < 10) return byte(uint8(b) + 0x30);\n        else return byte(uint8(b) + 0x57);\n    }\n\n    function uint2str(uint value) public pure returns (string memory str) {\n        uint i = value;\n        if (i == 0) return \"0\";\n        uint j = i;\n        uint len;\n        while (j != 0){\n            len++;\n            j /= 10;\n        }\n        bytes memory bstr = new bytes(len);\n        uint k = len - 1;\n        while (i != 0){\n            bstr[k--] = byte(uint8(48 + i % 10));\n            i /= 10;\n        }\n        return string(bstr);\n    }\n\n    event ConsoleLog(string message);\n    event ConsoleLogNumber(uint number);\n}",
  "sourcePath": "/Users/nimakamoosi/repos/nimakam-private/stable-coin/ethereum/contracts/Loan.sol",
  "compiler": {
    "name": "solc",
    "version": "0.5.12+commit.7709ece9.Emscripten.clang"
  },
  "schemaVersion": "3.0.19",
  "updatedAt": "2020-01-22T22:16:12.121Z",
  "devdoc": {
    "author": "Nima Kamoosi",
    "details": "The contained state includes the contract owner, ETH deposit balance the issued currency balance, the currency balance, price feed allocations, last date of fee payments and any pending liquidation requests.",
    "methods": {
      "constructor": {
        "details": "creats the loan instnace, sets its owner, and assigns the main system contract instance",
        "params": {
          "_owner": "is owner of the loan and is set at time of creation"
        }
      }
    },
    "title": "Loan contract of the \\{\\{PegLoan\\}\\} currency peg system"
  },
  "userdoc": {
    "methods": {
      "constructor": "Constructor"
    },
    "notice": "The Loan contract holds the state of a given loan, as part of the \\{\\{PegLoan\\}\\} currency peg system. It works alongside the System, PriceFeed, and PeggedCurrency contracts to make the whole system function."
  }
}