{
  "contractName": "Loan",
  "abi": [
    {
      "inputs": [
        {
          "internalType": "address",
          "name": "_owner",
          "type": "address"
        },
        {
          "internalType": "address",
          "name": "_systemAddress",
          "type": "address"
        },
        {
          "internalType": "address",
          "name": "_peggedTokenAddress",
          "type": "address"
        }
      ],
      "payable": false,
      "stateMutability": "nonpayable",
      "type": "constructor"
    },
    {
      "anonymous": false,
      "inputs": [
        {
          "indexed": false,
          "internalType": "string",
          "name": "message",
          "type": "string"
        }
      ],
      "name": "ConsoleLog",
      "type": "event"
    },
    {
      "constant": true,
      "inputs": [],
      "name": "ALLOCATION_100_PERCENT",
      "outputs": [
        {
          "internalType": "uint32",
          "name": "",
          "type": "uint32"
        }
      ],
      "payable": false,
      "stateMutability": "view",
      "type": "function"
    },
    {
      "constant": true,
      "inputs": [],
      "name": "MAX_ALLOCATIONS",
      "outputs": [
        {
          "internalType": "uint32",
          "name": "",
          "type": "uint32"
        }
      ],
      "payable": false,
      "stateMutability": "view",
      "type": "function"
    },
    {
      "constant": true,
      "inputs": [],
      "name": "currentIssuance",
      "outputs": [
        {
          "internalType": "uint256",
          "name": "",
          "type": "uint256"
        }
      ],
      "payable": false,
      "stateMutability": "view",
      "type": "function"
    },
    {
      "constant": true,
      "inputs": [],
      "name": "isPriceFeedAllocated",
      "outputs": [
        {
          "internalType": "bool",
          "name": "",
          "type": "bool"
        }
      ],
      "payable": false,
      "stateMutability": "view",
      "type": "function"
    },
    {
      "constant": true,
      "inputs": [],
      "name": "owner",
      "outputs": [
        {
          "internalType": "address",
          "name": "",
          "type": "address"
        }
      ],
      "payable": false,
      "stateMutability": "view",
      "type": "function"
    },
    {
      "constant": true,
      "inputs": [],
      "name": "peggedToken",
      "outputs": [
        {
          "internalType": "contract PeggedToken",
          "name": "",
          "type": "address"
        }
      ],
      "payable": false,
      "stateMutability": "view",
      "type": "function"
    },
    {
      "constant": true,
      "inputs": [
        {
          "internalType": "uint256",
          "name": "",
          "type": "uint256"
        }
      ],
      "name": "priceFeedAllocations",
      "outputs": [
        {
          "internalType": "address",
          "name": "priceFeedAddress",
          "type": "address"
        },
        {
          "internalType": "uint32",
          "name": "percentAllocation",
          "type": "uint32"
        },
        {
          "internalType": "bool",
          "name": "isAllocation",
          "type": "bool"
        }
      ],
      "payable": false,
      "stateMutability": "view",
      "type": "function"
    },
    {
      "constant": true,
      "inputs": [],
      "name": "system",
      "outputs": [
        {
          "internalType": "contract System",
          "name": "",
          "type": "address"
        }
      ],
      "payable": false,
      "stateMutability": "view",
      "type": "function"
    },
    {
      "constant": true,
      "inputs": [],
      "name": "systemLoans",
      "outputs": [
        {
          "internalType": "contract SystemLoans",
          "name": "",
          "type": "address"
        }
      ],
      "payable": false,
      "stateMutability": "view",
      "type": "function"
    },
    {
      "constant": false,
      "inputs": [],
      "name": "depositEth",
      "outputs": [],
      "payable": true,
      "stateMutability": "payable",
      "type": "function"
    },
    {
      "constant": false,
      "inputs": [
        {
          "components": [
            {
              "internalType": "address",
              "name": "priceFeedAddress",
              "type": "address"
            },
            {
              "internalType": "uint32",
              "name": "percentAllocation",
              "type": "uint32"
            },
            {
              "internalType": "bool",
              "name": "isAllocation",
              "type": "bool"
            }
          ],
          "internalType": "struct Loan.PriceFeedAllocation[5]",
          "name": "newPriceFeedAllocations",
          "type": "tuple[5]"
        }
      ],
      "name": "allocatePriceFeeds",
      "outputs": [],
      "payable": false,
      "stateMutability": "nonpayable",
      "type": "function"
    },
    {
      "constant": false,
      "inputs": [
        {
          "internalType": "uint256",
          "name": "_issuanceValue",
          "type": "uint256"
        }
      ],
      "name": "issueCurrency",
      "outputs": [],
      "payable": false,
      "stateMutability": "nonpayable",
      "type": "function"
    },
    {
      "constant": false,
      "inputs": [
        {
          "internalType": "uint256",
          "name": "_reverseIssuanceValue",
          "type": "uint256"
        }
      ],
      "name": "reverseCurrencyIssuance",
      "outputs": [],
      "payable": false,
      "stateMutability": "nonpayable",
      "type": "function"
    },
    {
      "constant": false,
      "inputs": [
        {
          "internalType": "address payable",
          "name": "_withdrawToAddress",
          "type": "address"
        },
        {
          "internalType": "uint256",
          "name": "_withdrawValue",
          "type": "uint256"
        }
      ],
      "name": "withdrawEth",
      "outputs": [],
      "payable": false,
      "stateMutability": "nonpayable",
      "type": "function"
    },
    {
      "constant": false,
      "inputs": [
        {
          "internalType": "address",
          "name": "_withdrawToAddress",
          "type": "address"
        },
        {
          "internalType": "uint256",
          "name": "_withdrawValue",
          "type": "uint256"
        }
      ],
      "name": "withdrawCurrency",
      "outputs": [],
      "payable": false,
      "stateMutability": "nonpayable",
      "type": "function"
    },
    {
      "constant": true,
      "inputs": [
        {
          "internalType": "address",
          "name": "x",
          "type": "address"
        }
      ],
      "name": "add2str",
      "outputs": [
        {
          "internalType": "string",
          "name": "str",
          "type": "string"
        }
      ],
      "payable": false,
      "stateMutability": "pure",
      "type": "function"
    },
    {
      "constant": true,
      "inputs": [
        {
          "internalType": "bytes1",
          "name": "b",
          "type": "bytes1"
        }
      ],
      "name": "char",
      "outputs": [
        {
          "internalType": "bytes1",
          "name": "c",
          "type": "bytes1"
        }
      ],
      "payable": false,
      "stateMutability": "pure",
      "type": "function"
    },
    {
      "constant": true,
      "inputs": [
        {
          "internalType": "uint256",
          "name": "value",
          "type": "uint256"
        }
      ],
      "name": "uint2str",
      "outputs": [
        {
          "internalType": "string",
          "name": "str",
          "type": "string"
        }
      ],
      "payable": false,
      "stateMutability": "pure",
      "type": "function"
    }
  ],
  "bytecode": "0x60806040523480156200001157600080fd5b50604051620027123803806200271283398181016040526200003791908101906200015a565b826000806101000a81548173ffffffffffffffffffffffffffffffffffffffff021916908373ffffffffffffffffffffffffffffffffffffffff16021790555033600260006101000a81548173ffffffffffffffffffffffffffffffffffffffff021916908373ffffffffffffffffffffffffffffffffffffffff16021790555081600160006101000a81548173ffffffffffffffffffffffffffffffffffffffff021916908373ffffffffffffffffffffffffffffffffffffffff16021790555080600360006101000a81548173ffffffffffffffffffffffffffffffffffffffff021916908373ffffffffffffffffffffffffffffffffffffffff160217905550505050620001fe565b6000815190506200015481620001e4565b92915050565b6000806000606084860312156200017057600080fd5b6000620001808682870162000143565b9350506020620001938682870162000143565b9250506040620001a68682870162000143565b9150509250925092565b6000620001bd82620001c4565b9050919050565b600073ffffffffffffffffffffffffffffffffffffffff82169050919050565b620001ef81620001b0565b8114620001fb57600080fd5b50565b612504806200020e6000396000f3fe6080604052600436106101085760003560e01c80638da5cb5b11610095578063c61304fa11610064578063c61304fa14610325578063c90e3f1b14610362578063d4048089146103a1578063f76f950e146103cc578063fb9883cb1461040957610108565b80638da5cb5b1461027d57806395bf75fd146102a8578063a9e89871146102d3578063b9035b38146102fc57610108565b80631b9a91a4116100dc5780631b9a91a4146101b75780632cf0c896146101e05780632f62acbd1461020b578063439370b11461023657806369f9ad2f1461024057610108565b8062e77aa61461010d57806302dee45914610138578063086e2f7014610163578063120339a81461018c575b600080fd5b34801561011957600080fd5b50610122610432565b60405161012f9190611f6d565b60405180910390f35b34801561014457600080fd5b5061014d610458565b60405161015a9190611f37565b60405180910390f35b34801561016f57600080fd5b5061018a6004803603610185919081019061187f565b61046b565b005b34801561019857600080fd5b506101a1610863565b6040516101ae9190611f88565b60405180910390f35b3480156101c357600080fd5b506101de60048036036101d99190810190611807565b610889565b005b3480156101ec57600080fd5b506101f5610a0d565b604051610202919061216a565b60405180910390f35b34801561021757600080fd5b50610220610a12565b60405161022d919061216a565b60405180910390f35b61023e610a17565b005b34801561024c57600080fd5b50610267600480360361026291908101906118d2565b610c6c565b6040516102749190611f52565b60405180910390f35b34801561028957600080fd5b50610292610ca0565b60405161029f9190611e82565b60405180910390f35b3480156102b457600080fd5b506102bd610cc5565b6040516102ca9190611fa3565b60405180910390f35b3480156102df57600080fd5b506102fa60048036036102f591908101906118fb565b610ceb565b005b34801561030857600080fd5b50610323600480360361031e91908101906118fb565b610eab565b005b34801561033157600080fd5b5061034c600480360361034791908101906117de565b611102565b6040516103599190611fbe565b60405180910390f35b34801561036e57600080fd5b50610389600480360361038491908101906118fb565b611251565b60405161039893929190611ec6565b60405180910390f35b3480156103ad57600080fd5b506103b66112b8565b6040516103c391906120e0565b60405180910390f35b3480156103d857600080fd5b506103f360048036036103ee91908101906118fb565b6112be565b6040516104009190611fbe565b60405180910390f35b34801561041557600080fd5b50610430600480360361042b9190810190611843565b6113f2565b005b600360009054906101000a900473ffffffffffffffffffffffffffffffffffffffff1681565b600a60009054906101000a900460ff1681565b3373ffffffffffffffffffffffffffffffffffffffff166000809054906101000a900473ffffffffffffffffffffffffffffffffffffffff1673ffffffffffffffffffffffffffffffffffffffff16146104fa576040517f08c379a00000000000000000000000000000000000000000000000000000000081526004016104f190612040565b60405180910390fd5b7f0f8db0708c4e6b233e2c285fe1ed66015dee71bd374ac8e835534be5f592d6a260405161052790612080565b60405180910390a17f0f8db0708c4e6b233e2c285fe1ed66015dee71bd374ac8e835534be5f592d6a26105703073ffffffffffffffffffffffffffffffffffffffff16316112be565b60405161057d9190611fbe565b60405180910390a1600260009054906101000a900473ffffffffffffffffffffffffffffffffffffffff1673ffffffffffffffffffffffffffffffffffffffff1663904bc7426005833073ffffffffffffffffffffffffffffffffffffffff16316040518463ffffffff1660e01b81526004016105fc93929190611efd565b600060405180830381600087803b15801561061657600080fd5b505af115801561062a573d6000803e3d6000fd5b505050506001600a60006101000a81548160ff021916908315150217905550600080905060008090505b600160050363ffffffff1681101561080f5782816005811061067257fe5b6020020151604001511561079e5782816005811061068c57fe5b60200201516020015182019150606463ffffffff168263ffffffff1611156106e9576040517f08c379a00000000000000000000000000000000000000000000000000000000081526004016106e090612000565b60405180910390fd5b8281600581106106f557fe5b60200201516005826005811061070757fe5b0160008201518160000160006101000a81548173ffffffffffffffffffffffffffffffffffffffff021916908373ffffffffffffffffffffffffffffffffffffffff16021790555060208201518160000160146101000a81548163ffffffff021916908363ffffffff16021790555060408201518160000160186101000a81548160ff021916908315150217905550905050610802565b600581600581106107ab57fe5b01600080820160006101000a81549073ffffffffffffffffffffffffffffffffffffffff02191690556000820160146101000a81549063ffffffff02191690556000820160186101000a81549060ff021916905550505b8080600101915050610654565b50606463ffffffff168163ffffffff161461085f576040517f08c379a000000000000000000000000000000000000000000000000000000000815260040161085690612000565b60405180910390fd5b5050565b600260009054906101000a900473ffffffffffffffffffffffffffffffffffffffff1681565b3373ffffffffffffffffffffffffffffffffffffffff166000809054906101000a900473ffffffffffffffffffffffffffffffffffffffff1673ffffffffffffffffffffffffffffffffffffffff1614610918576040517f08c379a000000000000000000000000000000000000000000000000000000000815260040161090f90612040565b60405180910390fd5b600260009054906101000a900473ffffffffffffffffffffffffffffffffffffffff1673ffffffffffffffffffffffffffffffffffffffff166399d90471600454833073ffffffffffffffffffffffffffffffffffffffff16316040518463ffffffff1660e01b815260040161099093929190612133565b600060405180830381600087803b1580156109aa57600080fd5b505af11580156109be573d6000803e3d6000fd5b505050508173ffffffffffffffffffffffffffffffffffffffff166108fc829081150290604051600060405180830381858888f19350505050158015610a08573d6000803e3d6000fd5b505050565b606481565b600581565b3373ffffffffffffffffffffffffffffffffffffffff166000809054906101000a900473ffffffffffffffffffffffffffffffffffffffff1673ffffffffffffffffffffffffffffffffffffffff1614610aa6576040517f08c379a0000000000000000000000000000000000000000000000000000000008152600401610a9d90612040565b60405180910390fd5b600a60009054906101000a900460ff16610af5576040517f08c379a0000000000000000000000000000000000000000000000000000000008152600401610aec906120c0565b60405180910390fd5b7f0f8db0708c4e6b233e2c285fe1ed66015dee71bd374ac8e835534be5f592d6a2604051610b2290612020565b60405180910390a17f0f8db0708c4e6b233e2c285fe1ed66015dee71bd374ac8e835534be5f592d6a2610b6b3073ffffffffffffffffffffffffffffffffffffffff16316112be565b604051610b789190611fbe565b60405180910390a17f0f8db0708c4e6b233e2c285fe1ed66015dee71bd374ac8e835534be5f592d6a2610baa346112be565b604051610bb79190611fbe565b60405180910390a1600260009054906101000a900473ffffffffffffffffffffffffffffffffffffffff1673ffffffffffffffffffffffffffffffffffffffff166336d7a7fe343073ffffffffffffffffffffffffffffffffffffffff1631033460056040518463ffffffff1660e01b8152600401610c38939291906120fb565b600060405180830381600087803b158015610c5257600080fd5b505af1158015610c66573d6000803e3d6000fd5b50505050565b6000600a8260f81c60ff161015610c8e5760308260f81c0160f81b9050610c9b565b60578260f81c0160f81b90505b919050565b6000809054906101000a900473ffffffffffffffffffffffffffffffffffffffff1681565b600160009054906101000a900473ffffffffffffffffffffffffffffffffffffffff1681565b3373ffffffffffffffffffffffffffffffffffffffff166000809054906101000a900473ffffffffffffffffffffffffffffffffffffffff1673ffffffffffffffffffffffffffffffffffffffff1614610d7a576040517f08c379a0000000000000000000000000000000000000000000000000000000008152600401610d7190612040565b60405180910390fd5b7f0f8db0708c4e6b233e2c285fe1ed66015dee71bd374ac8e835534be5f592d6a2604051610da790611fe0565b60405180910390a17f0f8db0708c4e6b233e2c285fe1ed66015dee71bd374ac8e835534be5f592d6a2610dd9826112be565b604051610de69190611fbe565b60405180910390a1600260009054906101000a900473ffffffffffffffffffffffffffffffffffffffff1673ffffffffffffffffffffffffffffffffffffffff16636e7de399600454833073ffffffffffffffffffffffffffffffffffffffff16316040518463ffffffff1660e01b8152600401610e6693929190612133565b600060405180830381600087803b158015610e8057600080fd5b505af1158015610e94573d6000803e3d6000fd5b505050508060046000828254039250508190555050565b3373ffffffffffffffffffffffffffffffffffffffff166000809054906101000a900473ffffffffffffffffffffffffffffffffffffffff1673ffffffffffffffffffffffffffffffffffffffff1614610f3a576040517f08c379a0000000000000000000000000000000000000000000000000000000008152600401610f3190612040565b60405180910390fd5b7f0f8db0708c4e6b233e2c285fe1ed66015dee71bd374ac8e835534be5f592d6a2604051610f6790612060565b60405180910390a17f0f8db0708c4e6b233e2c285fe1ed66015dee71bd374ac8e835534be5f592d6a2610f9b6004546112be565b604051610fa89190611fbe565b60405180910390a17f0f8db0708c4e6b233e2c285fe1ed66015dee71bd374ac8e835534be5f592d6a2610fda826112be565b604051610fe79190611fbe565b60405180910390a17f0f8db0708c4e6b233e2c285fe1ed66015dee71bd374ac8e835534be5f592d6a26110303073ffffffffffffffffffffffffffffffffffffffff16316112be565b60405161103d9190611fbe565b60405180910390a1600260009054906101000a900473ffffffffffffffffffffffffffffffffffffffff1673ffffffffffffffffffffffffffffffffffffffff1663eb8a79fe600454833073ffffffffffffffffffffffffffffffffffffffff16316040518463ffffffff1660e01b81526004016110bd93929190612133565b600060405180830381600087803b1580156110d757600080fd5b505af11580156110eb573d6000803e3d6000fd5b505050508060046000828254019250508190555050565b60608060286040519080825280601f01601f1916602001820160405280156111395781602001600182028038833980820191505090505b50905060008090505b60148110156112475760008160130360080260020a8573ffffffffffffffffffffffffffffffffffffffff168161117557fe5b0460f81b9050600060108260f81c60ff168161118d57fe5b0460f81b905060008160f81c6010028360f81c0360f81b90506111af82610c6c565b8585600202815181106111be57fe5b60200101907effffffffffffffffffffffffffffffffffffffffffffffffffffffffffffff1916908160001a9053506111f681610c6c565b85600186600202018151811061120857fe5b60200101907effffffffffffffffffffffffffffffffffffffffffffffffffffffffffffff1916908160001a9053505050508080600101915050611142565b5080915050919050565b6005816005811061125e57fe5b016000915090508060000160009054906101000a900473ffffffffffffffffffffffffffffffffffffffff16908060000160149054906101000a900463ffffffff16908060000160189054906101000a900460ff16905083565b60045481565b60606000829050600081141561130c576040518060400160405280600181526020017f30000000000000000000000000000000000000000000000000000000000000008152509150506113ed565b600081905060005b60008214611336578080600101915050600a828161132e57fe5b049150611314565b6060816040519080825280601f01601f19166020018201604052801561136b5781602001600182028038833980820191505090505b50905060006001830390505b600085146113e457600a858161138957fe5b0660300160f81b828280600190039350815181106113a357fe5b60200101907effffffffffffffffffffffffffffffffffffffffffffffffffffffffffffff1916908160001a905350600a85816113dc57fe5b049450611377565b81955050505050505b919050565b3373ffffffffffffffffffffffffffffffffffffffff166000809054906101000a900473ffffffffffffffffffffffffffffffffffffffff1673ffffffffffffffffffffffffffffffffffffffff1614611481576040517f08c379a000000000000000000000000000000000000000000000000000000000815260040161147890612040565b60405180910390fd5b7f0f8db0708c4e6b233e2c285fe1ed66015dee71bd374ac8e835534be5f592d6a26040516114ae906120a0565b60405180910390a17f0f8db0708c4e6b233e2c285fe1ed66015dee71bd374ac8e835534be5f592d6a26114e083611102565b6040516114ed9190611fbe565b60405180910390a17f0f8db0708c4e6b233e2c285fe1ed66015dee71bd374ac8e835534be5f592d6a261151f826112be565b60405161152c9190611fbe565b60405180910390a1600360009054906101000a900473ffffffffffffffffffffffffffffffffffffffff1673ffffffffffffffffffffffffffffffffffffffff1663a9059cbb83836040518363ffffffff1660e01b8152600401611591929190611e9d565b602060405180830381600087803b1580156115ab57600080fd5b505af11580156115bf573d6000803e3d6000fd5b505050506040513d601f19601f820116820180604052506115e391908101906118a9565b50600260009054906101000a900473ffffffffffffffffffffffffffffffffffffffff1673ffffffffffffffffffffffffffffffffffffffff1663dc10e84d83836040518363ffffffff1660e01b8152600401611641929190611e9d565b600060405180830381600087803b15801561165b57600080fd5b505af115801561166f573d6000803e3d6000fd5b505050505050565b60008135905061168681612437565b92915050565b60008135905061169b8161244e565b92915050565b600082601f8301126116b257600080fd5b60056116c56116c0826121b2565b612185565b915081838560608402820111156116db57600080fd5b60005b8381101561170b57816116f18882611754565b8452602084019350606083019250506001810190506116de565b5050505092915050565b60008135905061172481612465565b92915050565b60008151905061173981612465565b92915050565b60008135905061174e8161247c565b92915050565b60006060828403121561176657600080fd5b6117706060612185565b9050600061178084828501611677565b6000830152506020611794848285016117c9565b60208301525060406117a884828501611715565b60408301525092915050565b6000813590506117c381612493565b92915050565b6000813590506117d8816124aa565b92915050565b6000602082840312156117f057600080fd5b60006117fe84828501611677565b91505092915050565b6000806040838503121561181a57600080fd5b60006118288582860161168c565b9250506020611839858286016117b4565b9150509250929050565b6000806040838503121561185657600080fd5b600061186485828601611677565b9250506020611875858286016117b4565b9150509250929050565b60006101e0828403121561189257600080fd5b60006118a0848285016116a1565b91505092915050565b6000602082840312156118bb57600080fd5b60006118c98482850161172a565b91505092915050565b6000602082840312156118e457600080fd5b60006118f28482850161173f565b91505092915050565b60006020828403121561190d57600080fd5b600061191b848285016117b4565b91505092915050565b60006119308383611dbc565b60608301905092915050565b60006119488383611dfe565b60608301905092915050565b61195d8161227c565b82525050565b61196c8161227c565b82525050565b61197b816121e8565b6119858184612223565b9250611990826121d4565b8060005b838110156119c15781516119a88782611924565b96506119b383612209565b925050600181019050611994565b505050505050565b6119d2816121f3565b6119dc8184612223565b92506119e7826121de565b8060005b83811015611a1757816119fe878261193c565b9650611a0983612216565b9250506001810190506119eb565b505050505050565b611a28816122a0565b82525050565b611a37816122a0565b82525050565b611a46816122ac565b82525050565b611a5581612312565b82525050565b611a6481612336565b82525050565b611a738161235a565b82525050565b6000611a84826121fe565b611a8e818561222e565b9350611a9e81856020860161237e565b611aa7816123ff565b840191505092915050565b6000611abf602e8361222e565b91507f3e7265766572736543757272656e637949737375616e6365205f72657665727360008301527f6549737375616e636556616c75650000000000000000000000000000000000006020830152604082019050919050565b6000611b25602d8361222e565b91507f53756d206f66206e657720616c6c6f636174696f6e2070657263656e7473207360008301527f686f756c642062652031303025000000000000000000000000000000000000006020830152604082019050919050565b6000611b8b602a8361222e565b91507f6465706f73697445746820616464726573732874686973292e62616c616e636560008301527f206d73672e76616c7565000000000000000000000000000000000000000000006020830152604082019050919050565b6000611bf160168361222e565b91507f73656e6465722073686f756c64206265206f776e6572000000000000000000006000830152602082019050919050565b6000611c3160438361222e565b91507f3e697373756543757272656e63792063757272656e7449737375616e6365205f60008301527f69737375616e636556616c756520616464726573732874686973292e62616c6160208301527f6e636500000000000000000000000000000000000000000000000000000000006040830152606082019050919050565b6000611cbd60208361222e565b91507f3e616c6c6f6361746550726963654665656473206c6f616e2062616c616e63656000830152602082019050919050565b6000611cfd60388361222e565b91507f3e6c6f616e5f776974686472617743757272656e6379205f776974686472617760008301527f546f41646472657373205f776974686472617756616c756500000000000000006020830152604082019050919050565b6000611d63602c8361222e565b91507f7072696365206665656420616c6c6f636174696f6e732073686f756c6420626560008301527f20696e697469616c697a656400000000000000000000000000000000000000006020830152604082019050919050565b606082016000820151611dd26000850182611954565b506020820151611de56020850182611e64565b506040820151611df86040850182611a1f565b50505050565b606082016000808301549050611e13816123b1565b611e206000860182611954565b50611e2a816123cb565b611e376020860182611e64565b50611e41816123e5565b611e4e6040860182611a1f565b5050505050565b611e5e816122f8565b82525050565b611e6d81612302565b82525050565b611e7c81612302565b82525050565b6000602082019050611e976000830184611963565b92915050565b6000604082019050611eb26000830185611963565b611ebf6020830184611e55565b9392505050565b6000606082019050611edb6000830186611963565b611ee86020830185611e73565b611ef56040830184611a2e565b949350505050565b60006103e082019050611f1360008301866119c9565b611f216101e0830185611972565b611f2f6103c0830184611e55565b949350505050565b6000602082019050611f4c6000830184611a2e565b92915050565b6000602082019050611f676000830184611a3d565b92915050565b6000602082019050611f826000830184611a4c565b92915050565b6000602082019050611f9d6000830184611a5b565b92915050565b6000602082019050611fb86000830184611a6a565b92915050565b60006020820190508181036000830152611fd88184611a79565b905092915050565b60006020820190508181036000830152611ff981611ab2565b9050919050565b6000602082019050818103600083015261201981611b18565b9050919050565b6000602082019050818103600083015261203981611b7e565b9050919050565b6000602082019050818103600083015261205981611be4565b9050919050565b6000602082019050818103600083015261207981611c24565b9050919050565b6000602082019050818103600083015261209981611cb0565b9050919050565b600060208201905081810360008301526120b981611cf0565b9050919050565b600060208201905081810360008301526120d981611d56565b9050919050565b60006020820190506120f56000830184611e55565b92915050565b6000610220820190506121116000830186611e55565b61211e6020830185611e55565b61212b60408301846119c9565b949350505050565b60006060820190506121486000830186611e55565b6121556020830185611e55565b6121626040830184611e55565b949350505050565b600060208201905061217f6000830184611e73565b92915050565b6000604051905081810181811067ffffffffffffffff821117156121a857600080fd5b8060405250919050565b600067ffffffffffffffff8211156121c957600080fd5b602082029050919050565b6000819050919050565b6000819050919050565b600060059050919050565b600060059050919050565b600081519050919050565b6000602082019050919050565b6000600182019050919050565b600081905092915050565b600082825260208201905092915050565b600073ffffffffffffffffffffffffffffffffffffffff82169050919050565b600060ff82169050919050565b600063ffffffff82169050919050565b6000612287826122d8565b9050919050565b6000612299826122d8565b9050919050565b60008115159050919050565b60007fff0000000000000000000000000000000000000000000000000000000000000082169050919050565b600073ffffffffffffffffffffffffffffffffffffffff82169050919050565b6000819050919050565b600063ffffffff82169050919050565b600061231d82612324565b9050919050565b600061232f826122d8565b9050919050565b600061234182612348565b9050919050565b6000612353826122d8565b9050919050565b60006123658261236c565b9050919050565b6000612377826122d8565b9050919050565b60005b8381101561239c578082015181840152602081019050612381565b838111156123ab576000848401525b50505050565b60006123c46123bf83612410565b61223f565b9050919050565b60006123de6123d98361241d565b61226c565b9050919050565b60006123f86123f38361242a565b61225f565b9050919050565b6000601f19601f8301169050919050565b60008160001c9050919050565b60008160a01c9050919050565b60008160c01c9050919050565b6124408161227c565b811461244b57600080fd5b50565b6124578161228e565b811461246257600080fd5b50565b61246e816122a0565b811461247957600080fd5b50565b612485816122ac565b811461249057600080fd5b50565b61249c816122f8565b81146124a757600080fd5b50565b6124b381612302565b81146124be57600080fd5b5056fea365627a7a72315820bcbc415b6b7e8129dff03246af51a4086ed652bd64bab825af075729ca20acc66c6578706572696d656e74616cf564736f6c634300050c0040",
  "source": "pragma solidity ^0.5.11;\npragma experimental ABIEncoderV2;\n\nimport \"./System.sol\";\nimport \"./PeggedToken.sol\";\n\n/// @author Nima Kamoosi\n/// @title Loan contract of the \\{\\{PegLoan\\}\\} currency peg system\n/// @notice The Loan contract holds the state of a given loan, as part of the \\{\\{PegLoan\\}\\} currency peg system.\n/// It works alongside the System, PriceFeed, and PeggedCurrency contracts to make the whole system function.\n/// @dev The contained state includes the contract owner, ETH deposit balance the issued currency balance, the currency balance,\n/// price feed allocations, last date of fee payments and any pending liquidation requests.\ncontract Loan {\n    address public owner; // Loan owner account or contract\n    System public system; // The main system contract instance\n    SystemLoans public systemLoans; // The main system contract instance\n    PeggedToken public peggedToken; // The main system contract instance\n\n    uint32 constant public MAX_ALLOCATIONS = 5; // Maximum price feed allocations\n    uint32 constant public ALLOCATION_100_PERCENT = 100; // Allocation percent value at 100% = 100\n    uint256 public currentIssuance;\n\n    PriceFeedAllocation[MAX_ALLOCATIONS] public priceFeedAllocations;\n    bool public isPriceFeedAllocated;\n    struct PriceFeedAllocation {\n        address priceFeedAddress;\n        uint32 percentAllocation;\n        bool isAllocation;\n    }\n\n    /// Constructor\n    /// @param _owner is owner of the loan and is set at time of creation\n    /// @dev creats the loan instnace, sets its owner, and assigns the main system contract instance\n    constructor(\n        address _owner,\n        address _systemAddress,\n        address _peggedTokenAddress\n    ) public {\n        owner = _owner;\n        systemLoans = SystemLoans(msg.sender);\n        system = System(_systemAddress);\n        peggedToken = PeggedToken(_peggedTokenAddress);\n    }\n\n    function depositEth() public payable {\n        require(owner == msg.sender, \"sender should be owner\");\n        require(isPriceFeedAllocated, \"price feed allocations should be initialized\");\n\n        emit ConsoleLog(\"depositEth address(this).balance msg.value\");\n        emit ConsoleLog(uint2str(address(this).balance));\n        emit ConsoleLog(uint2str(msg.value));\n\n        systemLoans.loan_changeDepositEth(address(this).balance - msg.value, msg.value, priceFeedAllocations);\n    }\n\n    function allocatePriceFeeds(\n        PriceFeedAllocation[MAX_ALLOCATIONS] memory newPriceFeedAllocations\n    )\n    public\n    {\n        require(owner == msg.sender, \"sender should be owner\");\n\n        emit ConsoleLog(\">allocatePriceFeeds loan balance\");\n        emit ConsoleLog(uint2str(address(this).balance));\n\n        systemLoans.loan_changeAllocation(priceFeedAllocations, newPriceFeedAllocations, address(this).balance);\n\n        isPriceFeedAllocated = true;\n        uint32 percentAllocationSum = 0;\n        for (uint i = 0; i < MAX_ALLOCATIONS - 1; i++) {\n            if(newPriceFeedAllocations[i].isAllocation)\n            {\n                percentAllocationSum += newPriceFeedAllocations[i].percentAllocation;\n                require(percentAllocationSum <= ALLOCATION_100_PERCENT, \"Sum of new allocation percents should be 100%\");\n\n                priceFeedAllocations[i] = newPriceFeedAllocations[i];\n            }\n            else\n            {\n                delete priceFeedAllocations[i];\n            }\n        }\n        require(percentAllocationSum == ALLOCATION_100_PERCENT, \"Sum of new allocation percents should be 100%\");\n    }\n\n    function issueCurrency(uint256 _issuanceValue) public {\n        require(owner == msg.sender, \"sender should be owner\");\n\n        emit ConsoleLog(\">issueCurrency currentIssuance _issuanceValue address(this).balance\");\n        emit ConsoleLog(uint2str(currentIssuance));\n        emit ConsoleLog(uint2str(_issuanceValue));\n        emit ConsoleLog(uint2str(address(this).balance));\n\n        systemLoans.loan_issueCurrency(currentIssuance, _issuanceValue, address(this).balance);\n\n        currentIssuance += _issuanceValue;\n    }\n\n    function reverseCurrencyIssuance(uint256 _reverseIssuanceValue) public {\n        require(owner == msg.sender, \"sender should be owner\");\n\n        emit ConsoleLog(\">reverseCurrencyIssuance _reverseIssuanceValue\");\n        emit ConsoleLog(uint2str(_reverseIssuanceValue));\n\n        systemLoans.loan_reverseCurrencyIssuance(currentIssuance, _reverseIssuanceValue, address(this).balance);\n\n        currentIssuance -= _reverseIssuanceValue;\n    }\n\n    function withdrawEth(address payable _withdrawToAddress, uint256 _withdrawValue) public {\n        require(owner == msg.sender, \"sender should be owner\");\n\n        systemLoans.loan_withdrawEth(currentIssuance, _withdrawValue, address(this).balance);\n\n        _withdrawToAddress.transfer(_withdrawValue);\n    }\n\n    function withdrawCurrency(address _withdrawToAddress, uint256 _withdrawValue) public {\n        require(owner == msg.sender, \"sender should be owner\");\n\n        emit ConsoleLog(\">loan_withdrawCurrency _withdrawToAddress _withdrawValue\");\n        emit ConsoleLog(add2str(_withdrawToAddress));\n        emit ConsoleLog(uint2str(_withdrawValue));\n\n        peggedToken.transfer(_withdrawToAddress, _withdrawValue);\n\n        systemLoans.loan_withdrawCurrency(_withdrawToAddress, _withdrawValue);\n    }\n\n    function add2str(address x) public pure returns (string memory str) {\n        bytes memory s = new bytes(40);\n        for (uint i = 0; i < 20; i++) {\n            byte b = byte(uint8(uint(x) / (2**(8*(19 - i)))));\n            byte hi = byte(uint8(b) / 16);\n            byte lo = byte(uint8(b) - 16 * uint8(hi));\n            s[2*i] = char(hi);\n            s[2*i+1] = char(lo);\n        }\n        return string(s);\n    }\n\n    function char(byte b) public pure returns (byte c) {\n        if (uint8(b) < 10) return byte(uint8(b) + 0x30);\n        else return byte(uint8(b) + 0x57);\n    }\n\n    function uint2str(uint value) public pure returns (string memory str) {\n        uint i = value;\n        if (i == 0) return \"0\";\n        uint j = i;\n        uint len;\n        while (j != 0){\n            len++;\n            j /= 10;\n        }\n        bytes memory bstr = new bytes(len);\n        uint k = len - 1;\n        while (i != 0){\n            bstr[k--] = byte(uint8(48 + i % 10));\n            i /= 10;\n        }\n        return string(bstr);\n    }\n\n    event ConsoleLog(string message);\n}",
  "sourcePath": "/Users/nimakamoosi/repos/nimakam-private/stable-coin/ethereum/contracts/Loan.sol",
  "compiler": {
    "name": "solc",
    "version": "0.5.12+commit.7709ece9.Emscripten.clang"
  },
  "schemaVersion": "3.0.19",
  "updatedAt": "2020-01-09T23:54:50.711Z",
  "devdoc": {
    "author": "Nima Kamoosi",
    "details": "The contained state includes the contract owner, ETH deposit balance the issued currency balance, the currency balance, price feed allocations, last date of fee payments and any pending liquidation requests.",
    "methods": {
      "constructor": {
        "details": "creats the loan instnace, sets its owner, and assigns the main system contract instance",
        "params": {
          "_owner": "is owner of the loan and is set at time of creation"
        }
      }
    },
    "title": "Loan contract of the \\{\\{PegLoan\\}\\} currency peg system"
  },
  "userdoc": {
    "methods": {
      "constructor": "Constructor"
    },
    "notice": "The Loan contract holds the state of a given loan, as part of the \\{\\{PegLoan\\}\\} currency peg system. It works alongside the System, PriceFeed, and PeggedCurrency contracts to make the whole system function."
  }
}