{
  "contractName": "PriceFeed",
  "abi": [
    {
      "inputs": [
        {
          "internalType": "address",
          "name": "_owner",
          "type": "address"
        },
        {
          "internalType": "address",
          "name": "_systemAddress",
          "type": "address"
        }
      ],
      "payable": false,
      "stateMutability": "nonpayable",
      "type": "constructor"
    },
    {
      "anonymous": false,
      "inputs": [
        {
          "indexed": false,
          "internalType": "string",
          "name": "message",
          "type": "string"
        }
      ],
      "name": "ConsoleLog",
      "type": "event"
    },
    {
      "constant": true,
      "inputs": [],
      "name": "callTime",
      "outputs": [
        {
          "internalType": "uint256",
          "name": "",
          "type": "uint256"
        }
      ],
      "payable": false,
      "stateMutability": "view",
      "type": "function"
    },
    {
      "constant": true,
      "inputs": [
        {
          "internalType": "uint256",
          "name": "",
          "type": "uint256"
        }
      ],
      "name": "dailyHistoricalPrices",
      "outputs": [
        {
          "internalType": "uint256",
          "name": "medianEthRate",
          "type": "uint256"
        },
        {
          "internalType": "uint256",
          "name": "medianPegRate",
          "type": "uint256"
        },
        {
          "internalType": "uint256",
          "name": "priceTime",
          "type": "uint256"
        },
        {
          "internalType": "uint256",
          "name": "callTime",
          "type": "uint256"
        }
      ],
      "payable": false,
      "stateMutability": "view",
      "type": "function"
    },
    {
      "constant": true,
      "inputs": [],
      "name": "flippedState",
      "outputs": [
        {
          "internalType": "uint256",
          "name": "",
          "type": "uint256"
        }
      ],
      "payable": false,
      "stateMutability": "view",
      "type": "function"
    },
    {
      "constant": true,
      "inputs": [],
      "name": "instantPrice",
      "outputs": [
        {
          "internalType": "uint256",
          "name": "medianEthRate",
          "type": "uint256"
        },
        {
          "internalType": "uint256",
          "name": "priceTime",
          "type": "uint256"
        },
        {
          "internalType": "uint256",
          "name": "callTime",
          "type": "uint256"
        }
      ],
      "payable": false,
      "stateMutability": "view",
      "type": "function"
    },
    {
      "constant": true,
      "inputs": [],
      "name": "owner",
      "outputs": [
        {
          "internalType": "address",
          "name": "",
          "type": "address"
        }
      ],
      "payable": false,
      "stateMutability": "view",
      "type": "function"
    },
    {
      "constant": true,
      "inputs": [],
      "name": "processingWeekStartTime",
      "outputs": [
        {
          "internalType": "uint256",
          "name": "",
          "type": "uint256"
        }
      ],
      "payable": false,
      "stateMutability": "view",
      "type": "function"
    },
    {
      "constant": true,
      "inputs": [],
      "name": "system",
      "outputs": [
        {
          "internalType": "contract System",
          "name": "",
          "type": "address"
        }
      ],
      "payable": false,
      "stateMutability": "view",
      "type": "function"
    },
    {
      "constant": true,
      "inputs": [],
      "name": "systemFeeds",
      "outputs": [
        {
          "internalType": "contract SystemFeeds",
          "name": "",
          "type": "address"
        }
      ],
      "payable": false,
      "stateMutability": "view",
      "type": "function"
    },
    {
      "constant": false,
      "inputs": [
        {
          "components": [
            {
              "internalType": "uint256",
              "name": "medianEthRate",
              "type": "uint256"
            },
            {
              "internalType": "uint256",
              "name": "medianPegRate",
              "type": "uint256"
            },
            {
              "internalType": "uint256",
              "name": "priceTime",
              "type": "uint256"
            },
            {
              "internalType": "uint256",
              "name": "callTime",
              "type": "uint256"
            }
          ],
          "internalType": "struct PriceFeed.HistoricalPrice",
          "name": "historicalPrice",
          "type": "tuple"
        }
      ],
      "name": "postHistoricalPrice",
      "outputs": [],
      "payable": false,
      "stateMutability": "nonpayable",
      "type": "function"
    },
    {
      "constant": false,
      "inputs": [
        {
          "components": [
            {
              "internalType": "uint256",
              "name": "medianEthRate",
              "type": "uint256"
            },
            {
              "internalType": "uint256",
              "name": "priceTime",
              "type": "uint256"
            },
            {
              "internalType": "uint256",
              "name": "callTime",
              "type": "uint256"
            }
          ],
          "internalType": "struct PriceFeed.InstantPrice",
          "name": "_instantPrice",
          "type": "tuple"
        }
      ],
      "name": "postInstantPrice",
      "outputs": [],
      "payable": false,
      "stateMutability": "nonpayable",
      "type": "function"
    },
    {
      "constant": false,
      "inputs": [],
      "name": "processTime",
      "outputs": [],
      "payable": false,
      "stateMutability": "nonpayable",
      "type": "function"
    },
    {
      "constant": false,
      "inputs": [],
      "name": "flipState",
      "outputs": [],
      "payable": false,
      "stateMutability": "nonpayable",
      "type": "function"
    },
    {
      "constant": true,
      "inputs": [
        {
          "internalType": "address",
          "name": "x",
          "type": "address"
        }
      ],
      "name": "add2str",
      "outputs": [
        {
          "internalType": "string",
          "name": "str",
          "type": "string"
        }
      ],
      "payable": false,
      "stateMutability": "pure",
      "type": "function"
    },
    {
      "constant": true,
      "inputs": [
        {
          "internalType": "bytes1",
          "name": "b",
          "type": "bytes1"
        }
      ],
      "name": "char",
      "outputs": [
        {
          "internalType": "bytes1",
          "name": "c",
          "type": "bytes1"
        }
      ],
      "payable": false,
      "stateMutability": "pure",
      "type": "function"
    },
    {
      "constant": true,
      "inputs": [
        {
          "internalType": "uint256",
          "name": "value",
          "type": "uint256"
        }
      ],
      "name": "uint2str",
      "outputs": [
        {
          "internalType": "string",
          "name": "str",
          "type": "string"
        }
      ],
      "payable": false,
      "stateMutability": "pure",
      "type": "function"
    }
  ],
  "bytecode": "0x60806040523480156200001157600080fd5b50604051620017493803806200174983398181016040526200003791908101906200014f565b7f0f8db0708c4e6b233e2c285fe1ed66015dee71bd374ac8e835534be5f592d6a26040516200006690620001d2565b60405180910390a1816000806101000a81548173ffffffffffffffffffffffffffffffffffffffff021916908373ffffffffffffffffffffffffffffffffffffffff16021790555033600160006101000a81548173ffffffffffffffffffffffffffffffffffffffff021916908373ffffffffffffffffffffffffffffffffffffffff16021790555080600260006101000a81548173ffffffffffffffffffffffffffffffffffffffff021916908373ffffffffffffffffffffffffffffffffffffffff160217905550505062000253565b600081519050620001498162000239565b92915050565b600080604083850312156200016357600080fd5b6000620001738582860162000138565b9250506020620001868582860162000138565b9150509250929050565b60006200019f601683620001f4565b91507f3e5072696365466565642e636f6e7374727563746f72000000000000000000006000830152602082019050919050565b60006020820190508181036000830152620001ed8162000190565b9050919050565b600082825260208201905092915050565b6000620002128262000219565b9050919050565b600073ffffffffffffffffffffffffffffffffffffffff82169050919050565b620002448162000205565b81146200025057600080fd5b50565b6114e680620002636000396000f3fe608060405234801561001057600080fd5b50600436106100f55760003560e01c806369f9ad2f11610097578063b5a1341511610066578063b5a1341514610253578063c61304fa14610273578063dd41250f146102a3578063f76f950e146102ad576100f5565b806369f9ad2f146101dd5780638da5cb5b1461020d5780638e9203511461022b57806395bf75fd14610235576100f5565b806318a4979f116100d357806318a4979f1461015257806319d51d89146101855780632981aab4146101a35780633d4887bb146101c1576100f5565b80630425fb82146100fa5780630f5e07c71461011857806310aefb9114610136575b600080fd5b6101026102dd565b60405161010f919061128a565b60405180910390f35b6101206102e3565b60405161012d919061128a565b60405180910390f35b610150600480360361014b9190810190610e78565b6102e9565b005b61016c60048036036101679190810190610eca565b61044e565b60405161017c94939291906112dc565b60405180910390f35b61018d610481565b60405161019a919061117c565b60405180910390f35b6101ab6104a7565b6040516101b8919061128a565b60405180910390f35b6101db60048036036101d69190810190610ea1565b6104ad565b005b6101f760048036036101f29190810190610e4f565b610604565b6040516102049190611161565b60405180910390f35b610215610638565b6040516102229190611146565b60405180910390f35b61023361065d565b005b61023d6106a6565b60405161024a9190611197565b60405180910390f35b61025b6106cc565b60405161026a939291906112a5565b60405180910390f35b61028d60048036036102889190810190610e26565b6106e4565b60405161029a91906111b2565b60405180910390f35b6102ab610833565b005b6102c760048036036102c29190810190610eca565b6109e3565b6040516102d491906111b2565b60405180910390f35b60245481565b60035481565b7f0f8db0708c4e6b233e2c285fe1ed66015dee71bd374ac8e835534be5f592d6a2604051610316906111f4565b60405180910390a13373ffffffffffffffffffffffffffffffffffffffff166000809054906101000a900473ffffffffffffffffffffffffffffffffffffffff1673ffffffffffffffffffffffffffffffffffffffff16146103ad576040517f08c379a00000000000000000000000000000000000000000000000000000000081526004016103a490611234565b60405180910390fd5b6103b5610b17565b6103be81610b20565b600160009054906101000a900473ffffffffffffffffffffffffffffffffffffffff1673ffffffffffffffffffffffffffffffffffffffff166310aefb91826040518263ffffffff1660e01b81526004016104199190611254565b600060405180830381600087803b15801561043357600080fd5b505af1158015610447573d6000803e3d6000fd5b5050505050565b6004816007811061045b57fe5b600402016000915090508060000154908060010154908060020154908060030154905084565b600160009054906101000a900473ffffffffffffffffffffffffffffffffffffffff1681565b60235481565b3373ffffffffffffffffffffffffffffffffffffffff166000809054906101000a900473ffffffffffffffffffffffffffffffffffffffff1673ffffffffffffffffffffffffffffffffffffffff161461053c576040517f08c379a000000000000000000000000000000000000000000000000000000000815260040161053390611234565b60405180910390fd5b610544610b17565b600354816040018181525050806020600082015181600001556020820151816001015560408201518160020155905050600160009054906101000a900473ffffffffffffffffffffffffffffffffffffffff1673ffffffffffffffffffffffffffffffffffffffff16633d4887bb826040518263ffffffff1660e01b81526004016105cf919061126f565b600060405180830381600087803b1580156105e957600080fd5b505af11580156105fd573d6000803e3d6000fd5b5050505050565b6000600a8260f81c60ff1610156106265760308260f81c0160f81b9050610633565b60578260f81c0160f81b90505b919050565b6000809054906101000a900473ffffffffffffffffffffffffffffffffffffffff1681565b7f0f8db0708c4e6b233e2c285fe1ed66015dee71bd374ac8e835534be5f592d6a260405161068a90611214565b60405180910390a1602460008154809291906001019190505550565b600260009054906101000a900473ffffffffffffffffffffffffffffffffffffffff1681565b60208060000154908060010154908060020154905083565b60608060286040519080825280601f01601f19166020018201604052801561071b5781602001600182028038833980820191505090505b50905060008090505b60148110156108295760008160130360080260020a8573ffffffffffffffffffffffffffffffffffffffff168161075757fe5b0460f81b9050600060108260f81c60ff168161076f57fe5b0460f81b905060008160f81c6010028360f81c0360f81b905061079182610604565b8585600202815181106107a057fe5b60200101907effffffffffffffffffffffffffffffffffffffffffffffffffffffffffffff1916908160001a9053506107d881610604565b8560018660020201815181106107ea57fe5b60200101907effffffffffffffffffffffffffffffffffffffffffffffffffffffffffffff1916908160001a9053505050508080600101915050610724565b5080915050919050565b61083b610b17565b60006023541415610850576003546023819055505b60076018603c8002020263ffffffff1660235401600354106109e157600260009054906101000a900473ffffffffffffffffffffffffffffffffffffffff1673ffffffffffffffffffffffffffffffffffffffff166341d76a9c6040518163ffffffff1660e01b815260040160206040518083038186803b1580156108d457600080fd5b505afa1580156108e8573d6000803e3d6000fd5b505050506040513d601f19601f8201168201806040525061090c9190810190610ef3565b60076018603c8002020263ffffffff1660076018603c8002020263ffffffff16600260009054906101000a900473ffffffffffffffffffffffffffffffffffffffff1673ffffffffffffffffffffffffffffffffffffffff166341d76a9c6040518163ffffffff1660e01b815260040160206040518083038186803b15801561099457600080fd5b505afa1580156109a8573d6000803e3d6000fd5b505050506040513d601f19601f820116820180604052506109cc9190810190610ef3565b60035403816109d757fe5b0402016023819055505b565b606060008290506000811415610a31576040518060400160405280600181526020017f3000000000000000000000000000000000000000000000000000000000000000815250915050610b12565b600081905060005b60008214610a5b578080600101915050600a8281610a5357fe5b049150610a39565b6060816040519080825280601f01601f191660200182016040528015610a905781602001600182028038833980820191505090505b50905060006001830390505b60008514610b0957600a8581610aae57fe5b0660300160f81b82828060019003935081518110610ac857fe5b60200101907effffffffffffffffffffffffffffffffffffffffffffffffffffffffffffff1916908160001a905350600a8581610b0157fe5b049450610a9c565b81955050505050505b919050565b42600381905550565b60035481606001818152505060006018603c80020263ffffffff16600260009054906101000a900473ffffffffffffffffffffffffffffffffffffffff1673ffffffffffffffffffffffffffffffffffffffff166341d76a9c6040518163ffffffff1660e01b815260040160206040518083038186803b158015610ba357600080fd5b505afa158015610bb7573d6000803e3d6000fd5b505050506040513d601f19601f82011682018060405250610bdb9190810190610ef3565b6003540381610be657fe5b04905060006018603c80020263ffffffff16600260009054906101000a900473ffffffffffffffffffffffffffffffffffffffff1673ffffffffffffffffffffffffffffffffffffffff166341d76a9c6040518163ffffffff1660e01b815260040160206040518083038186803b158015610c6057600080fd5b505afa158015610c74573d6000803e3d6000fd5b505050506040513d601f19601f82011682018060405250610c989190810190610ef3565b84604001510381610ca557fe5b0490506001810163ffffffff168263ffffffff1614610cf9576040517f08c379a0000000000000000000000000000000000000000000000000000000008152600401610cf0906111d4565b60405180910390fd5b505050565b600081359050610d0d8161145e565b92915050565b600081359050610d2281611475565b92915050565b600060808284031215610d3a57600080fd5b610d446080611321565b90506000610d5484828501610dfc565b6000830152506020610d6884828501610dfc565b6020830152506040610d7c84828501610dfc565b6040830152506060610d9084828501610dfc565b60608301525092915050565b600060608284031215610dae57600080fd5b610db86060611321565b90506000610dc884828501610dfc565b6000830152506020610ddc84828501610dfc565b6020830152506040610df084828501610dfc565b60408301525092915050565b600081359050610e0b8161148c565b92915050565b600081519050610e208161148c565b92915050565b600060208284031215610e3857600080fd5b6000610e4684828501610cfe565b91505092915050565b600060208284031215610e6157600080fd5b6000610e6f84828501610d13565b91505092915050565b600060808284031215610e8a57600080fd5b6000610e9884828501610d28565b91505092915050565b600060608284031215610eb357600080fd5b6000610ec184828501610d9c565b91505092915050565b600060208284031215610edc57600080fd5b6000610eea84828501610dfc565b91505092915050565b600060208284031215610f0557600080fd5b6000610f1384828501610e11565b91505092915050565b610f258161136a565b82525050565b610f348161137c565b82525050565b610f43816113d2565b82525050565b610f52816113f6565b82525050565b6000610f638261134e565b610f6d8185611359565b9350610f7d81856020860161141a565b610f868161144d565b840191505092915050565b6000610f9e601d83611359565b91507f70726963652073686f756c6420626520666f722031206461792061676f0000006000830152602082019050919050565b6000610fde601e83611359565b91507f3e5072696365466565642e706f7374486973746f726963616c507269636500006000830152602082019050919050565b600061101e601683611359565b91507f3e53797374656d46656564732e666c69705374617465000000000000000000006000830152602082019050919050565b600061105e601683611359565b91507f73656e6465722073686f756c64206265206f776e6572000000000000000000006000830152602082019050919050565b6080820160008201516110a76000850182611128565b5060208201516110ba6020850182611128565b5060408201516110cd6040850182611128565b5060608201516110e06060850182611128565b50505050565b6060820160008201516110fc6000850182611128565b50602082015161110f6020850182611128565b5060408201516111226040850182611128565b50505050565b611131816113c8565b82525050565b611140816113c8565b82525050565b600060208201905061115b6000830184610f1c565b92915050565b60006020820190506111766000830184610f2b565b92915050565b60006020820190506111916000830184610f3a565b92915050565b60006020820190506111ac6000830184610f49565b92915050565b600060208201905081810360008301526111cc8184610f58565b905092915050565b600060208201905081810360008301526111ed81610f91565b9050919050565b6000602082019050818103600083015261120d81610fd1565b9050919050565b6000602082019050818103600083015261122d81611011565b9050919050565b6000602082019050818103600083015261124d81611051565b9050919050565b60006080820190506112696000830184611091565b92915050565b600060608201905061128460008301846110e6565b92915050565b600060208201905061129f6000830184611137565b92915050565b60006060820190506112ba6000830186611137565b6112c76020830185611137565b6112d46040830184611137565b949350505050565b60006080820190506112f16000830187611137565b6112fe6020830186611137565b61130b6040830185611137565b6113186060830184611137565b95945050505050565b6000604051905081810181811067ffffffffffffffff8211171561134457600080fd5b8060405250919050565b600081519050919050565b600082825260208201905092915050565b6000611375826113a8565b9050919050565b60007fff0000000000000000000000000000000000000000000000000000000000000082169050919050565b600073ffffffffffffffffffffffffffffffffffffffff82169050919050565b6000819050919050565b60006113dd826113e4565b9050919050565b60006113ef826113a8565b9050919050565b600061140182611408565b9050919050565b6000611413826113a8565b9050919050565b60005b8381101561143857808201518184015260208101905061141d565b83811115611447576000848401525b50505050565b6000601f19601f8301169050919050565b6114678161136a565b811461147257600080fd5b50565b61147e8161137c565b811461148957600080fd5b50565b611495816113c8565b81146114a057600080fd5b5056fea365627a7a72315820dd8669462444b59c6b7fc9ea95032d948acb1caca4642f32647925f139271f056c6578706572696d656e74616cf564736f6c634300050c0040",
  "source": "pragma solidity ^0.5.11;\npragma experimental ABIEncoderV2;\n\nimport \"./System.sol\";\nimport \"./SystemFeeds.sol\";\n\ncontract PriceFeed {\n    address public owner;\n    SystemFeeds public systemFeeds;\n    System public system;\n\n    uint32 constant SECONDS_PER_MINUTE = 60;\n    uint32 constant MINUTES_PER_HOUR = 60;\n    uint32 constant HOURS_PER_DAY = 24;\n    uint32 constant SECONDS_PER_DAY = SECONDS_PER_MINUTE * MINUTES_PER_HOUR * HOURS_PER_DAY; // 86400\n    uint32 constant DAYS_PER_WEEK = 7;\n    uint32 constant WEEKS_PER_PERIOD = 5; // 35 days = ~1 month\n    uint32 constant PERIODS_PER_PERIOD2S = 5; // 175 days = ~0.48 years\n    uint32 constant PERIOD2S_PER_PERIOD3S = 5; // 875 days = ~2.4 years\n    uint32 constant PERIOD3S_PER_PERIOD4S = 5; // 4378 days = ~12 years\n    uint32 constant PERIOD4S_PER_PERIOD5S = 5; // 21875 days = ~60 years\n\n    uint32 constant ETH_RATE_DECIMALS = 10;\n    uint32 constant PEG_RATE_DECIMALS = 10;\n\n    constructor(\n        address _owner,\n        address _systemAddress\n    ) public {\n        emit ConsoleLog(\">PriceFeed.constructor\");\n\n        owner = _owner;\n        systemFeeds = SystemFeeds(msg.sender);\n        system = System(_systemAddress);\n    }\n\n    uint256 public callTime;\n    function setCallTime() private\n    {\n        callTime = block.timestamp;\n    }\n\n    HistoricalPrice[DAYS_PER_WEEK] public dailyHistoricalPrices;\n    struct HistoricalPrice {\n        uint256 medianEthRate;\n        uint256 medianPegRate;\n        uint256 priceTime;\n        uint256 callTime;\n    }\n\n    function postHistoricalPrice(\n        HistoricalPrice memory historicalPrice\n    )\n    public\n    {\n        emit ConsoleLog(\">PriceFeed.postHistoricalPrice\");\n        require(owner == msg.sender, \"sender should be owner\");\n        setCallTime();\n\n        validateHistoricalPriceTiming(historicalPrice);\n\n        systemFeeds.postHistoricalPrice(historicalPrice);\n    }\n\n    function validateHistoricalPriceTiming(HistoricalPrice memory historicalPrice) private view\n    {\n        historicalPrice.callTime = callTime; // set reported time to call time even if it's not properly set\n\n        uint32 call_daysSinceSystemStart = uint32((callTime - system.firstTime()) / SECONDS_PER_DAY);\n        uint32 price_daysSinceSystemStart = uint32((historicalPrice.priceTime - system.firstTime()) / SECONDS_PER_DAY);\n        require(call_daysSinceSystemStart == price_daysSinceSystemStart + 1, \"price should be for 1 day ago\");\n\n        // uint32 price_dayOfSystemWeek = (price_daysSinceSystemStart) % DAYS_PER_WEEK;\n        // uint32 daysSincePriceLastCallTime = uint32((callTime - dailyHistoricalPrices[price_dayOfSystemWeek].callTime) / SECONDS_PER_DAY);\n        // require(daysSincePriceLastCallTime >= 7, \"reported time should replace old value\");\n        // dailyHistoricalPrices[price_dayOfSystemWeek] = historicalPrice; // Assign reported daily price\n    }\n\n    InstantPrice public instantPrice;\n    struct InstantPrice {\n        uint256 medianEthRate;\n        uint256 priceTime;\n        uint256 callTime;\n    }\n\n    function postInstantPrice(InstantPrice memory _instantPrice) public {\n        require(owner == msg.sender, \"sender should be owner\");\n        setCallTime();\n        _instantPrice.callTime = callTime;\n\n        instantPrice = _instantPrice;\n\n        systemFeeds.postInstantPrice(_instantPrice);\n    }\n\n    uint256 public processingWeekStartTime;\n    function processTime() public\n    {\n        setCallTime();\n\n        if (processingWeekStartTime == 0)\n        {\n            processingWeekStartTime = callTime;\n        }\n\n        if (callTime >= processingWeekStartTime + SECONDS_PER_DAY * DAYS_PER_WEEK)\n        {\n            processingWeekStartTime = ((callTime - system.firstTime()) / (SECONDS_PER_DAY * DAYS_PER_WEEK)) * (SECONDS_PER_DAY * DAYS_PER_WEEK) + system.firstTime();\n        }\n    }\n\n    /// @dev Used for debugging\n    uint public flippedState;\n    function flipState() public {\n        emit ConsoleLog(\">SystemFeeds.flipState\");\n        flippedState++;\n        // if(flippedState % 2 == 0) {\n    }\n\n    /// @dev Used for debugging\n    function add2str(address x) public pure returns (string memory str) {\n        bytes memory s = new bytes(40);\n        for (uint i = 0; i < 20; i++) {\n            byte b = byte(uint8(uint(x) / (2**(8*(19 - i)))));\n            byte hi = byte(uint8(b) / 16);\n            byte lo = byte(uint8(b) - 16 * uint8(hi));\n            s[2*i] = char(hi);\n            s[2*i+1] = char(lo);\n        }\n        return string(s);\n    }\n\n    /// @dev Used for debugging\n    function char(byte b) public pure returns (byte c) {\n        if (uint8(b) < 10) return byte(uint8(b) + 0x30);\n        else return byte(uint8(b) + 0x57);\n    }\n\n    /// @dev Used for debugging\n    function uint2str(uint value) public pure returns (string memory str) {\n        uint i = value;\n        if (i == 0) return \"0\";\n        uint j = i;\n        uint len;\n        while (j != 0){\n            len++;\n            j /= 10;\n        }\n        bytes memory bstr = new bytes(len);\n        uint k = len - 1;\n        while (i != 0){\n            bstr[k--] = byte(uint8(48 + i % 10));\n            i /= 10;\n        }\n        return string(bstr);\n    }\n\n    /// @dev Used for debugging\n    event ConsoleLog(string message);\n}",
  "sourcePath": "/Users/nimakamoosi/repos/nimakam-private/stable-coin/ethereum/contracts/PriceFeed.sol",
  "compiler": {
    "name": "solc",
    "version": "0.5.12+commit.7709ece9.Emscripten.clang"
  },
  "schemaVersion": "3.0.19",
  "updatedAt": "2020-01-09T23:54:50.722Z",
  "devdoc": {
    "methods": {
      "add2str(address)": {
        "details": "Used for debugging"
      },
      "char(bytes1)": {
        "details": "Used for debugging"
      },
      "uint2str(uint256)": {
        "details": "Used for debugging"
      }
    }
  },
  "userdoc": {
    "methods": {}
  }
}