{
  "contractName": "PriceFeed",
  "abi": [
    {
      "inputs": [
        {
          "internalType": "address",
          "name": "_owner",
          "type": "address"
        },
        {
          "internalType": "address",
          "name": "_systemAddress",
          "type": "address"
        }
      ],
      "payable": false,
      "stateMutability": "nonpayable",
      "type": "constructor"
    },
    {
      "anonymous": false,
      "inputs": [
        {
          "indexed": false,
          "internalType": "string",
          "name": "message",
          "type": "string"
        }
      ],
      "name": "ConsoleLog",
      "type": "event"
    },
    {
      "anonymous": false,
      "inputs": [
        {
          "indexed": false,
          "internalType": "uint256",
          "name": "number",
          "type": "uint256"
        }
      ],
      "name": "ConsoleLogNumber",
      "type": "event"
    },
    {
      "constant": true,
      "inputs": [],
      "name": "callTime",
      "outputs": [
        {
          "internalType": "uint256",
          "name": "",
          "type": "uint256"
        }
      ],
      "payable": false,
      "stateMutability": "view",
      "type": "function"
    },
    {
      "constant": true,
      "inputs": [
        {
          "internalType": "uint256",
          "name": "",
          "type": "uint256"
        }
      ],
      "name": "delayedPrices",
      "outputs": [
        {
          "internalType": "uint256",
          "name": "ethPrice",
          "type": "uint256"
        },
        {
          "internalType": "uint256",
          "name": "pegPrice",
          "type": "uint256"
        },
        {
          "internalType": "uint256",
          "name": "priceTime",
          "type": "uint256"
        },
        {
          "internalType": "uint256",
          "name": "callTime",
          "type": "uint256"
        }
      ],
      "payable": false,
      "stateMutability": "view",
      "type": "function"
    },
    {
      "constant": true,
      "inputs": [],
      "name": "instantPrice",
      "outputs": [
        {
          "internalType": "uint256",
          "name": "ethPrice",
          "type": "uint256"
        },
        {
          "internalType": "uint256",
          "name": "callTime",
          "type": "uint256"
        }
      ],
      "payable": false,
      "stateMutability": "view",
      "type": "function"
    },
    {
      "constant": true,
      "inputs": [],
      "name": "owner",
      "outputs": [
        {
          "internalType": "address",
          "name": "",
          "type": "address"
        }
      ],
      "payable": false,
      "stateMutability": "view",
      "type": "function"
    },
    {
      "constant": true,
      "inputs": [],
      "name": "system",
      "outputs": [
        {
          "internalType": "contract System",
          "name": "",
          "type": "address"
        }
      ],
      "payable": false,
      "stateMutability": "view",
      "type": "function"
    },
    {
      "constant": true,
      "inputs": [],
      "name": "systemFeeds",
      "outputs": [
        {
          "internalType": "contract SystemFeeds",
          "name": "",
          "type": "address"
        }
      ],
      "payable": false,
      "stateMutability": "view",
      "type": "function"
    },
    {
      "constant": false,
      "inputs": [
        {
          "components": [
            {
              "internalType": "uint256",
              "name": "ethPrice",
              "type": "uint256"
            },
            {
              "internalType": "uint256",
              "name": "pegPrice",
              "type": "uint256"
            },
            {
              "internalType": "uint256",
              "name": "priceTime",
              "type": "uint256"
            },
            {
              "internalType": "uint256",
              "name": "callTime",
              "type": "uint256"
            }
          ],
          "internalType": "struct PriceFeed.DelayedPrice",
          "name": "delayedPrice",
          "type": "tuple"
        }
      ],
      "name": "reportDelayedPrices",
      "outputs": [],
      "payable": false,
      "stateMutability": "nonpayable",
      "type": "function"
    },
    {
      "constant": false,
      "inputs": [
        {
          "internalType": "uint256",
          "name": "ethPrice",
          "type": "uint256"
        }
      ],
      "name": "reportInstantPrice",
      "outputs": [],
      "payable": false,
      "stateMutability": "nonpayable",
      "type": "function"
    },
    {
      "constant": true,
      "inputs": [
        {
          "internalType": "address",
          "name": "x",
          "type": "address"
        }
      ],
      "name": "add2str",
      "outputs": [
        {
          "internalType": "string",
          "name": "str",
          "type": "string"
        }
      ],
      "payable": false,
      "stateMutability": "pure",
      "type": "function"
    },
    {
      "constant": true,
      "inputs": [
        {
          "internalType": "bytes1",
          "name": "b",
          "type": "bytes1"
        }
      ],
      "name": "char",
      "outputs": [
        {
          "internalType": "bytes1",
          "name": "c",
          "type": "bytes1"
        }
      ],
      "payable": false,
      "stateMutability": "pure",
      "type": "function"
    },
    {
      "constant": true,
      "inputs": [
        {
          "internalType": "uint256",
          "name": "value",
          "type": "uint256"
        }
      ],
      "name": "uint2str",
      "outputs": [
        {
          "internalType": "string",
          "name": "str",
          "type": "string"
        }
      ],
      "payable": false,
      "stateMutability": "pure",
      "type": "function"
    }
  ],
  "bytecode": "0x60806040523480156200001157600080fd5b50604051620013db380380620013db83398181016040526200003791908101906200014f565b7f0f8db0708c4e6b233e2c285fe1ed66015dee71bd374ac8e835534be5f592d6a26040516200006690620001d2565b60405180910390a1816000806101000a81548173ffffffffffffffffffffffffffffffffffffffff021916908373ffffffffffffffffffffffffffffffffffffffff16021790555033600160006101000a81548173ffffffffffffffffffffffffffffffffffffffff021916908373ffffffffffffffffffffffffffffffffffffffff16021790555080600260006101000a81548173ffffffffffffffffffffffffffffffffffffffff021916908373ffffffffffffffffffffffffffffffffffffffff160217905550505062000253565b600081519050620001498162000239565b92915050565b600080604083850312156200016357600080fd5b6000620001738582860162000138565b9250506020620001868582860162000138565b9150509250929050565b60006200019f601683620001f4565b91507f3e5072696365466565642e636f6e7374727563746f72000000000000000000006000830152602082019050919050565b60006020820190508181036000830152620001ed8162000190565b9050919050565b600082825260208201905092915050565b6000620002128262000219565b9050919050565b600073ffffffffffffffffffffffffffffffffffffffff82169050919050565b620002448162000205565b81146200025057600080fd5b50565b61117880620002636000396000f3fe608060405234801561001057600080fd5b50600436106100a95760003560e01c806395bf75fd1161007157806395bf75fd14610154578063b5a1341514610172578063bf211c7114610191578063c61304fa146101ad578063f769c50d146101dd578063f76f950e14610210576100a9565b80630f5e07c7146100ae57806319d51d89146100cc57806355145bba146100ea57806369f9ad2f146101065780638da5cb5b14610136575b600080fd5b6100b6610240565b6040516100c39190610ef9565b60405180910390f35b6100d4610246565b6040516100e19190610e0b565b60405180910390f35b61010460048036036100ff9190810190610b6e565b61026c565b005b610120600480360361011b9190810190610b1c565b6103aa565b60405161012d9190610df0565b60405180910390f35b61013e6103de565b60405161014b9190610dd5565b60405180910390f35b61015c610403565b6040516101699190610e26565b60405180910390f35b61017a610429565b604051610188929190610f14565b60405180910390f35b6101ab60048036036101a69190810190610b45565b61043b565b005b6101c760048036036101c29190810190610af3565b61076c565b6040516101d49190610e41565b60405180910390f35b6101f760048036036101f29190810190610b6e565b6108bb565b6040516102079493929190610f3d565b60405180910390f35b61022a60048036036102259190810190610b6e565b6108ee565b6040516102379190610e41565b60405180910390f35b60035481565b600160009054906101000a900473ffffffffffffffffffffffffffffffffffffffff1681565b3373ffffffffffffffffffffffffffffffffffffffff166000809054906101000a900473ffffffffffffffffffffffffffffffffffffffff1673ffffffffffffffffffffffffffffffffffffffff16146102fb576040517f08c379a00000000000000000000000000000000000000000000000000000000081526004016102f290610e83565b60405180910390fd5b610303610a22565b60035460206001018190555080602060000181905550600160009054906101000a900473ffffffffffffffffffffffffffffffffffffffff1673ffffffffffffffffffffffffffffffffffffffff1663b8d8f49860206040518263ffffffff1660e01b81526004016103759190610ede565b600060405180830381600087803b15801561038f57600080fd5b505af11580156103a3573d6000803e3d6000fd5b5050505050565b6000600a8260f81c60ff1610156103cc5760308260f81c0160f81b90506103d9565b60578260f81c0160f81b90505b919050565b6000809054906101000a900473ffffffffffffffffffffffffffffffffffffffff1681565b600260009054906101000a900473ffffffffffffffffffffffffffffffffffffffff1681565b60208060000154908060010154905082565b7f0f8db0708c4e6b233e2c285fe1ed66015dee71bd374ac8e835534be5f592d6a260405161046890610e63565b60405180910390a13373ffffffffffffffffffffffffffffffffffffffff166000809054906101000a900473ffffffffffffffffffffffffffffffffffffffff1673ffffffffffffffffffffffffffffffffffffffff16146104ff576040517f08c379a00000000000000000000000000000000000000000000000000000000081526004016104f690610e83565b60405180910390fd5b610507610a22565b60006201518063ffffffff16600260009054906101000a900473ffffffffffffffffffffffffffffffffffffffff1673ffffffffffffffffffffffffffffffffffffffff166341d76a9c6040518163ffffffff1660e01b815260040160206040518083038186803b15801561057b57600080fd5b505afa15801561058f573d6000803e3d6000fd5b505050506040513d601f19601f820116820180604052506105b39190810190610b97565b60035403816105be57fe5b04905060006201518063ffffffff16600260009054906101000a900473ffffffffffffffffffffffffffffffffffffffff1673ffffffffffffffffffffffffffffffffffffffff166341d76a9c6040518163ffffffff1660e01b815260040160206040518083038186803b15801561063557600080fd5b505afa158015610649573d6000803e3d6000fd5b505050506040513d601f19601f8201168201806040525061066d9190810190610b97565b8460400151038161067a57fe5b0490506001810163ffffffff168263ffffffff16146106ce576040517f08c379a00000000000000000000000000000000000000000000000000000000081526004016106c590610ea3565b60405180910390fd5b600354836060018181525050600160009054906101000a900473ffffffffffffffffffffffffffffffffffffffff1673ffffffffffffffffffffffffffffffffffffffff1663bf211c71846040518263ffffffff1660e01b81526004016107359190610ec3565b600060405180830381600087803b15801561074f57600080fd5b505af1158015610763573d6000803e3d6000fd5b50505050505050565b60608060286040519080825280601f01601f1916602001820160405280156107a35781602001600182028038833980820191505090505b50905060008090505b60148110156108b15760008160130360080260020a8573ffffffffffffffffffffffffffffffffffffffff16816107df57fe5b0460f81b9050600060108260f81c60ff16816107f757fe5b0460f81b905060008160f81c6010028360f81c0360f81b9050610819826103aa565b85856002028151811061082857fe5b60200101907effffffffffffffffffffffffffffffffffffffffffffffffffffffffffffff1916908160001a905350610860816103aa565b85600186600202018151811061087257fe5b60200101907effffffffffffffffffffffffffffffffffffffffffffffffffffffffffffff1916908160001a90535050505080806001019150506107ac565b5080915050919050565b600481600781106108c857fe5b600402016000915090508060000154908060010154908060020154908060030154905084565b60606000829050600081141561093c576040518060400160405280600181526020017f3000000000000000000000000000000000000000000000000000000000000000815250915050610a1d565b600081905060005b60008214610966578080600101915050600a828161095e57fe5b049150610944565b6060816040519080825280601f01601f19166020018201604052801561099b5781602001600182028038833980820191505090505b50905060006001830390505b60008514610a1457600a85816109b957fe5b0660300160f81b828280600190039350815181106109d357fe5b60200101907effffffffffffffffffffffffffffffffffffffffffffffffffffffffffffff1916908160001a905350600a8581610a0c57fe5b0494506109a7565b81955050505050505b919050565b42600381905550565b600081359050610a3a816110f0565b92915050565b600081359050610a4f81611107565b92915050565b600060808284031215610a6757600080fd5b610a716080610f82565b90506000610a8184828501610ac9565b6000830152506020610a9584828501610ac9565b6020830152506040610aa984828501610ac9565b6040830152506060610abd84828501610ac9565b60608301525092915050565b600081359050610ad88161111e565b92915050565b600081519050610aed8161111e565b92915050565b600060208284031215610b0557600080fd5b6000610b1384828501610a2b565b91505092915050565b600060208284031215610b2e57600080fd5b6000610b3c84828501610a40565b91505092915050565b600060808284031215610b5757600080fd5b6000610b6584828501610a55565b91505092915050565b600060208284031215610b8057600080fd5b6000610b8e84828501610ac9565b91505092915050565b600060208284031215610ba957600080fd5b6000610bb784828501610ade565b91505092915050565b610bc981610fd5565b82525050565b610bd881610fe7565b82525050565b610be78161103d565b82525050565b610bf681611061565b82525050565b6000610c0782610faf565b610c118185610fba565b9350610c21818560208601611085565b610c2a816110d2565b840191505092915050565b6000610c42601d83610fba565b91507f3e5072696365466565642e7265706f727444656c6179656450726963650000006000830152602082019050919050565b6000610c82601683610fba565b91507f73656e6465722073686f756c64206265206f776e6572000000000000000000006000830152602082019050919050565b6000610cc2602583610fba565b91507f70726963652073686f756c6420626520666f722065786163746c79203120646160008301527f792061676f0000000000000000000000000000000000000000000000000000006020830152604082019050919050565b608082016000820151610d316000850182610db7565b506020820151610d446020850182610db7565b506040820151610d576040850182610db7565b506060820151610d6a6060850182610db7565b50505050565b604082016000808301549050610d85816110b8565b610d926000860182610db7565b5060018301549050610da3816110b8565b610db06020860182610db7565b5050505050565b610dc081611033565b82525050565b610dcf81611033565b82525050565b6000602082019050610dea6000830184610bc0565b92915050565b6000602082019050610e056000830184610bcf565b92915050565b6000602082019050610e206000830184610bde565b92915050565b6000602082019050610e3b6000830184610bed565b92915050565b60006020820190508181036000830152610e5b8184610bfc565b905092915050565b60006020820190508181036000830152610e7c81610c35565b9050919050565b60006020820190508181036000830152610e9c81610c75565b9050919050565b60006020820190508181036000830152610ebc81610cb5565b9050919050565b6000608082019050610ed86000830184610d1b565b92915050565b6000604082019050610ef36000830184610d70565b92915050565b6000602082019050610f0e6000830184610dc6565b92915050565b6000604082019050610f296000830185610dc6565b610f366020830184610dc6565b9392505050565b6000608082019050610f526000830187610dc6565b610f5f6020830186610dc6565b610f6c6040830185610dc6565b610f796060830184610dc6565b95945050505050565b6000604051905081810181811067ffffffffffffffff82111715610fa557600080fd5b8060405250919050565b600081519050919050565b600082825260208201905092915050565b6000819050919050565b6000610fe082611013565b9050919050565b60007fff0000000000000000000000000000000000000000000000000000000000000082169050919050565b600073ffffffffffffffffffffffffffffffffffffffff82169050919050565b6000819050919050565b60006110488261104f565b9050919050565b600061105a82611013565b9050919050565b600061106c82611073565b9050919050565b600061107e82611013565b9050919050565b60005b838110156110a3578082015181840152602081019050611088565b838111156110b2576000848401525b50505050565b60006110cb6110c6836110e3565b610fcb565b9050919050565b6000601f19601f8301169050919050565b60008160001c9050919050565b6110f981610fd5565b811461110457600080fd5b50565b61111081610fe7565b811461111b57600080fd5b50565b61112781611033565b811461113257600080fd5b5056fea365627a7a7231582044c5c7cdc68d895ae0088042ff55a6dffc77ff2b2da660e03f1fc552f3bd3b326c6578706572696d656e74616cf564736f6c634300050c0040",
  "source": "pragma solidity ^0.5.11;\npragma experimental ABIEncoderV2;\n\nimport \"./System.sol\";\nimport \"./SystemFeeds.sol\";\n\ncontract PriceFeed {\n    address public owner;\n    SystemFeeds public systemFeeds;\n    System public system;\n\n    constructor(\n        address _owner,\n        address _systemAddress\n    ) public {\n        emit ConsoleLog(\">PriceFeed.constructor\");\n\n        owner = _owner;\n        systemFeeds = SystemFeeds(msg.sender);\n        system = System(_systemAddress);\n    }\n\n    uint256 public callTime;\n    function setCallTime() private\n    {\n        callTime = block.timestamp;\n    }\n\n    uint32 constant SECONDS_PER_DAY = 86400; // SECONDS_PER_MINUTE * MINUTES_PER_HOUR * HOURS_PER_DAY = 60 * 60 * 24\n    uint32 constant DAYS_PER_WEEK = 7;\n    // uint32 constant WEEKS_PER_PERIOD = 5; // 35 days = ~1 month\n    // uint32 constant PERIODS_PER_PERIOD2S = 5; // 175 days = ~0.48 years\n    // uint32 constant PERIOD2S_PER_PERIOD3S = 5; // 875 days = ~2.4 years\n    // uint32 constant PERIOD3S_PER_PERIOD4S = 5; // 4378 days = ~12 years\n    // uint32 constant PERIOD4S_PER_PERIOD5S = 5; // 21875 days = ~60 years\n\n    DelayedPrice[DAYS_PER_WEEK] public delayedPrices;\n    struct DelayedPrice {\n        uint256 ethPrice;\n        uint256 pegPrice;\n        uint256 priceTime;\n        uint256 callTime;\n    }\n\n    function reportDelayedPrices(DelayedPrice memory delayedPrice) public {\n        emit ConsoleLog(\">PriceFeed.reportDelayedPrice\");\n        require(owner == msg.sender, \"sender should be owner\");\n        setCallTime();\n\n        // Validate price time\n        uint32 callDay = uint32((callTime - system.firstTime()) / SECONDS_PER_DAY);\n        uint32 priceDay = uint32((delayedPrice.priceTime - system.firstTime()) / SECONDS_PER_DAY);\n        require(callDay == priceDay + 1, \"price should be for exactly 1 day ago\");\n\n        delayedPrice.callTime = callTime; // set reported time to call time. Ignore the value set by caller.\n        systemFeeds.reportDelayedPrices(delayedPrice);\n    }\n\n    // function validateDelayedPrice(DelayedPrice memory delayedPrice) private\n    // {\n    //     uint32 callDay = uint32((callTime - system.firstTime()) / SECONDS_PER_DAY);\n    //     uint32 priceDay = uint32((delayedPrice.priceTime - system.firstTime()) / SECONDS_PER_DAY);\n    //     require(callDay == priceDay + 1, \"price should be for exactly 1 day ago\");\n    // }\n\n    InstantPrice public instantPrice;\n    struct InstantPrice {\n        uint256 ethPrice;\n        uint256 callTime;\n    }\n\n    function reportInstantPrice(uint256 ethPrice) public {\n        require(owner == msg.sender, \"sender should be owner\");\n        setCallTime();\n        instantPrice.callTime = callTime;\n        instantPrice.ethPrice = ethPrice;\n\n        systemFeeds.reportInstantPrice(instantPrice);\n    }\n\n    // uint256 public processingWeekStartTime;\n    // function processTime() public\n    // {\n    //     setCallTime();\n\n    //     if (processingWeekStartTime == 0) {\n    //         processingWeekStartTime = callTime;\n    //     }\n\n    //     if (callTime >= processingWeekStartTime + SECONDS_PER_DAY * DAYS_PER_WEEK) {\n    //         processingWeekStartTime = ((callTime - system.firstTime()) / (SECONDS_PER_DAY * DAYS_PER_WEEK)) * (SECONDS_PER_DAY * DAYS_PER_WEEK) + system.firstTime();\n    //     }\n    // }\n\n    /// @dev Used for debugging\n    function add2str(address x) public pure returns (string memory str) {\n        bytes memory s = new bytes(40);\n        for (uint i = 0; i < 20; i++) {\n            byte b = byte(uint8(uint(x) / (2**(8*(19 - i)))));\n            byte hi = byte(uint8(b) / 16);\n            byte lo = byte(uint8(b) - 16 * uint8(hi));\n            s[2*i] = char(hi);\n            s[2*i+1] = char(lo);\n        }\n        return string(s);\n    }\n\n    /// @dev Used for debugging\n    function char(byte b) public pure returns (byte c) {\n        if (uint8(b) < 10) return byte(uint8(b) + 0x30);\n        else return byte(uint8(b) + 0x57);\n    }\n\n    /// @dev Used for debugging\n    function uint2str(uint value) public pure returns (string memory str) {\n        uint i = value;\n        if (i == 0) return \"0\";\n        uint j = i;\n        uint len;\n        while (j != 0){\n            len++;\n            j /= 10;\n        }\n        bytes memory bstr = new bytes(len);\n        uint k = len - 1;\n        while (i != 0){\n            bstr[k--] = byte(uint8(48 + i % 10));\n            i /= 10;\n        }\n        return string(bstr);\n    }\n\n    /// @dev Used for debugging\n    event ConsoleLog(string message);\n    event ConsoleLogNumber(uint number);\n}",
  "sourcePath": "/Users/nimakamoosi/repos/nimakam-private/stable-coin/ethereum/contracts/PriceFeed.sol",
  "compiler": {
    "name": "solc",
    "version": "0.5.12+commit.7709ece9.Emscripten.clang"
  },
  "schemaVersion": "3.0.19",
  "updatedAt": "2020-01-22T22:16:12.137Z",
  "devdoc": {
    "methods": {
      "add2str(address)": {
        "details": "Used for debugging"
      },
      "char(bytes1)": {
        "details": "Used for debugging"
      },
      "uint2str(uint256)": {
        "details": "Used for debugging"
      }
    }
  },
  "userdoc": {
    "methods": {}
  }
}