{
  "contractName": "SavingsAccount",
  "abi": [
    {
      "inputs": [
        {
          "internalType": "address",
          "name": "_owner",
          "type": "address"
        },
        {
          "internalType": "address",
          "name": "_peggedTokenAddress",
          "type": "address"
        }
      ],
      "payable": false,
      "stateMutability": "nonpayable",
      "type": "constructor"
    },
    {
      "anonymous": false,
      "inputs": [
        {
          "indexed": false,
          "internalType": "string",
          "name": "message",
          "type": "string"
        }
      ],
      "name": "ConsoleLog",
      "type": "event"
    },
    {
      "constant": true,
      "inputs": [],
      "name": "callTime",
      "outputs": [
        {
          "internalType": "uint256",
          "name": "",
          "type": "uint256"
        }
      ],
      "payable": false,
      "stateMutability": "view",
      "type": "function"
    },
    {
      "constant": true,
      "inputs": [],
      "name": "downVotedFeedAddress",
      "outputs": [
        {
          "internalType": "address",
          "name": "",
          "type": "address"
        }
      ],
      "payable": false,
      "stateMutability": "view",
      "type": "function"
    },
    {
      "constant": true,
      "inputs": [],
      "name": "lastInterestTime",
      "outputs": [
        {
          "internalType": "uint256",
          "name": "",
          "type": "uint256"
        }
      ],
      "payable": false,
      "stateMutability": "view",
      "type": "function"
    },
    {
      "constant": true,
      "inputs": [],
      "name": "owner",
      "outputs": [
        {
          "internalType": "address",
          "name": "",
          "type": "address"
        }
      ],
      "payable": false,
      "stateMutability": "view",
      "type": "function"
    },
    {
      "constant": true,
      "inputs": [],
      "name": "peggedToken",
      "outputs": [
        {
          "internalType": "contract PeggedToken",
          "name": "",
          "type": "address"
        }
      ],
      "payable": false,
      "stateMutability": "view",
      "type": "function"
    },
    {
      "constant": true,
      "inputs": [],
      "name": "registeredBalance",
      "outputs": [
        {
          "internalType": "uint256",
          "name": "",
          "type": "uint256"
        }
      ],
      "payable": false,
      "stateMutability": "view",
      "type": "function"
    },
    {
      "constant": true,
      "inputs": [],
      "name": "systemSavings",
      "outputs": [
        {
          "internalType": "contract SystemSavings",
          "name": "",
          "type": "address"
        }
      ],
      "payable": false,
      "stateMutability": "view",
      "type": "function"
    },
    {
      "constant": false,
      "inputs": [],
      "name": "accumulateInterest",
      "outputs": [],
      "payable": false,
      "stateMutability": "nonpayable",
      "type": "function"
    },
    {
      "constant": false,
      "inputs": [
        {
          "internalType": "uint256",
          "name": "_registerValue",
          "type": "uint256"
        }
      ],
      "name": "registerCurrencySkipInterest",
      "outputs": [],
      "payable": false,
      "stateMutability": "nonpayable",
      "type": "function"
    },
    {
      "constant": false,
      "inputs": [
        {
          "internalType": "uint256",
          "name": "_unregisterValue",
          "type": "uint256"
        }
      ],
      "name": "unregisterCurrencySkipInterest",
      "outputs": [],
      "payable": false,
      "stateMutability": "nonpayable",
      "type": "function"
    },
    {
      "constant": false,
      "inputs": [
        {
          "internalType": "address",
          "name": "_withdrawToAddress",
          "type": "address"
        },
        {
          "internalType": "uint256",
          "name": "_withdrawValue",
          "type": "uint256"
        }
      ],
      "name": "withdrawCurrency",
      "outputs": [],
      "payable": false,
      "stateMutability": "nonpayable",
      "type": "function"
    },
    {
      "constant": false,
      "inputs": [
        {
          "internalType": "address",
          "name": "_withdrawToAddress",
          "type": "address"
        }
      ],
      "name": "withdrawAllCurrencyWithInterest",
      "outputs": [],
      "payable": false,
      "stateMutability": "nonpayable",
      "type": "function"
    },
    {
      "constant": true,
      "inputs": [
        {
          "internalType": "address",
          "name": "x",
          "type": "address"
        }
      ],
      "name": "add2str",
      "outputs": [
        {
          "internalType": "string",
          "name": "str",
          "type": "string"
        }
      ],
      "payable": false,
      "stateMutability": "pure",
      "type": "function"
    },
    {
      "constant": true,
      "inputs": [
        {
          "internalType": "bytes1",
          "name": "b",
          "type": "bytes1"
        }
      ],
      "name": "char",
      "outputs": [
        {
          "internalType": "bytes1",
          "name": "c",
          "type": "bytes1"
        }
      ],
      "payable": false,
      "stateMutability": "pure",
      "type": "function"
    },
    {
      "constant": true,
      "inputs": [
        {
          "internalType": "uint256",
          "name": "value",
          "type": "uint256"
        }
      ],
      "name": "uint2str",
      "outputs": [
        {
          "internalType": "string",
          "name": "str",
          "type": "string"
        }
      ],
      "payable": false,
      "stateMutability": "pure",
      "type": "function"
    }
  ],
  "bytecode": "0x60806040523480156200001157600080fd5b50604051620026ec380380620026ec833981810160405262000037919081019062000118565b816000806101000a81548173ffffffffffffffffffffffffffffffffffffffff021916908373ffffffffffffffffffffffffffffffffffffffff16021790555033600160006101000a81548173ffffffffffffffffffffffffffffffffffffffff021916908373ffffffffffffffffffffffffffffffffffffffff16021790555080600260006101000a81548173ffffffffffffffffffffffffffffffffffffffff021916908373ffffffffffffffffffffffffffffffffffffffff1602179055505050620001a7565b60008151905062000112816200018d565b92915050565b600080604083850312156200012c57600080fd5b60006200013c8582860162000101565b92505060206200014f8582860162000101565b9150509250929050565b600062000166826200016d565b9050919050565b600073ffffffffffffffffffffffffffffffffffffffff82169050919050565b620001988162000159565b8114620001a457600080fd5b50565b61253580620001b76000396000f3fe608060405234801561001057600080fd5b50600436106100f45760003560e01c806369f9ad2f11610097578063c61304fa11610066578063c61304fa1461023d578063e54436811461026d578063f76f950e14610289578063fb9883cb146102b9576100f4565b806369f9ad2f146101c75780638da5cb5b146101f75780639147b27914610215578063bf95d0e014610233576100f4565b80631fc6109d116100d35780631fc6109d1461015357806320ccb815146101715780633555d96f1461018d5780635ec181fe146101ab576100f4565b8062e77aa6146100f9578063085b7c91146101175780630f5e07c714610135575b600080fd5b6101016102d5565b60405161010e9190612110565b60405180910390f35b61011f6102fb565b60405161012c919061212b565b60405180910390f35b61013d610321565b60405161014a91906122c8565b60405180910390f35b61015b610327565b60405161016891906122c8565b60405180910390f35b61018b60048036036101869190810190611ae1565b61032d565b005b610195610652565b6040516101a291906122c8565b60405180910390f35b6101c560048036036101c09190810190611a2a565b610658565b005b6101e160048036036101dc9190810190611ab8565b610cf5565b6040516101ee91906120f5565b60405180910390f35b6101ff610d29565b60405161020c91906120b1565b60405180910390f35b61021d610d4e565b60405161022a91906120b1565b60405180910390f35b61023b610d74565b005b61025760048036036102529190810190611a2a565b6110cf565b6040516102649190612146565b60405180910390f35b61028760048036036102829190810190611ae1565b61121e565b005b6102a3600480360361029e9190810190611ae1565b611504565b6040516102b09190612146565b60405180910390f35b6102d360048036036102ce9190810190611a53565b611638565b005b600260009054906101000a900473ffffffffffffffffffffffffffffffffffffffff1681565b600160009054906101000a900473ffffffffffffffffffffffffffffffffffffffff1681565b60065481565b60045481565b3373ffffffffffffffffffffffffffffffffffffffff166000809054906101000a900473ffffffffffffffffffffffffffffffffffffffff1673ffffffffffffffffffffffffffffffffffffffff16146103bc576040517f08c379a00000000000000000000000000000000000000000000000000000000081526004016103b390612208565b60405180910390fd5b600354811115610401576040517f08c379a00000000000000000000000000000000000000000000000000000000081526004016103f890612268565b60405180910390fd5b6000600260009054906101000a900473ffffffffffffffffffffffffffffffffffffffff1673ffffffffffffffffffffffffffffffffffffffff166370a08231306040518263ffffffff1660e01b815260040161045e91906120b1565b60206040518083038186803b15801561047657600080fd5b505afa15801561048a573d6000803e3d6000fd5b505050506040513d601f19601f820116820180604052506104ae9190810190611b0a565b90507f0f8db0708c4e6b233e2c285fe1ed66015dee71bd374ac8e835534be5f592d6a26040516104dd90612288565b60405180910390a17f0f8db0708c4e6b233e2c285fe1ed66015dee71bd374ac8e835534be5f592d6a261050f83611504565b60405161051c9190612146565b60405180910390a17f0f8db0708c4e6b233e2c285fe1ed66015dee71bd374ac8e835534be5f592d6a2610550600354611504565b60405161055d9190612146565b60405180910390a17f0f8db0708c4e6b233e2c285fe1ed66015dee71bd374ac8e835534be5f592d6a261058f82611504565b60405161059c9190612146565b60405180910390a1600160009054906101000a900473ffffffffffffffffffffffffffffffffffffffff1673ffffffffffffffffffffffffffffffffffffffff1663cd2e984f600354846040518363ffffffff1660e01b815260040161060392919061231a565b600060405180830381600087803b15801561061d57600080fd5b505af1158015610631573d6000803e3d6000fd5b50505050816003600082825403925050819055506006546004819055505050565b60035481565b3373ffffffffffffffffffffffffffffffffffffffff166000809054906101000a900473ffffffffffffffffffffffffffffffffffffffff1673ffffffffffffffffffffffffffffffffffffffff16146106e7576040517f08c379a00000000000000000000000000000000000000000000000000000000081526004016106de90612208565b60405180910390fd5b6106ef6119b8565b6000600260009054906101000a900473ffffffffffffffffffffffffffffffffffffffff1673ffffffffffffffffffffffffffffffffffffffff166370a08231306040518263ffffffff1660e01b815260040161074c91906120b1565b60206040518083038186803b15801561076457600080fd5b505afa158015610778573d6000803e3d6000fd5b505050506040513d601f19601f8201168201806040525061079c9190810190611b0a565b90506003548110156107e3576040517f08c379a00000000000000000000000000000000000000000000000000000000081526004016107da906122a8565b60405180910390fd5b7f0f8db0708c4e6b233e2c285fe1ed66015dee71bd374ac8e835534be5f592d6a2604051610810906121e8565b60405180910390a17f0f8db0708c4e6b233e2c285fe1ed66015dee71bd374ac8e835534be5f592d6a2610842836110cf565b60405161084f9190612146565b60405180910390a17f0f8db0708c4e6b233e2c285fe1ed66015dee71bd374ac8e835534be5f592d6a261088182611504565b60405161088e9190612146565b60405180910390a17f0f8db0708c4e6b233e2c285fe1ed66015dee71bd374ac8e835534be5f592d6a26108c2600354611504565b6040516108cf9190612146565b60405180910390a17f0f8db0708c4e6b233e2c285fe1ed66015dee71bd374ac8e835534be5f592d6a260405161090490612168565b60405180910390a17f0f8db0708c4e6b233e2c285fe1ed66015dee71bd374ac8e835534be5f592d6a2610938600654611504565b6040516109459190612146565b60405180910390a17f0f8db0708c4e6b233e2c285fe1ed66015dee71bd374ac8e835534be5f592d6a2610979600454611504565b6040516109869190612146565b60405180910390a16000600160009054906101000a900473ffffffffffffffffffffffffffffffffffffffff1673ffffffffffffffffffffffffffffffffffffffff1663a4516d916004546006546003546040518463ffffffff1660e01b81526004016109f593929190612343565b602060405180830381600087803b158015610a0f57600080fd5b505af1158015610a23573d6000803e3d6000fd5b505050506040513d601f19601f82011682018060405250610a479190810190611b0a565b905080600360008282540192505081905550600160009054906101000a900473ffffffffffffffffffffffffffffffffffffffff1673ffffffffffffffffffffffffffffffffffffffff1663cd2e984f6003546003546040518363ffffffff1660e01b8152600401610aba92919061231a565b600060405180830381600087803b158015610ad457600080fd5b505af1158015610ae8573d6000803e3d6000fd5b5050505060006003819055506006546004819055506000600260009054906101000a900473ffffffffffffffffffffffffffffffffffffffff1673ffffffffffffffffffffffffffffffffffffffff166370a08231306040518263ffffffff1660e01b8152600401610b5a91906120b1565b60206040518083038186803b158015610b7257600080fd5b505afa158015610b86573d6000803e3d6000fd5b505050506040513d601f19601f82011682018060405250610baa9190810190611b0a565b9050600160009054906101000a900473ffffffffffffffffffffffffffffffffffffffff1673ffffffffffffffffffffffffffffffffffffffff1663af8431f560035486846040518463ffffffff1660e01b8152600401610c0d939291906122e3565b600060405180830381600087803b158015610c2757600080fd5b505af1158015610c3b573d6000803e3d6000fd5b50505050600260009054906101000a900473ffffffffffffffffffffffffffffffffffffffff1673ffffffffffffffffffffffffffffffffffffffff1663a9059cbb85836040518363ffffffff1660e01b8152600401610c9c9291906120cc565b602060405180830381600087803b158015610cb657600080fd5b505af1158015610cca573d6000803e3d6000fd5b505050506040513d601f19601f82011682018060405250610cee9190810190611a8f565b5050505050565b6000600a8260f81c60ff161015610d175760308260f81c0160f81b9050610d24565b60578260f81c0160f81b90505b919050565b6000809054906101000a900473ffffffffffffffffffffffffffffffffffffffff1681565b600560009054906101000a900473ffffffffffffffffffffffffffffffffffffffff1681565b3373ffffffffffffffffffffffffffffffffffffffff166000809054906101000a900473ffffffffffffffffffffffffffffffffffffffff1673ffffffffffffffffffffffffffffffffffffffff1614610e03576040517f08c379a0000000000000000000000000000000000000000000000000000000008152600401610dfa90612208565b60405180910390fd5b610e0b6119b8565b6000600260009054906101000a900473ffffffffffffffffffffffffffffffffffffffff1673ffffffffffffffffffffffffffffffffffffffff166370a08231306040518263ffffffff1660e01b8152600401610e6891906120b1565b60206040518083038186803b158015610e8057600080fd5b505afa158015610e94573d6000803e3d6000fd5b505050506040513d601f19601f82011682018060405250610eb89190810190611b0a565b9050806003541115610eff576040517f08c379a0000000000000000000000000000000000000000000000000000000008152600401610ef6906121c8565b60405180910390fd5b7f0f8db0708c4e6b233e2c285fe1ed66015dee71bd374ac8e835534be5f592d6a2604051610f2c90612228565b60405180910390a17f0f8db0708c4e6b233e2c285fe1ed66015dee71bd374ac8e835534be5f592d6a2610f60600654611504565b604051610f6d9190612146565b60405180910390a17f0f8db0708c4e6b233e2c285fe1ed66015dee71bd374ac8e835534be5f592d6a2610fa1600454611504565b604051610fae9190612146565b60405180910390a17f0f8db0708c4e6b233e2c285fe1ed66015dee71bd374ac8e835534be5f592d6a2610fe2600354611504565b604051610fef9190612146565b60405180910390a16000600160009054906101000a900473ffffffffffffffffffffffffffffffffffffffff1673ffffffffffffffffffffffffffffffffffffffff1663a4516d916004546006546003546040518463ffffffff1660e01b815260040161105e93929190612343565b602060405180830381600087803b15801561107857600080fd5b505af115801561108c573d6000803e3d6000fd5b505050506040513d601f19601f820116820180604052506110b09190810190611b0a565b9050806003600082825401925050819055506006546004819055505050565b60608060286040519080825280601f01601f1916602001820160405280156111065781602001600182028038833980820191505090505b50905060008090505b60148110156112145760008160130360080260020a8573ffffffffffffffffffffffffffffffffffffffff168161114257fe5b0460f81b9050600060108260f81c60ff168161115a57fe5b0460f81b905060008160f81c6010028360f81c0360f81b905061117c82610cf5565b85856002028151811061118b57fe5b60200101907effffffffffffffffffffffffffffffffffffffffffffffffffffffffffffff1916908160001a9053506111c381610cf5565b8560018660020201815181106111d557fe5b60200101907effffffffffffffffffffffffffffffffffffffffffffffffffffffffffffff1916908160001a905350505050808060010191505061110f565b5080915050919050565b3373ffffffffffffffffffffffffffffffffffffffff166000809054906101000a900473ffffffffffffffffffffffffffffffffffffffff1673ffffffffffffffffffffffffffffffffffffffff16146112ad576040517f08c379a00000000000000000000000000000000000000000000000000000000081526004016112a490612208565b60405180910390fd5b6000600260009054906101000a900473ffffffffffffffffffffffffffffffffffffffff1673ffffffffffffffffffffffffffffffffffffffff166370a08231306040518263ffffffff1660e01b815260040161130a91906120b1565b60206040518083038186803b15801561132257600080fd5b505afa158015611336573d6000803e3d6000fd5b505050506040513d601f19601f8201168201806040525061135a9190810190611b0a565b905080826003540111156113a3576040517f08c379a000000000000000000000000000000000000000000000000000000000815260040161139a906121c8565b60405180910390fd5b7f0f8db0708c4e6b233e2c285fe1ed66015dee71bd374ac8e835534be5f592d6a26040516113d090612188565b60405180910390a17f0f8db0708c4e6b233e2c285fe1ed66015dee71bd374ac8e835534be5f592d6a261140283611504565b60405161140f9190612146565b60405180910390a17f0f8db0708c4e6b233e2c285fe1ed66015dee71bd374ac8e835534be5f592d6a261144182611504565b60405161144e9190612146565b60405180910390a1600160009054906101000a900473ffffffffffffffffffffffffffffffffffffffff1673ffffffffffffffffffffffffffffffffffffffff1663a7ae5a7b600354846040518363ffffffff1660e01b81526004016114b592919061231a565b600060405180830381600087803b1580156114cf57600080fd5b505af11580156114e3573d6000803e3d6000fd5b50505050816003600082825401925050819055506006546004819055505050565b606060008290506000811415611552576040518060400160405280600181526020017f3000000000000000000000000000000000000000000000000000000000000000815250915050611633565b600081905060005b6000821461157c578080600101915050600a828161157457fe5b04915061155a565b6060816040519080825280601f01601f1916602001820160405280156115b15781602001600182028038833980820191505090505b50905060006001830390505b6000851461162a57600a85816115cf57fe5b0660300160f81b828280600190039350815181106115e957fe5b60200101907effffffffffffffffffffffffffffffffffffffffffffffffffffffffffffff1916908160001a905350600a858161162257fe5b0494506115bd565b81955050505050505b919050565b3373ffffffffffffffffffffffffffffffffffffffff166000809054906101000a900473ffffffffffffffffffffffffffffffffffffffff1673ffffffffffffffffffffffffffffffffffffffff16146116c7576040517f08c379a00000000000000000000000000000000000000000000000000000000081526004016116be90612208565b60405180910390fd5b7f0f8db0708c4e6b233e2c285fe1ed66015dee71bd374ac8e835534be5f592d6a26040516116f490612248565b60405180910390a17f0f8db0708c4e6b233e2c285fe1ed66015dee71bd374ac8e835534be5f592d6a2611726836110cf565b6040516117339190612146565b60405180910390a17f0f8db0708c4e6b233e2c285fe1ed66015dee71bd374ac8e835534be5f592d6a261176582611504565b6040516117729190612146565b60405180910390a16000600260009054906101000a900473ffffffffffffffffffffffffffffffffffffffff1673ffffffffffffffffffffffffffffffffffffffff166370a08231306040518263ffffffff1660e01b81526004016117d791906120b1565b60206040518083038186803b1580156117ef57600080fd5b505afa158015611803573d6000803e3d6000fd5b505050506040513d601f19601f820116820180604052506118279190810190611b0a565b90508181036003541115611870576040517f08c379a0000000000000000000000000000000000000000000000000000000008152600401611867906121a8565b60405180910390fd5b600160009054906101000a900473ffffffffffffffffffffffffffffffffffffffff1673ffffffffffffffffffffffffffffffffffffffff1663af8431f560035485856040518463ffffffff1660e01b81526004016118d1939291906122e3565b600060405180830381600087803b1580156118eb57600080fd5b505af11580156118ff573d6000803e3d6000fd5b50505050600260009054906101000a900473ffffffffffffffffffffffffffffffffffffffff1673ffffffffffffffffffffffffffffffffffffffff1663a9059cbb84846040518363ffffffff1660e01b81526004016119609291906120cc565b602060405180830381600087803b15801561197a57600080fd5b505af115801561198e573d6000803e3d6000fd5b505050506040513d601f19601f820116820180604052506119b29190810190611a8f565b50505050565b42600681905550565b6000813590506119d081612496565b92915050565b6000815190506119e5816124ad565b92915050565b6000813590506119fa816124c4565b92915050565b600081359050611a0f816124db565b92915050565b600081519050611a24816124db565b92915050565b600060208284031215611a3c57600080fd5b6000611a4a848285016119c1565b91505092915050565b60008060408385031215611a6657600080fd5b6000611a74858286016119c1565b9250506020611a8585828601611a00565b9150509250929050565b600060208284031215611aa157600080fd5b6000611aaf848285016119d6565b91505092915050565b600060208284031215611aca57600080fd5b6000611ad8848285016119eb565b91505092915050565b600060208284031215611af357600080fd5b6000611b0184828501611a00565b91505092915050565b600060208284031215611b1c57600080fd5b6000611b2a84828501611a15565b91505092915050565b611b3c81612396565b82525050565b611b4b816123b4565b82525050565b611b5a8161240a565b82525050565b611b698161242e565b82525050565b6000611b7a8261237a565b611b848185612385565b9350611b94818560208601612452565b611b9d81612485565b840191505092915050565b6000611bb5604983612385565b91507f3e536176696e67734163636f756e742e7769746864726177416c6c437572726560008301527f6e637957697468496e7465726573742063616c6c54696d65206c617374496e7460208301527f657265737454696d6500000000000000000000000000000000000000000000006040830152606082019050919050565b6000611c41604a83612385565b91507f3e536176696e67734163636f756e742e726567697374657243757272656e637960008301527f536b6970496e746572657374205f726567697374657256616c7565206375727260208301527f656e7442616c616e6365000000000000000000000000000000000000000000006040830152606082019050919050565b6000611ccd603d83612385565b91507f776974686472617720616d6f756e742063616e6e6f74206c6f7765722062616c60008301527f616e63652062656c6f7720726567697374657265642062616c616e63650000006020830152604082019050919050565b6000611d33602c83612385565b91507f726567697374657265642062616c616e63652073686f756c64206e6f7420657860008301527f636565642062616c616e636500000000000000000000000000000000000000006020830152604082019050919050565b6000611d99606383612385565b91507f3e536176696e67734163636f756e742e7769746864726177416c6c437572726560008301527f6e637957697468496e746572657374205f7769746864726177546f416464726560208301527f73732063757272656e7442616c616e6365207265676973746572656442616c6160408301527f6e636500000000000000000000000000000000000000000000000000000000006060830152608082019050919050565b6000611e4b601683612385565b91507f73656e6465722073686f756c64206265206f776e6572000000000000000000006000830152602082019050919050565b6000611e8b603f83612385565b91507f3e616363756d756c617465496e7465726573742063616c6c54696d65206c617360008301527f74496e74657265737454696d65207265676973746572656442616c616e6365006020830152604082019050919050565b6000611ef1603383612385565b91507f3e776974686472617743757272656e6379205f7769746864726177546f41646460008301527f72657373205f776974686472617756616c7565000000000000000000000000006020830152604082019050919050565b6000611f57603383612385565b91507f756e726567697374657220726571756573742063616e6e6f742065786365656460008301527f20726567697374657265642062616c616e6365000000000000000000000000006020830152604082019050919050565b6000611fbd604583612385565b91507f3e756e726567697374657243757272656e6379205f756e72656769737465725660008301527f616c7565207265676973746572656442616c616e63652063757272656e74426160208301527f6c616e63650000000000000000000000000000000000000000000000000000006040830152606082019050919050565b6000612049602883612385565b91507f726567697374657265642062616c616e63652063616e6e6f742065786365656460008301527f2062616c616e63650000000000000000000000000000000000000000000000006020830152604082019050919050565b6120ab81612400565b82525050565b60006020820190506120c66000830184611b33565b92915050565b60006040820190506120e16000830185611b33565b6120ee60208301846120a2565b9392505050565b600060208201905061210a6000830184611b42565b92915050565b60006020820190506121256000830184611b51565b92915050565b60006020820190506121406000830184611b60565b92915050565b600060208201905081810360008301526121608184611b6f565b905092915050565b6000602082019050818103600083015261218181611ba8565b9050919050565b600060208201905081810360008301526121a181611c34565b9050919050565b600060208201905081810360008301526121c181611cc0565b9050919050565b600060208201905081810360008301526121e181611d26565b9050919050565b6000602082019050818103600083015261220181611d8c565b9050919050565b6000602082019050818103600083015261222181611e3e565b9050919050565b6000602082019050818103600083015261224181611e7e565b9050919050565b6000602082019050818103600083015261226181611ee4565b9050919050565b6000602082019050818103600083015261228181611f4a565b9050919050565b600060208201905081810360008301526122a181611fb0565b9050919050565b600060208201905081810360008301526122c18161203c565b9050919050565b60006020820190506122dd60008301846120a2565b92915050565b60006060820190506122f860008301866120a2565b6123056020830185611b33565b61231260408301846120a2565b949350505050565b600060408201905061232f60008301856120a2565b61233c60208301846120a2565b9392505050565b600060608201905061235860008301866120a2565b61236560208301856120a2565b61237260408301846120a2565b949350505050565b600081519050919050565b600082825260208201905092915050565b60006123a1826123e0565b9050919050565b60008115159050919050565b60007fff0000000000000000000000000000000000000000000000000000000000000082169050919050565b600073ffffffffffffffffffffffffffffffffffffffff82169050919050565b6000819050919050565b60006124158261241c565b9050919050565b6000612427826123e0565b9050919050565b600061243982612440565b9050919050565b600061244b826123e0565b9050919050565b60005b83811015612470578082015181840152602081019050612455565b8381111561247f576000848401525b50505050565b6000601f19601f8301169050919050565b61249f81612396565b81146124aa57600080fd5b50565b6124b6816123a8565b81146124c157600080fd5b50565b6124cd816123b4565b81146124d857600080fd5b50565b6124e481612400565b81146124ef57600080fd5b5056fea365627a7a723158200cea9d34ff216f7482c3c6ba9115b209fcbd7cbf3574ab44654e84a8cbadbc0f6c6578706572696d656e74616cf564736f6c634300050c0040",
  "source": "pragma solidity ^0.5.11;\npragma experimental ABIEncoderV2;\n\nimport \"./System.sol\";\nimport \"./PeggedToken.sol\";\nimport \"./SystemSavings.sol\";\n\n/// @author Nima Kamoosi\n/// @title Savings Account contract of the \\{\\{PegLoan\\}\\} currency peg system\n/// @notice The Savings Account contract holds the state of a given savings account, as part of the \\{\\{PegLoan\\}\\} currency peg system.\n/// It works alongside the System, PriceFeed, and PeggedCurrency contracts to make the whole system function.\n/// @dev The contained state includes the contract owner, savings interest currency balance.\ncontract SavingsAccount {\n    address public owner; // Loan owner account or contract\n    SystemSavings public systemSavings; // The main system contract instance\n    PeggedToken public peggedToken; // The main system contract instance\n\n    uint256 public registeredBalance;\n    uint256 public lastInterestTime;\n    address public downVotedFeedAddress;\n\n    /// Constructor\n    /// @param _owner is owner of the loan and is set at time of creation\n    /// @dev creats the loan instnace, sets its owner, and assigns the main system contract instance\n    constructor(\n        address _owner,\n        address _peggedTokenAddress\n    ) public {\n        owner = _owner;\n        systemSavings = SystemSavings(msg.sender);\n        peggedToken = PeggedToken(_peggedTokenAddress);\n    }\n\n    function accumulateInterest() public {\n        require(owner == msg.sender, \"sender should be owner\");\n        setCallTime();\n\n        uint256 currentBalance = peggedToken.balanceOf(address(this));\n        require(registeredBalance <= currentBalance, \"registered balance should not exceed balance\");\n\n        emit ConsoleLog(\">accumulateInterest callTime lastInterestTime registeredBalance\");\n        emit ConsoleLog(uint2str(callTime));\n        emit ConsoleLog(uint2str(lastInterestTime));\n        emit ConsoleLog(uint2str(registeredBalance));\n\n        uint256 interestTransferred = systemSavings.accumulateInterest(lastInterestTime, callTime, registeredBalance);\n        registeredBalance += interestTransferred;\n        lastInterestTime = callTime;\n    }\n\n    function registerCurrencySkipInterest(uint256 _registerValue) public {\n        require(owner == msg.sender, \"sender should be owner\");\n\n        uint256 currentBalance = peggedToken.balanceOf(address(this));\n        require(registeredBalance + _registerValue <= currentBalance, \"registered balance should not exceed balance\");\n\n        emit ConsoleLog(\">SavingsAccount.registerCurrencySkipInterest _registerValue currentBalance\");\n        emit ConsoleLog(uint2str(_registerValue));\n        emit ConsoleLog(uint2str(currentBalance));\n\n        systemSavings.registerCurrency(registeredBalance, _registerValue);\n        registeredBalance += _registerValue;\n        lastInterestTime = callTime;\n    }\n\n    function unregisterCurrencySkipInterest(uint256 _unregisterValue) public {\n        require(owner == msg.sender, \"sender should be owner\");\n        require(_unregisterValue <= registeredBalance, \"unregister request cannot exceed registered balance\");\n\n        uint256 currentBalance = peggedToken.balanceOf(address(this));\n        emit ConsoleLog(\">unregisterCurrency _unregisterValue registeredBalance currentBalance\");\n        emit ConsoleLog(uint2str(_unregisterValue));\n        emit ConsoleLog(uint2str(registeredBalance));\n        emit ConsoleLog(uint2str(currentBalance));\n\n        systemSavings.unregisterCurrency(registeredBalance, _unregisterValue);\n        registeredBalance -= _unregisterValue;\n        lastInterestTime = callTime;\n    }\n\n    function withdrawCurrency(address _withdrawToAddress, uint256 _withdrawValue) public {\n        require(owner == msg.sender, \"sender should be owner\");\n\n        emit ConsoleLog(\">withdrawCurrency _withdrawToAddress _withdrawValue\");\n        emit ConsoleLog(add2str(_withdrawToAddress));\n        emit ConsoleLog(uint2str(_withdrawValue));\n\n        uint256 currentBalance = peggedToken.balanceOf(address(this));\n        require(registeredBalance <= currentBalance - _withdrawValue, \"withdraw amount cannot lower balance below registered balance\");\n\n        systemSavings.withdrawCurrency(registeredBalance, _withdrawToAddress, _withdrawValue);\n        peggedToken.transfer(_withdrawToAddress, _withdrawValue);\n    }\n\n    function withdrawAllCurrencyWithInterest(address _withdrawToAddress) public {\n        require(owner == msg.sender, \"sender should be owner\");\n        setCallTime();\n\n        uint256 currentBalance = peggedToken.balanceOf(address(this));\n        require(currentBalance >= registeredBalance, \"registered balance cannot exceed balance\");\n\n        emit ConsoleLog(\">SavingsAccount.withdrawAllCurrencyWithInterest _withdrawToAddress currentBalance registeredBalance\");\n        emit ConsoleLog(add2str(_withdrawToAddress));\n        emit ConsoleLog(uint2str(currentBalance));\n        emit ConsoleLog(uint2str(registeredBalance));\n        emit ConsoleLog(\">SavingsAccount.withdrawAllCurrencyWithInterest callTime lastInterestTime\");\n        emit ConsoleLog(uint2str(callTime));\n        emit ConsoleLog(uint2str(lastInterestTime));\n\n        uint256 interestTransferred = systemSavings.accumulateInterest(lastInterestTime, callTime, registeredBalance);\n        registeredBalance += interestTransferred;\n\n        systemSavings.unregisterCurrency(registeredBalance, registeredBalance);\n        registeredBalance = 0;\n        lastInterestTime = callTime;\n\n        uint256 updatedBalance = peggedToken.balanceOf(address(this));\n        systemSavings.withdrawCurrency(registeredBalance, _withdrawToAddress, updatedBalance);\n        peggedToken.transfer(_withdrawToAddress, updatedBalance);\n    }\n\n    // function voteDownPriceFeed(address _priceFeedAddress) public {\n    //     require(owner == msg.sender, \"sender should be owner\");\n\n    //     emit ConsoleLog(\">voteDownPriceFeed downVotedFeed _priceFeedAddress registeredBalance\");\n    //     emit ConsoleLog(add2str(downVotedFeedAddress));\n    //     emit ConsoleLog(add2str(_priceFeedAddress));\n    //     emit ConsoleLog(uint2str(registeredBalance));\n\n    //     systemSavings.voteDownPriceFeed(downVotedFeedAddress, _priceFeedAddress, registeredBalance);\n    //     downVotedFeedAddress = _priceFeedAddress;\n    // }\n\n    uint256 public callTime;\n    function setCallTime() private {\n        callTime = block.timestamp;\n    }\n\n    function add2str(address x) public pure returns (string memory str) {\n        bytes memory s = new bytes(40);\n        for (uint i = 0; i < 20; i++) {\n            byte b = byte(uint8(uint(x) / (2**(8*(19 - i)))));\n            byte hi = byte(uint8(b) / 16);\n            byte lo = byte(uint8(b) - 16 * uint8(hi));\n            s[2*i] = char(hi);\n            s[2*i+1] = char(lo);\n        }\n        return string(s);\n    }\n\n    function char(byte b) public pure returns (byte c) {\n        if (uint8(b) < 10) return byte(uint8(b) + 0x30);\n        else return byte(uint8(b) + 0x57);\n    }\n\n    function uint2str(uint value) public pure returns (string memory str) {\n        uint i = value;\n        if (i == 0) return \"0\";\n        uint j = i;\n        uint len;\n        while (j != 0){\n            len++;\n            j /= 10;\n        }\n        bytes memory bstr = new bytes(len);\n        uint k = len - 1;\n        while (i != 0){\n            bstr[k--] = byte(uint8(48 + i % 10));\n            i /= 10;\n        }\n        return string(bstr);\n    }\n\n    event ConsoleLog(string message);\n}",
  "sourcePath": "/Users/nimakamoosi/repos/nimakam-private/stable-coin/ethereum/contracts/SavingsAccount.sol",
  "compiler": {
    "name": "solc",
    "version": "0.5.12+commit.7709ece9.Emscripten.clang"
  },
  "schemaVersion": "3.0.19",
  "updatedAt": "2020-01-22T22:16:12.147Z",
  "devdoc": {
    "author": "Nima Kamoosi",
    "details": "The contained state includes the contract owner, savings interest currency balance.",
    "methods": {
      "constructor": {
        "details": "creats the loan instnace, sets its owner, and assigns the main system contract instance",
        "params": {
          "_owner": "is owner of the loan and is set at time of creation"
        }
      }
    },
    "title": "Savings Account contract of the \\{\\{PegLoan\\}\\} currency peg system"
  },
  "userdoc": {
    "methods": {
      "constructor": "Constructor"
    },
    "notice": "The Savings Account contract holds the state of a given savings account, as part of the \\{\\{PegLoan\\}\\} currency peg system. It works alongside the System, PriceFeed, and PeggedCurrency contracts to make the whole system function."
  }
}