{
  "contractName": "SystemSavings",
  "abi": [
    {
      "inputs": [
        {
          "internalType": "address",
          "name": "_peggedTokenAddress",
          "type": "address"
        },
        {
          "internalType": "address",
          "name": "_systemAddress",
          "type": "address"
        },
        {
          "internalType": "address",
          "name": "_systemFeedsAddress",
          "type": "address"
        }
      ],
      "payable": false,
      "stateMutability": "nonpayable",
      "type": "constructor"
    },
    {
      "constant": true,
      "inputs": [],
      "name": "lastNewAddress",
      "outputs": [
        {
          "internalType": "address",
          "name": "",
          "type": "address"
        }
      ],
      "payable": false,
      "stateMutability": "view",
      "type": "function"
    },
    {
      "constant": true,
      "inputs": [],
      "name": "peggedToken",
      "outputs": [
        {
          "internalType": "contract PeggedToken",
          "name": "",
          "type": "address"
        }
      ],
      "payable": false,
      "stateMutability": "view",
      "type": "function"
    },
    {
      "constant": true,
      "inputs": [
        {
          "internalType": "address",
          "name": "",
          "type": "address"
        }
      ],
      "name": "savingsAccountMap",
      "outputs": [
        {
          "internalType": "bool",
          "name": "",
          "type": "bool"
        }
      ],
      "payable": false,
      "stateMutability": "view",
      "type": "function"
    },
    {
      "constant": true,
      "inputs": [],
      "name": "system",
      "outputs": [
        {
          "internalType": "contract System",
          "name": "",
          "type": "address"
        }
      ],
      "payable": false,
      "stateMutability": "view",
      "type": "function"
    },
    {
      "constant": true,
      "inputs": [],
      "name": "systemFeeds",
      "outputs": [
        {
          "internalType": "contract SystemFeeds",
          "name": "",
          "type": "address"
        }
      ],
      "payable": false,
      "stateMutability": "view",
      "type": "function"
    },
    {
      "constant": true,
      "inputs": [],
      "name": "totalRegisteredSavings",
      "outputs": [
        {
          "internalType": "uint256",
          "name": "",
          "type": "uint256"
        }
      ],
      "payable": false,
      "stateMutability": "view",
      "type": "function"
    },
    {
      "constant": false,
      "inputs": [],
      "name": "createSavingsAccount",
      "outputs": [
        {
          "internalType": "address",
          "name": "",
          "type": "address"
        }
      ],
      "payable": false,
      "stateMutability": "nonpayable",
      "type": "function"
    },
    {
      "constant": false,
      "inputs": [
        {
          "internalType": "uint256",
          "name": "_lastInterestTime",
          "type": "uint256"
        },
        {
          "internalType": "uint256",
          "name": "_callTime",
          "type": "uint256"
        },
        {
          "internalType": "uint256",
          "name": "_registeredBalance",
          "type": "uint256"
        }
      ],
      "name": "accumulateInterest",
      "outputs": [
        {
          "internalType": "uint256",
          "name": "interestValue",
          "type": "uint256"
        }
      ],
      "payable": false,
      "stateMutability": "nonpayable",
      "type": "function"
    },
    {
      "constant": false,
      "inputs": [
        {
          "internalType": "uint256",
          "name": "_registeredBalance",
          "type": "uint256"
        },
        {
          "internalType": "uint256",
          "name": "_registerValue",
          "type": "uint256"
        }
      ],
      "name": "registerCurrency",
      "outputs": [],
      "payable": false,
      "stateMutability": "nonpayable",
      "type": "function"
    },
    {
      "constant": false,
      "inputs": [
        {
          "internalType": "uint256",
          "name": "_registeredBalance",
          "type": "uint256"
        },
        {
          "internalType": "uint256",
          "name": "_unregisterValue",
          "type": "uint256"
        }
      ],
      "name": "unregisterCurrency",
      "outputs": [],
      "payable": false,
      "stateMutability": "nonpayable",
      "type": "function"
    },
    {
      "constant": false,
      "inputs": [
        {
          "internalType": "uint256",
          "name": "registeredBalance",
          "type": "uint256"
        },
        {
          "internalType": "address",
          "name": "_withdrawToAddress",
          "type": "address"
        },
        {
          "internalType": "uint256",
          "name": "_withdrawValue",
          "type": "uint256"
        }
      ],
      "name": "withdrawCurrency",
      "outputs": [],
      "payable": false,
      "stateMutability": "nonpayable",
      "type": "function"
    },
    {
      "constant": false,
      "inputs": [
        {
          "internalType": "address",
          "name": "_downVotedFeed",
          "type": "address"
        },
        {
          "internalType": "address",
          "name": "_existingDownVotedFeed",
          "type": "address"
        },
        {
          "internalType": "uint256",
          "name": "_registeredBalance",
          "type": "uint256"
        }
      ],
      "name": "voteDownPriceFeed",
      "outputs": [],
      "payable": false,
      "stateMutability": "nonpayable",
      "type": "function"
    }
  ],
  "bytecode": "0x608060405234801561001057600080fd5b50604051613d2a380380613d2a8339818101604052606081101561003357600080fd5b81019080805190602001909291908051906020019092919080519060200190929190505050600073ffffffffffffffffffffffffffffffffffffffff168273ffffffffffffffffffffffffffffffffffffffff1614156100fb576040517f08c379a000000000000000000000000000000000000000000000000000000000815260040180806020018281038252601e8152602001807f5f73797374656d416464726573732073686f756c64206e6f742062652030000081525060200191505060405180910390fd5b600073ffffffffffffffffffffffffffffffffffffffff168173ffffffffffffffffffffffffffffffffffffffff161415610181576040517f08c379a0000000000000000000000000000000000000000000000000000000008152600401808060200182810382526023815260200180613ce46023913960400191505060405180910390fd5b600073ffffffffffffffffffffffffffffffffffffffff168373ffffffffffffffffffffffffffffffffffffffff161415610207576040517f08c379a0000000000000000000000000000000000000000000000000000000008152600401808060200182810382526023815260200180613d076023913960400191505060405180910390fd5b816000806101000a81548173ffffffffffffffffffffffffffffffffffffffff021916908373ffffffffffffffffffffffffffffffffffffffff16021790555080600160006101000a81548173ffffffffffffffffffffffffffffffffffffffff021916908373ffffffffffffffffffffffffffffffffffffffff16021790555082600260006101000a81548173ffffffffffffffffffffffffffffffffffffffff021916908373ffffffffffffffffffffffffffffffffffffffff160217905550505050613a09806102db6000396000f3fe608060405234801561001057600080fd5b50600436106100b35760003560e01c80639f93badb116100715780639f93badb1461027e578063a4516d91146102c8578063a7ae5a7b1461031e578063af8431f514610356578063cd2e984f146103ae578063ecc2bffb146103e6576100b3565b8062e77aa6146100b857806319d51d89146101025780631ead61d51461014c5780636930f453146101ba57806390077dad146101d857806395bf75fd14610234575b600080fd5b6100c0610430565b604051808273ffffffffffffffffffffffffffffffffffffffff1673ffffffffffffffffffffffffffffffffffffffff16815260200191505060405180910390f35b61010a610456565b604051808273ffffffffffffffffffffffffffffffffffffffff1673ffffffffffffffffffffffffffffffffffffffff16815260200191505060405180910390f35b6101b86004803603606081101561016257600080fd5b81019080803573ffffffffffffffffffffffffffffffffffffffff169060200190929190803573ffffffffffffffffffffffffffffffffffffffff1690602001909291908035906020019092919050505061047c565b005b6101c2610869565b6040518082815260200191505060405180910390f35b61021a600480360360208110156101ee57600080fd5b81019080803573ffffffffffffffffffffffffffffffffffffffff16906020019092919050505061086f565b604051808215151515815260200191505060405180910390f35b61023c61088f565b604051808273ffffffffffffffffffffffffffffffffffffffff1673ffffffffffffffffffffffffffffffffffffffff16815260200191505060405180910390f35b6102866108b4565b604051808273ffffffffffffffffffffffffffffffffffffffff1673ffffffffffffffffffffffffffffffffffffffff16815260200191505060405180910390f35b610308600480360360608110156102de57600080fd5b810190808035906020019092919080359060200190929190803590602001909291905050506108da565b6040518082815260200191505060405180910390f35b6103546004803603604081101561033457600080fd5b810190808035906020019092919080359060200190929190505050610c6e565b005b6103ac6004803603606081101561036c57600080fd5b8101908080359060200190929190803573ffffffffffffffffffffffffffffffffffffffff16906020019092919080359060200190929190505050610d24565b005b6103e4600480360360408110156103c457600080fd5b810190808035906020019092919080359060200190929190505050610dcb565b005b6103ee610e81565b604051808273ffffffffffffffffffffffffffffffffffffffff1673ffffffffffffffffffffffffffffffffffffffff16815260200191505060405180910390f35b600260009054906101000a900473ffffffffffffffffffffffffffffffffffffffff1681565b600160009054906101000a900473ffffffffffffffffffffffffffffffffffffffff1681565b600360003373ffffffffffffffffffffffffffffffffffffffff1673ffffffffffffffffffffffffffffffffffffffff16815260200190815260200160002060009054906101000a900460ff1661051e576040517f08c379a000000000000000000000000000000000000000000000000000000000815260040180806020018281038252602f8152602001806139a6602f913960400191505060405180910390fd5b600160009054906101000a900473ffffffffffffffffffffffffffffffffffffffff1673ffffffffffffffffffffffffffffffffffffffff166357a94beb836040518263ffffffff1660e01b8152600401808273ffffffffffffffffffffffffffffffffffffffff1673ffffffffffffffffffffffffffffffffffffffff168152602001915050602060405180830381600087803b1580156105bf57600080fd5b505af11580156105d3573d6000803e3d6000fd5b505050506040513d60208110156105e957600080fd5b8101908080519060200190929190505050156106c157600160009054906101000a900473ffffffffffffffffffffffffffffffffffffffff1673ffffffffffffffffffffffffffffffffffffffff16635b29320583836040518363ffffffff1660e01b8152600401808373ffffffffffffffffffffffffffffffffffffffff1673ffffffffffffffffffffffffffffffffffffffff16815260200182815260200192505050600060405180830381600087803b1580156106a857600080fd5b505af11580156106bc573d6000803e3d6000fd5b505050505b600160009054906101000a900473ffffffffffffffffffffffffffffffffffffffff1673ffffffffffffffffffffffffffffffffffffffff166357a94beb846040518263ffffffff1660e01b8152600401808273ffffffffffffffffffffffffffffffffffffffff1673ffffffffffffffffffffffffffffffffffffffff168152602001915050602060405180830381600087803b15801561076257600080fd5b505af1158015610776573d6000803e3d6000fd5b505050506040513d602081101561078c57600080fd5b81019080805190602001909291905050501561086457600160009054906101000a900473ffffffffffffffffffffffffffffffffffffffff1673ffffffffffffffffffffffffffffffffffffffff16635b29320584836040518363ffffffff1660e01b8152600401808373ffffffffffffffffffffffffffffffffffffffff1673ffffffffffffffffffffffffffffffffffffffff16815260200182815260200192505050600060405180830381600087803b15801561084b57600080fd5b505af115801561085f573d6000803e3d6000fd5b505050505b505050565b60045481565b60036020528060005260406000206000915054906101000a900460ff1681565b6000809054906101000a900473ffffffffffffffffffffffffffffffffffffffff1681565b600560009054906101000a900473ffffffffffffffffffffffffffffffffffffffff1681565b6000600360003373ffffffffffffffffffffffffffffffffffffffff1673ffffffffffffffffffffffffffffffffffffffff16815260200190815260200160002060009054906101000a900460ff1661097e576040517f08c379a000000000000000000000000000000000000000000000000000000000815260040180806020018281038252602f8152602001806139a6602f913960400191505060405180910390fd5b6000809054906101000a900473ffffffffffffffffffffffffffffffffffffffff1673ffffffffffffffffffffffffffffffffffffffff166305e1bd8c8585856040518463ffffffff1660e01b815260040180848152602001838152602001828152602001935050505060206040518083038186803b158015610a0057600080fd5b505afa158015610a14573d6000803e3d6000fd5b505050506040513d6020811015610a2a57600080fd5b81019080805190602001909291905050509050600260009054906101000a900473ffffffffffffffffffffffffffffffffffffffff1673ffffffffffffffffffffffffffffffffffffffff166370a08231306040518263ffffffff1660e01b8152600401808273ffffffffffffffffffffffffffffffffffffffff1673ffffffffffffffffffffffffffffffffffffffff16815260200191505060206040518083038186803b158015610adc57600080fd5b505afa158015610af0573d6000803e3d6000fd5b505050506040513d6020811015610b0657600080fd5b8101908080519060200190929190505050811115610b6f576040517f08c379a000000000000000000000000000000000000000000000000000000000815260040180806020018281038252602c81526020018061397a602c913960400191505060405180910390fd5b600260009054906101000a900473ffffffffffffffffffffffffffffffffffffffff1673ffffffffffffffffffffffffffffffffffffffff1663a9059cbb33836040518363ffffffff1660e01b8152600401808373ffffffffffffffffffffffffffffffffffffffff1673ffffffffffffffffffffffffffffffffffffffff16815260200182815260200192505050602060405180830381600087803b158015610c1857600080fd5b505af1158015610c2c573d6000803e3d6000fd5b505050506040513d6020811015610c4257600080fd5b810190808051906020019092919050505050806004600082825401925050819055508090509392505050565b600360003373ffffffffffffffffffffffffffffffffffffffff1673ffffffffffffffffffffffffffffffffffffffff16815260200190815260200160002060009054906101000a900460ff16610d10576040517f08c379a000000000000000000000000000000000000000000000000000000000815260040180806020018281038252602f8152602001806139a6602f913960400191505060405180910390fd5b806004600082825401925050819055505050565b600360003373ffffffffffffffffffffffffffffffffffffffff1673ffffffffffffffffffffffffffffffffffffffff16815260200190815260200160002060009054906101000a900460ff16610dc6576040517f08c379a000000000000000000000000000000000000000000000000000000000815260040180806020018281038252602f8152602001806139a6602f913960400191505060405180910390fd5b505050565b600360003373ffffffffffffffffffffffffffffffffffffffff1673ffffffffffffffffffffffffffffffffffffffff16815260200190815260200160002060009054906101000a900460ff16610e6d576040517f08c379a000000000000000000000000000000000000000000000000000000000815260040180806020018281038252602f8152602001806139a6602f913960400191505060405180910390fd5b806004600082825403925050819055505050565b60008033600260009054906101000a900473ffffffffffffffffffffffffffffffffffffffff16604051610eb490611020565b808373ffffffffffffffffffffffffffffffffffffffff1673ffffffffffffffffffffffffffffffffffffffff1681526020018273ffffffffffffffffffffffffffffffffffffffff1673ffffffffffffffffffffffffffffffffffffffff16815260200192505050604051809103906000f080158015610f39573d6000803e3d6000fd5b50905080600560006101000a81548173ffffffffffffffffffffffffffffffffffffffff021916908373ffffffffffffffffffffffffffffffffffffffff160217905550600160036000600560009054906101000a900473ffffffffffffffffffffffffffffffffffffffff1673ffffffffffffffffffffffffffffffffffffffff1673ffffffffffffffffffffffffffffffffffffffff16815260200190815260200160002060006101000a81548160ff021916908315150217905550600560009054906101000a900473ffffffffffffffffffffffffffffffffffffffff1691505090565b61294c8061102e8339019056fe60806040523480156200001157600080fd5b506040516200294c3803806200294c8339818101604052620000379190810190620000d7565b816000806101000a81548173ffffffffffffffffffffffffffffffffffffffff021916908373ffffffffffffffffffffffffffffffffffffffff16021790555080600260006101000a81548173ffffffffffffffffffffffffffffffffffffffff021916908373ffffffffffffffffffffffffffffffffffffffff160217905550505062000166565b600081519050620000d1816200014c565b92915050565b60008060408385031215620000eb57600080fd5b6000620000fb85828601620000c0565b92505060206200010e85828601620000c0565b9150509250929050565b600062000125826200012c565b9050919050565b600073ffffffffffffffffffffffffffffffffffffffff82169050919050565b620001578162000118565b81146200016357600080fd5b50565b6127d680620001766000396000f3fe608060405234801561001057600080fd5b50600436106100ff5760003560e01c806369f9ad2f11610097578063c61304fa11610066578063c61304fa14610264578063e544368114610294578063f76f950e146102b0578063fb9883cb146102e0576100ff565b806369f9ad2f146101ee5780638da5cb5b1461021e5780639147b2791461023c578063bf95d0e01461025a576100ff565b806320ccb815116100d357806320ccb8151461017c5780633555d96f146101985780635ec181fe146101b657806363f8c71b146101d2576100ff565b8062e77aa614610104578063085b7c91146101225780630f5e07c7146101405780631fc6109d1461015e575b600080fd5b61010c6102fc565b60405161011991906123b1565b60405180910390f35b61012a610322565b60405161013791906123cc565b60405180910390f35b610148610348565b6040516101559190612569565b60405180910390f35b61016661034e565b6040516101739190612569565b60405180910390f35b61019660048036036101919190810190611d71565b610354565b005b6101a0610679565b6040516101ad9190612569565b60405180910390f35b6101d060048036036101cb9190810190611cba565b61067f565b005b6101ec60048036036101e79190810190611cba565b610ce7565b005b61020860048036036102039190810190611d48565b610f85565b6040516102159190612396565b60405180910390f35b610226610fb9565b604051610233919061231b565b60405180910390f35b610244610fde565b604051610251919061231b565b60405180910390f35b610262611004565b005b61027e60048036036102799190810190611cba565b61135f565b60405161028b91906123e7565b60405180910390f35b6102ae60048036036102a99190810190611d71565b6114ae565b005b6102ca60048036036102c59190810190611d71565b611794565b6040516102d791906123e7565b60405180910390f35b6102fa60048036036102f59190810190611ce3565b6118c8565b005b600260009054906101000a900473ffffffffffffffffffffffffffffffffffffffff1681565b600160009054906101000a900473ffffffffffffffffffffffffffffffffffffffff1681565b60065481565b60045481565b3373ffffffffffffffffffffffffffffffffffffffff166000809054906101000a900473ffffffffffffffffffffffffffffffffffffffff1673ffffffffffffffffffffffffffffffffffffffff16146103e3576040517f08c379a00000000000000000000000000000000000000000000000000000000081526004016103da90612489565b60405180910390fd5b600354811115610428576040517f08c379a000000000000000000000000000000000000000000000000000000000815260040161041f90612509565b60405180910390fd5b6000600260009054906101000a900473ffffffffffffffffffffffffffffffffffffffff1673ffffffffffffffffffffffffffffffffffffffff166370a08231306040518263ffffffff1660e01b8152600401610485919061231b565b60206040518083038186803b15801561049d57600080fd5b505afa1580156104b1573d6000803e3d6000fd5b505050506040513d601f19601f820116820180604052506104d59190810190611d9a565b90507f0f8db0708c4e6b233e2c285fe1ed66015dee71bd374ac8e835534be5f592d6a260405161050490612529565b60405180910390a17f0f8db0708c4e6b233e2c285fe1ed66015dee71bd374ac8e835534be5f592d6a261053683611794565b60405161054391906123e7565b60405180910390a17f0f8db0708c4e6b233e2c285fe1ed66015dee71bd374ac8e835534be5f592d6a2610577600354611794565b60405161058491906123e7565b60405180910390a17f0f8db0708c4e6b233e2c285fe1ed66015dee71bd374ac8e835534be5f592d6a26105b682611794565b6040516105c391906123e7565b60405180910390a1600160009054906101000a900473ffffffffffffffffffffffffffffffffffffffff1673ffffffffffffffffffffffffffffffffffffffff1663cd2e984f600354846040518363ffffffff1660e01b815260040161062a9291906125bb565b600060405180830381600087803b15801561064457600080fd5b505af1158015610658573d6000803e3d6000fd5b50505050816003600082825403925050819055506006546004819055505050565b60035481565b3373ffffffffffffffffffffffffffffffffffffffff166000809054906101000a900473ffffffffffffffffffffffffffffffffffffffff1673ffffffffffffffffffffffffffffffffffffffff161461070e576040517f08c379a000000000000000000000000000000000000000000000000000000000815260040161070590612489565b60405180910390fd5b610716611c48565b6000600260009054906101000a900473ffffffffffffffffffffffffffffffffffffffff1673ffffffffffffffffffffffffffffffffffffffff166370a08231306040518263ffffffff1660e01b8152600401610773919061231b565b60206040518083038186803b15801561078b57600080fd5b505afa15801561079f573d6000803e3d6000fd5b505050506040513d601f19601f820116820180604052506107c39190810190611d9a565b905060035481101561080a576040517f08c379a000000000000000000000000000000000000000000000000000000000815260040161080190612549565b60405180910390fd5b7f0f8db0708c4e6b233e2c285fe1ed66015dee71bd374ac8e835534be5f592d6a260405161083790612409565b60405180910390a17f0f8db0708c4e6b233e2c285fe1ed66015dee71bd374ac8e835534be5f592d6a26108698361135f565b60405161087691906123e7565b60405180910390a17f0f8db0708c4e6b233e2c285fe1ed66015dee71bd374ac8e835534be5f592d6a26108a882611794565b6040516108b591906123e7565b60405180910390a17f0f8db0708c4e6b233e2c285fe1ed66015dee71bd374ac8e835534be5f592d6a26108e9600354611794565b6040516108f691906123e7565b60405180910390a17f0f8db0708c4e6b233e2c285fe1ed66015dee71bd374ac8e835534be5f592d6a261092a600654611794565b60405161093791906123e7565b60405180910390a17f0f8db0708c4e6b233e2c285fe1ed66015dee71bd374ac8e835534be5f592d6a261096b600454611794565b60405161097891906123e7565b60405180910390a16000600160009054906101000a900473ffffffffffffffffffffffffffffffffffffffff1673ffffffffffffffffffffffffffffffffffffffff1663a4516d916004546006546003546040518463ffffffff1660e01b81526004016109e7939291906125e4565b602060405180830381600087803b158015610a0157600080fd5b505af1158015610a15573d6000803e3d6000fd5b505050506040513d601f19601f82011682018060405250610a399190810190611d9a565b905080600360008282540192505081905550600160009054906101000a900473ffffffffffffffffffffffffffffffffffffffff1673ffffffffffffffffffffffffffffffffffffffff1663cd2e984f6003546003546040518363ffffffff1660e01b8152600401610aac9291906125bb565b600060405180830381600087803b158015610ac657600080fd5b505af1158015610ada573d6000803e3d6000fd5b5050505060006003819055506006546004819055506000600260009054906101000a900473ffffffffffffffffffffffffffffffffffffffff1673ffffffffffffffffffffffffffffffffffffffff166370a08231306040518263ffffffff1660e01b8152600401610b4c919061231b565b60206040518083038186803b158015610b6457600080fd5b505afa158015610b78573d6000803e3d6000fd5b505050506040513d601f19601f82011682018060405250610b9c9190810190611d9a565b9050600160009054906101000a900473ffffffffffffffffffffffffffffffffffffffff1673ffffffffffffffffffffffffffffffffffffffff1663af8431f560035486846040518463ffffffff1660e01b8152600401610bff93929190612584565b600060405180830381600087803b158015610c1957600080fd5b505af1158015610c2d573d6000803e3d6000fd5b50505050600260009054906101000a900473ffffffffffffffffffffffffffffffffffffffff1673ffffffffffffffffffffffffffffffffffffffff1663a9059cbb85836040518363ffffffff1660e01b8152600401610c8e92919061236d565b602060405180830381600087803b158015610ca857600080fd5b505af1158015610cbc573d6000803e3d6000fd5b505050506040513d601f19601f82011682018060405250610ce09190810190611d1f565b5050505050565b3373ffffffffffffffffffffffffffffffffffffffff166000809054906101000a900473ffffffffffffffffffffffffffffffffffffffff1673ffffffffffffffffffffffffffffffffffffffff1614610d76576040517f08c379a0000000000000000000000000000000000000000000000000000000008152600401610d6d90612489565b60405180910390fd5b7f0f8db0708c4e6b233e2c285fe1ed66015dee71bd374ac8e835534be5f592d6a2604051610da3906124e9565b60405180910390a17f0f8db0708c4e6b233e2c285fe1ed66015dee71bd374ac8e835534be5f592d6a2610df7600560009054906101000a900473ffffffffffffffffffffffffffffffffffffffff1661135f565b604051610e0491906123e7565b60405180910390a17f0f8db0708c4e6b233e2c285fe1ed66015dee71bd374ac8e835534be5f592d6a2610e368261135f565b604051610e4391906123e7565b60405180910390a17f0f8db0708c4e6b233e2c285fe1ed66015dee71bd374ac8e835534be5f592d6a2610e77600354611794565b604051610e8491906123e7565b60405180910390a1600160009054906101000a900473ffffffffffffffffffffffffffffffffffffffff1673ffffffffffffffffffffffffffffffffffffffff16631ead61d5600560009054906101000a900473ffffffffffffffffffffffffffffffffffffffff16836003546040518463ffffffff1660e01b8152600401610f0f93929190612336565b600060405180830381600087803b158015610f2957600080fd5b505af1158015610f3d573d6000803e3d6000fd5b5050505080600560006101000a81548173ffffffffffffffffffffffffffffffffffffffff021916908373ffffffffffffffffffffffffffffffffffffffff16021790555050565b6000600a8260f81c60ff161015610fa75760308260f81c0160f81b9050610fb4565b60578260f81c0160f81b90505b919050565b6000809054906101000a900473ffffffffffffffffffffffffffffffffffffffff1681565b600560009054906101000a900473ffffffffffffffffffffffffffffffffffffffff1681565b3373ffffffffffffffffffffffffffffffffffffffff166000809054906101000a900473ffffffffffffffffffffffffffffffffffffffff1673ffffffffffffffffffffffffffffffffffffffff1614611093576040517f08c379a000000000000000000000000000000000000000000000000000000000815260040161108a90612489565b60405180910390fd5b61109b611c48565b6000600260009054906101000a900473ffffffffffffffffffffffffffffffffffffffff1673ffffffffffffffffffffffffffffffffffffffff166370a08231306040518263ffffffff1660e01b81526004016110f8919061231b565b60206040518083038186803b15801561111057600080fd5b505afa158015611124573d6000803e3d6000fd5b505050506040513d601f19601f820116820180604052506111489190810190611d9a565b905080600354111561118f576040517f08c379a000000000000000000000000000000000000000000000000000000000815260040161118690612449565b60405180910390fd5b7f0f8db0708c4e6b233e2c285fe1ed66015dee71bd374ac8e835534be5f592d6a26040516111bc906124a9565b60405180910390a17f0f8db0708c4e6b233e2c285fe1ed66015dee71bd374ac8e835534be5f592d6a26111f0600654611794565b6040516111fd91906123e7565b60405180910390a17f0f8db0708c4e6b233e2c285fe1ed66015dee71bd374ac8e835534be5f592d6a2611231600454611794565b60405161123e91906123e7565b60405180910390a17f0f8db0708c4e6b233e2c285fe1ed66015dee71bd374ac8e835534be5f592d6a2611272600354611794565b60405161127f91906123e7565b60405180910390a16000600160009054906101000a900473ffffffffffffffffffffffffffffffffffffffff1673ffffffffffffffffffffffffffffffffffffffff1663a4516d916004546006546003546040518463ffffffff1660e01b81526004016112ee939291906125e4565b602060405180830381600087803b15801561130857600080fd5b505af115801561131c573d6000803e3d6000fd5b505050506040513d601f19601f820116820180604052506113409190810190611d9a565b9050806003600082825401925050819055506006546004819055505050565b60608060286040519080825280601f01601f1916602001820160405280156113965781602001600182028038833980820191505090505b50905060008090505b60148110156114a45760008160130360080260020a8573ffffffffffffffffffffffffffffffffffffffff16816113d257fe5b0460f81b9050600060108260f81c60ff16816113ea57fe5b0460f81b905060008160f81c6010028360f81c0360f81b905061140c82610f85565b85856002028151811061141b57fe5b60200101907effffffffffffffffffffffffffffffffffffffffffffffffffffffffffffff1916908160001a90535061145381610f85565b85600186600202018151811061146557fe5b60200101907effffffffffffffffffffffffffffffffffffffffffffffffffffffffffffff1916908160001a905350505050808060010191505061139f565b5080915050919050565b3373ffffffffffffffffffffffffffffffffffffffff166000809054906101000a900473ffffffffffffffffffffffffffffffffffffffff1673ffffffffffffffffffffffffffffffffffffffff161461153d576040517f08c379a000000000000000000000000000000000000000000000000000000000815260040161153490612489565b60405180910390fd5b6000600260009054906101000a900473ffffffffffffffffffffffffffffffffffffffff1673ffffffffffffffffffffffffffffffffffffffff166370a08231306040518263ffffffff1660e01b815260040161159a919061231b565b60206040518083038186803b1580156115b257600080fd5b505afa1580156115c6573d6000803e3d6000fd5b505050506040513d601f19601f820116820180604052506115ea9190810190611d9a565b90508082600354011115611633576040517f08c379a000000000000000000000000000000000000000000000000000000000815260040161162a90612449565b60405180910390fd5b7f0f8db0708c4e6b233e2c285fe1ed66015dee71bd374ac8e835534be5f592d6a260405161166090612469565b60405180910390a17f0f8db0708c4e6b233e2c285fe1ed66015dee71bd374ac8e835534be5f592d6a261169283611794565b60405161169f91906123e7565b60405180910390a17f0f8db0708c4e6b233e2c285fe1ed66015dee71bd374ac8e835534be5f592d6a26116d182611794565b6040516116de91906123e7565b60405180910390a1600160009054906101000a900473ffffffffffffffffffffffffffffffffffffffff1673ffffffffffffffffffffffffffffffffffffffff1663a7ae5a7b600354846040518363ffffffff1660e01b81526004016117459291906125bb565b600060405180830381600087803b15801561175f57600080fd5b505af1158015611773573d6000803e3d6000fd5b50505050816003600082825401925050819055506006546004819055505050565b6060600082905060008114156117e2576040518060400160405280600181526020017f30000000000000000000000000000000000000000000000000000000000000008152509150506118c3565b600081905060005b6000821461180c578080600101915050600a828161180457fe5b0491506117ea565b6060816040519080825280601f01601f1916602001820160405280156118415781602001600182028038833980820191505090505b50905060006001830390505b600085146118ba57600a858161185f57fe5b0660300160f81b8282806001900393508151811061187957fe5b60200101907effffffffffffffffffffffffffffffffffffffffffffffffffffffffffffff1916908160001a905350600a85816118b257fe5b04945061184d565b81955050505050505b919050565b3373ffffffffffffffffffffffffffffffffffffffff166000809054906101000a900473ffffffffffffffffffffffffffffffffffffffff1673ffffffffffffffffffffffffffffffffffffffff1614611957576040517f08c379a000000000000000000000000000000000000000000000000000000000815260040161194e90612489565b60405180910390fd5b7f0f8db0708c4e6b233e2c285fe1ed66015dee71bd374ac8e835534be5f592d6a2604051611984906124c9565b60405180910390a17f0f8db0708c4e6b233e2c285fe1ed66015dee71bd374ac8e835534be5f592d6a26119b68361135f565b6040516119c391906123e7565b60405180910390a17f0f8db0708c4e6b233e2c285fe1ed66015dee71bd374ac8e835534be5f592d6a26119f582611794565b604051611a0291906123e7565b60405180910390a16000600260009054906101000a900473ffffffffffffffffffffffffffffffffffffffff1673ffffffffffffffffffffffffffffffffffffffff166370a08231306040518263ffffffff1660e01b8152600401611a67919061231b565b60206040518083038186803b158015611a7f57600080fd5b505afa158015611a93573d6000803e3d6000fd5b505050506040513d601f19601f82011682018060405250611ab79190810190611d9a565b90508181036003541115611b00576040517f08c379a0000000000000000000000000000000000000000000000000000000008152600401611af790612429565b60405180910390fd5b600160009054906101000a900473ffffffffffffffffffffffffffffffffffffffff1673ffffffffffffffffffffffffffffffffffffffff1663af8431f560035485856040518463ffffffff1660e01b8152600401611b6193929190612584565b600060405180830381600087803b158015611b7b57600080fd5b505af1158015611b8f573d6000803e3d6000fd5b50505050600260009054906101000a900473ffffffffffffffffffffffffffffffffffffffff1673ffffffffffffffffffffffffffffffffffffffff1663a9059cbb84846040518363ffffffff1660e01b8152600401611bf092919061236d565b602060405180830381600087803b158015611c0a57600080fd5b505af1158015611c1e573d6000803e3d6000fd5b505050506040513d601f19601f82011682018060405250611c429190810190611d1f565b50505050565b42600681905550565b600081359050611c6081612737565b92915050565b600081519050611c758161274e565b92915050565b600081359050611c8a81612765565b92915050565b600081359050611c9f8161277c565b92915050565b600081519050611cb48161277c565b92915050565b600060208284031215611ccc57600080fd5b6000611cda84828501611c51565b91505092915050565b60008060408385031215611cf657600080fd5b6000611d0485828601611c51565b9250506020611d1585828601611c90565b9150509250929050565b600060208284031215611d3157600080fd5b6000611d3f84828501611c66565b91505092915050565b600060208284031215611d5a57600080fd5b6000611d6884828501611c7b565b91505092915050565b600060208284031215611d8357600080fd5b6000611d9184828501611c90565b91505092915050565b600060208284031215611dac57600080fd5b6000611dba84828501611ca5565b91505092915050565b611dcc81612637565b82525050565b611ddb81612655565b82525050565b611dea816126ab565b82525050565b611df9816126cf565b82525050565b6000611e0a8261261b565b611e148185612626565b9350611e248185602086016126f3565b611e2d81612726565b840191505092915050565b6000611e45606e83612626565b91507f3e7769746864726177416c6c43757272656e637957697468496e74657265737460008301527f205f7769746864726177546f416464726573732063757272656e7442616c616e60208301527f6365207265676973746572656442616c616e63652063616c6c54696d65206c6160408301527f7374496e74657265737454696d650000000000000000000000000000000000006060830152608082019050919050565b6000611ef7603d83612626565b91507f776974686472617720616d6f756e742063616e6e6f74206c6f7765722062616c60008301527f616e63652062656c6f7720726567697374657265642062616c616e63650000006020830152604082019050919050565b6000611f5d602c83612626565b91507f726567697374657265642062616c616e63652073686f756c64206e6f7420657860008301527f636565642062616c616e636500000000000000000000000000000000000000006020830152604082019050919050565b6000611fc3603b83612626565b91507f3e726567697374657243757272656e6379536b6970496e746572657374205f7260008301527f6567697374657256616c75652063757272656e7442616c616e636500000000006020830152604082019050919050565b6000612029601683612626565b91507f73656e6465722073686f756c64206265206f776e6572000000000000000000006000830152602082019050919050565b6000612069603f83612626565b91507f3e616363756d756c617465496e7465726573742063616c6c54696d65206c617360008301527f74496e74657265737454696d65207265676973746572656442616c616e6365006020830152604082019050919050565b60006120cf603383612626565b91507f3e776974686472617743757272656e6379205f7769746864726177546f41646460008301527f72657373205f776974686472617756616c7565000000000000000000000000006020830152604082019050919050565b6000612135604483612626565b91507f3e766f7465446f776e50726963654665656420646f776e566f7465644665656460008301527f205f70726963654665656441646472657373207265676973746572656442616c60208301527f616e6365000000000000000000000000000000000000000000000000000000006040830152606082019050919050565b60006121c1603383612626565b91507f756e726567697374657220726571756573742063616e6e6f742065786365656460008301527f20726567697374657265642062616c616e6365000000000000000000000000006020830152604082019050919050565b6000612227604583612626565b91507f3e756e726567697374657243757272656e6379205f756e72656769737465725660008301527f616c7565207265676973746572656442616c616e63652063757272656e74426160208301527f6c616e63650000000000000000000000000000000000000000000000000000006040830152606082019050919050565b60006122b3602883612626565b91507f726567697374657265642062616c616e63652063616e6e6f742065786365656460008301527f2062616c616e63650000000000000000000000000000000000000000000000006020830152604082019050919050565b612315816126a1565b82525050565b60006020820190506123306000830184611dc3565b92915050565b600060608201905061234b6000830186611dc3565b6123586020830185611dc3565b612365604083018461230c565b949350505050565b60006040820190506123826000830185611dc3565b61238f602083018461230c565b9392505050565b60006020820190506123ab6000830184611dd2565b92915050565b60006020820190506123c66000830184611de1565b92915050565b60006020820190506123e16000830184611df0565b92915050565b600060208201905081810360008301526124018184611dff565b905092915050565b6000602082019050818103600083015261242281611e38565b9050919050565b6000602082019050818103600083015261244281611eea565b9050919050565b6000602082019050818103600083015261246281611f50565b9050919050565b6000602082019050818103600083015261248281611fb6565b9050919050565b600060208201905081810360008301526124a28161201c565b9050919050565b600060208201905081810360008301526124c28161205c565b9050919050565b600060208201905081810360008301526124e2816120c2565b9050919050565b6000602082019050818103600083015261250281612128565b9050919050565b60006020820190508181036000830152612522816121b4565b9050919050565b600060208201905081810360008301526125428161221a565b9050919050565b60006020820190508181036000830152612562816122a6565b9050919050565b600060208201905061257e600083018461230c565b92915050565b6000606082019050612599600083018661230c565b6125a66020830185611dc3565b6125b3604083018461230c565b949350505050565b60006040820190506125d0600083018561230c565b6125dd602083018461230c565b9392505050565b60006060820190506125f9600083018661230c565b612606602083018561230c565b612613604083018461230c565b949350505050565b600081519050919050565b600082825260208201905092915050565b600061264282612681565b9050919050565b60008115159050919050565b60007fff0000000000000000000000000000000000000000000000000000000000000082169050919050565b600073ffffffffffffffffffffffffffffffffffffffff82169050919050565b6000819050919050565b60006126b6826126bd565b9050919050565b60006126c882612681565b9050919050565b60006126da826126e1565b9050919050565b60006126ec82612681565b9050919050565b60005b838110156127115780820151818401526020810190506126f6565b83811115612720576000848401525b50505050565b6000601f19601f8301169050919050565b61274081612637565b811461274b57600080fd5b50565b61275781612649565b811461276257600080fd5b50565b61276e81612655565b811461277957600080fd5b50565b612785816126a1565b811461279057600080fd5b5056fea365627a7a723158208bbdd1a3c477fcbe79d0fedc12ecd33e79d476ade6c1084927e4a47d94e923d06c6578706572696d656e74616cf564736f6c634300050c0040696e7465726573742073686f756c6420626520617661696c61626c6520696e20736176696e677320706f6f6c73656e6465722073686f756c642062652076616c696420736176696e6773206163636f756e7420636f6e7472616374a265627a7a7231582066303a0bd0e3a4a19d0e4aa781f9a2f6077a1b7d0062dd2f45fbab9bedb2efd364736f6c634300050c00325f73797374656d4665656473416464726573732073686f756c64206e6f7420626520305f706567676564546f6b656e416464726573732073686f756c64206e6f742062652030",
  "source": "pragma solidity ^0.5.11;\n\nimport \"./System.sol\";\nimport \"./SavingsAccount.sol\";\nimport \"./SystemFeeds.sol\";\nimport \"./PeggedToken.sol\";\n\ncontract SystemSavings {\n    System public system;\n    SystemFeeds public systemFeeds;\n    PeggedToken public peggedToken;\n\n    constructor(\n        address _peggedTokenAddress,\n        address _systemAddress,\n        address _systemFeedsAddress\n    ) public {\n        require(_systemAddress != address(0), \"_systemAddress should not be 0\");\n        require(_systemFeedsAddress != address(0), \"_systemFeedsAddress should not be 0\");\n        require(_peggedTokenAddress != address(0), \"_peggedTokenAddress should not be 0\");\n        system = System(_systemAddress);\n        systemFeeds = SystemFeeds(_systemFeedsAddress);\n        peggedToken = PeggedToken(_peggedTokenAddress);\n    }\n\n    mapping (address => bool) public savingsAccountMap;\n    uint256 public totalRegisteredSavings;\n    address public lastNewAddress;\n\n    function createSavingsAccount() public returns(address) {\n        SavingsAccount newSavingsAccount = new SavingsAccount(msg.sender, address(peggedToken));\n        lastNewAddress = address(newSavingsAccount);\n        savingsAccountMap[lastNewAddress] = true;\n        return lastNewAddress;\n    }\n\n    function accumulateInterest(uint256 _lastInterestTime, uint256 _callTime, uint256 _registeredBalance) public returns (uint256 interestValue){\n        require(savingsAccountMap[msg.sender], \"sender should be valid savings account contract\");\n        interestValue = system.calculateInterest(_lastInterestTime, _callTime, _registeredBalance);\n\n        require(interestValue <= peggedToken.balanceOf(address(this)), \"interest should be available in savings pool\");\n        peggedToken.transfer(msg.sender, interestValue);\n        totalRegisteredSavings += interestValue;\n\n        return interestValue;\n    }\n\n    function registerCurrency(uint256 _registeredBalance, uint256 _registerValue) public {\n        require(savingsAccountMap[msg.sender], \"sender should be valid savings account contract\");\n\n        totalRegisteredSavings += _registerValue;\n    }\n\n    function unregisterCurrency(uint256 _registeredBalance, uint256 _unregisterValue) public {\n        require(savingsAccountMap[msg.sender], \"sender should be valid savings account contract\");\n\n        totalRegisteredSavings -= _unregisterValue;\n    }\n\n    function withdrawCurrency(uint256 registeredBalance, address _withdrawToAddress, uint256 _withdrawValue) public {\n        require(savingsAccountMap[msg.sender], \"sender should be valid savings account contract\");\n    }\n\n    function voteDownPriceFeed(address _downVotedFeed, address _existingDownVotedFeed, uint256 _registeredBalance) public {\n        require(savingsAccountMap[msg.sender], \"sender should be valid savings account contract\");\n\n        if(systemFeeds.isPriceFeed(_existingDownVotedFeed)) {\n            systemFeeds.decrementDownVote(_existingDownVotedFeed, _registeredBalance);\n        }\n\n        if(systemFeeds.isPriceFeed(_downVotedFeed)) {\n            systemFeeds.decrementDownVote(_downVotedFeed, _registeredBalance);\n        }\n    }\n}",
  "sourcePath": "/Users/nimakamoosi/repos/nimakam-private/stable-coin/ethereum/contracts/SystemSavings.sol",
  "compiler": {
    "name": "solc",
    "version": "0.5.12+commit.7709ece9.Emscripten.clang"
  },
  "schemaVersion": "3.0.19",
  "updatedAt": "2020-01-09T23:54:50.761Z",
  "devdoc": {
    "methods": {}
  },
  "userdoc": {
    "methods": {}
  }
}