{
  "contractName": "SystemFeeds",
  "abi": [
    {
      "inputs": [
        {
          "internalType": "address",
          "name": "_peggedTokenAddress",
          "type": "address"
        },
        {
          "internalType": "address",
          "name": "_systemAddress",
          "type": "address"
        }
      ],
      "payable": false,
      "stateMutability": "nonpayable",
      "type": "constructor"
    },
    {
      "anonymous": false,
      "inputs": [
        {
          "indexed": false,
          "internalType": "string",
          "name": "message",
          "type": "string"
        }
      ],
      "name": "ConsoleLog",
      "type": "event"
    },
    {
      "anonymous": false,
      "inputs": [
        {
          "indexed": false,
          "internalType": "uint256",
          "name": "number",
          "type": "uint256"
        }
      ],
      "name": "ConsoleLogNumber",
      "type": "event"
    },
    {
      "constant": true,
      "inputs": [],
      "name": "HIGH_TRUST_FEEDS",
      "outputs": [
        {
          "internalType": "uint32",
          "name": "",
          "type": "uint32"
        }
      ],
      "payable": false,
      "stateMutability": "view",
      "type": "function"
    },
    {
      "constant": true,
      "inputs": [],
      "name": "MAX_ALLOCATIONS",
      "outputs": [
        {
          "internalType": "uint32",
          "name": "",
          "type": "uint32"
        }
      ],
      "payable": false,
      "stateMutability": "view",
      "type": "function"
    },
    {
      "constant": true,
      "inputs": [],
      "name": "MEDIUM_TRUST_FEEDS",
      "outputs": [
        {
          "internalType": "uint32",
          "name": "",
          "type": "uint32"
        }
      ],
      "payable": false,
      "stateMutability": "view",
      "type": "function"
    },
    {
      "constant": true,
      "inputs": [],
      "name": "PROCESS_LISTS",
      "outputs": [
        {
          "internalType": "uint32",
          "name": "",
          "type": "uint32"
        }
      ],
      "payable": false,
      "stateMutability": "view",
      "type": "function"
    },
    {
      "constant": true,
      "inputs": [
        {
          "internalType": "uint256",
          "name": "",
          "type": "uint256"
        }
      ],
      "name": "feedProcessingStateList",
      "outputs": [
        {
          "internalType": "address",
          "name": "priceFeedAddress",
          "type": "address"
        },
        {
          "internalType": "uint256",
          "name": "totalAllocation",
          "type": "uint256"
        },
        {
          "internalType": "uint256",
          "name": "ethPrice",
          "type": "uint256"
        },
        {
          "internalType": "uint256",
          "name": "pegPrice",
          "type": "uint256"
        },
        {
          "internalType": "bool",
          "name": "isProcessed",
          "type": "bool"
        }
      ],
      "payable": false,
      "stateMutability": "view",
      "type": "function"
    },
    {
      "constant": true,
      "inputs": [],
      "name": "finalizedDay",
      "outputs": [
        {
          "internalType": "uint32",
          "name": "",
          "type": "uint32"
        }
      ],
      "payable": false,
      "stateMutability": "view",
      "type": "function"
    },
    {
      "constant": true,
      "inputs": [],
      "name": "firstTime",
      "outputs": [
        {
          "internalType": "uint256",
          "name": "",
          "type": "uint256"
        }
      ],
      "payable": false,
      "stateMutability": "view",
      "type": "function"
    },
    {
      "constant": true,
      "inputs": [],
      "name": "lastNewAddress",
      "outputs": [
        {
          "internalType": "address",
          "name": "",
          "type": "address"
        }
      ],
      "payable": false,
      "stateMutability": "view",
      "type": "function"
    },
    {
      "constant": true,
      "inputs": [],
      "name": "peggedToken",
      "outputs": [
        {
          "internalType": "contract PeggedToken",
          "name": "",
          "type": "address"
        }
      ],
      "payable": false,
      "stateMutability": "view",
      "type": "function"
    },
    {
      "constant": true,
      "inputs": [
        {
          "internalType": "address",
          "name": "",
          "type": "address"
        }
      ],
      "name": "priceFeedMap",
      "outputs": [
        {
          "internalType": "bool",
          "name": "isPriceFeed",
          "type": "bool"
        },
        {
          "internalType": "bool",
          "name": "isBanned",
          "type": "bool"
        },
        {
          "internalType": "uint32",
          "name": "finalizedStateIndex",
          "type": "uint32"
        },
        {
          "internalType": "uint32",
          "name": "processingStateIndex",
          "type": "uint32"
        },
        {
          "internalType": "uint32",
          "name": "lastPriceDay",
          "type": "uint32"
        },
        {
          "internalType": "uint32",
          "name": "lastPenaltyDay",
          "type": "uint32"
        },
        {
          "internalType": "uint256",
          "name": "totalAllocation",
          "type": "uint256"
        },
        {
          "internalType": "uint256",
          "name": "revenuePoolBalance",
          "type": "uint256"
        },
        {
          "internalType": "uint256",
          "name": "lastEthPrice",
          "type": "uint256"
        }
      ],
      "payable": false,
      "stateMutability": "view",
      "type": "function"
    },
    {
      "constant": true,
      "inputs": [],
      "name": "system",
      "outputs": [
        {
          "internalType": "contract System",
          "name": "",
          "type": "address"
        }
      ],
      "payable": false,
      "stateMutability": "view",
      "type": "function"
    },
    {
      "constant": true,
      "inputs": [],
      "name": "systemLoansAddress",
      "outputs": [
        {
          "internalType": "address",
          "name": "",
          "type": "address"
        }
      ],
      "payable": false,
      "stateMutability": "view",
      "type": "function"
    },
    {
      "constant": true,
      "inputs": [],
      "name": "totalRegisteredRevenueBalances",
      "outputs": [
        {
          "internalType": "uint256",
          "name": "",
          "type": "uint256"
        }
      ],
      "payable": false,
      "stateMutability": "view",
      "type": "function"
    },
    {
      "constant": false,
      "inputs": [
        {
          "internalType": "address",
          "name": "_systemLoansAddress",
          "type": "address"
        }
      ],
      "name": "initialize",
      "outputs": [],
      "payable": false,
      "stateMutability": "nonpayable",
      "type": "function"
    },
    {
      "constant": false,
      "inputs": [],
      "name": "createPriceFeed",
      "outputs": [
        {
          "internalType": "address",
          "name": "newPriceFeedAddress",
          "type": "address"
        }
      ],
      "payable": false,
      "stateMutability": "nonpayable",
      "type": "function"
    },
    {
      "constant": false,
      "inputs": [
        {
          "internalType": "address",
          "name": "_priceFeedAddress",
          "type": "address"
        }
      ],
      "name": "isPriceFeed",
      "outputs": [
        {
          "internalType": "bool",
          "name": "",
          "type": "bool"
        }
      ],
      "payable": false,
      "stateMutability": "nonpayable",
      "type": "function"
    },
    {
      "constant": false,
      "inputs": [
        {
          "components": [
            {
              "internalType": "uint256",
              "name": "ethPrice",
              "type": "uint256"
            },
            {
              "internalType": "uint256",
              "name": "callTime",
              "type": "uint256"
            }
          ],
          "internalType": "struct PriceFeed.InstantPrice",
          "name": "_instantPrice",
          "type": "tuple"
        }
      ],
      "name": "reportInstantPrice",
      "outputs": [],
      "payable": false,
      "stateMutability": "nonpayable",
      "type": "function"
    },
    {
      "constant": false,
      "inputs": [
        {
          "components": [
            {
              "internalType": "uint256",
              "name": "ethPrice",
              "type": "uint256"
            },
            {
              "internalType": "uint256",
              "name": "pegPrice",
              "type": "uint256"
            },
            {
              "internalType": "uint256",
              "name": "priceTime",
              "type": "uint256"
            },
            {
              "internalType": "uint256",
              "name": "callTime",
              "type": "uint256"
            }
          ],
          "internalType": "struct PriceFeed.DelayedPrice",
          "name": "delayedPrice",
          "type": "tuple"
        }
      ],
      "name": "reportDelayedPrices",
      "outputs": [],
      "payable": false,
      "stateMutability": "nonpayable",
      "type": "function"
    },
    {
      "constant": false,
      "inputs": [
        {
          "components": [
            {
              "internalType": "address",
              "name": "priceFeedAddress",
              "type": "address"
            },
            {
              "internalType": "uint32",
              "name": "percentAllocation",
              "type": "uint32"
            },
            {
              "internalType": "bool",
              "name": "isAllocation",
              "type": "bool"
            }
          ],
          "internalType": "struct Loan.PriceFeedAllocation[5]",
          "name": "_priceFeedAllocations",
          "type": "tuple[5]"
        }
      ],
      "name": "getPriceFromAllocation",
      "outputs": [
        {
          "internalType": "uint256",
          "name": "",
          "type": "uint256"
        }
      ],
      "payable": false,
      "stateMutability": "nonpayable",
      "type": "function"
    },
    {
      "constant": false,
      "inputs": [
        {
          "internalType": "address",
          "name": "_priceFeedAddress",
          "type": "address"
        },
        {
          "internalType": "uint256",
          "name": "_transferValue",
          "type": "uint256"
        }
      ],
      "name": "registerFeedRevenueTransfer",
      "outputs": [],
      "payable": false,
      "stateMutability": "nonpayable",
      "type": "function"
    },
    {
      "constant": false,
      "inputs": [
        {
          "internalType": "address",
          "name": "_priceFeedAddress",
          "type": "address"
        },
        {
          "internalType": "uint256",
          "name": "_value",
          "type": "uint256"
        },
        {
          "internalType": "bool",
          "name": "isDecrement",
          "type": "bool"
        }
      ],
      "name": "changePriceFeedAllocation",
      "outputs": [],
      "payable": false,
      "stateMutability": "nonpayable",
      "type": "function"
    }
  ],
  "bytecode": "0x608060405263ffffffff600660006101000a81548163ffffffff021916908363ffffffff1602179055503480156200003657600080fd5b50604051620054623803806200546283398181016040526200005c9190810190620003c9565b600073ffffffffffffffffffffffffffffffffffffffff166000809054906101000a900473ffffffffffffffffffffffffffffffffffffffff1673ffffffffffffffffffffffffffffffffffffffff1614620000ef576040517f08c379a0000000000000000000000000000000000000000000000000000000008152600401620000e690620005ca565b60405180910390fd5b600073ffffffffffffffffffffffffffffffffffffffff168173ffffffffffffffffffffffffffffffffffffffff16141562000162576040517f08c379a0000000000000000000000000000000000000000000000000000000008152600401620001599062000586565b60405180910390fd5b600073ffffffffffffffffffffffffffffffffffffffff16600160009054906101000a900473ffffffffffffffffffffffffffffffffffffffff1673ffffffffffffffffffffffffffffffffffffffff1614620001f6576040517f08c379a0000000000000000000000000000000000000000000000000000000008152600401620001ed9062000564565b60405180910390fd5b600073ffffffffffffffffffffffffffffffffffffffff168273ffffffffffffffffffffffffffffffffffffffff16141562000269576040517f08c379a00000000000000000000000000000000000000000000000000000000081526004016200026090620005a8565b60405180910390fd5b806000806101000a81548173ffffffffffffffffffffffffffffffffffffffff021916908373ffffffffffffffffffffffffffffffffffffffff16021790555081600160006101000a81548173ffffffffffffffffffffffffffffffffffffffff021916908373ffffffffffffffffffffffffffffffffffffffff1602179055506000809054906101000a900473ffffffffffffffffffffffffffffffffffffffff1673ffffffffffffffffffffffffffffffffffffffff166341d76a9c6040518163ffffffff1660e01b815260040160206040518083038186803b1580156200035257600080fd5b505afa15801562000367573d6000803e3d6000fd5b505050506040513d601f19601f820116820180604052506200038d91908101906200040a565b60038190555050506200066f565b600081519050620003ac816200063b565b92915050565b600081519050620003c38162000655565b92915050565b60008060408385031215620003dd57600080fd5b6000620003ed858286016200039b565b925050602062000400858286016200039b565b9150509250929050565b6000602082840312156200041d57600080fd5b60006200042d84828501620003b2565b91505092915050565b600062000445601f83620005ec565b91507f706567676564546f6b656e20616464726573732073686f756c642062652030006000830152602082019050919050565b600062000487601e83620005ec565b91507f5f73797374656d416464726573732073686f756c64206e6f74206265203000006000830152602082019050919050565b6000620004c9602383620005ec565b91507f5f706567676564546f6b656e416464726573732073686f756c64206e6f74206260008301527f65203000000000000000000000000000000000000000000000000000000000006020830152604082019050919050565b600062000531601a83620005ec565b91507f73797374656d20616464726573732073686f756c6420626520300000000000006000830152602082019050919050565b600060208201905081810360008301526200057f8162000436565b9050919050565b60006020820190508181036000830152620005a18162000478565b9050919050565b60006020820190508181036000830152620005c381620004ba565b9050919050565b60006020820190508181036000830152620005e58162000522565b9050919050565b600082825260208201905092915050565b60006200060a8262000611565b9050919050565b600073ffffffffffffffffffffffffffffffffffffffff82169050919050565b6000819050919050565b6200064681620005fd565b81146200065257600080fd5b50565b620006608162000631565b81146200066c57600080fd5b50565b614de3806200067f6000396000f3fe60806040523480156200001157600080fd5b5060043610620001535760003560e01c806395bf75fd11620000c9578063b8d8f4981162000087578063b8d8f49814620003ae578063bf211c7114620003ce578063c4d66de814620003ee578063e161ba37146200040e578063ef47e51d1462000430578063f4db51e314620004525762000153565b806395bf75fd14620002d85780639e425ff414620002fa5780639f93badb1462000334578063a2e893711462000356578063b8beb4bf146200038c5762000153565b806341d76a9c116200011757806341d76a9c14620001fe5780634238dc4714620002205780634a5a58ec146200025e57806357a94beb14620002805780635f1592bb14620002b65762000153565b8062e77aa6146200015857806302fcd063146200017a5780630794003a146200019c5780632f62acbd14620001bc5780634110734f14620001de575b600080fd5b6200016262000474565b60405162000171919062003532565b60405180910390f35b620001846200049a565b604051620001939190620036e2565b60405180910390f35b620001ba6004803603620001b4919081019062002c0f565b620004a0565b005b620001c66200070d565b604051620001d59190620036ff565b60405180910390f35b620001fc6004803603620001f6919081019062002bce565b62000712565b005b6200020862000a2e565b604051620002179190620036e2565b60405180910390f35b6200023e600480360362000238919081019062002ba2565b62000a34565b604051620002559998979695949392919062003493565b60405180910390f35b6200026862000adc565b604051620002779190620036ff565b60405180910390f35b6200029e600480360362000298919081019062002ba2565b62000ae1565b604051620002ad919062003476565b60405180910390f35b620002c062000b3a565b604051620002cf9190620033a2565b60405180910390f35b620002e262000d0b565b604051620002f191906200354f565b60405180910390f35b62000318600480360362000312919081019062002cea565b62000d30565b6040516200032b95949392919062003419565b60405180910390f35b6200033e62000d97565b6040516200034d9190620033a2565b60405180910390f35b6200037460048036036200036e919081019062002c65565b62000dbd565b604051620003839190620036e2565b60405180910390f35b6200039662000fb2565b604051620003a59190620036ff565b60405180910390f35b620003cc6004803603620003c6919081019062002cbe565b62000fb7565b005b620003ec6004803603620003e6919081019062002c92565b62001182565b005b6200040c600480360362000406919081019062002ba2565b6200126d565b005b62000418620013b8565b604051620004279190620033a2565b60405180910390f35b6200043a620013de565b604051620004499190620036ff565b60405180910390f35b6200045c620013e3565b6040516200046b9190620036ff565b60405180910390f35b600160009054906101000a900473ffffffffffffffffffffffffffffffffffffffff1681565b60845481565b600073ffffffffffffffffffffffffffffffffffffffff16600260009054906101000a900473ffffffffffffffffffffffffffffffffffffffff1673ffffffffffffffffffffffffffffffffffffffff16141562000535576040517f08c379a00000000000000000000000000000000000000000000000000000000081526004016200052c90620035d2565b60405180910390fd5b600260009054906101000a900473ffffffffffffffffffffffffffffffffffffffff1673ffffffffffffffffffffffffffffffffffffffff163373ffffffffffffffffffffffffffffffffffffffff1614620005c8576040517f08c379a0000000000000000000000000000000000000000000000000000000008152600401620005bf906200367c565b60405180910390fd5b600560008473ffffffffffffffffffffffffffffffffffffffff1673ffffffffffffffffffffffffffffffffffffffff16815260200190815260200160002060000160009054906101000a900460ff166200065a576040517f08c379a000000000000000000000000000000000000000000000000000000000815260040162000651906200369e565b60405180910390fd5b8015620006b75781600560008573ffffffffffffffffffffffffffffffffffffffff1673ffffffffffffffffffffffffffffffffffffffff1681526020019081526020016000206001016000828254039250508190555062000708565b81600560008573ffffffffffffffffffffffffffffffffffffffff1673ffffffffffffffffffffffffffffffffffffffff168152602001908152602001600020600101600082825401925050819055505b505050565b600581565b600073ffffffffffffffffffffffffffffffffffffffff16600260009054906101000a900473ffffffffffffffffffffffffffffffffffffffff1673ffffffffffffffffffffffffffffffffffffffff161415620007a7576040517f08c379a00000000000000000000000000000000000000000000000000000000081526004016200079e90620035d2565b60405180910390fd5b600260009054906101000a900473ffffffffffffffffffffffffffffffffffffffff1673ffffffffffffffffffffffffffffffffffffffff163373ffffffffffffffffffffffffffffffffffffffff16146200083a576040517f08c379a000000000000000000000000000000000000000000000000000000000815260040162000831906200367c565b60405180910390fd5b600560008373ffffffffffffffffffffffffffffffffffffffff1673ffffffffffffffffffffffffffffffffffffffff16815260200190815260200160002060000160009054906101000a900460ff16620008cc576040517f08c379a0000000000000000000000000000000000000000000000000000000008152600401620008c3906200369e565b60405180910390fd5b80600560008473ffffffffffffffffffffffffffffffffffffffff1673ffffffffffffffffffffffffffffffffffffffff16815260200190815260200160002060020160008282540192505081905550806084600082825401925050819055506000600160009054906101000a900473ffffffffffffffffffffffffffffffffffffffff1673ffffffffffffffffffffffffffffffffffffffff166370a08231306040518263ffffffff1660e01b81526004016200098b9190620033a2565b60206040518083038186803b158015620009a457600080fd5b505afa158015620009b9573d6000803e3d6000fd5b505050506040513d601f19601f82011682018060405250620009df919081019062002d16565b905080608454111562000a29576040517f08c379a000000000000000000000000000000000000000000000000000000000815260040162000a2090620036c0565b60405180910390fd5b505050565b60035481565b60056020528060005260406000206000915090508060000160009054906101000a900460ff16908060000160019054906101000a900460ff16908060000160029054906101000a900463ffffffff16908060000160069054906101000a900463ffffffff169080600001600a9054906101000a900463ffffffff169080600001600e9054906101000a900463ffffffff16908060010154908060020154908060030154905089565b600281565b6000600560008373ffffffffffffffffffffffffffffffffffffffff1673ffffffffffffffffffffffffffffffffffffffff16815260200190815260200160002060000160009054906101000a900460ff169050919050565b600080336000809054906101000a900473ffffffffffffffffffffffffffffffffffffffff1660405162000b6e906200287a565b62000b7b929190620033bf565b604051809103906000f08015801562000b98573d6000803e3d6000fd5b5090508091506001600560008473ffffffffffffffffffffffffffffffffffffffff1673ffffffffffffffffffffffffffffffffffffffff16815260200190815260200160002060000160006101000a81548160ff02191690831515021790555063ffffffff600560008473ffffffffffffffffffffffffffffffffffffffff1673ffffffffffffffffffffffffffffffffffffffff16815260200190815260200160002060000160026101000a81548163ffffffff021916908363ffffffff16021790555063ffffffff600560008473ffffffffffffffffffffffffffffffffffffffff1673ffffffffffffffffffffffffffffffffffffffff16815260200190815260200160002060000160066101000a81548163ffffffff021916908363ffffffff16021790555081600460006101000a81548173ffffffffffffffffffffffffffffffffffffffff021916908373ffffffffffffffffffffffffffffffffffffffff1602179055508191505090565b6000809054906101000a900473ffffffffffffffffffffffffffffffffffffffff1681565b6007816019811062000d3e57fe5b600502016000915090508060000160009054906101000a900473ffffffffffffffffffffffffffffffffffffffff16908060010154908060020154908060030154908060040160009054906101000a900460ff16905085565b600460009054906101000a900473ffffffffffffffffffffffffffffffffffffffff1681565b600080600080600090505b600581101562000f875762000ddc62002888565b85826005811062000de957fe5b6020020151905062000dfa620028c7565b60056000836000015173ffffffffffffffffffffffffffffffffffffffff1673ffffffffffffffffffffffffffffffffffffffff168152602001908152602001600020604051806101200160405290816000820160009054906101000a900460ff161515151581526020016000820160019054906101000a900460ff161515151581526020016000820160029054906101000a900463ffffffff1663ffffffff1663ffffffff1681526020016000820160069054906101000a900463ffffffff1663ffffffff1663ffffffff16815260200160008201600a9054906101000a900463ffffffff1663ffffffff1663ffffffff16815260200160008201600e9054906101000a900463ffffffff1663ffffffff1663ffffffff1681526020016001820154815260200160028201548152602001600382015481525050905081604001511562000f775760008161010001511462000f7657816020015163ffffffff168161010001510285019450816020015163ffffffff16840193505b5b5050808060010191505062000dc8565b506000811462000fa65780828162000f9b57fe5b049250505062000fad565b6000925050505b919050565b601981565b600560003373ffffffffffffffffffffffffffffffffffffffff1673ffffffffffffffffffffffffffffffffffffffff16815260200190815260200160002060000160009054906101000a900460ff1662001049576040517f08c379a00000000000000000000000000000000000000000000000000000000081526004016200104090620035f4565b60405180910390fd5b63ffffffff8016600560003373ffffffffffffffffffffffffffffffffffffffff1673ffffffffffffffffffffffffffffffffffffffff16815260200190815260200160002060000160029054906101000a900463ffffffff1663ffffffff161415620010ed576040517f08c379a0000000000000000000000000000000000000000000000000000000008152600401620010e49062003638565b60405180910390fd5b6000809054906101000a900473ffffffffffffffffffffffffffffffffffffffff1673ffffffffffffffffffffffffffffffffffffffff166339d5e1f733836040518363ffffffff1660e01b81526004016200114b929190620033ec565b600060405180830381600087803b1580156200116657600080fd5b505af11580156200117b573d6000803e3d6000fd5b5050505050565b600560003373ffffffffffffffffffffffffffffffffffffffff1673ffffffffffffffffffffffffffffffffffffffff16815260200190815260200160002060000160009054906101000a900460ff1662001214576040517f08c379a00000000000000000000000000000000000000000000000000000000081526004016200120b9062003616565b60405180910390fd5b8060000151600560003373ffffffffffffffffffffffffffffffffffffffff1673ffffffffffffffffffffffffffffffffffffffff168152602001908152602001600020600301819055506200126a81620013f9565b50565b600073ffffffffffffffffffffffffffffffffffffffff16600260009054906101000a900473ffffffffffffffffffffffffffffffffffffffff1673ffffffffffffffffffffffffffffffffffffffff161462001301576040517f08c379a0000000000000000000000000000000000000000000000000000000008152600401620012f8906200365a565b60405180910390fd5b600073ffffffffffffffffffffffffffffffffffffffff168173ffffffffffffffffffffffffffffffffffffffff16141562001374576040517f08c379a00000000000000000000000000000000000000000000000000000000081526004016200136b906200358e565b60405180910390fd5b80600260006101000a81548173ffffffffffffffffffffffffffffffffffffffff021916908373ffffffffffffffffffffffffffffffffffffffff16021790555050565b600260009054906101000a900473ffffffffffffffffffffffffffffffffffffffff1681565b600581565b600660009054906101000a900463ffffffff1681565b6000600560003373ffffffffffffffffffffffffffffffffffffffff1673ffffffffffffffffffffffffffffffffffffffff16815260200190815260200160002090508060000160009054906101000a900460ff1662001490576040517f08c379a0000000000000000000000000000000000000000000000000000000008152600401620014879062003616565b60405180910390fd5b60006201518063ffffffff1660035484604001510381620014ad57fe5b04905063ffffffff8016600660009054906101000a900463ffffffff1663ffffffff161480620014fa57508063ffffffff16600660009054906101000a900463ffffffff1663ffffffff16105b6200153c576040517f08c379a00000000000000000000000000000000000000000000000000000000081526004016200153390620035b0565b60405180910390fd5b8063ffffffff166001600660009054906101000a900463ffffffff160163ffffffff1610806200159c575063ffffffff8016600660009054906101000a900463ffffffff1663ffffffff161480156200159b57508063ffffffff166000105b5b1562001bc15760008090505b601963ffffffff168163ffffffff16101562001a26576000809050600060078363ffffffff1660198110620015d957fe5b6005020190506000600560008360000160009054906101000a900473ffffffffffffffffffffffffffffffffffffffff1673ffffffffffffffffffffffffffffffffffffffff1673ffffffffffffffffffffffffffffffffffffffff1681526020019081526020016000209050600073ffffffffffffffffffffffffffffffffffffffff168260000160009054906101000a900473ffffffffffffffffffffffffffffffffffffffff1673ffffffffffffffffffffffffffffffffffffffff1614620019915780600001600a9054906101000a900463ffffffff1663ffffffff166001860363ffffffff1611156200199057620017d86001860363ffffffff1682604051806101200160405290816000820160009054906101000a900460ff161515151581526020016000820160019054906101000a900460ff161515151581526020016000820160029054906101000a900463ffffffff1663ffffffff1663ffffffff1681526020016000820160069054906101000a900463ffffffff1663ffffffff1663ffffffff16815260200160008201600a9054906101000a900463ffffffff1663ffffffff1663ffffffff16815260200160008201600e9054906101000a900463ffffffff1663ffffffff1663ffffffff168152602001600182015481526020016002820154815260200160038201548152505062002445565b80600001600a9054906101000a900463ffffffff1660070163ffffffff168563ffffffff1611156200198f576001925060018160000160016101000a81548160ff02191690831515021790555060078463ffffffff16601981106200183957fe5b60050201600080820160006101000a81549073ffffffffffffffffffffffffffffffffffffffff02191690556001820160009055600282016000905560038201600090556004820160006101000a81549060ff0219169055505060008490505b600160190363ffffffff168163ffffffff1610156200193f57600073ffffffffffffffffffffffffffffffffffffffff1660076001830163ffffffff1660198110620018e157fe5b6005020160000160009054906101000a900473ffffffffffffffffffffffffffffffffffffffff1673ffffffffffffffffffffffffffffffffffffffff161462001931576200193081620024ee565b5b808060010191505062001899565b5063ffffffff8160000160026101000a81548163ffffffff021916908363ffffffff16021790555063ffffffff8160000160066101000a81548163ffffffff021916908363ffffffff1602179055505b5b5b8262001a1d57600073ffffffffffffffffffffffffffffffffffffffff168260000160009054906101000a900473ffffffffffffffffffffffffffffffffffffffff1673ffffffffffffffffffffffffffffffffffffffff161462001a1457838160000160026101000a81548163ffffffff021916908363ffffffff1602179055505b83806001019450505b505050620015a8565b60018203600660006101000a81548163ffffffff021916908363ffffffff1602179055506000809054906101000a900473ffffffffffffffffffffffffffffffffffffffff1673ffffffffffffffffffffffffffffffffffffffff1663879faddb600660009054906101000a900463ffffffff1660076040518363ffffffff1660e01b815260040162001abb9291906200371c565b600060405180830381600087803b15801562001ad657600080fd5b505af115801562001aeb573d6000803e3d6000fd5b5050505060008090505b601963ffffffff168163ffffffff16101562001bbe57600073ffffffffffffffffffffffffffffffffffffffff1660078263ffffffff166019811062001b3757fe5b6005020160000160009054906101000a900473ffffffffffffffffffffffffffffffffffffffff1673ffffffffffffffffffffffffffffffffffffffff161462001bb057600060078263ffffffff166019811062001b9157fe5b6005020160040160006101000a81548160ff0219169083151502179055505b808060010191505062001af5565b50505b8082600001600a6101000a81548163ffffffff021916908363ffffffff160217905550600082600101541415801562001c0957508160000160019054906101000a900460ff16155b15620024405762001c196200292f565b8360000151816040018181525050836020015181606001818152505033816000019073ffffffffffffffffffffffffffffffffffffffff16908173ffffffffffffffffffffffffffffffffffffffff16815250508260010154816020018181525050600181608001901515908115158152505060006019905063ffffffff80168460000160069054906101000a900463ffffffff1663ffffffff16141562001ec6576000600160190390505b60008163ffffffff161062001ebf57600073ffffffffffffffffffffffffffffffffffffffff1660078263ffffffff166019811062001d0057fe5b6005020160000160009054906101000a900473ffffffffffffffffffffffffffffffffffffffff1673ffffffffffffffffffffffffffffffffffffffff16141562001e955760008163ffffffff16148062001dc65750600073ffffffffffffffffffffffffffffffffffffffff1660076001830363ffffffff166019811062001d8557fe5b6005020160000160009054906101000a900473ffffffffffffffffffffffffffffffffffffffff1673ffffffffffffffffffffffffffffffffffffffff1614155b1562001e9457808560000160066101000a81548163ffffffff021916908363ffffffff1602179055508260078263ffffffff166019811062001e0457fe5b6005020160008201518160000160006101000a81548173ffffffffffffffffffffffffffffffffffffffff021916908373ffffffffffffffffffffffffffffffffffffffff16021790555060208201518160010155604082015181600201556060820151816003015560808201518160040160006101000a81548160ff0219169083151502179055509050508091505b5b60008163ffffffff161462001eb35780806001900391505062001eb9565b62001ebf565b62001cc5565b5062001ff1565b8360000160069054906101000a900463ffffffff1690506000151560078263ffffffff166019811062001ef557fe5b6005020160040160009054906101000a900460ff1615151462001f4f576040517f08c379a000000000000000000000000000000000000000000000000000000000815260040162001f46906200356c565b60405180910390fd5b8160078263ffffffff166019811062001f6457fe5b6005020160008201518160000160006101000a81548173ffffffffffffffffffffffffffffffffffffffff021916908373ffffffffffffffffffffffffffffffffffffffff16021790555060208201518160010155604082015181600201556060820151816003015560808201518160040160006101000a81548160ff0219169083151502179055509050505b60008163ffffffff16146200243d5760006001820390505b60008163ffffffff16106200220c576005600060078363ffffffff16601981106200203057fe5b6005020160000160009054906101000a900473ffffffffffffffffffffffffffffffffffffffff1673ffffffffffffffffffffffffffffffffffffffff1673ffffffffffffffffffffffffffffffffffffffff1681526020019081526020016000206001015485600101541115620021e25760008190505b6001830363ffffffff168163ffffffff161015620021e0576005600060078363ffffffff1660198110620020d857fe5b6005020160000160009054906101000a900473ffffffffffffffffffffffffffffffffffffffff1673ffffffffffffffffffffffffffffffffffffffff1673ffffffffffffffffffffffffffffffffffffffff168152602001908152602001600020600101546005600060076001850163ffffffff16601981106200215957fe5b6005020160000160009054906101000a900473ffffffffffffffffffffffffffffffffffffffff1673ffffffffffffffffffffffffffffffffffffffff1673ffffffffffffffffffffffffffffffffffffffff168152602001908152602001600020600101541115620021d257620021d181620024ee565b5b8080600101915050620020a8565b505b60008163ffffffff1614620022005780806001900391505062002206565b6200220c565b62002009565b601963ffffffff168263ffffffff1614156200235e57600560006007600160190363ffffffff16601981106200223e57fe5b6005020160000160009054906101000a900473ffffffffffffffffffffffffffffffffffffffff1673ffffffffffffffffffffffffffffffffffffffff1673ffffffffffffffffffffffffffffffffffffffff16815260200190815260200160002060010154856001015411156200235d57826007600160190363ffffffff1660198110620022c957fe5b6005020160008201518160000160006101000a81548173ffffffffffffffffffffffffffffffffffffffff021916908373ffffffffffffffffffffffffffffffffffffffff16021790555060208201518160010155604082015181600201556060820151816003015560808201518160040160006101000a81548160ff021916908315150217905550905050600160190391505b5b601963ffffffff168263ffffffff1610156200243b575b60008263ffffffff16146200243a576005600060076001850363ffffffff16601981106200239f57fe5b6005020160000160009054906101000a900473ffffffffffffffffffffffffffffffffffffffff1673ffffffffffffffffffffffffffffffffffffffff1673ffffffffffffffffffffffffffffffffffffffff16815260200190815260200160002060010154856001015411156200242e576200241f60018303620024ee565b81806001900392505062002434565b6200243a565b62002375565b5b505b50505b505050565b81816080015163ffffffff161015620024ea578060a0015163ffffffff16816080015163ffffffff161115620024925780608001518160a0019063ffffffff16908163ffffffff16815250505b60008060018360a001510163ffffffff1690505b838111620024e757600060646003856080015163ffffffff1684038660e00151020281620024d057fe5b0490508083019250508080600101915050620024a6565b50505b5050565b620024f86200292f565b60078263ffffffff16601981106200250c57fe5b600502016040518060a00160405290816000820160009054906101000a900473ffffffffffffffffffffffffffffffffffffffff1673ffffffffffffffffffffffffffffffffffffffff1673ffffffffffffffffffffffffffffffffffffffff1681526020016001820154815260200160028201548152602001600382015481526020016004820160009054906101000a900460ff161515151581525050905060076001830163ffffffff1660198110620025c357fe5b6005020160078363ffffffff1660198110620025db57fe5b600502016000820160009054906101000a900473ffffffffffffffffffffffffffffffffffffffff168160000160006101000a81548173ffffffffffffffffffffffffffffffffffffffff021916908373ffffffffffffffffffffffffffffffffffffffff1602179055506001820154816001015560028201548160020155600382015481600301556004820160009054906101000a900460ff168160040160006101000a81548160ff0219169083151502179055509050508060076001840163ffffffff1660198110620026ac57fe5b6005020160008201518160000160006101000a81548173ffffffffffffffffffffffffffffffffffffffff021916908373ffffffffffffffffffffffffffffffffffffffff16021790555060208201518160010155604082015181600201556060820151816003015560808201518160040160006101000a81548160ff021916908315150217905550905050816005600060078563ffffffff16601981106200275157fe5b6005020160000160009054906101000a900473ffffffffffffffffffffffffffffffffffffffff1673ffffffffffffffffffffffffffffffffffffffff1673ffffffffffffffffffffffffffffffffffffffff16815260200190815260200160002060000160066101000a81548163ffffffff021916908363ffffffff160217905550600182016005600060076001860163ffffffff1660198110620027f357fe5b6005020160000160009054906101000a900473ffffffffffffffffffffffffffffffffffffffff1673ffffffffffffffffffffffffffffffffffffffff1673ffffffffffffffffffffffffffffffffffffffff16815260200190815260200160002060000160066101000a81548163ffffffff021916908363ffffffff1602179055505050565b6113db80620039c683390190565b6040518060600160405280600073ffffffffffffffffffffffffffffffffffffffff168152602001600063ffffffff1681526020016000151581525090565b604051806101200160405280600015158152602001600015158152602001600063ffffffff168152602001600063ffffffff168152602001600063ffffffff168152602001600063ffffffff1681526020016000815260200160008152602001600081525090565b6040518060a00160405280600073ffffffffffffffffffffffffffffffffffffffff1681526020016000815260200160008152602001600081526020016000151581525090565b60008135905062002987816200395d565b92915050565b600082601f8301126200299f57600080fd5b6005620029b6620029b08262003778565b6200374a565b91508183856060840282011115620029cd57600080fd5b60005b8381101562002a015781620029e6888262002af4565b845260208401935060608301925050600181019050620029d0565b5050505092915050565b60008135905062002a1c8162003977565b92915050565b60006080828403121562002a3557600080fd5b62002a4160806200374a565b9050600062002a538482850162002b5d565b600083015250602062002a698482850162002b5d565b602083015250604062002a7f8482850162002b5d565b604083015250606062002a958482850162002b5d565b60608301525092915050565b60006040828403121562002ab457600080fd5b62002ac060406200374a565b9050600062002ad28482850162002b5d565b600083015250602062002ae88482850162002b5d565b60208301525092915050565b60006060828403121562002b0757600080fd5b62002b1360606200374a565b9050600062002b258482850162002976565b600083015250602062002b3b8482850162002b8b565b602083015250604062002b518482850162002a0b565b60408301525092915050565b60008135905062002b6e8162003991565b92915050565b60008151905062002b858162003991565b92915050565b60008135905062002b9c81620039ab565b92915050565b60006020828403121562002bb557600080fd5b600062002bc58482850162002976565b91505092915050565b6000806040838503121562002be257600080fd5b600062002bf28582860162002976565b925050602062002c058582860162002b5d565b9150509250929050565b60008060006060848603121562002c2557600080fd5b600062002c358682870162002976565b935050602062002c488682870162002b5d565b925050604062002c5b8682870162002a0b565b9150509250925092565b60006101e0828403121562002c7957600080fd5b600062002c89848285016200298d565b91505092915050565b60006080828403121562002ca557600080fd5b600062002cb58482850162002a22565b91505092915050565b60006040828403121562002cd157600080fd5b600062002ce18482850162002aa1565b91505092915050565b60006020828403121562002cfd57600080fd5b600062002d0d8482850162002b5d565b91505092915050565b60006020828403121562002d2957600080fd5b600062002d398482850162002b74565b91505092915050565b600062002d50838362003287565b60a08301905092915050565b62002d67816200386a565b82525050565b62002d788162003810565b82525050565b62002d898162003810565b82525050565b62002d9a81620037a5565b62002da68184620037bd565b925062002db3826200379b565b8060005b8381101562002de9578162002dcd878262002d42565b965062002dda83620037b0565b92505060018101905062002db7565b505050505050565b62002dfc8162003824565b82525050565b62002e0d8162003824565b82525050565b62002e1e816200387e565b82525050565b62002e2f81620038a6565b82525050565b600062002e44602b83620037c8565b91507f63616e6e6f74207265706f7274207468652073616d652070726963652074776960008301527f636520696e2061206461790000000000000000000000000000000000000000006020830152604082019050919050565b600062002eac602383620037c8565b91507f5f73797374656d4c6f616e73416464726573732073686f756c64206e6f74206260008301527f65203000000000000000000000000000000000000000000000000000000000006020830152604082019050919050565b600062002f14602983620037c8565b91507f707269636520646179206f6363757273206166746572206c6173742066696e6160008301527f6c697a65642064617900000000000000000000000000000000000000000000006020830152604082019050919050565b600062002f7c602883620037c8565b91507f73797374656d4c6f616e73416464726573732073686f756c6420626520696e6960008301527f7469616c697a65640000000000000000000000000000000000000000000000006020830152604082019050919050565b600062002fe4602b83620037c8565b91507f63616c6c657220616464726573732073686f756c6420626520612076616c696460008301527f20707269636520666565640000000000000000000000000000000000000000006020830152604082019050919050565b60006200304c602c83620037c8565b91507f63616c6c657220616464726573732073686f6c756c6420626520612076616c6960008301527f64207072696365206665656400000000000000000000000000000000000000006020830152604082019050919050565b6000620030b4603483620037c8565b91507f63616c6c657220666565642073686f756c6420626520696e2066696e616c697a60008301527f6564206d656469756d207472757374206c6973740000000000000000000000006020830152604082019050919050565b60006200311c601e83620037c8565b91507f73797374656d4c6f616e73416464726573732073686f756c64206265203000006000830152602082019050919050565b60006200315e602483620037c8565b91507f63616c6c6572206d7573742062652073797374656d206c6f616e7320636f6e7460008301527f72616374000000000000000000000000000000000000000000000000000000006020830152604082019050919050565b6000620031c6602f83620037c8565b91507f5f707269636546656564416464726573732073686f6c756c642062652061207660008301527f616c6964207072696365206665656400000000000000000000000000000000006020830152604082019050919050565b60006200322e603983620037c8565b91507f63757272656e63792062616c616e63652073686f756c6420626520677265617460008301527f6572207468616e207265676973746572656420616d6f756e74000000000000006020830152604082019050919050565b60a0820160008083015490506200329e81620038f6565b620032ad600086018262002d6d565b5060018301549050620032c08162003932565b620032cf60208601826200336f565b5060028301549050620032e28162003932565b620032f160408601826200336f565b5060038301549050620033048162003932565b6200331360608601826200336f565b5060048301549050620033268162003914565b62003335608086018262002df1565b5050505050565b6040820160008201516200335460008501826200336f565b5060208201516200336960208501826200336f565b50505050565b6200337a8162003850565b82525050565b6200338b8162003850565b82525050565b6200339c816200385a565b82525050565b6000602082019050620033b9600083018462002d7e565b92915050565b6000604082019050620033d6600083018562002d5c565b620033e5602083018462002d7e565b9392505050565b600060608201905062003403600083018562002d5c565b6200341260208301846200333c565b9392505050565b600060a08201905062003430600083018862002d7e565b6200343f602083018762003380565b6200344e604083018662003380565b6200345d606083018562003380565b6200346c608083018462002e02565b9695505050505050565b60006020820190506200348d600083018462002e02565b92915050565b600061012082019050620034ab600083018c62002e02565b620034ba602083018b62002e02565b620034c9604083018a62003391565b620034d8606083018962003391565b620034e7608083018862003391565b620034f660a083018762003391565b6200350560c083018662003380565b6200351460e083018562003380565b6200352461010083018462003380565b9a9950505050505050505050565b600060208201905062003549600083018462002e13565b92915050565b600060208201905062003566600083018462002e24565b92915050565b60006020820190508181036000830152620035878162002e35565b9050919050565b60006020820190508181036000830152620035a98162002e9d565b9050919050565b60006020820190508181036000830152620035cb8162002f05565b9050919050565b60006020820190508181036000830152620035ed8162002f6d565b9050919050565b600060208201905081810360008301526200360f8162002fd5565b9050919050565b6000602082019050818103600083015262003631816200303d565b9050919050565b600060208201905081810360008301526200365381620030a5565b9050919050565b6000602082019050818103600083015262003675816200310d565b9050919050565b6000602082019050818103600083015262003697816200314f565b9050919050565b60006020820190508181036000830152620036b981620031b7565b9050919050565b60006020820190508181036000830152620036db816200321f565b9050919050565b6000602082019050620036f9600083018462003380565b92915050565b600060208201905062003716600083018462003391565b92915050565b6000610fc08201905062003734600083018562003391565b62003743602083018462002d8f565b9392505050565b6000604051905081810181811067ffffffffffffffff821117156200376e57600080fd5b8060405250919050565b600067ffffffffffffffff8211156200379057600080fd5b602082029050919050565b6000819050919050565b600060199050919050565b6000600582019050919050565b600081905092915050565b600082825260208201905092915050565b600073ffffffffffffffffffffffffffffffffffffffff82169050919050565b600060ff82169050919050565b6000819050919050565b60006200381d8262003830565b9050919050565b60008115159050919050565b600073ffffffffffffffffffffffffffffffffffffffff82169050919050565b6000819050919050565b600063ffffffff82169050919050565b60006200387782620038ce565b9050919050565b60006200388b8262003892565b9050919050565b60006200389f8262003830565b9050919050565b6000620038b382620038ba565b9050919050565b6000620038c78262003830565b9050919050565b6000620038db82620038e2565b9050919050565b6000620038ef8262003830565b9050919050565b60006200390d620039078362003950565b620037d9565b9050919050565b60006200392b620039258362003950565b620037f9565b9050919050565b600062003949620039438362003950565b62003806565b9050919050565b60008160001c9050919050565b620039688162003810565b81146200397457600080fd5b50565b620039828162003824565b81146200398e57600080fd5b50565b6200399c8162003850565b8114620039a857600080fd5b50565b620039b6816200385a565b8114620039c257600080fd5b5056fe60806040523480156200001157600080fd5b50604051620013db380380620013db83398181016040526200003791908101906200014f565b7f0f8db0708c4e6b233e2c285fe1ed66015dee71bd374ac8e835534be5f592d6a26040516200006690620001d2565b60405180910390a1816000806101000a81548173ffffffffffffffffffffffffffffffffffffffff021916908373ffffffffffffffffffffffffffffffffffffffff16021790555033600160006101000a81548173ffffffffffffffffffffffffffffffffffffffff021916908373ffffffffffffffffffffffffffffffffffffffff16021790555080600260006101000a81548173ffffffffffffffffffffffffffffffffffffffff021916908373ffffffffffffffffffffffffffffffffffffffff160217905550505062000253565b600081519050620001498162000239565b92915050565b600080604083850312156200016357600080fd5b6000620001738582860162000138565b9250506020620001868582860162000138565b9150509250929050565b60006200019f601683620001f4565b91507f3e5072696365466565642e636f6e7374727563746f72000000000000000000006000830152602082019050919050565b60006020820190508181036000830152620001ed8162000190565b9050919050565b600082825260208201905092915050565b6000620002128262000219565b9050919050565b600073ffffffffffffffffffffffffffffffffffffffff82169050919050565b620002448162000205565b81146200025057600080fd5b50565b61117880620002636000396000f3fe608060405234801561001057600080fd5b50600436106100a95760003560e01c806395bf75fd1161007157806395bf75fd14610154578063b5a1341514610172578063bf211c7114610191578063c61304fa146101ad578063f769c50d146101dd578063f76f950e14610210576100a9565b80630f5e07c7146100ae57806319d51d89146100cc57806355145bba146100ea57806369f9ad2f146101065780638da5cb5b14610136575b600080fd5b6100b6610240565b6040516100c39190610ef9565b60405180910390f35b6100d4610246565b6040516100e19190610e0b565b60405180910390f35b61010460048036036100ff9190810190610b6e565b61026c565b005b610120600480360361011b9190810190610b1c565b6103aa565b60405161012d9190610df0565b60405180910390f35b61013e6103de565b60405161014b9190610dd5565b60405180910390f35b61015c610403565b6040516101699190610e26565b60405180910390f35b61017a610429565b604051610188929190610f14565b60405180910390f35b6101ab60048036036101a69190810190610b45565b61043b565b005b6101c760048036036101c29190810190610af3565b61076c565b6040516101d49190610e41565b60405180910390f35b6101f760048036036101f29190810190610b6e565b6108bb565b6040516102079493929190610f3d565b60405180910390f35b61022a60048036036102259190810190610b6e565b6108ee565b6040516102379190610e41565b60405180910390f35b60035481565b600160009054906101000a900473ffffffffffffffffffffffffffffffffffffffff1681565b3373ffffffffffffffffffffffffffffffffffffffff166000809054906101000a900473ffffffffffffffffffffffffffffffffffffffff1673ffffffffffffffffffffffffffffffffffffffff16146102fb576040517f08c379a00000000000000000000000000000000000000000000000000000000081526004016102f290610e83565b60405180910390fd5b610303610a22565b60035460206001018190555080602060000181905550600160009054906101000a900473ffffffffffffffffffffffffffffffffffffffff1673ffffffffffffffffffffffffffffffffffffffff1663b8d8f49860206040518263ffffffff1660e01b81526004016103759190610ede565b600060405180830381600087803b15801561038f57600080fd5b505af11580156103a3573d6000803e3d6000fd5b5050505050565b6000600a8260f81c60ff1610156103cc5760308260f81c0160f81b90506103d9565b60578260f81c0160f81b90505b919050565b6000809054906101000a900473ffffffffffffffffffffffffffffffffffffffff1681565b600260009054906101000a900473ffffffffffffffffffffffffffffffffffffffff1681565b60208060000154908060010154905082565b7f0f8db0708c4e6b233e2c285fe1ed66015dee71bd374ac8e835534be5f592d6a260405161046890610e63565b60405180910390a13373ffffffffffffffffffffffffffffffffffffffff166000809054906101000a900473ffffffffffffffffffffffffffffffffffffffff1673ffffffffffffffffffffffffffffffffffffffff16146104ff576040517f08c379a00000000000000000000000000000000000000000000000000000000081526004016104f690610e83565b60405180910390fd5b610507610a22565b60006201518063ffffffff16600260009054906101000a900473ffffffffffffffffffffffffffffffffffffffff1673ffffffffffffffffffffffffffffffffffffffff166341d76a9c6040518163ffffffff1660e01b815260040160206040518083038186803b15801561057b57600080fd5b505afa15801561058f573d6000803e3d6000fd5b505050506040513d601f19601f820116820180604052506105b39190810190610b97565b60035403816105be57fe5b04905060006201518063ffffffff16600260009054906101000a900473ffffffffffffffffffffffffffffffffffffffff1673ffffffffffffffffffffffffffffffffffffffff166341d76a9c6040518163ffffffff1660e01b815260040160206040518083038186803b15801561063557600080fd5b505afa158015610649573d6000803e3d6000fd5b505050506040513d601f19601f8201168201806040525061066d9190810190610b97565b8460400151038161067a57fe5b0490506001810163ffffffff168263ffffffff16146106ce576040517f08c379a00000000000000000000000000000000000000000000000000000000081526004016106c590610ea3565b60405180910390fd5b600354836060018181525050600160009054906101000a900473ffffffffffffffffffffffffffffffffffffffff1673ffffffffffffffffffffffffffffffffffffffff1663bf211c71846040518263ffffffff1660e01b81526004016107359190610ec3565b600060405180830381600087803b15801561074f57600080fd5b505af1158015610763573d6000803e3d6000fd5b50505050505050565b60608060286040519080825280601f01601f1916602001820160405280156107a35781602001600182028038833980820191505090505b50905060008090505b60148110156108b15760008160130360080260020a8573ffffffffffffffffffffffffffffffffffffffff16816107df57fe5b0460f81b9050600060108260f81c60ff16816107f757fe5b0460f81b905060008160f81c6010028360f81c0360f81b9050610819826103aa565b85856002028151811061082857fe5b60200101907effffffffffffffffffffffffffffffffffffffffffffffffffffffffffffff1916908160001a905350610860816103aa565b85600186600202018151811061087257fe5b60200101907effffffffffffffffffffffffffffffffffffffffffffffffffffffffffffff1916908160001a90535050505080806001019150506107ac565b5080915050919050565b600481600781106108c857fe5b600402016000915090508060000154908060010154908060020154908060030154905084565b60606000829050600081141561093c576040518060400160405280600181526020017f3000000000000000000000000000000000000000000000000000000000000000815250915050610a1d565b600081905060005b60008214610966578080600101915050600a828161095e57fe5b049150610944565b6060816040519080825280601f01601f19166020018201604052801561099b5781602001600182028038833980820191505090505b50905060006001830390505b60008514610a1457600a85816109b957fe5b0660300160f81b828280600190039350815181106109d357fe5b60200101907effffffffffffffffffffffffffffffffffffffffffffffffffffffffffffff1916908160001a905350600a8581610a0c57fe5b0494506109a7565b81955050505050505b919050565b42600381905550565b600081359050610a3a816110f0565b92915050565b600081359050610a4f81611107565b92915050565b600060808284031215610a6757600080fd5b610a716080610f82565b90506000610a8184828501610ac9565b6000830152506020610a9584828501610ac9565b6020830152506040610aa984828501610ac9565b6040830152506060610abd84828501610ac9565b60608301525092915050565b600081359050610ad88161111e565b92915050565b600081519050610aed8161111e565b92915050565b600060208284031215610b0557600080fd5b6000610b1384828501610a2b565b91505092915050565b600060208284031215610b2e57600080fd5b6000610b3c84828501610a40565b91505092915050565b600060808284031215610b5757600080fd5b6000610b6584828501610a55565b91505092915050565b600060208284031215610b8057600080fd5b6000610b8e84828501610ac9565b91505092915050565b600060208284031215610ba957600080fd5b6000610bb784828501610ade565b91505092915050565b610bc981610fd5565b82525050565b610bd881610fe7565b82525050565b610be78161103d565b82525050565b610bf681611061565b82525050565b6000610c0782610faf565b610c118185610fba565b9350610c21818560208601611085565b610c2a816110d2565b840191505092915050565b6000610c42601d83610fba565b91507f3e5072696365466565642e7265706f727444656c6179656450726963650000006000830152602082019050919050565b6000610c82601683610fba565b91507f73656e6465722073686f756c64206265206f776e6572000000000000000000006000830152602082019050919050565b6000610cc2602583610fba565b91507f70726963652073686f756c6420626520666f722065786163746c79203120646160008301527f792061676f0000000000000000000000000000000000000000000000000000006020830152604082019050919050565b608082016000820151610d316000850182610db7565b506020820151610d446020850182610db7565b506040820151610d576040850182610db7565b506060820151610d6a6060850182610db7565b50505050565b604082016000808301549050610d85816110b8565b610d926000860182610db7565b5060018301549050610da3816110b8565b610db06020860182610db7565b5050505050565b610dc081611033565b82525050565b610dcf81611033565b82525050565b6000602082019050610dea6000830184610bc0565b92915050565b6000602082019050610e056000830184610bcf565b92915050565b6000602082019050610e206000830184610bde565b92915050565b6000602082019050610e3b6000830184610bed565b92915050565b60006020820190508181036000830152610e5b8184610bfc565b905092915050565b60006020820190508181036000830152610e7c81610c35565b9050919050565b60006020820190508181036000830152610e9c81610c75565b9050919050565b60006020820190508181036000830152610ebc81610cb5565b9050919050565b6000608082019050610ed86000830184610d1b565b92915050565b6000604082019050610ef36000830184610d70565b92915050565b6000602082019050610f0e6000830184610dc6565b92915050565b6000604082019050610f296000830185610dc6565b610f366020830184610dc6565b9392505050565b6000608082019050610f526000830187610dc6565b610f5f6020830186610dc6565b610f6c6040830185610dc6565b610f796060830184610dc6565b95945050505050565b6000604051905081810181811067ffffffffffffffff82111715610fa557600080fd5b8060405250919050565b600081519050919050565b600082825260208201905092915050565b6000819050919050565b6000610fe082611013565b9050919050565b60007fff0000000000000000000000000000000000000000000000000000000000000082169050919050565b600073ffffffffffffffffffffffffffffffffffffffff82169050919050565b6000819050919050565b60006110488261104f565b9050919050565b600061105a82611013565b9050919050565b600061106c82611073565b9050919050565b600061107e82611013565b9050919050565b60005b838110156110a3578082015181840152602081019050611088565b838111156110b2576000848401525b50505050565b60006110cb6110c6836110e3565b610fcb565b9050919050565b6000601f19601f8301169050919050565b60008160001c9050919050565b6110f981610fd5565b811461110457600080fd5b50565b61111081610fe7565b811461111b57600080fd5b50565b61112781611033565b811461113257600080fd5b5056fea365627a7a7231582044c5c7cdc68d895ae0088042ff55a6dffc77ff2b2da660e03f1fc552f3bd3b326c6578706572696d656e74616cf564736f6c634300050c0040a365627a7a72315820cf84a78f9665a7fbbb41f730e61337feadf417b565c63b95ac742e1845a777966c6578706572696d656e74616cf564736f6c634300050c0040",
  "source": "pragma solidity ^0.5.11;\npragma experimental ABIEncoderV2;\n\nimport \"./PeggedToken.sol\";\nimport \"./System.sol\";\nimport \"./PriceFeed.sol\";\nimport \"./Loan.sol\";\n\ncontract SystemFeeds {\n\n    System public system;\n    PeggedToken public peggedToken;\n    address public systemLoansAddress;\n    uint256 public firstTime;\n\n    constructor(\n        address _peggedTokenAddress,\n        address _systemAddress\n    ) public {\n        require(address(system) == address(0), \"system address should be 0\");\n        require(_systemAddress != address(0), \"_systemAddress should not be 0\");\n        require(address(peggedToken) == address(0), \"peggedToken address should be 0\");\n        require(_peggedTokenAddress != address(0), \"_peggedTokenAddress should not be 0\");\n        system = System(_systemAddress);\n        peggedToken = PeggedToken(_peggedTokenAddress);\n        firstTime = system.firstTime();\n    }\n\n    function initialize(address _systemLoansAddress) public {\n        require(systemLoansAddress == address(0), \"systemLoansAddress should be 0\");\n        require(_systemLoansAddress != address(0), \"_systemLoansAddress should not be 0\");\n        systemLoansAddress = _systemLoansAddress;\n    }\n\n    address public lastNewAddress;\n    function createPriceFeed() public returns(address newPriceFeedAddress) {\n        PriceFeed newPriceFeed = new PriceFeed(msg.sender, address(system));\n        newPriceFeedAddress = address(newPriceFeed);\n        priceFeedMap[newPriceFeedAddress].isPriceFeed = true;\n        priceFeedMap[newPriceFeedAddress].finalizedStateIndex = MAX_UINT32;\n        priceFeedMap[newPriceFeedAddress].processingStateIndex = MAX_UINT32;\n        lastNewAddress = newPriceFeedAddress;\n        return newPriceFeedAddress;\n    }\n\n    function isPriceFeed(address _priceFeedAddress) public returns (bool) {\n        return priceFeedMap[_priceFeedAddress].isPriceFeed;\n    }\n\n    mapping (address => PriceFeedState) public priceFeedMap;\n    struct PriceFeedState {\n        bool isPriceFeed;\n        bool isBanned;\n        uint32 finalizedStateIndex;\n        uint32 processingStateIndex;\n        uint32 lastPriceDay;\n        uint32 lastPenaltyDay;\n        uint256 totalAllocation;\n        //uint256 totalDownVote;\n        uint256 revenuePoolBalance;\n        uint256 lastEthPrice;\n        //uint256 lastPegPrice;\n        //uint256 lastPriceTime;\n    }\n\n    uint32 public finalizedDay = MAX_UINT32;\n    uint32 constant MAX_UINT32 = uint32(2 ** 32 - 1);\n\n    function reportInstantPrice(PriceFeed.InstantPrice memory _instantPrice) public {\n        require(priceFeedMap[msg.sender].isPriceFeed, \"caller address should be a valid price feed\");\n        require(priceFeedMap[msg.sender].finalizedStateIndex != MAX_UINT32, \"caller feed should be in finalized medium trust list\");\n\n        system.reportInstantPrice(msg.sender, _instantPrice);\n    }\n\n    function reportDelayedPrices(PriceFeed.DelayedPrice memory delayedPrice) public {\n        require(priceFeedMap[msg.sender].isPriceFeed, \"caller address sholuld be a valid price feed\");\n\n        priceFeedMap[msg.sender].lastEthPrice = delayedPrice.ethPrice;\n        //priceFeedMap[msg.sender].lastPegPrice = delayedPrice.pegPrice;\n        //priceFeedMap[msg.sender].lastPriceTime = delayedPrice.priceTime;\n\n        processDelayedPrice(delayedPrice);\n    }\n\n    uint32 constant SECONDS_PER_DAY = 86400; // SECONDS_PER_MINUTE * MINUTES_PER_HOUR * HOURS_PER_DAY = 60 * 60 * 24\n    uint32 constant public HIGH_TRUST_FEEDS = 5; // Maximum number of high trust price feeds\n    uint32 constant public MEDIUM_TRUST_FEEDS = 25; // Maximum number of medium trust price feeds\n    uint32 constant public PROCESS_LISTS = 2;\n    FeedProcessState[MEDIUM_TRUST_FEEDS] public feedProcessingStateList;\n    struct FeedProcessState {\n        address priceFeedAddress;\n        uint256 totalAllocation;\n        uint256 ethPrice;\n        uint256 pegPrice;\n        bool isProcessed;\n    }\n\n    function processDelayedPrice(PriceFeed.DelayedPrice memory delayedPrice) private {\n        PriceFeedState storage callingFeedState = priceFeedMap[msg.sender];\n        require(callingFeedState.isPriceFeed, \"caller address sholuld be a valid price feed\");\n        uint32 priceDay = uint32((delayedPrice.priceTime - firstTime) / SECONDS_PER_DAY);\n        require(finalizedDay == MAX_UINT32 || finalizedDay < priceDay, \"price day occurs after last finalized day\");\n        // Decide if we need to finalize the last day we were processing\n        if (finalizedDay + 1 < priceDay || (finalizedDay == MAX_UINT32 && 0 < priceDay)) {\n            // 1. Finalize last processing/processed day (commonly 1 day before price day = 2 days ago)\n            uint32 i = 0;\n            while (i < MEDIUM_TRUST_FEEDS) {\n                bool isBannedAndReplaced = false;\n                FeedProcessState storage processFinalizedState = feedProcessingStateList[i];\n                PriceFeedState storage finalizedFeedState = priceFeedMap[processFinalizedState.priceFeedAddress];\n                if(processFinalizedState.priceFeedAddress != address(0)) {\n                    if(priceDay - 1 > finalizedFeedState.lastPriceDay) {\n                        enforcePenalty(priceDay - 1, finalizedFeedState);\n                        if(priceDay > 7 + finalizedFeedState.lastPriceDay) {\n                            // ToDo - Penalize - all proceeds go to savings pool\n                            isBannedAndReplaced = true; // Set flag so we reiterate from same index after replacement\n                            finalizedFeedState.isBanned = true;\n                            delete feedProcessingStateList[i];\n                            for(uint32 n = i; n < MEDIUM_TRUST_FEEDS - 1; n++) {\n                                if (feedProcessingStateList[n + 1].priceFeedAddress != address(0)) {\n                                    swapFeedStates(n);\n                                }\n                            }\n                            finalizedFeedState.finalizedStateIndex = MAX_UINT32;\n                            finalizedFeedState.processingStateIndex = MAX_UINT32;\n                        }\n                    }\n                }\n\n                if(!isBannedAndReplaced) { // If banned and replaced, reiterate on the same index, since it has been swapped by next entry\n                    if(processFinalizedState.priceFeedAddress != address(0)) {\n                        finalizedFeedState.finalizedStateIndex = i;\n                    }\n                    i++;\n                }\n            }\n\n            finalizedDay = priceDay - 1;\n            // 2. Send finalized price feed state to monetary system. ToDo - [Rare] Finalize empty (non-initialized) gap days if appropriate - Can I skip this?\n            system.finalizePriceFeedState(finalizedDay, feedProcessingStateList);\n\n\n            // 3. Initialize current price day (1 day ago)\n            for (uint32 i = 0; i < MEDIUM_TRUST_FEEDS; i++) {\n                if(feedProcessingStateList[i].priceFeedAddress != address(0)) {\n                    feedProcessingStateList[i].isProcessed = false;\n                }\n            }\n        }\n\n        callingFeedState.lastPriceDay = priceDay; // Processing now so last posted on current price day\n\n        // Continue processing yesterday's price feed states based on current historical price report\n        if(callingFeedState.totalAllocation != 0 && !callingFeedState.isBanned) { // Skip if the current feed has no allocation\n            FeedProcessState memory feedState; // Set up feed state to what it will be after it is initialized\n            feedState.ethPrice = delayedPrice.ethPrice;\n            feedState.pegPrice = delayedPrice.pegPrice;\n            feedState.priceFeedAddress = msg.sender;\n            feedState.totalAllocation = callingFeedState.totalAllocation;\n            feedState.isProcessed = true;\n\n            // Ensure current feed state is in the appropriate place on list\n            uint32 startIndex = uint32(MEDIUM_TRUST_FEEDS); // the price feed state does not fit on the array\n            if(callingFeedState.processingStateIndex == MAX_UINT32) { // If feed state is not in the list start from the bottom\n                uint32 i = MEDIUM_TRUST_FEEDS - 1;\n                while(i >= 0) {\n                    if(feedProcessingStateList[i].priceFeedAddress == address(0)) { // Skip if current state index is not empty\n                        if(i == 0 || feedProcessingStateList[i-1].priceFeedAddress != address(0)) { // If reacehd first non-empty state or at top of empty list, set calling price feed state\n                            callingFeedState.processingStateIndex = i;\n                            feedProcessingStateList[i] = feedState;\n                            startIndex = i;\n                        }\n                    }\n                    if(i != 0) {i--;} else {break;}\n                }\n            } else {\n                // If feed state is already in the list, just start there\n                startIndex = uint32(callingFeedState.processingStateIndex);\n                require(feedProcessingStateList[startIndex].isProcessed == false, \"cannot report the same price twice in a day\");\n                feedProcessingStateList[startIndex] = feedState;\n            }\n\n            if(startIndex != 0) {  // Skip if we are starting at top of list\n                // Bubble sort down any feed state that has less total allocation than current node\n                uint32 m = startIndex - 1;\n                while(m >= 0) {\n                    if(callingFeedState.totalAllocation > priceFeedMap[feedProcessingStateList[m].priceFeedAddress].totalAllocation) {\n                        for(uint32 n = m; n < startIndex - 1; n++) {\n                            if(priceFeedMap[feedProcessingStateList[n + 1].priceFeedAddress].totalAllocation > priceFeedMap[feedProcessingStateList[n].priceFeedAddress].totalAllocation)\n                            swapFeedStates(n);\n                        }\n                    }\n                    if(m != 0) {m--;} else {break;}\n                }\n\n                // In the case where list was already full, place it on bottom of sorted list if total allocation is greater\n                if (startIndex == MEDIUM_TRUST_FEEDS) {\n                    if (callingFeedState.totalAllocation > priceFeedMap[feedProcessingStateList[MEDIUM_TRUST_FEEDS - 1].priceFeedAddress].totalAllocation) {\n                        feedProcessingStateList[MEDIUM_TRUST_FEEDS - 1] = feedState;\n                        startIndex = MEDIUM_TRUST_FEEDS - 1;\n                    }\n                }\n\n                // Bubble up the current feed state as long as it has a greater allocation total\n                if(startIndex < MEDIUM_TRUST_FEEDS) {\n                    while(startIndex != 0) {\n                        // Check if we can move up in list, compare total allocation with entry right above\n                        if(callingFeedState.totalAllocation > priceFeedMap[feedProcessingStateList[startIndex - 1].priceFeedAddress].totalAllocation) {\n                            swapFeedStates(startIndex - 1);\n                            startIndex--; // Move up in list\n                        } else {\n                            break;\n                        }\n                    }\n                }\n            }\n        }\n    }\n\n    function enforcePenalty(uint256 dayBeingFinalized, PriceFeedState memory _priceFeedStruct) private {\n        if(_priceFeedStruct.lastPriceDay < dayBeingFinalized) {\n            if(_priceFeedStruct.lastPriceDay > _priceFeedStruct.lastPenaltyDay) {\n                _priceFeedStruct.lastPenaltyDay = _priceFeedStruct.lastPriceDay;\n            }\n            uint256 totalPenalty;\n            for(uint256 i = _priceFeedStruct.lastPenaltyDay + 1; i <= dayBeingFinalized; i++) {\n                uint256 dayPenalty = _priceFeedStruct.revenuePoolBalance * (i - _priceFeedStruct.lastPriceDay) * 3 / 100;\n                totalPenalty += dayPenalty;\n            }\n\n            //TODO: Re-enable this for penalize logic to work.\n            // _priceFeedStruct.revenuePoolBalance -= totalPenalty;\n            // SystemSavings systemSavings = SystemSavings(systemSavingsAddress);\n            // peggedToken.transfer(address(systemSavings), totalPenalty);\n            // systemSavings.registerSavingsPoolTransfer(totalPenalty);\n\n            // uint256 currentCurrencyBalance = peggedToken.balanceOf(address(this));\n            // require (totalRegisteredRevenueBalances <= currentCurrencyBalance, \"currency balance should be greater than registered amount\");\n        }\n    }\n\n    function swapFeedStates(uint32 index) private {\n        // Swap feed state structs\n        FeedProcessState memory currentFeedState = feedProcessingStateList[index];\n        feedProcessingStateList[index] = feedProcessingStateList[index + 1];\n        feedProcessingStateList[index + 1] = currentFeedState;\n\n        // Update price feed map initialized index\n        priceFeedMap[feedProcessingStateList[index].priceFeedAddress].processingStateIndex = index;\n        priceFeedMap[feedProcessingStateList[index + 1].priceFeedAddress].processingStateIndex = index + 1;\n    }\n\n    uint32 constant public MAX_ALLOCATIONS = 5; // Maximum loan price feed allocations\n\n    function getPriceFromAllocation(Loan.PriceFeedAllocation[MAX_ALLOCATIONS] memory _priceFeedAllocations) public returns (uint256) {\n        uint256 sum;\n        uint256 allocationSum;\n        for (uint256 i = 0; i < 5; i++) {\n            Loan.PriceFeedAllocation memory feedAllocation = _priceFeedAllocations[i];\n            PriceFeedState memory priceFeedState = priceFeedMap[feedAllocation.priceFeedAddress];\n            if(feedAllocation.isAllocation) {\n                if(priceFeedState.lastEthPrice != 0) {\n                    sum += priceFeedState.lastEthPrice * feedAllocation.percentAllocation;\n                    allocationSum += feedAllocation.percentAllocation;\n                }\n            }\n        }\n\n        if(allocationSum != 0) {\n            return sum / allocationSum;\n        } else {return 0;}\n    }\n\n    uint256 public totalRegisteredRevenueBalances;\n\n    function registerFeedRevenueTransfer(address _priceFeedAddress, uint256 _transferValue) public {\n        require(systemLoansAddress != address(0), \"systemLoansAddress should be initialized\");\n        require(msg.sender == systemLoansAddress, \"caller must be system loans contract\");\n        require(priceFeedMap[_priceFeedAddress].isPriceFeed, \"_priceFeedAddress sholuld be a valid price feed\");\n\n        priceFeedMap[_priceFeedAddress].revenuePoolBalance += _transferValue;\n        totalRegisteredRevenueBalances += _transferValue;\n\n        uint256 currentCurrencyBalance = peggedToken.balanceOf(address(this));\n        require (totalRegisteredRevenueBalances <= currentCurrencyBalance, \"currency balance should be greater than registered amount\");\n    }\n\n\n    function changePriceFeedAllocation(address _priceFeedAddress, uint256 _value, bool isDecrement) public {\n        require(systemLoansAddress != address(0), \"systemLoansAddress should be initialized\");\n        require(msg.sender == systemLoansAddress, \"caller must be system loans contract\");\n        require(priceFeedMap[_priceFeedAddress].isPriceFeed, \"_priceFeedAddress sholuld be a valid price feed\");\n        if(isDecrement) {\n            priceFeedMap[_priceFeedAddress].totalAllocation -= _value;\n        } else {\n            priceFeedMap[_priceFeedAddress].totalAllocation += _value;\n        }\n    }\n\n\n    // function changeDownVoteAllocation(address _priceFeedAddress, uint256 _value, bool isDecrement) public {\n    //     require(systemLoansAddress != address(0), \"systemLoansAddress should be initialized\");\n    //     require(msg.sender == systemLoansAddress, \"caller must be system loans contract\");\n    //     require(priceFeedMap[_priceFeedAddress].isPriceFeed, \"_priceFeedAddress sholuld be a valid price feed\");\n    //     if(isDecrement) {\n    //         priceFeedMap[_priceFeedAddress].totalDownVote -= _value;\n    //     }\n    //     else {\n    //         priceFeedMap[_priceFeedAddress].totalDownVote += _value;\n    //     }\n    // }\n\n    event ConsoleLog(string message);\n    event ConsoleLogNumber(uint number);\n}",
  "sourcePath": "/Users/nimakamoosi/repos/nimakam-private/stable-coin/ethereum/contracts/SystemFeeds.sol",
  "compiler": {
    "name": "solc",
    "version": "0.5.12+commit.7709ece9.Emscripten.clang"
  },
  "schemaVersion": "3.0.19",
  "updatedAt": "2020-01-22T22:16:12.172Z",
  "devdoc": {
    "methods": {}
  },
  "userdoc": {
    "methods": {}
  }
}