{
  "contractName": "System",
  "abi": [
    {
      "inputs": [
        {
          "internalType": "address",
          "name": "_peggedTokenAddress",
          "type": "address"
        }
      ],
      "payable": false,
      "stateMutability": "nonpayable",
      "type": "constructor"
    },
    {
      "constant": true,
      "inputs": [],
      "name": "firstTime",
      "outputs": [
        {
          "internalType": "uint256",
          "name": "",
          "type": "uint256"
        }
      ],
      "payable": false,
      "stateMutability": "view",
      "type": "function"
    },
    {
      "constant": true,
      "inputs": [],
      "name": "peggedToken",
      "outputs": [
        {
          "internalType": "contract PeggedToken",
          "name": "",
          "type": "address"
        }
      ],
      "payable": false,
      "stateMutability": "view",
      "type": "function"
    },
    {
      "constant": true,
      "inputs": [],
      "name": "systemFeedsAddress",
      "outputs": [
        {
          "internalType": "address",
          "name": "",
          "type": "address"
        }
      ],
      "payable": false,
      "stateMutability": "view",
      "type": "function"
    },
    {
      "constant": true,
      "inputs": [],
      "name": "systemLoansAddress",
      "outputs": [
        {
          "internalType": "address",
          "name": "",
          "type": "address"
        }
      ],
      "payable": false,
      "stateMutability": "view",
      "type": "function"
    },
    {
      "constant": true,
      "inputs": [],
      "name": "systemSavingsAddress",
      "outputs": [
        {
          "internalType": "address",
          "name": "",
          "type": "address"
        }
      ],
      "payable": false,
      "stateMutability": "view",
      "type": "function"
    },
    {
      "constant": false,
      "inputs": [
        {
          "internalType": "address",
          "name": "_systemFeedsAddress",
          "type": "address"
        },
        {
          "internalType": "address",
          "name": "_systemLoansAddress",
          "type": "address"
        },
        {
          "internalType": "address",
          "name": "_systemSavingsAddress",
          "type": "address"
        }
      ],
      "name": "initialize",
      "outputs": [],
      "payable": false,
      "stateMutability": "nonpayable",
      "type": "function"
    },
    {
      "constant": true,
      "inputs": [
        {
          "internalType": "uint256",
          "name": "_lastInterestTime",
          "type": "uint256"
        },
        {
          "internalType": "uint256",
          "name": "_callTime",
          "type": "uint256"
        },
        {
          "internalType": "uint256",
          "name": "_registeredBalance",
          "type": "uint256"
        }
      ],
      "name": "calculateInterest",
      "outputs": [
        {
          "internalType": "uint256",
          "name": "",
          "type": "uint256"
        }
      ],
      "payable": false,
      "stateMutability": "pure",
      "type": "function"
    }
  ],
  "bytecode": "0x608060405234801561001057600080fd5b50604051610a0d380380610a0d83398181016040526100329190810190610104565b600073ffffffffffffffffffffffffffffffffffffffff168173ffffffffffffffffffffffffffffffffffffffff1614156100a2576040517f08c379a000000000000000000000000000000000000000000000000000000000815260040161009990610193565b60405180910390fd5b806000806101000a81548173ffffffffffffffffffffffffffffffffffffffff021916908373ffffffffffffffffffffffffffffffffffffffff160217905550426004819055505061020d565b6000815190506100fe816101f6565b92915050565b60006020828403121561011657600080fd5b6000610124848285016100ef565b91505092915050565b600061013a6023836101b3565b91507f5f706567676564546f6b656e416464726573732073686f756c64206e6f74206260008301527f65203000000000000000000000000000000000000000000000000000000000006020830152604082019050919050565b600060208201905081810360008301526101ac8161012d565b9050919050565b600082825260208201905092915050565b60006101cf826101d6565b9050919050565b600073ffffffffffffffffffffffffffffffffffffffff82169050919050565b6101ff816101c4565b811461020a57600080fd5b50565b6107f18061021c6000396000f3fe608060405234801561001057600080fd5b506004361061007c5760003560e01c8063586c94a01161005b578063586c94a0146100ed578063c0c53b8b1461010b578063e161ba3714610127578063f9ffdfa2146101455761007c565b8062e77aa61461008157806305e1bd8c1461009f57806341d76a9c146100cf575b600080fd5b610089610163565b6040516100969190610679565b60405180910390f35b6100b960048036036100b49190810190610522565b610188565b6040516100c691906106f4565b60405180910390f35b6100d76101b6565b6040516100e491906106f4565b60405180910390f35b6100f56101bc565b604051610102919061065e565b60405180910390f35b610125600480360361012091908101906104d3565b6101e2565b005b61012f61045d565b60405161013c919061065e565b60405180910390f35b61014d610483565b60405161015a919061065e565b60405180910390f35b6000809054906101000a900473ffffffffffffffffffffffffffffffffffffffff1681565b6000610164620151806064020263ffffffff1682858503620100000202816101ac57fe5b0490509392505050565b60045481565b600360009054906101000a900473ffffffffffffffffffffffffffffffffffffffff1681565b600073ffffffffffffffffffffffffffffffffffffffff16600260009054906101000a900473ffffffffffffffffffffffffffffffffffffffff1673ffffffffffffffffffffffffffffffffffffffff1614610273576040517f08c379a000000000000000000000000000000000000000000000000000000000815260040161026a90610694565b60405180910390fd5b600073ffffffffffffffffffffffffffffffffffffffff16600160009054906101000a900473ffffffffffffffffffffffffffffffffffffffff1673ffffffffffffffffffffffffffffffffffffffff1614610304576040517f08c379a00000000000000000000000000000000000000000000000000000000081526004016102fb906106b4565b60405180910390fd5b600073ffffffffffffffffffffffffffffffffffffffff16600360009054906101000a900473ffffffffffffffffffffffffffffffffffffffff1673ffffffffffffffffffffffffffffffffffffffff1614610395576040517f08c379a000000000000000000000000000000000000000000000000000000000815260040161038c906106d4565b60405180910390fd5b82600260006101000a81548173ffffffffffffffffffffffffffffffffffffffff021916908373ffffffffffffffffffffffffffffffffffffffff16021790555081600160006101000a81548173ffffffffffffffffffffffffffffffffffffffff021916908373ffffffffffffffffffffffffffffffffffffffff16021790555080600360006101000a81548173ffffffffffffffffffffffffffffffffffffffff021916908373ffffffffffffffffffffffffffffffffffffffff160217905550505050565b600160009054906101000a900473ffffffffffffffffffffffffffffffffffffffff1681565b600260009054906101000a900473ffffffffffffffffffffffffffffffffffffffff1681565b6000813590506104b881610780565b92915050565b6000813590506104cd81610797565b92915050565b6000806000606084860312156104e857600080fd5b60006104f6868287016104a9565b9350506020610507868287016104a9565b9250506040610518868287016104a9565b9150509250925092565b60008060006060848603121561053757600080fd5b6000610545868287016104be565b9350506020610556868287016104be565b9250506040610567868287016104be565b9150509250925092565b61057a81610720565b82525050565b6105898161075c565b82525050565b600061059c601e8361070f565b91507f73797374656d4665656473416464726573732073686f756c64206265203000006000830152602082019050919050565b60006105dc601e8361070f565b91507f73797374656d4c6f616e73416464726573732073686f756c64206265203000006000830152602082019050919050565b600061061c60208361070f565b91507f73797374656d536176696e6773416464726573732073686f756c6420626520306000830152602082019050919050565b61065881610752565b82525050565b60006020820190506106736000830184610571565b92915050565b600060208201905061068e6000830184610580565b92915050565b600060208201905081810360008301526106ad8161058f565b9050919050565b600060208201905081810360008301526106cd816105cf565b9050919050565b600060208201905081810360008301526106ed8161060f565b9050919050565b6000602082019050610709600083018461064f565b92915050565b600082825260208201905092915050565b600061072b82610732565b9050919050565b600073ffffffffffffffffffffffffffffffffffffffff82169050919050565b6000819050919050565b60006107678261076e565b9050919050565b600061077982610732565b9050919050565b61078981610720565b811461079457600080fd5b50565b6107a081610752565b81146107ab57600080fd5b5056fea365627a7a7231582096b7573b41d0d5a41abccc33cd6740cc06187aa68725b2dfee5d62b9b3b1e04e6c6578706572696d656e74616cf564736f6c634300050c0040",
  "source": "pragma solidity ^0.5.11;\npragma experimental ABIEncoderV2;\n\nimport \"./PeggedToken.sol\";\nimport \"./Loan.sol\";\nimport \"./SystemLoans.sol\";\nimport \"./SystemFeeds.sol\";\nimport \"./PriceFeed.sol\";\n\ncontract System {\n\n    PeggedToken public peggedToken;\n    address public systemLoansAddress;\n    address public systemFeedsAddress;\n    address public systemSavingsAddress;\n    uint256 public firstTime;\n\n    uint32 constant SECONDS_PER_DAY = 86400; // SECONDS_PER_MINUTE * MINUTES_PER_HOUR * HOURS_PER_DAY = 60 * 60 * 24\n\n    constructor(\n        address _peggedTokenAddress\n    ) public {\n        require(_peggedTokenAddress != address(0), \"_peggedTokenAddress should not be 0\");\n        peggedToken = PeggedToken(_peggedTokenAddress);\n        firstTime = block.timestamp;\n    }\n\n    function initialize(\n        address _systemFeedsAddress,\n        address _systemLoansAddress,\n        address _systemSavingsAddress\n    )\n    public\n    {\n        require(systemFeedsAddress == address(0), \"systemFeedsAddress should be 0\");\n        require(systemLoansAddress == address(0), \"systemLoansAddress should be 0\");\n        require(systemSavingsAddress == address(0), \"systemSavingsAddress should be 0\");\n        systemFeedsAddress = _systemFeedsAddress;\n        systemLoansAddress = _systemLoansAddress;\n        systemSavingsAddress = _systemSavingsAddress;\n    }\n\n    function calculateInterest\n    (\n        uint256 _lastInterestTime,\n        uint256 _callTime,\n        uint256 _registeredBalance\n    )\n    public\n    pure\n    returns (uint256)\n    {\n        return (2 ** 16 * (_callTime - _lastInterestTime) * _registeredBalance) / (100 * SECONDS_PER_DAY * 356);\n    }\n}",
  "sourcePath": "/Users/nimakamoosi/repos/nimakam-private/stable-coin/ethereum/contracts/System.sol",
  "compiler": {
    "name": "solc",
    "version": "0.5.12+commit.7709ece9.Emscripten.clang"
  },
  "schemaVersion": "3.0.19",
  "updatedAt": "2020-01-09T23:54:50.744Z",
  "devdoc": {
    "methods": {}
  },
  "userdoc": {
    "methods": {}
  }
}