{
  "contractName": "SystemFeeds",
  "abi": [
    {
      "inputs": [
        {
          "internalType": "address",
          "name": "_systemAddress",
          "type": "address"
        }
      ],
      "payable": false,
      "stateMutability": "nonpayable",
      "type": "constructor"
    },
    {
      "anonymous": false,
      "inputs": [
        {
          "indexed": false,
          "internalType": "string",
          "name": "message",
          "type": "string"
        }
      ],
      "name": "ConsoleLog",
      "type": "event"
    },
    {
      "constant": true,
      "inputs": [],
      "name": "FEED_LISTS_COUNT",
      "outputs": [
        {
          "internalType": "uint32",
          "name": "",
          "type": "uint32"
        }
      ],
      "payable": false,
      "stateMutability": "view",
      "type": "function"
    },
    {
      "constant": true,
      "inputs": [],
      "name": "HIGH_TRUST_FEED_COUNT",
      "outputs": [
        {
          "internalType": "uint32",
          "name": "",
          "type": "uint32"
        }
      ],
      "payable": false,
      "stateMutability": "view",
      "type": "function"
    },
    {
      "constant": true,
      "inputs": [],
      "name": "MEDIUM_TRUST_FEED_COUNT",
      "outputs": [
        {
          "internalType": "uint32",
          "name": "",
          "type": "uint32"
        }
      ],
      "payable": false,
      "stateMutability": "view",
      "type": "function"
    },
    {
      "constant": true,
      "inputs": [],
      "name": "PRICE_RATE_DECIMALS",
      "outputs": [
        {
          "internalType": "uint256",
          "name": "",
          "type": "uint256"
        }
      ],
      "payable": false,
      "stateMutability": "view",
      "type": "function"
    },
    {
      "constant": true,
      "inputs": [],
      "name": "callTime",
      "outputs": [
        {
          "internalType": "uint256",
          "name": "",
          "type": "uint256"
        }
      ],
      "payable": false,
      "stateMutability": "view",
      "type": "function"
    },
    {
      "constant": true,
      "inputs": [],
      "name": "finalizedDay",
      "outputs": [
        {
          "internalType": "uint32",
          "name": "",
          "type": "uint32"
        }
      ],
      "payable": false,
      "stateMutability": "view",
      "type": "function"
    },
    {
      "constant": true,
      "inputs": [],
      "name": "firstTime",
      "outputs": [
        {
          "internalType": "uint256",
          "name": "",
          "type": "uint256"
        }
      ],
      "payable": false,
      "stateMutability": "view",
      "type": "function"
    },
    {
      "constant": true,
      "inputs": [],
      "name": "flippedState",
      "outputs": [
        {
          "internalType": "uint256",
          "name": "",
          "type": "uint256"
        }
      ],
      "payable": false,
      "stateMutability": "view",
      "type": "function"
    },
    {
      "constant": true,
      "inputs": [],
      "name": "lastNewAddress",
      "outputs": [
        {
          "internalType": "address",
          "name": "",
          "type": "address"
        }
      ],
      "payable": false,
      "stateMutability": "view",
      "type": "function"
    },
    {
      "constant": true,
      "inputs": [
        {
          "internalType": "address",
          "name": "",
          "type": "address"
        }
      ],
      "name": "priceFeedMap",
      "outputs": [
        {
          "internalType": "bool",
          "name": "isPriceFeed",
          "type": "bool"
        },
        {
          "internalType": "uint256",
          "name": "totalAllocation",
          "type": "uint256"
        },
        {
          "internalType": "uint256",
          "name": "totalDownVote",
          "type": "uint256"
        },
        {
          "internalType": "int32",
          "name": "finalizedStateIndex",
          "type": "int32"
        },
        {
          "internalType": "int32",
          "name": "initializedStateIndex",
          "type": "int32"
        },
        {
          "internalType": "uint8",
          "name": "daysSkipped",
          "type": "uint8"
        }
      ],
      "payable": false,
      "stateMutability": "view",
      "type": "function"
    },
    {
      "constant": true,
      "inputs": [
        {
          "internalType": "uint256",
          "name": "",
          "type": "uint256"
        },
        {
          "internalType": "uint256",
          "name": "",
          "type": "uint256"
        }
      ],
      "name": "priceFeedStateLists",
      "outputs": [
        {
          "internalType": "address",
          "name": "priceFeedAddress",
          "type": "address"
        },
        {
          "internalType": "uint256",
          "name": "totalAllocation",
          "type": "uint256"
        },
        {
          "internalType": "bool",
          "name": "isFinalized",
          "type": "bool"
        }
      ],
      "payable": false,
      "stateMutability": "view",
      "type": "function"
    },
    {
      "constant": true,
      "inputs": [],
      "name": "priceFeed_latestInstantPrice",
      "outputs": [
        {
          "internalType": "uint256",
          "name": "medianEthRate",
          "type": "uint256"
        },
        {
          "internalType": "uint256",
          "name": "priceTime",
          "type": "uint256"
        },
        {
          "internalType": "uint256",
          "name": "callTime",
          "type": "uint256"
        }
      ],
      "payable": false,
      "stateMutability": "view",
      "type": "function"
    },
    {
      "constant": true,
      "inputs": [
        {
          "internalType": "uint256",
          "name": "",
          "type": "uint256"
        }
      ],
      "name": "priceFeed_latestInstantPrices",
      "outputs": [
        {
          "internalType": "uint256",
          "name": "medianEthRate",
          "type": "uint256"
        },
        {
          "internalType": "uint256",
          "name": "priceTime",
          "type": "uint256"
        },
        {
          "internalType": "uint256",
          "name": "callTime",
          "type": "uint256"
        }
      ],
      "payable": false,
      "stateMutability": "view",
      "type": "function"
    },
    {
      "constant": true,
      "inputs": [],
      "name": "system",
      "outputs": [
        {
          "internalType": "contract System",
          "name": "",
          "type": "address"
        }
      ],
      "payable": false,
      "stateMutability": "view",
      "type": "function"
    },
    {
      "constant": true,
      "inputs": [],
      "name": "systemLoansAddress",
      "outputs": [
        {
          "internalType": "address",
          "name": "",
          "type": "address"
        }
      ],
      "payable": false,
      "stateMutability": "view",
      "type": "function"
    },
    {
      "constant": false,
      "inputs": [
        {
          "internalType": "address",
          "name": "_systemLoansAddress",
          "type": "address"
        }
      ],
      "name": "initialize",
      "outputs": [],
      "payable": false,
      "stateMutability": "nonpayable",
      "type": "function"
    },
    {
      "constant": false,
      "inputs": [],
      "name": "createPriceFeed",
      "outputs": [
        {
          "internalType": "address",
          "name": "newPriceFeedAddress",
          "type": "address"
        }
      ],
      "payable": false,
      "stateMutability": "nonpayable",
      "type": "function"
    },
    {
      "constant": false,
      "inputs": [
        {
          "components": [
            {
              "internalType": "uint256",
              "name": "medianEthRate",
              "type": "uint256"
            },
            {
              "internalType": "uint256",
              "name": "medianPegRate",
              "type": "uint256"
            },
            {
              "internalType": "uint256",
              "name": "priceTime",
              "type": "uint256"
            },
            {
              "internalType": "uint256",
              "name": "callTime",
              "type": "uint256"
            }
          ],
          "internalType": "struct PriceFeed.HistoricalPrice",
          "name": "historicalPrice",
          "type": "tuple"
        }
      ],
      "name": "postHistoricalPrice",
      "outputs": [],
      "payable": false,
      "stateMutability": "nonpayable",
      "type": "function"
    },
    {
      "constant": false,
      "inputs": [
        {
          "internalType": "address",
          "name": "_priceFeedAddress",
          "type": "address"
        }
      ],
      "name": "isPriceFeed",
      "outputs": [
        {
          "internalType": "bool",
          "name": "",
          "type": "bool"
        }
      ],
      "payable": false,
      "stateMutability": "nonpayable",
      "type": "function"
    },
    {
      "constant": false,
      "inputs": [
        {
          "internalType": "address",
          "name": "_priceFeedAddress",
          "type": "address"
        },
        {
          "internalType": "uint256",
          "name": "_value",
          "type": "uint256"
        }
      ],
      "name": "incrementPriceFeedAllocation",
      "outputs": [],
      "payable": false,
      "stateMutability": "nonpayable",
      "type": "function"
    },
    {
      "constant": false,
      "inputs": [
        {
          "internalType": "address",
          "name": "_priceFeedAddress",
          "type": "address"
        },
        {
          "internalType": "uint256",
          "name": "_value",
          "type": "uint256"
        }
      ],
      "name": "decrementPriceFeedAllocation",
      "outputs": [],
      "payable": false,
      "stateMutability": "nonpayable",
      "type": "function"
    },
    {
      "constant": false,
      "inputs": [
        {
          "internalType": "address",
          "name": "_priceFeedAddress",
          "type": "address"
        },
        {
          "internalType": "uint256",
          "name": "_value",
          "type": "uint256"
        }
      ],
      "name": "incrementDownVote",
      "outputs": [],
      "payable": false,
      "stateMutability": "nonpayable",
      "type": "function"
    },
    {
      "constant": false,
      "inputs": [
        {
          "internalType": "address",
          "name": "_priceFeedAddress",
          "type": "address"
        },
        {
          "internalType": "uint256",
          "name": "_value",
          "type": "uint256"
        }
      ],
      "name": "decrementDownVote",
      "outputs": [],
      "payable": false,
      "stateMutability": "nonpayable",
      "type": "function"
    },
    {
      "constant": false,
      "inputs": [],
      "name": "getInstantRate",
      "outputs": [
        {
          "internalType": "uint256",
          "name": "",
          "type": "uint256"
        }
      ],
      "payable": false,
      "stateMutability": "nonpayable",
      "type": "function"
    },
    {
      "constant": false,
      "inputs": [
        {
          "components": [
            {
              "internalType": "uint256",
              "name": "medianEthRate",
              "type": "uint256"
            },
            {
              "internalType": "uint256",
              "name": "priceTime",
              "type": "uint256"
            },
            {
              "internalType": "uint256",
              "name": "callTime",
              "type": "uint256"
            }
          ],
          "internalType": "struct PriceFeed.InstantPrice",
          "name": "_instantPrice",
          "type": "tuple"
        }
      ],
      "name": "postInstantPrice",
      "outputs": [],
      "payable": false,
      "stateMutability": "nonpayable",
      "type": "function"
    },
    {
      "constant": false,
      "inputs": [],
      "name": "flipState",
      "outputs": [],
      "payable": false,
      "stateMutability": "nonpayable",
      "type": "function"
    },
    {
      "constant": true,
      "inputs": [
        {
          "internalType": "address",
          "name": "x",
          "type": "address"
        }
      ],
      "name": "add2str",
      "outputs": [
        {
          "internalType": "string",
          "name": "str",
          "type": "string"
        }
      ],
      "payable": false,
      "stateMutability": "pure",
      "type": "function"
    },
    {
      "constant": true,
      "inputs": [
        {
          "internalType": "bytes1",
          "name": "b",
          "type": "bytes1"
        }
      ],
      "name": "char",
      "outputs": [
        {
          "internalType": "bytes1",
          "name": "c",
          "type": "bytes1"
        }
      ],
      "payable": false,
      "stateMutability": "pure",
      "type": "function"
    },
    {
      "constant": true,
      "inputs": [
        {
          "internalType": "uint256",
          "name": "value",
          "type": "uint256"
        }
      ],
      "name": "uint2str",
      "outputs": [
        {
          "internalType": "string",
          "name": "str",
          "type": "string"
        }
      ],
      "payable": false,
      "stateMutability": "pure",
      "type": "function"
    }
  ],
  "bytecode": "0x60806040523480156200001157600080fd5b506040516200526f3803806200526f8339818101604052620000379190810190620001c8565b600073ffffffffffffffffffffffffffffffffffffffff168173ffffffffffffffffffffffffffffffffffffffff161415620000aa576040517f08c379a0000000000000000000000000000000000000000000000000000000008152600401620000a19062000262565b60405180910390fd5b806000806101000a81548173ffffffffffffffffffffffffffffffffffffffff021916908373ffffffffffffffffffffffffffffffffffffffff1602179055506000809054906101000a900473ffffffffffffffffffffffffffffffffffffffff1673ffffffffffffffffffffffffffffffffffffffff166341d76a9c6040518163ffffffff1660e01b815260040160206040518083038186803b1580156200015257600080fd5b505afa15801562000167573d6000803e3d6000fd5b505050506040513d601f19601f820116820180604052506200018d9190810190620001f4565b6002819055505062000307565b600081519050620001ab81620002d3565b92915050565b600081519050620001c281620002ed565b92915050565b600060208284031215620001db57600080fd5b6000620001eb848285016200019a565b91505092915050565b6000602082840312156200020757600080fd5b60006200021784828501620001b1565b91505092915050565b60006200022f601e8362000284565b91507f5f73797374656d416464726573732073686f756c64206e6f74206265203000006000830152602082019050919050565b600060208201905081810360008301526200027d8162000220565b9050919050565b600082825260208201905092915050565b6000620002a282620002a9565b9050919050565b600073ffffffffffffffffffffffffffffffffffffffff82169050919050565b6000819050919050565b620002de8162000295565b8114620002ea57600080fd5b50565b620002f881620002c9565b81146200030457600080fd5b50565b614f5880620003176000396000f3fe60806040523480156200001157600080fd5b5060043610620001fc5760003560e01c80635f1592bb116200011d578063c4d66de811620000b1578063e6688926116200007b578063e668892614620005b2578063eacf384514620005d4578063f4db51e314620005f6578063f76f950e146200061857620001fc565b8063c4d66de8146200051a578063c61304fa146200053a578063e161ba371462000570578063e602a80f146200059257620001fc565b80638e92035111620000f35780638e920351146200049257806395bf75fd146200049e5780639f93badb14620004c0578063b3834b8414620004e257620001fc565b80635f1592bb146200041a5780635f5fef16146200043c57806369f9ad2f146200045c57620001fc565b80634238dc47116200019557806357a94beb116200016b57806357a94beb14620003825780635b29320514620003b85780635e4bdc9c14620003d85780635e64bbb014620003fa57620001fc565b80634238dc4714620002ed57806352812ebb1462000328578063572d9859146200036057620001fc565b806310aefb9111620001d757806310aefb911462000269578063185180bf14620002895780633d4887bb14620002ab57806341d76a9c14620002cb57620001fc565b80630425fb8214620002015780630f5e07c714620002235780630f91f7ad1462000245575b600080fd5b6200020b6200064e565b6040516200021a919062003572565b60405180910390f35b6200022d62000654565b6040516200023c919062003572565b60405180910390f35b6200024f6200065a565b60405162000260939291906200358f565b60405180910390f35b62000287600480360362000281919081019062002bbc565b62000672565b005b6200029362000753565b604051620002a2919062003572565b60405180910390f35b620002c96004803603620002c3919081019062002be8565b620007f3565b005b620002d5620008ac565b604051620002e4919062003572565b60405180910390f35b6200030b600480360362000305919081019062002b23565b620008b2565b6040516200031f96959493929190620032cb565b60405180910390f35b62000346600480360362000340919081019062002c40565b62000922565b604051620003579392919062003271565b60405180910390f35b6200036a6200098e565b604051620003799190620035cc565b60405180910390f35b620003a060048036036200039a919081019062002b23565b62000993565b604051620003af9190620032ae565b60405180910390f35b620003d66004803603620003d0919081019062002b4f565b620009ec565b005b620003e262000b65565b604051620003f19190620035cc565b60405180910390f35b62000418600480360362000412919081019062002b4f565b62000b6a565b005b6200042462000ce3565b60405162000433919062003227565b60405180910390f35b6200045a600480360362000454919081019062002b4f565b62000f2a565b005b6200047a600480360362000474919081019062002b90565b620010a3565b60405162000489919062003338565b60405180910390f35b6200049c620010d9565b005b620004a862001124565b604051620004b7919062003355565b60405180910390f35b620004ca62001149565b604051620004d9919062003227565b60405180910390f35b620005006004803603620004fa919081019062002c14565b6200116f565b60405162000511939291906200358f565b60405180910390f35b62000538600480360362000532919081019062002b23565b6200119d565b005b62000558600480360362000552919081019062002b23565b62001275565b60405162000567919062003372565b60405180910390f35b6200057a620013cf565b60405162000589919062003227565b60405180910390f35b620005b06004803603620005aa919081019062002b4f565b620013f5565b005b620005bc6200156e565b604051620005cb9190620035cc565b60405180910390f35b620005de62001573565b604051620005ed919062003572565b60405180910390f35b6200060062001578565b6040516200060f9190620035cc565b60405180910390f35b62000636600480360362000630919081019062002c14565b6200158e565b60405162000645919062003372565b60405180910390f35b60af5481565b60035481565b60ac8060000154908060010154908060020154905083565b7f0f8db0708c4e6b233e2c285fe1ed66015dee71bd374ac8e835534be5f592d6a2604051620006a190620033da565b60405180910390a1600560003373ffffffffffffffffffffffffffffffffffffffff1673ffffffffffffffffffffffffffffffffffffffff16815260200190815260200160002060000160009054906101000a900460ff166200073b576040517f08c379a0000000000000000000000000000000000000000000000000000000008152600401620007329062003484565b60405180910390fd5b62000745620016cd565b6200075081620016d6565b50565b6000600160009054906101000a900473ffffffffffffffffffffffffffffffffffffffff1673ffffffffffffffffffffffffffffffffffffffff163373ffffffffffffffffffffffffffffffffffffffff1614620007e8576040517f08c379a0000000000000000000000000000000000000000000000000000000008152600401620007df90620034c8565b60405180910390fd5b60ac60000154905090565b600560003373ffffffffffffffffffffffffffffffffffffffff1673ffffffffffffffffffffffffffffffffffffffff16815260200190815260200160002060000160009054906101000a900460ff1662000885576040517f08c379a00000000000000000000000000000000000000000000000000000000081526004016200087c9062003484565b60405180910390fd5b8060ac60008201518160000155602082015181600101556040820151816002015590505050565b60025481565b60056020528060005260406000206000915090508060000160009054906101000a900460ff16908060010154908060020154908060030160009054906101000a900460030b908060030160049054906101000a900460030b908060030160089054906101000a900460ff16905086565b600782601981106200093057fe5b6006020181600281106200094057fe5b60030201600091509150508060000160009054906101000a900473ffffffffffffffffffffffffffffffffffffffff16908060010154908060020160009054906101000a900460ff16905083565b600281565b6000600560008373ffffffffffffffffffffffffffffffffffffffff1673ffffffffffffffffffffffffffffffffffffffff16815260200190815260200160002060000160009054906101000a900460ff169050919050565b600160009054906101000a900473ffffffffffffffffffffffffffffffffffffffff1673ffffffffffffffffffffffffffffffffffffffff163373ffffffffffffffffffffffffffffffffffffffff161462000a7f576040517f08c379a000000000000000000000000000000000000000000000000000000000815260040162000a7690620034c8565b60405180910390fd5b600560008373ffffffffffffffffffffffffffffffffffffffff1673ffffffffffffffffffffffffffffffffffffffff16815260200190815260200160002060000160009054906101000a900460ff1662000b11576040517f08c379a000000000000000000000000000000000000000000000000000000000815260040162000b08906200352e565b60405180910390fd5b80600560008473ffffffffffffffffffffffffffffffffffffffff1673ffffffffffffffffffffffffffffffffffffffff168152602001908152602001600020600201600082825403925050819055505050565b600581565b600160009054906101000a900473ffffffffffffffffffffffffffffffffffffffff1673ffffffffffffffffffffffffffffffffffffffff163373ffffffffffffffffffffffffffffffffffffffff161462000bfd576040517f08c379a000000000000000000000000000000000000000000000000000000000815260040162000bf490620034c8565b60405180910390fd5b600560008373ffffffffffffffffffffffffffffffffffffffff1673ffffffffffffffffffffffffffffffffffffffff16815260200190815260200160002060000160009054906101000a900460ff1662000c8f576040517f08c379a000000000000000000000000000000000000000000000000000000000815260040162000c86906200352e565b60405180910390fd5b80600560008473ffffffffffffffffffffffffffffffffffffffff1673ffffffffffffffffffffffffffffffffffffffff168152602001908152602001600020600101600082825403925050819055505050565b60007f0f8db0708c4e6b233e2c285fe1ed66015dee71bd374ac8e835534be5f592d6a260405162000d1490620034ea565b60405180910390a16000336000809054906101000a900473ffffffffffffffffffffffffffffffffffffffff1660405162000d4f90620029af565b62000d5c92919062003244565b604051809103906000f08015801562000d79573d6000803e3d6000fd5b5090508091506001600560008473ffffffffffffffffffffffffffffffffffffffff1673ffffffffffffffffffffffffffffffffffffffff16815260200190815260200160002060000160006101000a81548160ff0219169083151502179055507fffffffffffffffffffffffffffffffffffffffffffffffffffffffffffffffff600560008473ffffffffffffffffffffffffffffffffffffffff1673ffffffffffffffffffffffffffffffffffffffff16815260200190815260200160002060030160006101000a81548163ffffffff021916908360030b63ffffffff1602179055507fffffffffffffffffffffffffffffffffffffffffffffffffffffffffffffffff600560008473ffffffffffffffffffffffffffffffffffffffff1673ffffffffffffffffffffffffffffffffffffffff16815260200190815260200160002060030160046101000a81548163ffffffff021916908360030b63ffffffff16021790555081600460006101000a81548173ffffffffffffffffffffffffffffffffffffffff021916908373ffffffffffffffffffffffffffffffffffffffff1602179055508191505090565b600160009054906101000a900473ffffffffffffffffffffffffffffffffffffffff1673ffffffffffffffffffffffffffffffffffffffff163373ffffffffffffffffffffffffffffffffffffffff161462000fbd576040517f08c379a000000000000000000000000000000000000000000000000000000000815260040162000fb490620034c8565b60405180910390fd5b600560008373ffffffffffffffffffffffffffffffffffffffff1673ffffffffffffffffffffffffffffffffffffffff16815260200190815260200160002060000160009054906101000a900460ff166200104f576040517f08c379a000000000000000000000000000000000000000000000000000000000815260040162001046906200352e565b60405180910390fd5b80600560008473ffffffffffffffffffffffffffffffffffffffff1673ffffffffffffffffffffffffffffffffffffffff168152602001908152602001600020600101600082825401925050819055505050565b6000600a8260f81c60ff161015620010c75760308260f81c0160f81b9050620010d4565b60578260f81c0160f81b90505b919050565b7f0f8db0708c4e6b233e2c285fe1ed66015dee71bd374ac8e835534be5f592d6a2604051620011089062003440565b60405180910390a160af60008154809291906001019190505550565b6000809054906101000a900473ffffffffffffffffffffffffffffffffffffffff1681565b600460009054906101000a900473ffffffffffffffffffffffffffffffffffffffff1681565b609d81600581106200117d57fe5b600302016000915090508060000154908060010154908060020154905083565b600073ffffffffffffffffffffffffffffffffffffffff16600160009054906101000a900473ffffffffffffffffffffffffffffffffffffffff1673ffffffffffffffffffffffffffffffffffffffff161462001231576040517f08c379a00000000000000000000000000000000000000000000000000000000081526004016200122890620034a6565b60405180910390fd5b80600160006101000a81548173ffffffffffffffffffffffffffffffffffffffff021916908373ffffffffffffffffffffffffffffffffffffffff16021790555050565b60608060286040519080825280601f01601f191660200182016040528015620012ad5781602001600182028038833980820191505090505b50905060008090505b6014811015620013c55760008160130360080260020a8573ffffffffffffffffffffffffffffffffffffffff1681620012eb57fe5b0460f81b9050600060108260f81c60ff16816200130457fe5b0460f81b905060008160f81c6010028360f81c0360f81b90506200132882620010a3565b8585600202815181106200133857fe5b60200101907effffffffffffffffffffffffffffffffffffffffffffffffffffffffffffff1916908160001a9053506200137281620010a3565b8560018660020201815181106200138557fe5b60200101907effffffffffffffffffffffffffffffffffffffffffffffffffffffffffffff1916908160001a9053505050508080600101915050620012b6565b5080915050919050565b600160009054906101000a900473ffffffffffffffffffffffffffffffffffffffff1681565b600160009054906101000a900473ffffffffffffffffffffffffffffffffffffffff1673ffffffffffffffffffffffffffffffffffffffff163373ffffffffffffffffffffffffffffffffffffffff161462001488576040517f08c379a00000000000000000000000000000000000000000000000000000000081526004016200147f90620034c8565b60405180910390fd5b600560008373ffffffffffffffffffffffffffffffffffffffff1673ffffffffffffffffffffffffffffffffffffffff16815260200190815260200160002060000160009054906101000a900460ff166200151a576040517f08c379a000000000000000000000000000000000000000000000000000000000815260040162001511906200352e565b60405180910390fd5b80600560008473ffffffffffffffffffffffffffffffffffffffff1673ffffffffffffffffffffffffffffffffffffffff168152602001908152602001600020600201600082825401925050819055505050565b601981565b600a81565b600660009054906101000a900463ffffffff1681565b606060008290506000811415620015de576040518060400160405280600181526020017f3000000000000000000000000000000000000000000000000000000000000000815250915050620016c8565b600081905060005b600082146200160b578080600101915050600a82816200160257fe5b049150620015e6565b6060816040519080825280601f01601f191660200182016040528015620016415781602001600182028038833980820191505090505b50905060006001830390505b60008514620016bf57600a85816200166157fe5b0660300160f81b828280600190039350815181106200167c57fe5b60200101907effffffffffffffffffffffffffffffffffffffffffffffffffffffffffffff1916908160001a905350600a8581620016b657fe5b0494506200164d565b81955050505050505b919050565b42600381905550565b60006201518063ffffffff1660025483604001510381620016f357fe5b0490508063ffffffff16600660009054906101000a900463ffffffff1663ffffffff161062001759576040517f08c379a0000000000000000000000000000000000000000000000000000000008152600401620017509062003550565b60405180910390fd5b600060028263ffffffff16816200176c57fe5b0690507f0f8db0708c4e6b233e2c285fe1ed66015dee71bd374ac8e835534be5f592d6a26040516200179e906200350c565b60405180910390a18163ffffffff166001600660009054906101000a900463ffffffff160163ffffffff16101562001c7a577f0f8db0708c4e6b233e2c285fe1ed66015dee71bd374ac8e835534be5f592d6a2604051620017ff906200341e565b60405180910390a1600060026001600660009054906101000a900463ffffffff160163ffffffff16816200182f57fe5b06905060008090505b601963ffffffff168163ffffffff16101562001b5757600073ffffffffffffffffffffffffffffffffffffffff1660078263ffffffff16601981106200187a57fe5b600602018463ffffffff16600281106200189057fe5b6003020160000160009054906101000a900473ffffffffffffffffffffffffffffffffffffffff1673ffffffffffffffffffffffffffffffffffffffff161462001a275760078163ffffffff1660198110620018e857fe5b600602018363ffffffff1660028110620018fe57fe5b6003020160020160009054906101000a900460ff1662001a26576005600060078363ffffffff16601981106200193057fe5b600602018563ffffffff16600281106200194657fe5b6003020160000160009054906101000a900473ffffffffffffffffffffffffffffffffffffffff1673ffffffffffffffffffffffffffffffffffffffff1673ffffffffffffffffffffffffffffffffffffffff168152602001908152602001600020600301600881819054906101000a900460ff168092919060010191906101000a81548160ff021916908360ff16021790555050600160078263ffffffff1660198110620019f157fe5b600602018463ffffffff166002811062001a0757fe5b6003020160020160006101000a81548160ff0219169083151502179055505b5b60078163ffffffff166019811062001a3b57fe5b6006020160028363ffffffff168162001a5057fe5b0663ffffffff166002811062001a6257fe5b6003020160078263ffffffff166019811062001a7a57fe5b6006020160026001850163ffffffff168162001a9257fe5b0663ffffffff166002811062001aa457fe5b600302016000820160009054906101000a900473ffffffffffffffffffffffffffffffffffffffff168160000160006101000a81548173ffffffffffffffffffffffffffffffffffffffff021916908373ffffffffffffffffffffffffffffffffffffffff160217905550600182015481600101556002820160009054906101000a900460ff168160020160006101000a81548160ff021916908315150217905550905050808060010191505062001838565b5060018303600660006101000a81548163ffffffff021916908363ffffffff16021790555060008090505b601963ffffffff168163ffffffff16101562001c7757600073ffffffffffffffffffffffffffffffffffffffff1660078263ffffffff166019811062001bc457fe5b600602018463ffffffff166002811062001bda57fe5b6003020160000160009054906101000a900473ffffffffffffffffffffffffffffffffffffffff1673ffffffffffffffffffffffffffffffffffffffff161462001c6957600060078263ffffffff166019811062001c3457fe5b600602018463ffffffff166002811062001c4a57fe5b6003020160020160006101000a81548160ff0219169083151502179055505b808060010191505062001b82565b50505b6000600560003373ffffffffffffffffffffffffffffffffffffffff1673ffffffffffffffffffffffffffffffffffffffff16815260200190815260200160002060030160086101000a81548160ff021916908360ff1602179055506000600560003373ffffffffffffffffffffffffffffffffffffffff1673ffffffffffffffffffffffffffffffffffffffff16815260200190815260200160002060010154146200237b5760007fffffffffffffffffffffffffffffffffffffffffffffffffffffffffffffffff600560003373ffffffffffffffffffffffffffffffffffffffff1673ffffffffffffffffffffffffffffffffffffffff16815260200190815260200160002060030160049054906101000a900460030b60030b141562001dab576001601903905062001ed0565b600560003373ffffffffffffffffffffffffffffffffffffffff1673ffffffffffffffffffffffffffffffffffffffff16815260200190815260200160002060030160049054906101000a900460030b90506000151560078263ffffffff166019811062001e1557fe5b600602018363ffffffff166002811062001e2b57fe5b6003020160020160009054906101000a900460ff1615151462001e85576040517f08c379a000000000000000000000000000000000000000000000000000000000815260040162001e7c9062003396565b60405180910390fd5b600160078263ffffffff166019811062001e9b57fe5b600602018363ffffffff166002811062001eb157fe5b6003020160020160006101000a81548160ff0219169083151502179055505b60008190505b60008160030b126200237857600073ffffffffffffffffffffffffffffffffffffffff1660078263ffffffff166019811062001f0e57fe5b600602018463ffffffff166002811062001f2457fe5b6003020160000160009054906101000a900473ffffffffffffffffffffffffffffffffffffffff1673ffffffffffffffffffffffffffffffffffffffff161415620021e45760008160030b148062001ffd5750600073ffffffffffffffffffffffffffffffffffffffff1660076001830363ffffffff166019811062001fa657fe5b600602018463ffffffff166002811062001fbc57fe5b6003020160000160009054906101000a900473ffffffffffffffffffffffffffffffffffffffff1673ffffffffffffffffffffffffffffffffffffffff1614155b15620021e3573360078263ffffffff16601981106200201857fe5b600602018463ffffffff16600281106200202e57fe5b6003020160000160006101000a81548173ffffffffffffffffffffffffffffffffffffffff021916908373ffffffffffffffffffffffffffffffffffffffff160217905550600560003373ffffffffffffffffffffffffffffffffffffffff1673ffffffffffffffffffffffffffffffffffffffff1681526020019081526020016000206001015460078263ffffffff1660198110620020ca57fe5b600602018463ffffffff1660028110620020e057fe5b600302016001018190555080600560003373ffffffffffffffffffffffffffffffffffffffff1673ffffffffffffffffffffffffffffffffffffffff16815260200190815260200160002060030160046101000a81548163ffffffff021916908360030b63ffffffff160217905550600160078263ffffffff16601981106200216557fe5b600602018463ffffffff16600281106200217b57fe5b6003020160020160006101000a81548160ff0219169083151502179055507f0f8db0708c4e6b233e2c285fe1ed66015dee71bd374ac8e835534be5f592d6a2620021cb8263ffffffff166200158e565b604051620021da919062003372565b60405180910390a15b5b60008160030b1380156200227457503373ffffffffffffffffffffffffffffffffffffffff1660078263ffffffff16601981106200221e57fe5b600602018463ffffffff16600281106200223457fe5b6003020160000160009054906101000a900473ffffffffffffffffffffffffffffffffffffffff1673ffffffffffffffffffffffffffffffffffffffff16145b1562002369576005600060076001840363ffffffff16601981106200229557fe5b600602018563ffffffff1660028110620022ab57fe5b6003020160000160009054906101000a900473ffffffffffffffffffffffffffffffffffffffff1673ffffffffffffffffffffffffffffffffffffffff1673ffffffffffffffffffffffffffffffffffffffff16815260200190815260200160002060010154600560003373ffffffffffffffffffffffffffffffffffffffff1673ffffffffffffffffffffffffffffffffffffffff168152602001908152602001600020600101541115620023685762002367838262002380565b5b5b80806001900391505062001ed6565b50505b505050565b7f0f8db0708c4e6b233e2c285fe1ed66015dee71bd374ac8e835534be5f592d6a2604051620023af90620033fc565b60405180910390a17f0f8db0708c4e6b233e2c285fe1ed66015dee71bd374ac8e835534be5f592d6a2620023e98363ffffffff166200158e565b604051620023f8919062003372565b60405180910390a17f0f8db0708c4e6b233e2c285fe1ed66015dee71bd374ac8e835534be5f592d6a2620024328263ffffffff166200158e565b60405162002441919062003372565b60405180910390a1600073ffffffffffffffffffffffffffffffffffffffff1660078263ffffffff16601981106200247557fe5b600602018363ffffffff16600281106200248b57fe5b6003020160000160009054906101000a900473ffffffffffffffffffffffffffffffffffffffff1673ffffffffffffffffffffffffffffffffffffffff1614156200250d576040517f08c379a0000000000000000000000000000000000000000000000000000000008152600401620025049062003462565b60405180910390fd5b600073ffffffffffffffffffffffffffffffffffffffff1660076001830363ffffffff16601981106200253c57fe5b600602018363ffffffff16600281106200255257fe5b6003020160000160009054906101000a900473ffffffffffffffffffffffffffffffffffffffff1673ffffffffffffffffffffffffffffffffffffffff161415620025d4576040517f08c379a0000000000000000000000000000000000000000000000000000000008152600401620025cb90620033b8565b60405180910390fd5b620025de620029bd565b60078263ffffffff1660198110620025f257fe5b600602018363ffffffff16600281106200260857fe5b600302016040518060600160405290816000820160009054906101000a900473ffffffffffffffffffffffffffffffffffffffff1673ffffffffffffffffffffffffffffffffffffffff1673ffffffffffffffffffffffffffffffffffffffff168152602001600182015481526020016002820160009054906101000a900460ff161515151581525050905060076001830363ffffffff1660198110620026ab57fe5b600602018363ffffffff1660028110620026c157fe5b6003020160078363ffffffff1660198110620026d957fe5b600602018463ffffffff1660028110620026ef57fe5b600302016000820160009054906101000a900473ffffffffffffffffffffffffffffffffffffffff168160000160006101000a81548173ffffffffffffffffffffffffffffffffffffffff021916908373ffffffffffffffffffffffffffffffffffffffff160217905550600182015481600101556002820160009054906101000a900460ff168160020160006101000a81548160ff0219169083151502179055509050508060076001840363ffffffff1660198110620027ac57fe5b600602018463ffffffff1660028110620027c257fe5b6003020160008201518160000160006101000a81548173ffffffffffffffffffffffffffffffffffffffff021916908373ffffffffffffffffffffffffffffffffffffffff1602179055506020820151816001015560408201518160020160006101000a81548160ff021916908315150217905550905050816005600060078563ffffffff16601981106200285357fe5b600602018663ffffffff16600281106200286957fe5b6003020160000160009054906101000a900473ffffffffffffffffffffffffffffffffffffffff1673ffffffffffffffffffffffffffffffffffffffff1673ffffffffffffffffffffffffffffffffffffffff16815260200190815260200160002060030160046101000a81548163ffffffff021916908360030b63ffffffff160217905550600182036005600060076001860363ffffffff16601981106200290e57fe5b600602018663ffffffff16600281106200292457fe5b6003020160000160009054906101000a900473ffffffffffffffffffffffffffffffffffffffff1673ffffffffffffffffffffffffffffffffffffffff1673ffffffffffffffffffffffffffffffffffffffff16815260200190815260200160002060030160046101000a81548163ffffffff021916908360030b63ffffffff160217905550505050565b61174980620037cd83390190565b6040518060600160405280600073ffffffffffffffffffffffffffffffffffffffff168152602001600081526020016000151581525090565b60008135905062002a07816200377e565b92915050565b60008135905062002a1e8162003798565b92915050565b60006080828403121562002a3757600080fd5b62002a436080620035e9565b9050600062002a558482850162002b0c565b600083015250602062002a6b8482850162002b0c565b602083015250604062002a818482850162002b0c565b604083015250606062002a978482850162002b0c565b60608301525092915050565b60006060828403121562002ab657600080fd5b62002ac26060620035e9565b9050600062002ad48482850162002b0c565b600083015250602062002aea8482850162002b0c565b602083015250604062002b008482850162002b0c565b60408301525092915050565b60008135905062002b1d81620037b2565b92915050565b60006020828403121562002b3657600080fd5b600062002b4684828501620029f6565b91505092915050565b6000806040838503121562002b6357600080fd5b600062002b7385828601620029f6565b925050602062002b868582860162002b0c565b9150509250929050565b60006020828403121562002ba357600080fd5b600062002bb38482850162002a0d565b91505092915050565b60006080828403121562002bcf57600080fd5b600062002bdf8482850162002a24565b91505092915050565b60006060828403121562002bfb57600080fd5b600062002c0b8482850162002aa3565b91505092915050565b60006020828403121562002c2757600080fd5b600062002c378482850162002b0c565b91505092915050565b6000806040838503121562002c5457600080fd5b600062002c648582860162002b0c565b925050602062002c778582860162002b0c565b9150509250929050565b62002c8c81620036d3565b82525050565b62002c9d8162003633565b82525050565b62002cae8162003647565b82525050565b62002cbf8162003653565b82525050565b62002cd081620036e7565b82525050565b62002ce1816200367f565b82525050565b600062002cf48262003617565b62002d00818562003622565b935062002d1281856020860162003737565b62002d1d816200376d565b840191505092915050565b600062002d37602b8362003622565b91507f63616e6e6f74207265706f7274207468652073616d652070726963652074776960008301527f636520696e2061206461790000000000000000000000000000000000000000006020830152604082019050919050565b600062002d9f60268362003622565b91507f73776170706564206665656420737461746520692d312063616e6e6f7420626560008301527f20656d70747900000000000000000000000000000000000000000000000000006020830152604082019050919050565b600062002e0760208362003622565b91507f3e53797374656d46656564732e706f7374486973746f726963616c50726963656000830152602082019050919050565b600062002e49601f8362003622565b91507f3e7377617046656564537461746573206c697374496e64657820696e646578006000830152602082019050919050565b600062002e8b601b8362003622565b91507f66696e616c697a6564446179202b2031203c20707269636544617900000000006000830152602082019050919050565b600062002ecd60168362003622565b91507f3e53797374656d46656564732e666c69705374617465000000000000000000006000830152602082019050919050565b600062002f0f60248362003622565b91507f73776170706564206665656420737461746520692063616e6e6f74206265206560008301527f6d707479000000000000000000000000000000000000000000000000000000006020830152604082019050919050565b600062002f77602a8362003622565b91507f73656e6465722073686f756c642062652076616c69642070726963652066656560008301527f6420636f6e7472616374000000000000000000000000000000000000000000006020830152604082019050919050565b600062002fdf601e8362003622565b91507f73797374656d4c6f616e73416464726573732073686f756c64206265203000006000830152602082019050919050565b60006200302160248362003622565b91507f63616c6c6572206d7573742062652073797374656d206c6f616e7320636f6e7460008301527f72616374000000000000000000000000000000000000000000000000000000006020830152604082019050919050565b600062003089601c8362003622565b91507f3e53797374656d46656564732e637265617465507269636546656564000000006000830152602082019050919050565b6000620030cb60238362003622565b91507f3e53797374656d46656564732e70726f63657373486973746f726963616c507260008301527f69636500000000000000000000000000000000000000000000000000000000006020830152604082019050919050565b600062003133602f8362003622565b91507f5f707269636546656564416464726573732073686f6c756c642062652061207660008301527f616c6964207072696365206665656400000000000000000000000000000000006020830152604082019050919050565b60006200319b60308362003622565b91507f707269636520646179206f6363757273206f6e206f72206265666f7265206c6160008301527f73742066696e616c697a656420646179000000000000000000000000000000006020830152604082019050919050565b620031ff81620036ac565b82525050565b6200321081620036b6565b82525050565b6200322181620036c6565b82525050565b60006020820190506200323e600083018462002c92565b92915050565b60006040820190506200325b600083018562002c81565b6200326a602083018462002c92565b9392505050565b600060608201905062003288600083018662002c92565b620032976020830185620031f4565b620032a6604083018462002ca3565b949350505050565b6000602082019050620032c5600083018462002ca3565b92915050565b600060c082019050620032e2600083018962002ca3565b620032f16020830188620031f4565b620033006040830187620031f4565b6200330f606083018662002cd6565b6200331e608083018562002cd6565b6200332d60a083018462003216565b979650505050505050565b60006020820190506200334f600083018462002cb4565b92915050565b60006020820190506200336c600083018462002cc5565b92915050565b600060208201905081810360008301526200338e818462002ce7565b905092915050565b60006020820190508181036000830152620033b18162002d28565b9050919050565b60006020820190508181036000830152620033d38162002d90565b9050919050565b60006020820190508181036000830152620033f58162002df8565b9050919050565b60006020820190508181036000830152620034178162002e3a565b9050919050565b60006020820190508181036000830152620034398162002e7c565b9050919050565b600060208201905081810360008301526200345b8162002ebe565b9050919050565b600060208201905081810360008301526200347d8162002f00565b9050919050565b600060208201905081810360008301526200349f8162002f68565b9050919050565b60006020820190508181036000830152620034c18162002fd0565b9050919050565b60006020820190508181036000830152620034e38162003012565b9050919050565b6000602082019050818103600083015262003505816200307a565b9050919050565b600060208201905081810360008301526200352781620030bc565b9050919050565b60006020820190508181036000830152620035498162003124565b9050919050565b600060208201905081810360008301526200356b816200318c565b9050919050565b6000602082019050620035896000830184620031f4565b92915050565b6000606082019050620035a66000830186620031f4565b620035b56020830185620031f4565b620035c46040830184620031f4565b949350505050565b6000602082019050620035e3600083018462003205565b92915050565b6000604051905081810181811067ffffffffffffffff821117156200360d57600080fd5b8060405250919050565b600081519050919050565b600082825260208201905092915050565b600062003640826200368c565b9050919050565b60008115159050919050565b60007fff0000000000000000000000000000000000000000000000000000000000000082169050919050565b60008160030b9050919050565b600073ffffffffffffffffffffffffffffffffffffffff82169050919050565b6000819050919050565b600063ffffffff82169050919050565b600060ff82169050919050565b6000620036e0826200370f565b9050919050565b6000620036f482620036fb565b9050919050565b600062003708826200368c565b9050919050565b60006200371c8262003723565b9050919050565b600062003730826200368c565b9050919050565b60005b83811015620037575780820151818401526020810190506200373a565b8381111562003767576000848401525b50505050565b6000601f19601f8301169050919050565b620037898162003633565b81146200379557600080fd5b50565b620037a38162003653565b8114620037af57600080fd5b50565b620037bd81620036ac565b8114620037c957600080fd5b5056fe60806040523480156200001157600080fd5b50604051620017493803806200174983398181016040526200003791908101906200014f565b7f0f8db0708c4e6b233e2c285fe1ed66015dee71bd374ac8e835534be5f592d6a26040516200006690620001d2565b60405180910390a1816000806101000a81548173ffffffffffffffffffffffffffffffffffffffff021916908373ffffffffffffffffffffffffffffffffffffffff16021790555033600160006101000a81548173ffffffffffffffffffffffffffffffffffffffff021916908373ffffffffffffffffffffffffffffffffffffffff16021790555080600260006101000a81548173ffffffffffffffffffffffffffffffffffffffff021916908373ffffffffffffffffffffffffffffffffffffffff160217905550505062000253565b600081519050620001498162000239565b92915050565b600080604083850312156200016357600080fd5b6000620001738582860162000138565b9250506020620001868582860162000138565b9150509250929050565b60006200019f601683620001f4565b91507f3e5072696365466565642e636f6e7374727563746f72000000000000000000006000830152602082019050919050565b60006020820190508181036000830152620001ed8162000190565b9050919050565b600082825260208201905092915050565b6000620002128262000219565b9050919050565b600073ffffffffffffffffffffffffffffffffffffffff82169050919050565b620002448162000205565b81146200025057600080fd5b50565b6114e680620002636000396000f3fe608060405234801561001057600080fd5b50600436106100f55760003560e01c806369f9ad2f11610097578063b5a1341511610066578063b5a1341514610253578063c61304fa14610273578063dd41250f146102a3578063f76f950e146102ad576100f5565b806369f9ad2f146101dd5780638da5cb5b1461020d5780638e9203511461022b57806395bf75fd14610235576100f5565b806318a4979f116100d357806318a4979f1461015257806319d51d89146101855780632981aab4146101a35780633d4887bb146101c1576100f5565b80630425fb82146100fa5780630f5e07c71461011857806310aefb9114610136575b600080fd5b6101026102dd565b60405161010f919061128a565b60405180910390f35b6101206102e3565b60405161012d919061128a565b60405180910390f35b610150600480360361014b9190810190610e78565b6102e9565b005b61016c60048036036101679190810190610eca565b61044e565b60405161017c94939291906112dc565b60405180910390f35b61018d610481565b60405161019a919061117c565b60405180910390f35b6101ab6104a7565b6040516101b8919061128a565b60405180910390f35b6101db60048036036101d69190810190610ea1565b6104ad565b005b6101f760048036036101f29190810190610e4f565b610604565b6040516102049190611161565b60405180910390f35b610215610638565b6040516102229190611146565b60405180910390f35b61023361065d565b005b61023d6106a6565b60405161024a9190611197565b60405180910390f35b61025b6106cc565b60405161026a939291906112a5565b60405180910390f35b61028d60048036036102889190810190610e26565b6106e4565b60405161029a91906111b2565b60405180910390f35b6102ab610833565b005b6102c760048036036102c29190810190610eca565b6109e3565b6040516102d491906111b2565b60405180910390f35b60245481565b60035481565b7f0f8db0708c4e6b233e2c285fe1ed66015dee71bd374ac8e835534be5f592d6a2604051610316906111f4565b60405180910390a13373ffffffffffffffffffffffffffffffffffffffff166000809054906101000a900473ffffffffffffffffffffffffffffffffffffffff1673ffffffffffffffffffffffffffffffffffffffff16146103ad576040517f08c379a00000000000000000000000000000000000000000000000000000000081526004016103a490611234565b60405180910390fd5b6103b5610b17565b6103be81610b20565b600160009054906101000a900473ffffffffffffffffffffffffffffffffffffffff1673ffffffffffffffffffffffffffffffffffffffff166310aefb91826040518263ffffffff1660e01b81526004016104199190611254565b600060405180830381600087803b15801561043357600080fd5b505af1158015610447573d6000803e3d6000fd5b5050505050565b6004816007811061045b57fe5b600402016000915090508060000154908060010154908060020154908060030154905084565b600160009054906101000a900473ffffffffffffffffffffffffffffffffffffffff1681565b60235481565b3373ffffffffffffffffffffffffffffffffffffffff166000809054906101000a900473ffffffffffffffffffffffffffffffffffffffff1673ffffffffffffffffffffffffffffffffffffffff161461053c576040517f08c379a000000000000000000000000000000000000000000000000000000000815260040161053390611234565b60405180910390fd5b610544610b17565b600354816040018181525050806020600082015181600001556020820151816001015560408201518160020155905050600160009054906101000a900473ffffffffffffffffffffffffffffffffffffffff1673ffffffffffffffffffffffffffffffffffffffff16633d4887bb826040518263ffffffff1660e01b81526004016105cf919061126f565b600060405180830381600087803b1580156105e957600080fd5b505af11580156105fd573d6000803e3d6000fd5b5050505050565b6000600a8260f81c60ff1610156106265760308260f81c0160f81b9050610633565b60578260f81c0160f81b90505b919050565b6000809054906101000a900473ffffffffffffffffffffffffffffffffffffffff1681565b7f0f8db0708c4e6b233e2c285fe1ed66015dee71bd374ac8e835534be5f592d6a260405161068a90611214565b60405180910390a1602460008154809291906001019190505550565b600260009054906101000a900473ffffffffffffffffffffffffffffffffffffffff1681565b60208060000154908060010154908060020154905083565b60608060286040519080825280601f01601f19166020018201604052801561071b5781602001600182028038833980820191505090505b50905060008090505b60148110156108295760008160130360080260020a8573ffffffffffffffffffffffffffffffffffffffff168161075757fe5b0460f81b9050600060108260f81c60ff168161076f57fe5b0460f81b905060008160f81c6010028360f81c0360f81b905061079182610604565b8585600202815181106107a057fe5b60200101907effffffffffffffffffffffffffffffffffffffffffffffffffffffffffffff1916908160001a9053506107d881610604565b8560018660020201815181106107ea57fe5b60200101907effffffffffffffffffffffffffffffffffffffffffffffffffffffffffffff1916908160001a9053505050508080600101915050610724565b5080915050919050565b61083b610b17565b60006023541415610850576003546023819055505b60076018603c8002020263ffffffff1660235401600354106109e157600260009054906101000a900473ffffffffffffffffffffffffffffffffffffffff1673ffffffffffffffffffffffffffffffffffffffff166341d76a9c6040518163ffffffff1660e01b815260040160206040518083038186803b1580156108d457600080fd5b505afa1580156108e8573d6000803e3d6000fd5b505050506040513d601f19601f8201168201806040525061090c9190810190610ef3565b60076018603c8002020263ffffffff1660076018603c8002020263ffffffff16600260009054906101000a900473ffffffffffffffffffffffffffffffffffffffff1673ffffffffffffffffffffffffffffffffffffffff166341d76a9c6040518163ffffffff1660e01b815260040160206040518083038186803b15801561099457600080fd5b505afa1580156109a8573d6000803e3d6000fd5b505050506040513d601f19601f820116820180604052506109cc9190810190610ef3565b60035403816109d757fe5b0402016023819055505b565b606060008290506000811415610a31576040518060400160405280600181526020017f3000000000000000000000000000000000000000000000000000000000000000815250915050610b12565b600081905060005b60008214610a5b578080600101915050600a8281610a5357fe5b049150610a39565b6060816040519080825280601f01601f191660200182016040528015610a905781602001600182028038833980820191505090505b50905060006001830390505b60008514610b0957600a8581610aae57fe5b0660300160f81b82828060019003935081518110610ac857fe5b60200101907effffffffffffffffffffffffffffffffffffffffffffffffffffffffffffff1916908160001a905350600a8581610b0157fe5b049450610a9c565b81955050505050505b919050565b42600381905550565b60035481606001818152505060006018603c80020263ffffffff16600260009054906101000a900473ffffffffffffffffffffffffffffffffffffffff1673ffffffffffffffffffffffffffffffffffffffff166341d76a9c6040518163ffffffff1660e01b815260040160206040518083038186803b158015610ba357600080fd5b505afa158015610bb7573d6000803e3d6000fd5b505050506040513d601f19601f82011682018060405250610bdb9190810190610ef3565b6003540381610be657fe5b04905060006018603c80020263ffffffff16600260009054906101000a900473ffffffffffffffffffffffffffffffffffffffff1673ffffffffffffffffffffffffffffffffffffffff166341d76a9c6040518163ffffffff1660e01b815260040160206040518083038186803b158015610c6057600080fd5b505afa158015610c74573d6000803e3d6000fd5b505050506040513d601f19601f82011682018060405250610c989190810190610ef3565b84604001510381610ca557fe5b0490506001810163ffffffff168263ffffffff1614610cf9576040517f08c379a0000000000000000000000000000000000000000000000000000000008152600401610cf0906111d4565b60405180910390fd5b505050565b600081359050610d0d8161145e565b92915050565b600081359050610d2281611475565b92915050565b600060808284031215610d3a57600080fd5b610d446080611321565b90506000610d5484828501610dfc565b6000830152506020610d6884828501610dfc565b6020830152506040610d7c84828501610dfc565b6040830152506060610d9084828501610dfc565b60608301525092915050565b600060608284031215610dae57600080fd5b610db86060611321565b90506000610dc884828501610dfc565b6000830152506020610ddc84828501610dfc565b6020830152506040610df084828501610dfc565b60408301525092915050565b600081359050610e0b8161148c565b92915050565b600081519050610e208161148c565b92915050565b600060208284031215610e3857600080fd5b6000610e4684828501610cfe565b91505092915050565b600060208284031215610e6157600080fd5b6000610e6f84828501610d13565b91505092915050565b600060808284031215610e8a57600080fd5b6000610e9884828501610d28565b91505092915050565b600060608284031215610eb357600080fd5b6000610ec184828501610d9c565b91505092915050565b600060208284031215610edc57600080fd5b6000610eea84828501610dfc565b91505092915050565b600060208284031215610f0557600080fd5b6000610f1384828501610e11565b91505092915050565b610f258161136a565b82525050565b610f348161137c565b82525050565b610f43816113d2565b82525050565b610f52816113f6565b82525050565b6000610f638261134e565b610f6d8185611359565b9350610f7d81856020860161141a565b610f868161144d565b840191505092915050565b6000610f9e601d83611359565b91507f70726963652073686f756c6420626520666f722031206461792061676f0000006000830152602082019050919050565b6000610fde601e83611359565b91507f3e5072696365466565642e706f7374486973746f726963616c507269636500006000830152602082019050919050565b600061101e601683611359565b91507f3e53797374656d46656564732e666c69705374617465000000000000000000006000830152602082019050919050565b600061105e601683611359565b91507f73656e6465722073686f756c64206265206f776e6572000000000000000000006000830152602082019050919050565b6080820160008201516110a76000850182611128565b5060208201516110ba6020850182611128565b5060408201516110cd6040850182611128565b5060608201516110e06060850182611128565b50505050565b6060820160008201516110fc6000850182611128565b50602082015161110f6020850182611128565b5060408201516111226040850182611128565b50505050565b611131816113c8565b82525050565b611140816113c8565b82525050565b600060208201905061115b6000830184610f1c565b92915050565b60006020820190506111766000830184610f2b565b92915050565b60006020820190506111916000830184610f3a565b92915050565b60006020820190506111ac6000830184610f49565b92915050565b600060208201905081810360008301526111cc8184610f58565b905092915050565b600060208201905081810360008301526111ed81610f91565b9050919050565b6000602082019050818103600083015261120d81610fd1565b9050919050565b6000602082019050818103600083015261122d81611011565b9050919050565b6000602082019050818103600083015261124d81611051565b9050919050565b60006080820190506112696000830184611091565b92915050565b600060608201905061128460008301846110e6565b92915050565b600060208201905061129f6000830184611137565b92915050565b60006060820190506112ba6000830186611137565b6112c76020830185611137565b6112d46040830184611137565b949350505050565b60006080820190506112f16000830187611137565b6112fe6020830186611137565b61130b6040830185611137565b6113186060830184611137565b95945050505050565b6000604051905081810181811067ffffffffffffffff8211171561134457600080fd5b8060405250919050565b600081519050919050565b600082825260208201905092915050565b6000611375826113a8565b9050919050565b60007fff0000000000000000000000000000000000000000000000000000000000000082169050919050565b600073ffffffffffffffffffffffffffffffffffffffff82169050919050565b6000819050919050565b60006113dd826113e4565b9050919050565b60006113ef826113a8565b9050919050565b600061140182611408565b9050919050565b6000611413826113a8565b9050919050565b60005b8381101561143857808201518184015260208101905061141d565b83811115611447576000848401525b50505050565b6000601f19601f8301169050919050565b6114678161136a565b811461147257600080fd5b50565b61147e8161137c565b811461148957600080fd5b50565b611495816113c8565b81146114a057600080fd5b5056fea365627a7a72315820dd8669462444b59c6b7fc9ea95032d948acb1caca4642f32647925f139271f056c6578706572696d656e74616cf564736f6c634300050c0040a365627a7a72315820e36ca47de68d0a005bd784a1e96f5dc86f83f76a089557148e5d0fd0fd58f3866c6578706572696d656e74616cf564736f6c634300050c0040",
  "source": "pragma solidity ^0.5.11;\npragma experimental ABIEncoderV2;\n\nimport \"./System.sol\";\nimport \"./PriceFeed.sol\";\n\ncontract SystemFeeds {\n\n    //address public systemAddress;\n    System public system;\n    address public systemLoansAddress;\n    uint256 public firstTime;\n\n    constructor(\n        address _systemAddress\n    ) public {\n        require(_systemAddress != address(0), \"_systemAddress should not be 0\");\n        system = System(_systemAddress);\n        firstTime = system.firstTime();\n    }\n\n    function initialize(address _systemLoansAddress) public {\n        require(systemLoansAddress == address(0), \"systemLoansAddress should be 0\");\n        systemLoansAddress = _systemLoansAddress;\n    }\n\n    uint32 constant SECONDS_PER_DAY = 86400; // SECONDS_PER_MINUTE * MINUTES_PER_HOUR * HOURS_PER_DAY = 60 * 60 * 24\n    uint32 constant DAYS_PER_WEEK = 7;\n    uint32 constant WEEKS_PER_PERIOD = 5; // 35 days = ~1 month\n    uint32 constant PERIODS_PER_PERIOD2S = 5; // 175 days = ~0.48 years\n    uint32 constant PERIOD2S_PER_PERIOD3S = 5; // 875 days = ~2.4 years\n    uint32 constant PERIOD3S_PER_PERIOD4S = 5; // 4378 days = ~12 years\n    uint32 constant PERIOD4S_PER_PERIOD5S = 5; // 21875 days = ~60 years\n\n    uint256 public callTime;\n    function setCallTime() private {\n        callTime = block.timestamp;\n    }\n\n    address public lastNewAddress;\n\n    function createPriceFeed() public returns(address newPriceFeedAddress) {\n        emit ConsoleLog(\">SystemFeeds.createPriceFeed\");\n\n        PriceFeed newPriceFeed = new PriceFeed(msg.sender, address(system));\n        newPriceFeedAddress = address(newPriceFeed);\n        priceFeedMap[newPriceFeedAddress].isPriceFeed = true;\n        priceFeedMap[newPriceFeedAddress].finalizedStateIndex = -1;\n        priceFeedMap[newPriceFeedAddress].initializedStateIndex = -1;\n        lastNewAddress = newPriceFeedAddress;\n        return newPriceFeedAddress;\n    }\n\n    mapping (address => PriceFeedStruct) public priceFeedMap;\n    struct PriceFeedStruct {\n        bool isPriceFeed;\n        uint256 totalAllocation;\n        uint256 totalDownVote;\n        int32 finalizedStateIndex;\n        int32 initializedStateIndex;\n        uint8 daysSkipped;\n    }\n\n    uint32 public finalizedDay;\n\n    function postHistoricalPrice(PriceFeed.HistoricalPrice memory historicalPrice) public {\n        emit ConsoleLog(\">SystemFeeds.postHistoricalPrice\");\n        require(priceFeedMap[msg.sender].isPriceFeed, \"sender should be valid price feed contract\");\n        setCallTime();\n\n        processHistoricalPrice(historicalPrice);\n    }\n\n    uint256 constant public PRICE_RATE_DECIMALS = 10;\n    uint32 constant public HIGH_TRUST_FEED_COUNT = 5; // Maximum number of high trust price feeds\n    uint32 constant public MEDIUM_TRUST_FEED_COUNT = 25; // Maximum number of medium trust price feeds\n    uint32 constant public FEED_LISTS_COUNT = 2; //\n    PriceFeedState[FEED_LISTS_COUNT][MEDIUM_TRUST_FEED_COUNT] public priceFeedStateLists;\n    struct PriceFeedState {\n        address priceFeedAddress;\n        uint256 totalAllocation;\n        bool isFinalized;\n    }\n\n   //function processHistoricalPrice(HistoricalPrice memory historicalPrice) private {\n   function processHistoricalPrice(PriceFeed.HistoricalPrice memory historicalPrice) private {\n        // uint32 callDay = uint32((callTime - firstTime) / SECONDS_PER_DAY);\n        // require(callDay = priceDay + 1, \"price day is a day before call day\")\n        uint32 priceDay = uint32((historicalPrice.priceTime - firstTime) / SECONDS_PER_DAY);\n        require(finalizedDay < priceDay, \"price day occurs on or before last finalized day\");\n\n        uint32 j = uint32(priceDay % 2); // initializedListIndex\n\n//if(flippedState % 2 == 0) {\nemit ConsoleLog(\">SystemFeeds.processHistoricalPrice\");\n\n\n        if (finalizedDay + 1 < priceDay) // Decide if we need to finalize the last initialized day and initialize another\n        {\nemit ConsoleLog(\"finalizedDay + 1 < priceDay\");\n\n            // 1. Finalize last initialized day (commonly 2 days ago or before = 1 day before price day or before)\n            uint32 finalizeListIndex = uint32((finalizedDay + 1) % 2); //Finalized list index\n            //  1.a. Ensure last finalized feed state list is duplicated, is ready for nextinitialization\n            for (uint32 i = 0; i < MEDIUM_TRUST_FEED_COUNT; i++) {\n                if(priceFeedStateLists[i][j].priceFeedAddress != address(0)) {\n                    if(!priceFeedStateLists[i][j].isFinalized) {\n                        priceFeedMap[priceFeedStateLists[i][j].priceFeedAddress].daysSkipped++;\n                        priceFeedStateLists[i][j].isFinalized = true;\n                        // ToDo - Issue a penalty for skipping a single days - consider giving some of the slashing to calling feed's pool for gas cost\n                        // ToDo - After 2 days of skipping, flag and remove from list for 7 days, all proceeds go to savings pool\n                    }\n                }\n                priceFeedStateLists[i][(finalizeListIndex + 1) % 2] = priceFeedStateLists[i][finalizeListIndex % 2]; // Copy old finalized entry to current finalized entry\n            }\n\n            finalizedDay = priceDay - 1;\n\n            // 2. ToDo - [Rare] Finalize empty (non-initialized) gap days if appropriate - Can I skip this?\n            //  2.a. Do not modify state array\n\n            // 3. Initialize current price day (1 day ago)\n            //  3.a. Reset indexes and use the copied state array, to start initializing\n            for (uint32 i = 0; i < MEDIUM_TRUST_FEED_COUNT; i++) {\n                if(priceFeedStateLists[i][j].priceFeedAddress != address(0)) {\n                    priceFeedStateLists[i][j].isFinalized = false;\n                }\n            }\n        }\n\n//}\n//if(flippedState % 2 == 0) {\n\n        // Continue processing yesterday's price feed states based on current historical price report\n        priceFeedMap[msg.sender].daysSkipped = 0; // Processing now so cumulative days skipped is 0\n        if(priceFeedMap[msg.sender].totalAllocation != 0) { // Skip if the current feed has no allocation\n            uint32 startIndex;\n            if(priceFeedMap[msg.sender].initializedStateIndex == -1) { // If feed state is not in the list start from the bottom\n                startIndex = MEDIUM_TRUST_FEED_COUNT - 1;\n            } else { // If feed state is already in the list, start there\n                startIndex = uint32(priceFeedMap[msg.sender].initializedStateIndex);\n                require(priceFeedStateLists[startIndex][j].isFinalized == false, \"cannot report the same price twice in a day\");\n                priceFeedStateLists[startIndex][j].isFinalized = true;\n            }\n\n            for (int32 i = int32(startIndex); i >= 0; i--) { // Iterate through initialized feed states starting from calling feed's posistion or the bottom\n//if(flippedState % 2 == 0) {\n\n//f(flippedState % 2 == 0) {\n                if(priceFeedStateLists[uint32(i)][j].priceFeedAddress == address(0)) { // Skip if current state index is not empty\n                    if(i == 0 || priceFeedStateLists[uint32(i)-1][j].priceFeedAddress != address(0)) { // If reacehd first non-empty state or at top of empty list, set calling price feed state\n                        priceFeedStateLists[uint32(i)][j].priceFeedAddress = msg.sender;\n                        priceFeedStateLists[uint32(i)][j].totalAllocation = priceFeedMap[msg.sender].totalAllocation;\n                        priceFeedMap[msg.sender].initializedStateIndex = int32(i);\n                        priceFeedStateLists[uint32(i)][j].isFinalized = true;\nemit ConsoleLog(uint2str(uint32(i)));\n\n                    }\n                }\n\n                if(i > 0 && priceFeedStateLists[uint32(i)][j].priceFeedAddress == msg.sender) { // Skip if calling feed state failed to advance to this point, or if we reached top of list\n                    if(priceFeedMap[msg.sender].totalAllocation > priceFeedMap[priceFeedStateLists[uint32(i)-1][j].priceFeedAddress].totalAllocation) { // Skip bubbling feed state up if total allocation is not greater than next entry\n//if(flippedState % 2 == 0) {\n                        swapFeedStates(j, uint32(i));\n//}\n                    }\n                }\n            }\n        }\n    }\n\n//}\n\n    function isPriceFeed(address _priceFeedAddress) public returns (bool) {\n        return priceFeedMap[_priceFeedAddress].isPriceFeed;\n    }\n\n    function incrementPriceFeedAllocation(address _priceFeedAddress, uint256 _value) public {\n        require(msg.sender == systemLoansAddress, \"caller must be system loans contract\");\n        require(priceFeedMap[_priceFeedAddress].isPriceFeed, \"_priceFeedAddress sholuld be a valid price feed\");\n        priceFeedMap[_priceFeedAddress].totalAllocation += _value;\n    }\n\n    function decrementPriceFeedAllocation(address _priceFeedAddress, uint256 _value) public {\n        require(msg.sender == systemLoansAddress, \"caller must be system loans contract\");\n        require(priceFeedMap[_priceFeedAddress].isPriceFeed, \"_priceFeedAddress sholuld be a valid price feed\");\n        priceFeedMap[_priceFeedAddress].totalAllocation -= _value;\n    }\n\n    function incrementDownVote(address _priceFeedAddress, uint256 _value) public {\n        require(msg.sender == systemLoansAddress, \"caller must be system loans contract\");\n        require(priceFeedMap[_priceFeedAddress].isPriceFeed, \"_priceFeedAddress sholuld be a valid price feed\");\n        priceFeedMap[_priceFeedAddress].totalDownVote += _value;\n    }\n\n    function decrementDownVote(address _priceFeedAddress, uint256 _value) public {\n        require(msg.sender == systemLoansAddress, \"caller must be system loans contract\");\n        require(priceFeedMap[_priceFeedAddress].isPriceFeed, \"_priceFeedAddress sholuld be a valid price feed\");\n        priceFeedMap[_priceFeedAddress].totalDownVote -= _value;\n    }\n\n    function getInstantRate() public returns (uint256) {\n        require(msg.sender == systemLoansAddress, \"caller must be system loans contract\");\n        return priceFeed_latestInstantPrice.medianEthRate;\n    }\n\n    function swapFeedStates(uint32 listIndex, uint32 index) private {\n        emit ConsoleLog(\">swapFeedStates listIndex index\");\n        emit ConsoleLog(uint2str(uint256(listIndex)));\n        emit ConsoleLog(uint2str(uint256(index)));\n        require(priceFeedStateLists[index][listIndex].priceFeedAddress != address(0), \"swapped feed state i cannot be empty\");\n        require(priceFeedStateLists[index-1][listIndex].priceFeedAddress != address(0), \"swapped feed state i-1 cannot be empty\");\n\n        // Swap feed state structs\n        PriceFeedState memory currentFeedState = priceFeedStateLists[index][listIndex];\n        priceFeedStateLists[index][listIndex] = priceFeedStateLists[index - 1][listIndex];\n        priceFeedStateLists[index - 1][listIndex] = currentFeedState;\n\n        // Update price feed map initialized index\n        priceFeedMap[priceFeedStateLists[index][listIndex].priceFeedAddress].initializedStateIndex = int32(index);\n        priceFeedMap[priceFeedStateLists[index - 1][listIndex].priceFeedAddress].initializedStateIndex = int32(index - 1);\n    }\n\n    PriceFeed.InstantPrice[HIGH_TRUST_FEED_COUNT] public priceFeed_latestInstantPrices;\n    PriceFeed.InstantPrice public priceFeed_latestInstantPrice;\n\n    function postInstantPrice(PriceFeed.InstantPrice memory _instantPrice) public {\n        require(priceFeedMap[msg.sender].isPriceFeed, \"sender should be valid price feed contract\");\n        priceFeed_latestInstantPrice = _instantPrice;\n    }\n\n    /// @dev Used for debugging\n    uint public flippedState;\n    function flipState() public {\n        emit ConsoleLog(\">SystemFeeds.flipState\");\n        flippedState++;\n        // if(flippedState % 2 == 0) {\n    }\n\n    /// @dev Used for debugging\n    function add2str(address x) public pure returns (string memory str) {\n        bytes memory s = new bytes(40);\n        for (uint i = 0; i < 20; i++) {\n            byte b = byte(uint8(uint(x) / (2**(8*(19 - i)))));\n            byte hi = byte(uint8(b) / 16);\n            byte lo = byte(uint8(b) - 16 * uint8(hi));\n            s[2*i] = char(hi);\n            s[2*i+1] = char(lo);\n        }\n        return string(s);\n    }\n\n    /// @dev Used for debugging\n    function char(byte b) public pure returns (byte c) {\n        if (uint8(b) < 10) return byte(uint8(b) + 0x30);\n        else return byte(uint8(b) + 0x57);\n    }\n\n    /// @dev Used for debugging\n    function uint2str(uint value) public pure returns (string memory str) {\n        uint i = value;\n        if (i == 0) return \"0\";\n        uint j = i;\n        uint len;\n        while (j != 0){\n            len++;\n            j /= 10;\n        }\n        bytes memory bstr = new bytes(len);\n        uint k = len - 1;\n        while (i != 0){\n            bstr[k--] = byte(uint8(48 + i % 10));\n            i /= 10;\n        }\n        return string(bstr);\n    }\n\n    /// @dev Used for debugging\n    event ConsoleLog(string message);\n}",
  "sourcePath": "/Users/nimakamoosi/repos/nimakam-private/stable-coin/ethereum/contracts/SystemFeeds.sol",
  "compiler": {
    "name": "solc",
    "version": "0.5.12+commit.7709ece9.Emscripten.clang"
  },
  "schemaVersion": "3.0.19",
  "updatedAt": "2020-01-09T23:54:50.746Z",
  "devdoc": {
    "methods": {
      "add2str(address)": {
        "details": "Used for debugging"
      },
      "char(bytes1)": {
        "details": "Used for debugging"
      },
      "uint2str(uint256)": {
        "details": "Used for debugging"
      }
    }
  },
  "userdoc": {
    "methods": {}
  }
}