{
  "contractName": "SystemLoans",
  "abi": [
    {
      "inputs": [
        {
          "internalType": "address",
          "name": "_peggedTokenAddress",
          "type": "address"
        },
        {
          "internalType": "address",
          "name": "_systemAddress",
          "type": "address"
        },
        {
          "internalType": "address",
          "name": "_systemFeedsAddress",
          "type": "address"
        },
        {
          "internalType": "address",
          "name": "_systemSavingsAddress",
          "type": "address"
        }
      ],
      "payable": false,
      "stateMutability": "nonpayable",
      "type": "constructor"
    },
    {
      "anonymous": false,
      "inputs": [
        {
          "indexed": false,
          "internalType": "string",
          "name": "message",
          "type": "string"
        }
      ],
      "name": "ConsoleLog",
      "type": "event"
    },
    {
      "anonymous": false,
      "inputs": [
        {
          "indexed": false,
          "internalType": "uint256",
          "name": "number",
          "type": "uint256"
        }
      ],
      "name": "ConsoleLogNumber",
      "type": "event"
    },
    {
      "constant": true,
      "inputs": [],
      "name": "LOAN_ALLOCATION_100_PERCENT",
      "outputs": [
        {
          "internalType": "uint32",
          "name": "",
          "type": "uint32"
        }
      ],
      "payable": false,
      "stateMutability": "view",
      "type": "function"
    },
    {
      "constant": true,
      "inputs": [],
      "name": "LOAN_LEVERAGE_THRESHOLD_PERCENT",
      "outputs": [
        {
          "internalType": "uint32",
          "name": "",
          "type": "uint32"
        }
      ],
      "payable": false,
      "stateMutability": "view",
      "type": "function"
    },
    {
      "constant": true,
      "inputs": [],
      "name": "LOAN_MAX_ALLOCATIONS",
      "outputs": [
        {
          "internalType": "uint32",
          "name": "",
          "type": "uint32"
        }
      ],
      "payable": false,
      "stateMutability": "view",
      "type": "function"
    },
    {
      "constant": true,
      "inputs": [],
      "name": "PRICE_DECIMALS",
      "outputs": [
        {
          "internalType": "uint256",
          "name": "",
          "type": "uint256"
        }
      ],
      "payable": false,
      "stateMutability": "view",
      "type": "function"
    },
    {
      "constant": true,
      "inputs": [],
      "name": "depositTotal",
      "outputs": [
        {
          "internalType": "uint256",
          "name": "",
          "type": "uint256"
        }
      ],
      "payable": false,
      "stateMutability": "view",
      "type": "function"
    },
    {
      "constant": true,
      "inputs": [],
      "name": "issuanceTotal",
      "outputs": [
        {
          "internalType": "uint256",
          "name": "",
          "type": "uint256"
        }
      ],
      "payable": false,
      "stateMutability": "view",
      "type": "function"
    },
    {
      "constant": true,
      "inputs": [],
      "name": "lastNewAddress",
      "outputs": [
        {
          "internalType": "address",
          "name": "",
          "type": "address"
        }
      ],
      "payable": false,
      "stateMutability": "view",
      "type": "function"
    },
    {
      "constant": true,
      "inputs": [
        {
          "internalType": "address",
          "name": "",
          "type": "address"
        }
      ],
      "name": "loanMap",
      "outputs": [
        {
          "internalType": "bool",
          "name": "",
          "type": "bool"
        }
      ],
      "payable": false,
      "stateMutability": "view",
      "type": "function"
    },
    {
      "constant": true,
      "inputs": [],
      "name": "loan_fee",
      "outputs": [
        {
          "internalType": "uint256",
          "name": "",
          "type": "uint256"
        }
      ],
      "payable": false,
      "stateMutability": "view",
      "type": "function"
    },
    {
      "constant": true,
      "inputs": [],
      "name": "loan_ratio",
      "outputs": [
        {
          "internalType": "uint256",
          "name": "",
          "type": "uint256"
        }
      ],
      "payable": false,
      "stateMutability": "view",
      "type": "function"
    },
    {
      "constant": true,
      "inputs": [],
      "name": "peggedToken",
      "outputs": [
        {
          "internalType": "contract PeggedToken",
          "name": "",
          "type": "address"
        }
      ],
      "payable": false,
      "stateMutability": "view",
      "type": "function"
    },
    {
      "constant": true,
      "inputs": [],
      "name": "system",
      "outputs": [
        {
          "internalType": "contract System",
          "name": "",
          "type": "address"
        }
      ],
      "payable": false,
      "stateMutability": "view",
      "type": "function"
    },
    {
      "constant": true,
      "inputs": [],
      "name": "systemFeeds",
      "outputs": [
        {
          "internalType": "contract SystemFeeds",
          "name": "",
          "type": "address"
        }
      ],
      "payable": false,
      "stateMutability": "view",
      "type": "function"
    },
    {
      "constant": true,
      "inputs": [],
      "name": "systemSavings",
      "outputs": [
        {
          "internalType": "contract SystemSavings",
          "name": "",
          "type": "address"
        }
      ],
      "payable": false,
      "stateMutability": "view",
      "type": "function"
    },
    {
      "constant": false,
      "inputs": [],
      "name": "createLoan",
      "outputs": [
        {
          "internalType": "address",
          "name": "",
          "type": "address"
        }
      ],
      "payable": false,
      "stateMutability": "nonpayable",
      "type": "function"
    },
    {
      "constant": false,
      "inputs": [
        {
          "internalType": "uint256",
          "name": "_oldDepositValue",
          "type": "uint256"
        },
        {
          "internalType": "uint256",
          "name": "_newDepositValue",
          "type": "uint256"
        },
        {
          "internalType": "uint256",
          "name": "_currentIssuance",
          "type": "uint256"
        },
        {
          "components": [
            {
              "internalType": "address",
              "name": "priceFeedAddress",
              "type": "address"
            },
            {
              "internalType": "uint32",
              "name": "percentAllocation",
              "type": "uint32"
            },
            {
              "internalType": "bool",
              "name": "isAllocation",
              "type": "bool"
            }
          ],
          "internalType": "struct Loan.PriceFeedAllocation[5]",
          "name": "_priceFeedAllocations",
          "type": "tuple[5]"
        }
      ],
      "name": "changeDepositEth",
      "outputs": [],
      "payable": false,
      "stateMutability": "nonpayable",
      "type": "function"
    },
    {
      "constant": false,
      "inputs": [
        {
          "components": [
            {
              "internalType": "address",
              "name": "priceFeedAddress",
              "type": "address"
            },
            {
              "internalType": "uint32",
              "name": "percentAllocation",
              "type": "uint32"
            },
            {
              "internalType": "bool",
              "name": "isAllocation",
              "type": "bool"
            }
          ],
          "internalType": "struct Loan.PriceFeedAllocation[5]",
          "name": "_oldPriceFeedAllocations",
          "type": "tuple[5]"
        },
        {
          "components": [
            {
              "internalType": "address",
              "name": "priceFeedAddress",
              "type": "address"
            },
            {
              "internalType": "uint32",
              "name": "percentAllocation",
              "type": "uint32"
            },
            {
              "internalType": "bool",
              "name": "isAllocation",
              "type": "bool"
            }
          ],
          "internalType": "struct Loan.PriceFeedAllocation[5]",
          "name": "_newPriceFeedAllocations",
          "type": "tuple[5]"
        },
        {
          "internalType": "uint256",
          "name": "_currentIssuance",
          "type": "uint256"
        }
      ],
      "name": "changeAllocation",
      "outputs": [],
      "payable": false,
      "stateMutability": "nonpayable",
      "type": "function"
    },
    {
      "constant": false,
      "inputs": [
        {
          "internalType": "uint256",
          "name": "_currentIssuance",
          "type": "uint256"
        },
        {
          "internalType": "uint256",
          "name": "_newIssuance",
          "type": "uint256"
        },
        {
          "internalType": "uint256",
          "name": "ethBalance",
          "type": "uint256"
        },
        {
          "components": [
            {
              "internalType": "address",
              "name": "priceFeedAddress",
              "type": "address"
            },
            {
              "internalType": "uint32",
              "name": "percentAllocation",
              "type": "uint32"
            },
            {
              "internalType": "bool",
              "name": "isAllocation",
              "type": "bool"
            }
          ],
          "internalType": "struct Loan.PriceFeedAllocation[5]",
          "name": "_priceFeedAllocations",
          "type": "tuple[5]"
        },
        {
          "internalType": "bool",
          "name": "isReturn",
          "type": "bool"
        }
      ],
      "name": "changeCurrencyIssuance",
      "outputs": [],
      "payable": false,
      "stateMutability": "nonpayable",
      "type": "function"
    },
    {
      "constant": false,
      "inputs": [
        {
          "internalType": "address",
          "name": "_withdrawToAddress",
          "type": "address"
        },
        {
          "internalType": "uint256",
          "name": "_withdrawValue",
          "type": "uint256"
        }
      ],
      "name": "withdrawCurrency",
      "outputs": [],
      "payable": false,
      "stateMutability": "nonpayable",
      "type": "function"
    },
    {
      "constant": false,
      "inputs": [
        {
          "internalType": "uint256",
          "name": "_feeValue",
          "type": "uint256"
        },
        {
          "components": [
            {
              "internalType": "address",
              "name": "priceFeedAddress",
              "type": "address"
            },
            {
              "internalType": "uint32",
              "name": "percentAllocation",
              "type": "uint32"
            },
            {
              "internalType": "bool",
              "name": "isAllocation",
              "type": "bool"
            }
          ],
          "internalType": "struct Loan.PriceFeedAllocation[5]",
          "name": "_priceFeedAllocations",
          "type": "tuple[5]"
        }
      ],
      "name": "payLoanFee",
      "outputs": [],
      "payable": false,
      "stateMutability": "nonpayable",
      "type": "function"
    },
    {
      "constant": true,
      "inputs": [
        {
          "internalType": "uint256",
          "name": "value",
          "type": "uint256"
        }
      ],
      "name": "uint2str",
      "outputs": [
        {
          "internalType": "string",
          "name": "str",
          "type": "string"
        }
      ],
      "payable": false,
      "stateMutability": "pure",
      "type": "function"
    }
  ],
  "bytecode": "0x60806040523480156200001157600080fd5b50604051620062bc380380620062bc833981810160405262000037919081019062000327565b600073ffffffffffffffffffffffffffffffffffffffff168473ffffffffffffffffffffffffffffffffffffffff161415620000aa576040517f08c379a0000000000000000000000000000000000000000000000000000000008152600401620000a19062000573565b60405180910390fd5b600073ffffffffffffffffffffffffffffffffffffffff168373ffffffffffffffffffffffffffffffffffffffff1614156200011d576040517f08c379a0000000000000000000000000000000000000000000000000000000008152600401620001149062000551565b60405180910390fd5b600073ffffffffffffffffffffffffffffffffffffffff168273ffffffffffffffffffffffffffffffffffffffff16141562000190576040517f08c379a000000000000000000000000000000000000000000000000000000000815260040162000187906200052f565b60405180910390fd5b600073ffffffffffffffffffffffffffffffffffffffff168173ffffffffffffffffffffffffffffffffffffffff16141562000203576040517f08c379a0000000000000000000000000000000000000000000000000000000008152600401620001fa906200050d565b60405180910390fd5b83600160006101000a81548173ffffffffffffffffffffffffffffffffffffffff021916908373ffffffffffffffffffffffffffffffffffffffff160217905550826000806101000a81548173ffffffffffffffffffffffffffffffffffffffff021916908373ffffffffffffffffffffffffffffffffffffffff16021790555081600260006101000a81548173ffffffffffffffffffffffffffffffffffffffff021916908373ffffffffffffffffffffffffffffffffffffffff16021790555080600360006101000a81548173ffffffffffffffffffffffffffffffffffffffff021916908373ffffffffffffffffffffffffffffffffffffffff16021790555050505050620005f4565b6000815190506200032181620005da565b92915050565b600080600080608085870312156200033e57600080fd5b60006200034e8782880162000310565b9450506020620003618782880162000310565b9350506040620003748782880162000310565b9250506060620003878782880162000310565b91505092959194509250565b6000620003a260258362000595565b91507f5f73797374656d536176696e6773416464726573732073686f756c64206e6f7460008301527f20626520300000000000000000000000000000000000000000000000000000006020830152604082019050919050565b60006200040a60238362000595565b91507f5f73797374656d4665656473416464726573732073686f756c64206e6f74206260008301527f65203000000000000000000000000000000000000000000000000000000000006020830152604082019050919050565b600062000472601e8362000595565b91507f5f73797374656d416464726573732073686f756c64206e6f74206265203000006000830152602082019050919050565b6000620004b460238362000595565b91507f5f706567676564546f6b656e416464726573732073686f756c64206e6f74206260008301527f65203000000000000000000000000000000000000000000000000000000000006020830152604082019050919050565b60006020820190508181036000830152620005288162000393565b9050919050565b600060208201905081810360008301526200054a81620003fb565b9050919050565b600060208201905081810360008301526200056c8162000463565b9050919050565b600060208201905081810360008301526200058e81620004a5565b9050919050565b600082825260208201905092915050565b6000620005b382620005ba565b9050919050565b600073ffffffffffffffffffffffffffffffffffffffff82169050919050565b620005e581620005a6565b8114620005f157600080fd5b50565b615cb880620006046000396000f3fe60806040523480156200001157600080fd5b5060043610620001535760003560e01c8063745b824811620000c9578063b9ba934c1162000087578063b9ba934c1462000364578063f1a640f81462000386578063f76f950e14620003a8578063f890371814620003de578063fa22570c14620003fe578063fb9883cb14620004205762000153565b8063745b824814620002bc5780637f9b1adf14620002dc578063826d795114620002fe57806395bf75fd14620003205780639f93badb14620003425762000153565b80634f5114bb11620001175780634f5114bb146200020057806362c1e542146200022257806365ec1a4514620002445780636bc7cd3b14620002665780636fb145d214620002865762000153565b8062e77aa61462000158578063085b7c91146200017a57806311adaeee146200019c57806319d51d8914620001bc5780634adae0da14620001de575b600080fd5b6200016262000440565b60405162000171919062002aaf565b60405180910390f35b6200018462000466565b60405162000193919062002ae9565b60405180910390f35b620001ba6004803603620001b49190810190620022d6565b6200048c565b005b620001c6620007f0565b604051620001d5919062002acc565b60405180910390f35b620001e862000816565b604051620001f7919062002c9b565b60405180910390f35b6200020a6200081c565b60405162000219919062002c9b565b60405180910390f35b6200022c62000822565b6040516200023b919062002cb8565b60405180910390f35b6200024e62000827565b6040516200025d919062002983565b60405180910390f35b6200028460048036036200027e919081019062002135565b62000990565b005b620002a460048036036200029e9190810190620020c8565b62000dd5565b604051620002b3919062002a92565b60405180910390f35b620002da6004803603620002d4919081019062002343565b62000df5565b005b620002e6620017a4565b604051620002f5919062002cb8565b60405180910390f35b62000308620017a9565b60405162000317919062002c9b565b60405180910390f35b6200032a620017af565b60405162000339919062002b06565b60405180910390f35b6200034c620017d4565b6040516200035b919062002983565b60405180910390f35b6200036e620017fa565b6040516200037d919062002cb8565b60405180910390f35b62000390620017ff565b6040516200039f919062002c9b565b60405180910390f35b620003c66004803603620003c091908101906200223c565b62001804565b604051620003d5919062002b23565b60405180910390f35b620003fc6004803603620003f6919081019062002294565b62001943565b005b6200040862001e82565b60405162000417919062002c9b565b60405180910390f35b6200043e6004803603620004389190810190620020f4565b62001e88565b005b600160009054906101000a900473ffffffffffffffffffffffffffffffffffffffff1681565b600360009054906101000a900473ffffffffffffffffffffffffffffffffffffffff1681565b600960003373ffffffffffffffffffffffffffffffffffffffff1673ffffffffffffffffffffffffffffffffffffffff16815260200190815260200160002060009054906101000a900460ff166200051b576040517f08c379a0000000000000000000000000000000000000000000000000000000008152600401620005129062002c35565b60405180910390fd5b6000806000809054906101000a900473ffffffffffffffffffffffffffffffffffffffff1673ffffffffffffffffffffffffffffffffffffffff1663e237ea606040518163ffffffff1660e01b8152600401604080518083038186803b1580156200058557600080fd5b505afa1580156200059a573d6000803e3d6000fd5b505050506040513d601f19601f82011682018060405250620005c09190810190620021fb565b91509150816004811115620005d157fe5b60016004811115620005df57fe5b141562000774576000806000809054906101000a900473ffffffffffffffffffffffffffffffffffffffff1673ffffffffffffffffffffffffffffffffffffffff1663ea6375906040518163ffffffff1660e01b81526004016040805180830381600087803b1580156200065257600080fd5b505af115801562000667573d6000803e3d6000fd5b505050506040513d601f19601f820116820180604052506200068d9190810190620021ba565b915091508160048111156200069e57fe5b600480811115620006ab57fe5b14156200076d57600260009054906101000a900473ffffffffffffffffffffffffffffffffffffffff1673ffffffffffffffffffffffffffffffffffffffff1663a2e89371866040518263ffffffff1660e01b81526004016200070f919062002a74565b602060405180830381600087803b1580156200072a57600080fd5b505af11580156200073f573d6000803e3d6000fd5b505050506040513d601f19601f8201168201806040525062000765919081019062002268565b925062000771565b8092505b50505b6064818602026012600a0a60968602021115620007c8576040517f08c379a0000000000000000000000000000000000000000000000000000000008152600401620007bf9062002b8b565b60405180910390fd5b8460066000828254019250508190555085600660008282540392505081905550505050505050565b600260009054906101000a900473ffffffffffffffffffffffffffffffffffffffff1681565b60065481565b60045481565b606481565b600080336000809054906101000a900473ffffffffffffffffffffffffffffffffffffffff16600160009054906101000a900473ffffffffffffffffffffffffffffffffffffffff166040516200087e9062001f1b565b6200088c93929190620029a0565b604051809103906000f080158015620008a9573d6000803e3d6000fd5b50905080600860006101000a81548173ffffffffffffffffffffffffffffffffffffffff021916908373ffffffffffffffffffffffffffffffffffffffff160217905550600160096000600860009054906101000a900473ffffffffffffffffffffffffffffffffffffffff1673ffffffffffffffffffffffffffffffffffffffff1673ffffffffffffffffffffffffffffffffffffffff16815260200190815260200160002060006101000a81548160ff021916908315150217905550600860009054906101000a900473ffffffffffffffffffffffffffffffffffffffff1691505090565b60008090505b600160050363ffffffff1681101562000dcf57838160058110620009b657fe5b6020020151604001511562000bb557600260009054906101000a900473ffffffffffffffffffffffffffffffffffffffff1673ffffffffffffffffffffffffffffffffffffffff166357a94beb85836005811062000a1057fe5b6020020151600001516040518263ffffffff1660e01b815260040162000a37919062002983565b602060405180830381600087803b15801562000a5257600080fd5b505af115801562000a67573d6000803e3d6000fd5b505050506040513d601f19601f8201168201806040525062000a8d91908101906200218e565b62000acf576040517f08c379a000000000000000000000000000000000000000000000000000000000815260040162000ac69062002c79565b60405180910390fd5b600084826005811062000ade57fe5b6020020151600001519050600085836005811062000af857fe5b6020020151602001519050600260009054906101000a900473ffffffffffffffffffffffffffffffffffffffff1673ffffffffffffffffffffffffffffffffffffffff16630794003a83606463ffffffff16878563ffffffff16028162000b5b57fe5b0460016040518463ffffffff1660e01b815260040162000b7e9392919062002a37565b600060405180830381600087803b15801562000b9957600080fd5b505af115801562000bae573d6000803e3d6000fd5b5050505050505b82816005811062000bc257fe5b6020020151604001511562000dc157600260009054906101000a900473ffffffffffffffffffffffffffffffffffffffff1673ffffffffffffffffffffffffffffffffffffffff166357a94beb84836005811062000c1c57fe5b6020020151600001516040518263ffffffff1660e01b815260040162000c43919062002983565b602060405180830381600087803b15801562000c5e57600080fd5b505af115801562000c73573d6000803e3d6000fd5b505050506040513d601f19601f8201168201806040525062000c9991908101906200218e565b62000cdb576040517f08c379a000000000000000000000000000000000000000000000000000000000815260040162000cd29062002c79565b60405180910390fd5b600083826005811062000cea57fe5b6020020151600001519050600084836005811062000d0457fe5b6020020151602001519050600260009054906101000a900473ffffffffffffffffffffffffffffffffffffffff1673ffffffffffffffffffffffffffffffffffffffff16630794003a83606463ffffffff16878563ffffffff16028162000d6757fe5b0460006040518463ffffffff1660e01b815260040162000d8a9392919062002a37565b600060405180830381600087803b15801562000da557600080fd5b505af115801562000dba573d6000803e3d6000fd5b5050505050505b808060010191505062000996565b50505050565b60096020528060005260406000206000915054906101000a900460ff1681565b600960003373ffffffffffffffffffffffffffffffffffffffff1673ffffffffffffffffffffffffffffffffffffffff16815260200190815260200160002060009054906101000a900460ff1662000e84576040517f08c379a000000000000000000000000000000000000000000000000000000000815260040162000e7b9062002c35565b60405180910390fd5b6000806000809054906101000a900473ffffffffffffffffffffffffffffffffffffffff1673ffffffffffffffffffffffffffffffffffffffff1663e237ea606040518163ffffffff1660e01b8152600401604080518083038186803b15801562000eee57600080fd5b505afa15801562000f03573d6000803e3d6000fd5b505050506040513d601f19601f8201168201806040525062000f299190810190620021fb565b915091507f0f8db0708c4e6b233e2c285fe1ed66015dee71bd374ac8e835534be5f592d6a260405162000f5c9062002bcf565b60405180910390a17fc5e7336b6af56c0d5886a6770a98ad781a55197d13051b6c60663e75ab59c74282600481111562000f9257fe5b60405162000fa1919062002c9b565b60405180910390a181600481111562000fb657fe5b6001600481111562000fc457fe5b141562001159576000806000809054906101000a900473ffffffffffffffffffffffffffffffffffffffff1673ffffffffffffffffffffffffffffffffffffffff1663ea6375906040518163ffffffff1660e01b81526004016040805180830381600087803b1580156200103757600080fd5b505af11580156200104c573d6000803e3d6000fd5b505050506040513d601f19601f82011682018060405250620010729190810190620021ba565b915091508160048111156200108357fe5b6004808111156200109057fe5b14156200115257600260009054906101000a900473ffffffffffffffffffffffffffffffffffffffff1673ffffffffffffffffffffffffffffffffffffffff1663a2e89371876040518263ffffffff1660e01b8152600401620010f4919062002a74565b602060405180830381600087803b1580156200110f57600080fd5b505af115801562001124573d6000803e3d6000fd5b505050506040513d601f19601f820116820180604052506200114a919081019062002268565b925062001156565b8092505b50505b7f0f8db0708c4e6b233e2c285fe1ed66015dee71bd374ac8e835534be5f592d6a2604051620011889062002c13565b60405180910390a17fc5e7336b6af56c0d5886a6770a98ad781a55197d13051b6c60663e75ab59c74281604051620011c1919062002c9b565b60405180910390a17fc5e7336b6af56c0d5886a6770a98ad781a55197d13051b6c60663e75ab59c74286604051620011fa919062002c9b565b60405180910390a17fc5e7336b6af56c0d5886a6770a98ad781a55197d13051b6c60663e75ab59c7428560405162001233919062002c9b565b60405180910390a1600081141562001282576040517f08c379a0000000000000000000000000000000000000000000000000000000008152600401620012799062002c57565b60405180910390fd5b6064818602026012600a0a60968802021115620012d6576040517f08c379a0000000000000000000000000000000000000000000000000000000008152600401620012cd9062002bf1565b60405180910390fd5b60008090505b600160050363ffffffff16811015620015b857848160058110620012fc57fe5b60200201516040015115620015aa57600260009054906101000a900473ffffffffffffffffffffffffffffffffffffffff1673ffffffffffffffffffffffffffffffffffffffff166357a94beb8683600581106200135657fe5b6020020151600001516040518263ffffffff1660e01b81526004016200137d919062002983565b602060405180830381600087803b1580156200139857600080fd5b505af1158015620013ad573d6000803e3d6000fd5b505050506040513d601f19601f82011682018060405250620013d391908101906200218e565b62001415576040517f08c379a00000000000000000000000000000000000000000000000000000000081526004016200140c9062002c79565b60405180910390fd5b60008582600581106200142457fe5b602002015160000151905060008683600581106200143e57fe5b6020020151602001519050600260009054906101000a900473ffffffffffffffffffffffffffffffffffffffff1673ffffffffffffffffffffffffffffffffffffffff16630794003a83606463ffffffff168d8563ffffffff160281620014a157fe5b0460016040518463ffffffff1660e01b8152600401620014c49392919062002a37565b600060405180830381600087803b158015620014df57600080fd5b505af1158015620014f4573d6000803e3d6000fd5b50505050600260009054906101000a900473ffffffffffffffffffffffffffffffffffffffff1673ffffffffffffffffffffffffffffffffffffffff16630794003a83606463ffffffff168c8563ffffffff1602816200155057fe5b0460006040518463ffffffff1660e01b8152600401620015739392919062002a37565b600060405180830381600087803b1580156200158e57600080fd5b505af1158015620015a3573d6000803e3d6000fd5b5050505050505b8080600101915050620012dc565b508215620016a05785871162001605576040517f08c379a0000000000000000000000000000000000000000000000000000000008152600401620015fc9062002bad565b60405180910390fd5b600160009054906101000a900473ffffffffffffffffffffffffffffffffffffffff1673ffffffffffffffffffffffffffffffffffffffff16639dc29fac33888a036040518363ffffffff1660e01b815260040162001666929190620029dd565b600060405180830381600087803b1580156200168157600080fd5b505af115801562001696573d6000803e3d6000fd5b505050506200177b565b868611620016e5576040517f08c379a0000000000000000000000000000000000000000000000000000000008152600401620016dc9062002b69565b60405180910390fd5b600160009054906101000a900473ffffffffffffffffffffffffffffffffffffffff1673ffffffffffffffffffffffffffffffffffffffff166340c10f19338989036040518363ffffffff1660e01b815260040162001746929190620029dd565b600060405180830381600087803b1580156200176157600080fd5b505af115801562001776573d6000803e3d6000fd5b505050505b866007600082825403925050819055508560076000828254019250508190555050505050505050565b600581565b60055481565b6000809054906101000a900473ffffffffffffffffffffffffffffffffffffffff1681565b600860009054906101000a900473ffffffffffffffffffffffffffffffffffffffff1681565b609681565b601281565b60606000829050600081141562001854576040518060400160405280600181526020017f30000000000000000000000000000000000000000000000000000000000000008152509150506200193e565b600081905060005b6000821462001881578080600101915050600a82816200187857fe5b0491506200185c565b6060816040519080825280601f01601f191660200182016040528015620018b75781602001600182028038833980820191505090505b50905060006001830390505b600085146200193557600a8581620018d757fe5b0660300160f81b82828060019003935081518110620018f257fe5b60200101907effffffffffffffffffffffffffffffffffffffffffffffffffffffffffffff1916908160001a905350600a85816200192c57fe5b049450620018c3565b81955050505050505b919050565b600960003373ffffffffffffffffffffffffffffffffffffffff1673ffffffffffffffffffffffffffffffffffffffff16815260200190815260200160002060009054906101000a900460ff16620019d2576040517f08c379a0000000000000000000000000000000000000000000000000000000008152600401620019c99062002b47565b60405180910390fd5b600082905060008090505b600160050363ffffffff1681101562001d1357828160058110620019fd57fe5b6020020151604001511562001d0557600083826005811062001a1b57fe5b60200201516020015163ffffffff161462001d0457600260009054906101000a900473ffffffffffffffffffffffffffffffffffffffff1673ffffffffffffffffffffffffffffffffffffffff166357a94beb84836005811062001a7b57fe5b6020020151600001516040518263ffffffff1660e01b815260040162001aa2919062002983565b602060405180830381600087803b15801562001abd57600080fd5b505af115801562001ad2573d6000803e3d6000fd5b505050506040513d601f19601f8201168201806040525062001af891908101906200218e565b62001b3a576040517f08c379a000000000000000000000000000000000000000000000000000000000815260040162001b319062002c79565b60405180910390fd5b600083826005811062001b4957fe5b6020020151600001519050600084836005811062001b6357fe5b602002015160200151905060006064808363ffffffff1689028162001b8457fe5b048162001b8d57fe5b0490508085039450600160009054906101000a900473ffffffffffffffffffffffffffffffffffffffff1673ffffffffffffffffffffffffffffffffffffffff1663a9059cbb600260009054906101000a900473ffffffffffffffffffffffffffffffffffffffff16836040518363ffffffff1660e01b815260040162001c1692919062002a0a565b602060405180830381600087803b15801562001c3157600080fd5b505af115801562001c46573d6000803e3d6000fd5b505050506040513d601f19601f8201168201806040525062001c6c91908101906200218e565b50600260009054906101000a900473ffffffffffffffffffffffffffffffffffffffff1673ffffffffffffffffffffffffffffffffffffffff16634110734f84836040518363ffffffff1660e01b815260040162001ccc92919062002a0a565b600060405180830381600087803b15801562001ce757600080fd5b505af115801562001cfc573d6000803e3d6000fd5b505050505050505b5b8080600101915050620019dd565b50600160009054906101000a900473ffffffffffffffffffffffffffffffffffffffff1673ffffffffffffffffffffffffffffffffffffffff1663a9059cbb600360009054906101000a900473ffffffffffffffffffffffffffffffffffffffff16836040518363ffffffff1660e01b815260040162001d9592919062002a0a565b602060405180830381600087803b15801562001db057600080fd5b505af115801562001dc5573d6000803e3d6000fd5b505050506040513d601f19601f8201168201806040525062001deb91908101906200218e565b50600360009054906101000a900473ffffffffffffffffffffffffffffffffffffffff1673ffffffffffffffffffffffffffffffffffffffff166374c4a92d826040518263ffffffff1660e01b815260040162001e49919062002c9b565b600060405180830381600087803b15801562001e6457600080fd5b505af115801562001e79573d6000803e3d6000fd5b50505050505050565b60075481565b600960003373ffffffffffffffffffffffffffffffffffffffff1673ffffffffffffffffffffffffffffffffffffffff16815260200190815260200160002060009054906101000a900460ff1662001f17576040517f08c379a000000000000000000000000000000000000000000000000000000000815260040162001f0e9062002b47565b60405180910390fd5b5050565b612cff8062002f7783390190565b60008135905062001f3a8162002eec565b92915050565b600082601f83011262001f5257600080fd5b600562001f6962001f638262002d03565b62002cd5565b9150818385606084028201111562001f8057600080fd5b60005b8381101562001fb4578162001f9988826200201a565b84526020840193506060830192505060018101905062001f83565b5050505092915050565b60008135905062001fcf8162002f06565b92915050565b60008151905062001fe68162002f06565b92915050565b60008151905062001ffd8162002f20565b92915050565b600081519050620020148162002f31565b92915050565b6000606082840312156200202d57600080fd5b62002039606062002cd5565b905060006200204b8482850162001f29565b60008301525060206200206184828501620020b1565b6020830152506040620020778482850162001fbe565b60408301525092915050565b600081359050620020948162002f42565b92915050565b600081519050620020ab8162002f42565b92915050565b600081359050620020c28162002f5c565b92915050565b600060208284031215620020db57600080fd5b6000620020eb8482850162001f29565b91505092915050565b600080604083850312156200210857600080fd5b6000620021188582860162001f29565b92505060206200212b8582860162002083565b9150509250929050565b60008060006103e084860312156200214c57600080fd5b60006200215c8682870162001f40565b9350506101e0620021708682870162001f40565b9250506103c0620021848682870162002083565b9150509250925092565b600060208284031215620021a157600080fd5b6000620021b18482850162001fd5565b91505092915050565b60008060408385031215620021ce57600080fd5b6000620021de8582860162001fec565b9250506020620021f1858286016200209a565b9150509250929050565b600080604083850312156200220f57600080fd5b60006200221f8582860162002003565b925050602062002232858286016200209a565b9150509250929050565b6000602082840312156200224f57600080fd5b60006200225f8482850162002083565b91505092915050565b6000602082840312156200227b57600080fd5b60006200228b848285016200209a565b91505092915050565b6000806102008385031215620022a957600080fd5b6000620022b98582860162002083565b9250506020620022cc8582860162001f40565b9150509250929050565b6000806000806102408587031215620022ee57600080fd5b6000620022fe8782880162002083565b9450506020620023118782880162002083565b9350506040620023248782880162002083565b9250506060620023378782880162001f40565b91505092959194509250565b600080600080600061026086880312156200235d57600080fd5b60006200236d8882890162002083565b9550506020620023808882890162002083565b9450506040620023938882890162002083565b9350506060620023a68882890162001f40565b925050610240620023ba8882890162001fbe565b9150509295509295909350565b6000620023d5838362002908565b60608301905092915050565b620023ec8162002dc9565b82525050565b620023fd8162002d6f565b82525050565b6200240e8162002d6f565b82525050565b6200241f8162002d30565b6200242b818462002d53565b9250620024388262002d26565b8060005b838110156200246f578151620024538782620023c7565b9650620024608362002d46565b9250506001810190506200243c565b505050505050565b620024828162002d83565b82525050565b620024938162002d83565b82525050565b620024a48162002ddd565b82525050565b620024b58162002e05565b82525050565b620024c68162002e2d565b82525050565b620024d78162002e55565b82525050565b6000620024ea8262002d3b565b620024f6818562002d5e565b93506200250881856020860162002ea5565b620025138162002edb565b840191505092915050565b60006200252d60248362002d5e565b91507f73656e6465722073686f756c642062652076616c6964206c6f616e20636f6e7460008301527f72616374000000000000000000000000000000000000000000000000000000006020830152604082019050919050565b60006200259560328362002d5e565b91507f6973737565206375727272656e6379206f7065726174696f6e2073686f756c6460008301527f20696e6372656173652069737375616e636500000000000000000000000000006020830152604082019050919050565b6000620025fd60268362002d5e565b91507f7769746864726177616c2073686f756c64206e6f74206578636565642074687260008301527f6573686f6c6400000000000000000000000000000000000000000000000000006020830152604082019050919050565b60006200266560318362002d5e565b91507f72657475726e206375727272656e6379206f7065726174696f6e2073686f756c60008301527f64207265647563652069737375616e63650000000000000000000000000000006020830152604082019050919050565b6000620026cd603e8362002d5e565b91507f3e53797374656d4c6f616e732e6368616e676543757272656e6379497373756160008301527f6e636520696e7374616e7450726963655265706f7274696e67537461746500006020830152604082019050919050565b60006200273560248362002d5e565b91507f69737375616e63652073686f756c64206e6f742065786365656420746872657360008301527f686f6c64000000000000000000000000000000000000000000000000000000006020830152604082019050919050565b60006200279d60418362002d5e565b91507f3e53797374656d4c6f616e732e6368616e676543757272656e6379497373756160008301527f6e6365207072696365205f6e657749737375616e63652065746842616c616e6360208301527f65000000000000000000000000000000000000000000000000000000000000006040830152606082019050919050565b60006200282b601e8362002d5e565b91507f73656e6465722073686f756c64206265206c6f616e20636f6e747261637400006000830152602082019050919050565b60006200286d60158362002d5e565b91507f4554482070726963652063616e6e6f74206265203000000000000000000000006000830152602082019050919050565b6000620028af602b8362002d5e565b91507f616c6c6f636174696f6e2061646472657373206d7573742062652076616c696460008301527f20707269636520666565640000000000000000000000000000000000000000006020830152604082019050919050565b606082016000820151620029206000850182620023f2565b50602082015162002935602085018262002961565b5060408201516200294a604085018262002477565b50505050565b6200295b8162002daf565b82525050565b6200296c8162002db9565b82525050565b6200297d8162002db9565b82525050565b60006020820190506200299a600083018462002403565b92915050565b6000606082019050620029b76000830186620023e1565b620029c6602083018562002403565b620029d5604083018462002403565b949350505050565b6000604082019050620029f46000830185620023e1565b62002a03602083018462002950565b9392505050565b600060408201905062002a21600083018562002403565b62002a30602083018462002950565b9392505050565b600060608201905062002a4e600083018662002403565b62002a5d602083018562002950565b62002a6c604083018462002488565b949350505050565b60006101e08201905062002a8c600083018462002414565b92915050565b600060208201905062002aa9600083018462002488565b92915050565b600060208201905062002ac6600083018462002499565b92915050565b600060208201905062002ae36000830184620024aa565b92915050565b600060208201905062002b006000830184620024bb565b92915050565b600060208201905062002b1d6000830184620024cc565b92915050565b6000602082019050818103600083015262002b3f8184620024dd565b905092915050565b6000602082019050818103600083015262002b62816200251e565b9050919050565b6000602082019050818103600083015262002b848162002586565b9050919050565b6000602082019050818103600083015262002ba681620025ee565b9050919050565b6000602082019050818103600083015262002bc88162002656565b9050919050565b6000602082019050818103600083015262002bea81620026be565b9050919050565b6000602082019050818103600083015262002c0c8162002726565b9050919050565b6000602082019050818103600083015262002c2e816200278e565b9050919050565b6000602082019050818103600083015262002c50816200281c565b9050919050565b6000602082019050818103600083015262002c72816200285e565b9050919050565b6000602082019050818103600083015262002c9481620028a0565b9050919050565b600060208201905062002cb2600083018462002950565b92915050565b600060208201905062002ccf600083018462002972565b92915050565b6000604051905081810181811067ffffffffffffffff8211171562002cf957600080fd5b8060405250919050565b600067ffffffffffffffff82111562002d1b57600080fd5b602082029050919050565b6000819050919050565b600060059050919050565b600081519050919050565b6000602082019050919050565b600081905092915050565b600082825260208201905092915050565b600062002d7c8262002d8f565b9050919050565b60008115159050919050565b600073ffffffffffffffffffffffffffffffffffffffff82169050919050565b6000819050919050565b600063ffffffff82169050919050565b600062002dd68262002e7d565b9050919050565b600062002dea8262002df1565b9050919050565b600062002dfe8262002d8f565b9050919050565b600062002e128262002e19565b9050919050565b600062002e268262002d8f565b9050919050565b600062002e3a8262002e41565b9050919050565b600062002e4e8262002d8f565b9050919050565b600062002e628262002e69565b9050919050565b600062002e768262002d8f565b9050919050565b600062002e8a8262002e91565b9050919050565b600062002e9e8262002d8f565b9050919050565b60005b8381101562002ec557808201518184015260208101905062002ea8565b8381111562002ed5576000848401525b50505050565b6000601f19601f8301169050919050565b62002ef78162002d6f565b811462002f0357600080fd5b50565b62002f118162002d83565b811462002f1d57600080fd5b50565b6005811062002f2e57600080fd5b50565b6005811062002f3f57600080fd5b50565b62002f4d8162002daf565b811462002f5957600080fd5b50565b62002f678162002db9565b811462002f7357600080fd5b5056fe60806040523480156200001157600080fd5b5060405162002cff38038062002cff83398181016040526200003791908101906200015a565b826000806101000a81548173ffffffffffffffffffffffffffffffffffffffff021916908373ffffffffffffffffffffffffffffffffffffffff16021790555033600260006101000a81548173ffffffffffffffffffffffffffffffffffffffff021916908373ffffffffffffffffffffffffffffffffffffffff16021790555081600160006101000a81548173ffffffffffffffffffffffffffffffffffffffff021916908373ffffffffffffffffffffffffffffffffffffffff16021790555080600360006101000a81548173ffffffffffffffffffffffffffffffffffffffff021916908373ffffffffffffffffffffffffffffffffffffffff160217905550505050620001fe565b6000815190506200015481620001e4565b92915050565b6000806000606084860312156200017057600080fd5b6000620001808682870162000143565b9350506020620001938682870162000143565b9250506040620001a68682870162000143565b9150509250925092565b6000620001bd82620001c4565b9050919050565b600073ffffffffffffffffffffffffffffffffffffffff82169050919050565b620001ef81620001b0565b8114620001fb57600080fd5b50565b612af1806200020e6000396000f3fe6080604052600436106101295760003560e01c806347098309116100ab578063c61304fa1161006f578063c61304fa1461039c578063c90e3f1b146103d9578063d404808914610418578063ec40247f14610443578063f76f950e1461046e578063fb9883cb146104ab57610129565b806347098309146102b757806369f9ad2f146102e05780638da5cb5b1461031d57806395bf75fd14610348578063b9035b381461037357610129565b80631b9a91a4116100f25780631b9a91a4146102035780632cf0c8961461022c5780632f62acbd146102575780633020324014610282578063439370b1146102ad57610129565b8062e77aa61461012e57806302dee45914610159578063086e2f70146101845780630f5e07c7146101ad578063120339a8146101d8575b600080fd5b34801561013a57600080fd5b506101436104d4565b60405161015091906124e4565b60405180910390f35b34801561016557600080fd5b5061016e6104fa565b60405161017b91906124ae565b60405180910390f35b34801561019057600080fd5b506101ab60048036036101a69190810190611d6a565b61050d565b005b3480156101b957600080fd5b506101c26108db565b6040516101cf9190612677565b60405180910390f35b3480156101e457600080fd5b506101ed6108e1565b6040516101fa91906124ff565b60405180910390f35b34801561020f57600080fd5b5061022a60048036036102259190810190611cf2565b610907565b005b34801561023857600080fd5b50610241610aa7565b60405161024e9190612757565b60405180910390f35b34801561026357600080fd5b5061026c610aac565b6040516102799190612757565b60405180910390f35b34801561028e57600080fd5b50610297610ab1565b6040516102a49190612677565b60405180910390f35b6102b5610ab7565b005b3480156102c357600080fd5b506102de60048036036102d99190810190611de6565b610d27565b005b3480156102ec57600080fd5b5061030760048036036103029190810190611dbd565b61113d565b60405161031491906124c9565b60405180910390f35b34801561032957600080fd5b50610332611171565b60405161033f91906123f9565b60405180910390f35b34801561035457600080fd5b5061035d611196565b60405161036a919061251a565b60405180910390f35b34801561037f57600080fd5b5061039a60048036036103959190810190611de6565b6111bc565b005b3480156103a857600080fd5b506103c360048036036103be9190810190611cc9565b6115de565b6040516103d09190612535565b60405180910390f35b3480156103e557600080fd5b5061040060048036036103fb9190810190611de6565b61172d565b60405161040f9392919061243d565b60405180910390f35b34801561042457600080fd5b5061042d611794565b60405161043a9190612677565b60405180910390f35b34801561044f57600080fd5b5061045861179a565b6040516104659190612677565b60405180910390f35b34801561047a57600080fd5b5061049560048036036104909190810190611de6565b6117a0565b6040516104a29190612535565b60405180910390f35b3480156104b757600080fd5b506104d260048036036104cd9190810190611d2e565b6118d4565b005b600360009054906101000a900473ffffffffffffffffffffffffffffffffffffffff1681565b600c60009054906101000a900460ff1681565b3373ffffffffffffffffffffffffffffffffffffffff166000809054906101000a900473ffffffffffffffffffffffffffffffffffffffff1673ffffffffffffffffffffffffffffffffffffffff161461059c576040517f08c379a000000000000000000000000000000000000000000000000000000000815260040161059390612617565b60405180910390fd5b7f0f8db0708c4e6b233e2c285fe1ed66015dee71bd374ac8e835534be5f592d6a26040516105c990612577565b60405180910390a17f0f8db0708c4e6b233e2c285fe1ed66015dee71bd374ac8e835534be5f592d6a26105fd6004546117a0565b60405161060a9190612535565b60405180910390a1600260009054906101000a900473ffffffffffffffffffffffffffffffffffffffff1673ffffffffffffffffffffffffffffffffffffffff16636bc7cd3b6007836004546040518463ffffffff1660e01b815260040161067493929190612474565b600060405180830381600087803b15801561068e57600080fd5b505af11580156106a2573d6000803e3d6000fd5b505050506001600c60006101000a81548160ff021916908315150217905550600080905060008090505b600160050363ffffffff16811015610887578281600581106106ea57fe5b602002015160400151156108165782816005811061070457fe5b60200201516020015182019150606463ffffffff168263ffffffff161115610761576040517f08c379a0000000000000000000000000000000000000000000000000000000008152600401610758906125d7565b60405180910390fd5b82816005811061076d57fe5b60200201516007826005811061077f57fe5b0160008201518160000160006101000a81548173ffffffffffffffffffffffffffffffffffffffff021916908373ffffffffffffffffffffffffffffffffffffffff16021790555060208201518160000160146101000a81548163ffffffff021916908363ffffffff16021790555060408201518160000160186101000a81548160ff02191690831515021790555090505061087a565b6007816005811061082357fe5b01600080820160006101000a81549073ffffffffffffffffffffffffffffffffffffffff02191690556000820160146101000a81549063ffffffff02191690556000820160186101000a81549060ff021916905550505b80806001019150506106cc565b50606463ffffffff168163ffffffff16146108d7576040517f08c379a00000000000000000000000000000000000000000000000000000000081526004016108ce906125d7565b60405180910390fd5b5050565b600d5481565b600260009054906101000a900473ffffffffffffffffffffffffffffffffffffffff1681565b3373ffffffffffffffffffffffffffffffffffffffff166000809054906101000a900473ffffffffffffffffffffffffffffffffffffffff1673ffffffffffffffffffffffffffffffffffffffff1614610996576040517f08c379a000000000000000000000000000000000000000000000000000000000815260040161098d90612617565b60405180910390fd5b600260009054906101000a900473ffffffffffffffffffffffffffffffffffffffff1673ffffffffffffffffffffffffffffffffffffffff166311adaeee3073ffffffffffffffffffffffffffffffffffffffff1631833073ffffffffffffffffffffffffffffffffffffffff16310360045460076040518563ffffffff1660e01b8152600401610a2a94939291906126bc565b600060405180830381600087803b158015610a4457600080fd5b505af1158015610a58573d6000803e3d6000fd5b505050508173ffffffffffffffffffffffffffffffffffffffff166108fc829081150290604051600060405180830381858888f19350505050158015610aa2573d6000803e3d6000fd5b505050565b606481565b600581565b60055481565b3373ffffffffffffffffffffffffffffffffffffffff166000809054906101000a900473ffffffffffffffffffffffffffffffffffffffff1673ffffffffffffffffffffffffffffffffffffffff1614610b46576040517f08c379a0000000000000000000000000000000000000000000000000000000008152600401610b3d90612617565b60405180910390fd5b600c60009054906101000a900460ff16610b95576040517f08c379a0000000000000000000000000000000000000000000000000000000008152600401610b8c90612657565b60405180910390fd5b7f0f8db0708c4e6b233e2c285fe1ed66015dee71bd374ac8e835534be5f592d6a2604051610bc2906125f7565b60405180910390a17f0f8db0708c4e6b233e2c285fe1ed66015dee71bd374ac8e835534be5f592d6a2610c0b3073ffffffffffffffffffffffffffffffffffffffff16316117a0565b604051610c189190612535565b60405180910390a17f0f8db0708c4e6b233e2c285fe1ed66015dee71bd374ac8e835534be5f592d6a2610c4a346117a0565b604051610c579190612535565b60405180910390a1600260009054906101000a900473ffffffffffffffffffffffffffffffffffffffff1673ffffffffffffffffffffffffffffffffffffffff166311adaeee343073ffffffffffffffffffffffffffffffffffffffff1631033073ffffffffffffffffffffffffffffffffffffffff163160045460076040518563ffffffff1660e01b8152600401610cf394939291906126bc565b600060405180830381600087803b158015610d0d57600080fd5b505af1158015610d21573d6000803e3d6000fd5b50505050565b3373ffffffffffffffffffffffffffffffffffffffff166000809054906101000a900473ffffffffffffffffffffffffffffffffffffffff1673ffffffffffffffffffffffffffffffffffffffff1614610db6576040517f08c379a0000000000000000000000000000000000000000000000000000000008152600401610dad90612617565b60405180910390fd5b610dbe611b59565b7f0f8db0708c4e6b233e2c285fe1ed66015dee71bd374ac8e835534be5f592d6a2604051610deb90612557565b60405180910390a17f0f8db0708c4e6b233e2c285fe1ed66015dee71bd374ac8e835534be5f592d6a2610e1d826117a0565b604051610e2a9190612535565b60405180910390a160006201518063ffffffff16600654600d540381610e4c57fe5b0490506000618e94600483600454020281610e6357fe5b049050600554811015610e855780600560008282540392505081905550610e95565b6000600581905550600554810390505b600260009054906101000a900473ffffffffffffffffffffffffffffffffffffffff1673ffffffffffffffffffffffffffffffffffffffff1663745b824860045485600454033073ffffffffffffffffffffffffffffffffffffffff1631600760016040518663ffffffff1660e01b8152600401610f17959493929190612702565b600060405180830381600087803b158015610f3157600080fd5b505af1158015610f45573d6000803e3d6000fd5b505050507f0f8db0708c4e6b233e2c285fe1ed66015dee71bd374ac8e835534be5f592d6a2604051610f7690612597565b60405180910390a17f0f8db0708c4e6b233e2c285fe1ed66015dee71bd374ac8e835534be5f592d6a2610fa8826117a0565b604051610fb59190612535565b60405180910390a1600360009054906101000a900473ffffffffffffffffffffffffffffffffffffffff1673ffffffffffffffffffffffffffffffffffffffff1663a9059cbb600260009054906101000a900473ffffffffffffffffffffffffffffffffffffffff16836040518363ffffffff1660e01b815260040161103c929190612414565b602060405180830381600087803b15801561105657600080fd5b505af115801561106a573d6000803e3d6000fd5b505050506040513d601f19601f8201168201806040525061108e9190810190611d94565b50600260009054906101000a900473ffffffffffffffffffffffffffffffffffffffff1673ffffffffffffffffffffffffffffffffffffffff1663f89037188260076040518363ffffffff1660e01b81526004016110ed929190612692565b600060405180830381600087803b15801561110757600080fd5b505af115801561111b573d6000803e3d6000fd5b5050505082600460008282540392505081905550600d54600681905550505050565b6000600a8260f81c60ff16101561115f5760308260f81c0160f81b905061116c565b60578260f81c0160f81b90505b919050565b6000809054906101000a900473ffffffffffffffffffffffffffffffffffffffff1681565b600160009054906101000a900473ffffffffffffffffffffffffffffffffffffffff1681565b3373ffffffffffffffffffffffffffffffffffffffff166000809054906101000a900473ffffffffffffffffffffffffffffffffffffffff1673ffffffffffffffffffffffffffffffffffffffff161461124b576040517f08c379a000000000000000000000000000000000000000000000000000000000815260040161124290612617565b60405180910390fd5b611253611b59565b7f0f8db0708c4e6b233e2c285fe1ed66015dee71bd374ac8e835534be5f592d6a2604051611280906125b7565b60405180910390a17f0f8db0708c4e6b233e2c285fe1ed66015dee71bd374ac8e835534be5f592d6a26112b46004546117a0565b6040516112c19190612535565b60405180910390a17f0f8db0708c4e6b233e2c285fe1ed66015dee71bd374ac8e835534be5f592d6a26112f3826117a0565b6040516113009190612535565b60405180910390a17f0f8db0708c4e6b233e2c285fe1ed66015dee71bd374ac8e835534be5f592d6a26113493073ffffffffffffffffffffffffffffffffffffffff16316117a0565b6040516113569190612535565b60405180910390a1600260009054906101000a900473ffffffffffffffffffffffffffffffffffffffff1673ffffffffffffffffffffffffffffffffffffffff1663745b824860045483600454013073ffffffffffffffffffffffffffffffffffffffff1631600760006040518663ffffffff1660e01b81526004016113e0959493929190612702565b600060405180830381600087803b1580156113fa57600080fd5b505af115801561140e573d6000803e3d6000fd5b5050505060006201518063ffffffff16600654600d54038161142c57fe5b049050600080905060006006541461145e5761016d606460048460045402028161145257fe5b048161145a57fe5b0490505b600360009054906101000a900473ffffffffffffffffffffffffffffffffffffffff1673ffffffffffffffffffffffffffffffffffffffff1663a9059cbb600260009054906101000a900473ffffffffffffffffffffffffffffffffffffffff16836040518363ffffffff1660e01b81526004016114dd929190612414565b602060405180830381600087803b1580156114f757600080fd5b505af115801561150b573d6000803e3d6000fd5b505050506040513d601f19601f8201168201806040525061152f9190810190611d94565b50600260009054906101000a900473ffffffffffffffffffffffffffffffffffffffff1673ffffffffffffffffffffffffffffffffffffffff1663f89037188260076040518363ffffffff1660e01b815260040161158e929190612692565b600060405180830381600087803b1580156115a857600080fd5b505af11580156115bc573d6000803e3d6000fd5b5050505082600460008282540192505081905550600d54600681905550505050565b60608060286040519080825280601f01601f1916602001820160405280156116155781602001600182028038833980820191505090505b50905060008090505b60148110156117235760008160130360080260020a8573ffffffffffffffffffffffffffffffffffffffff168161165157fe5b0460f81b9050600060108260f81c60ff168161166957fe5b0460f81b905060008160f81c6010028360f81c0360f81b905061168b8261113d565b85856002028151811061169a57fe5b60200101907effffffffffffffffffffffffffffffffffffffffffffffffffffffffffffff1916908160001a9053506116d28161113d565b8560018660020201815181106116e457fe5b60200101907effffffffffffffffffffffffffffffffffffffffffffffffffffffffffffff1916908160001a905350505050808060010191505061161e565b5080915050919050565b6007816005811061173a57fe5b016000915090508060000160009054906101000a900473ffffffffffffffffffffffffffffffffffffffff16908060000160149054906101000a900463ffffffff16908060000160189054906101000a900460ff16905083565b60045481565b60065481565b6060600082905060008114156117ee576040518060400160405280600181526020017f30000000000000000000000000000000000000000000000000000000000000008152509150506118cf565b600081905060005b60008214611818578080600101915050600a828161181057fe5b0491506117f6565b6060816040519080825280601f01601f19166020018201604052801561184d5781602001600182028038833980820191505090505b50905060006001830390505b600085146118c657600a858161186b57fe5b0660300160f81b8282806001900393508151811061188557fe5b60200101907effffffffffffffffffffffffffffffffffffffffffffffffffffffffffffff1916908160001a905350600a85816118be57fe5b049450611859565b81955050505050505b919050565b3373ffffffffffffffffffffffffffffffffffffffff166000809054906101000a900473ffffffffffffffffffffffffffffffffffffffff1673ffffffffffffffffffffffffffffffffffffffff1614611963576040517f08c379a000000000000000000000000000000000000000000000000000000000815260040161195a90612617565b60405180910390fd5b7f0f8db0708c4e6b233e2c285fe1ed66015dee71bd374ac8e835534be5f592d6a260405161199090612637565b60405180910390a17f0f8db0708c4e6b233e2c285fe1ed66015dee71bd374ac8e835534be5f592d6a26119c2836115de565b6040516119cf9190612535565b60405180910390a17f0f8db0708c4e6b233e2c285fe1ed66015dee71bd374ac8e835534be5f592d6a2611a01826117a0565b604051611a0e9190612535565b60405180910390a1600360009054906101000a900473ffffffffffffffffffffffffffffffffffffffff1673ffffffffffffffffffffffffffffffffffffffff1663a9059cbb83836040518363ffffffff1660e01b8152600401611a73929190612414565b602060405180830381600087803b158015611a8d57600080fd5b505af1158015611aa1573d6000803e3d6000fd5b505050506040513d601f19601f82011682018060405250611ac59190810190611d94565b50600260009054906101000a900473ffffffffffffffffffffffffffffffffffffffff1673ffffffffffffffffffffffffffffffffffffffff1663fb9883cb83836040518363ffffffff1660e01b8152600401611b23929190612414565b600060405180830381600087803b158015611b3d57600080fd5b505af1158015611b51573d6000803e3d6000fd5b505050505050565b42600d81905550565b600081359050611b7181612a24565b92915050565b600081359050611b8681612a3b565b92915050565b600082601f830112611b9d57600080fd5b6005611bb0611bab8261279f565b612772565b91508183856060840282011115611bc657600080fd5b60005b83811015611bf65781611bdc8882611c3f565b845260208401935060608301925050600181019050611bc9565b5050505092915050565b600081359050611c0f81612a52565b92915050565b600081519050611c2481612a52565b92915050565b600081359050611c3981612a69565b92915050565b600060608284031215611c5157600080fd5b611c5b6060612772565b90506000611c6b84828501611b62565b6000830152506020611c7f84828501611cb4565b6020830152506040611c9384828501611c00565b60408301525092915050565b600081359050611cae81612a80565b92915050565b600081359050611cc381612a97565b92915050565b600060208284031215611cdb57600080fd5b6000611ce984828501611b62565b91505092915050565b60008060408385031215611d0557600080fd5b6000611d1385828601611b77565b9250506020611d2485828601611c9f565b9150509250929050565b60008060408385031215611d4157600080fd5b6000611d4f85828601611b62565b9250506020611d6085828601611c9f565b9150509250929050565b60006101e08284031215611d7d57600080fd5b6000611d8b84828501611b8c565b91505092915050565b600060208284031215611da657600080fd5b6000611db484828501611c15565b91505092915050565b600060208284031215611dcf57600080fd5b6000611ddd84828501611c2a565b91505092915050565b600060208284031215611df857600080fd5b6000611e0684828501611c9f565b91505092915050565b6000611e1b8383612333565b60608301905092915050565b6000611e338383612375565b60608301905092915050565b611e4881612869565b82525050565b611e5781612869565b82525050565b611e66816127d5565b611e708184612810565b9250611e7b826127c1565b8060005b83811015611eac578151611e938782611e0f565b9650611e9e836127f6565b925050600181019050611e7f565b505050505050565b611ebd816127e0565b611ec78184612810565b9250611ed2826127cb565b8060005b83811015611f025781611ee98782611e27565b9650611ef483612803565b925050600181019050611ed6565b505050505050565b611f138161288d565b82525050565b611f228161288d565b82525050565b611f3181612899565b82525050565b611f40816128ff565b82525050565b611f4f81612923565b82525050565b611f5e81612947565b82525050565b6000611f6f826127eb565b611f79818561281b565b9350611f8981856020860161296b565b611f92816129ec565b840191505092915050565b6000611faa60218361281b565b91507f3e4c6f616e2e72657475726e43757272656e6379205f72657475726e56616c7560008301527f65000000000000000000000000000000000000000000000000000000000000006020830152604082019050919050565b600061201060288361281b565b91507f3e4c6f616e2e616c6c6f63617465507269636546656564732063757272656e7460008301527f49737375616e63650000000000000000000000000000000000000000000000006020830152604082019050919050565b600061207660268361281b565b91507f3e4c6f616e2e697373756543757272656e63792066656553696e63654c61737460008301527f4368616e676500000000000000000000000000000000000000000000000000006020830152604082019050919050565b60006120dc60488361281b565b91507f3e4c6f616e2e697373756543757272656e63792063757272656e74497373756160008301527f6e6365205f69737375616e636556616c7565206164647265737328746869732960208301527f2e62616c616e63650000000000000000000000000000000000000000000000006040830152606082019050919050565b6000612168602d8361281b565b91507f53756d206f66206e657720616c6c6f636174696f6e2070657263656e7473207360008301527f686f756c642062652031303025000000000000000000000000000000000000006020830152604082019050919050565b60006121ce602a8361281b565b91507f6465706f73697445746820616464726573732874686973292e62616c616e636560008301527f206d73672e76616c7565000000000000000000000000000000000000000000006020830152604082019050919050565b600061223460168361281b565b91507f73656e6465722073686f756c64206265206f776e6572000000000000000000006000830152602082019050919050565b600061227460338361281b565b91507f3e776974686472617743757272656e6379205f7769746864726177546f41646460008301527f72657373205f776974686472617756616c7565000000000000000000000000006020830152604082019050919050565b60006122da602c8361281b565b91507f7072696365206665656420616c6c6f636174696f6e732073686f756c6420626560008301527f20696e697469616c697a656400000000000000000000000000000000000000006020830152604082019050919050565b6060820160008201516123496000850182611e3f565b50602082015161235c60208501826123db565b50604082015161236f6040850182611f0a565b50505050565b60608201600080830154905061238a8161299e565b6123976000860182611e3f565b506123a1816129b8565b6123ae60208601826123db565b506123b8816129d2565b6123c56040860182611f0a565b5050505050565b6123d5816128e5565b82525050565b6123e4816128ef565b82525050565b6123f3816128ef565b82525050565b600060208201905061240e6000830184611e4e565b92915050565b60006040820190506124296000830185611e4e565b61243660208301846123cc565b9392505050565b60006060820190506124526000830186611e4e565b61245f60208301856123ea565b61246c6040830184611f19565b949350505050565b60006103e08201905061248a6000830186611eb4565b6124986101e0830185611e5d565b6124a66103c08301846123cc565b949350505050565b60006020820190506124c36000830184611f19565b92915050565b60006020820190506124de6000830184611f28565b92915050565b60006020820190506124f96000830184611f37565b92915050565b60006020820190506125146000830184611f46565b92915050565b600060208201905061252f6000830184611f55565b92915050565b6000602082019050818103600083015261254f8184611f64565b905092915050565b6000602082019050818103600083015261257081611f9d565b9050919050565b6000602082019050818103600083015261259081612003565b9050919050565b600060208201905081810360008301526125b081612069565b9050919050565b600060208201905081810360008301526125d0816120cf565b9050919050565b600060208201905081810360008301526125f08161215b565b9050919050565b60006020820190508181036000830152612610816121c1565b9050919050565b6000602082019050818103600083015261263081612227565b9050919050565b6000602082019050818103600083015261265081612267565b9050919050565b60006020820190508181036000830152612670816122cd565b9050919050565b600060208201905061268c60008301846123cc565b92915050565b6000610200820190506126a860008301856123cc565b6126b56020830184611eb4565b9392505050565b6000610240820190506126d260008301876123cc565b6126df60208301866123cc565b6126ec60408301856123cc565b6126f96060830184611eb4565b95945050505050565b60006102608201905061271860008301886123cc565b61272560208301876123cc565b61273260408301866123cc565b61273f6060830185611eb4565b61274d610240830184611f19565b9695505050505050565b600060208201905061276c60008301846123ea565b92915050565b6000604051905081810181811067ffffffffffffffff8211171561279557600080fd5b8060405250919050565b600067ffffffffffffffff8211156127b657600080fd5b602082029050919050565b6000819050919050565b6000819050919050565b600060059050919050565b600060059050919050565b600081519050919050565b6000602082019050919050565b6000600182019050919050565b600081905092915050565b600082825260208201905092915050565b600073ffffffffffffffffffffffffffffffffffffffff82169050919050565b600060ff82169050919050565b600063ffffffff82169050919050565b6000612874826128c5565b9050919050565b6000612886826128c5565b9050919050565b60008115159050919050565b60007fff0000000000000000000000000000000000000000000000000000000000000082169050919050565b600073ffffffffffffffffffffffffffffffffffffffff82169050919050565b6000819050919050565b600063ffffffff82169050919050565b600061290a82612911565b9050919050565b600061291c826128c5565b9050919050565b600061292e82612935565b9050919050565b6000612940826128c5565b9050919050565b600061295282612959565b9050919050565b6000612964826128c5565b9050919050565b60005b8381101561298957808201518184015260208101905061296e565b83811115612998576000848401525b50505050565b60006129b16129ac836129fd565b61282c565b9050919050565b60006129cb6129c683612a0a565b612859565b9050919050565b60006129e56129e083612a17565b61284c565b9050919050565b6000601f19601f8301169050919050565b60008160001c9050919050565b60008160a01c9050919050565b60008160c01c9050919050565b612a2d81612869565b8114612a3857600080fd5b50565b612a448161287b565b8114612a4f57600080fd5b50565b612a5b8161288d565b8114612a6657600080fd5b50565b612a7281612899565b8114612a7d57600080fd5b50565b612a89816128e5565b8114612a9457600080fd5b50565b612aa0816128ef565b8114612aab57600080fd5b5056fea365627a7a72315820257e2642a8f3d065cfd8376e40273d588c96de657a8afbe6f16507640561e44d6c6578706572696d656e74616cf564736f6c634300050c0040a365627a7a723158203551d3f299d0e1eb37102171f5ed28cd0301c5fa6197116330ff638b8ce24e1a6c6578706572696d656e74616cf564736f6c634300050c0040",
  "source": "pragma solidity ^0.5.11;\npragma experimental ABIEncoderV2;\n\nimport \"./PeggedToken.sol\";\nimport \"./System.sol\";\nimport \"./SystemFeeds.sol\";\nimport \"./SystemSavings.sol\";\nimport \"./Loan.sol\";\n\ncontract SystemLoans {\n    System public system;\n    PeggedToken public peggedToken;\n    SystemFeeds public systemFeeds;\n    SystemSavings public systemSavings;\n\n    constructor(\n        address _peggedTokenAddress,\n        address _systemAddress,\n        address _systemFeedsAddress,\n        address _systemSavingsAddress\n    ) public {\n        require(_peggedTokenAddress != address(0), \"_peggedTokenAddress should not be 0\");\n        require(_systemAddress != address(0), \"_systemAddress should not be 0\");\n        require(_systemFeedsAddress != address(0), \"_systemFeedsAddress should not be 0\");\n        require(_systemSavingsAddress != address(0), \"_systemSavingsAddress should not be 0\");\n        peggedToken = PeggedToken(_peggedTokenAddress);\n        system = System(_systemAddress);\n        systemFeeds = SystemFeeds(_systemFeedsAddress);\n        systemSavings = SystemSavings(_systemSavingsAddress);\n    }\n\n    uint256 public loan_ratio; // 1.0 = 10 ** 9 | if const 150% - normal range 120%-170% - down as stability period increases\n    uint256 public loan_fee; // 1.0 = 10 ** 9 | normal range 2%-20% - Up when pegged>reference - down when pegged<reference\n\n    uint256 constant public PRICE_DECIMALS = 18;\n\n    uint32 constant public LOAN_MAX_ALLOCATIONS = 5; // Maximum loan price feed allocations\n    uint32 constant public LOAN_ALLOCATION_100_PERCENT = 100; // Loan allocation percent value at 100% = 1024\n    uint32 constant public LOAN_LEVERAGE_THRESHOLD_PERCENT = 150;\n    uint256 public depositTotal;\n    uint256 public issuanceTotal;\n    address public lastNewAddress;\n    mapping (address => bool) public loanMap;\n\n    function createLoan() public returns(address) {\n        Loan newLoan = new Loan(msg.sender, address(system), address(peggedToken));\n        lastNewAddress = address(newLoan);\n        loanMap[lastNewAddress] = true;\n        return lastNewAddress;\n    }\n\n    function changeDepositEth(\n        uint256 _oldDepositValue,\n        uint256 _newDepositValue,\n        uint256 _currentIssuance,\n        Loan.PriceFeedAllocation[LOAN_MAX_ALLOCATIONS] memory _priceFeedAllocations\n    )\n    public\n    {\n        require(loanMap[msg.sender], \"sender should be loan contract\");\n\n        // for (uint i = 0; i < LOAN_MAX_ALLOCATIONS - 1; i++) {\n        //     if(_priceFeedAllocations[i].isAllocation)\n        //     {\n        //         require(systemFeeds.isPriceFeed(_priceFeedAllocations[i].priceFeedAddress), \"allocation address must be valid price feed\");//.isPriceFeed, \"Used price feed should have a valid address.\");\n        //         //require(map[_priceFeedAllocations[i].priceFeedAddress].isPriceFeed, \"\");//.isPriceFeed, \"Used price feed should have a valid address.\");\n        //         address priceFeedAddress = _priceFeedAllocations[i].priceFeedAddress;\n        //         uint32 percentAllocation = _priceFeedAllocations[i].percentAllocation;\n        //         systemFeeds.changePriceFeedAllocation(priceFeedAddress, (percentAllocation * _oldDepositValue) / LOAN_ALLOCATION_100_PERCENT, true);\n        //         systemFeeds.changePriceFeedAllocation(priceFeedAddress, (percentAllocation * _newDepositValue) / LOAN_ALLOCATION_100_PERCENT, false);\n        //     }\n        // }\n\n        //uint256 rate = systemFeeds.getInstantRate();\n        (System.InstantPriceReportingState instantPriceState, uint256 price) = system.getInstantPrice();\n        if(System.InstantPriceReportingState.Empty == instantPriceState) {\n            (System .DelayedPriceReportingState historicalPriceState, uint256 historicalPrice) = system.getDelayedPrice();\n            if(System .DelayedPriceReportingState.Empty == historicalPriceState) {\n                price = systemFeeds.getPriceFromAllocation(_priceFeedAllocations);\n            } else {\n                price = historicalPrice;\n            }\n        }\n        require(_currentIssuance * 150 * 10 ** PRICE_DECIMALS <= _newDepositValue * price * 100, \"withdrawal should not exceed threshold\");\n\n        depositTotal += _newDepositValue;\n        depositTotal -= _oldDepositValue;\n    }\n\n    function changeAllocation(\n        Loan.PriceFeedAllocation[LOAN_MAX_ALLOCATIONS] memory _oldPriceFeedAllocations,\n        Loan.PriceFeedAllocation[LOAN_MAX_ALLOCATIONS] memory _newPriceFeedAllocations,\n        uint256 _currentIssuance\n    )\n    public\n    {\n        for (uint i = 0; i < LOAN_MAX_ALLOCATIONS - 1; i++) {\n            if(_oldPriceFeedAllocations[i].isAllocation)\n            {\n                require(systemFeeds.isPriceFeed(_oldPriceFeedAllocations[i].priceFeedAddress), \"allocation address must be valid price feed\");//.isPriceFeed, \"Used price feed should have a valid address.\");\n                //require(systemFeeds.map[_oldPriceFeedAllocations[i].priceFeedAddress].isPriceFeed, \"De-allocated price feed should have a valid address.\");\n                address priceFeedAddress = _oldPriceFeedAllocations[i].priceFeedAddress;\n                uint32 percentAllocation = _oldPriceFeedAllocations[i].percentAllocation;\n                systemFeeds.changePriceFeedAllocation(priceFeedAddress, (percentAllocation * _currentIssuance) / LOAN_ALLOCATION_100_PERCENT, true);\n            }\n\n            if(_newPriceFeedAllocations[i].isAllocation)\n            {\n                require(systemFeeds.isPriceFeed(_newPriceFeedAllocations[i].priceFeedAddress), \"allocation address must be valid price feed\");//.isPriceFeed, \"Used price feed should have a valid address.\");\n                //require(systemFeeds.map[_newPriceFeedAllocations[i].priceFeedAddress].isPriceFeed, \"Allocated price feed should have a valid address.\");\n                address priceFeedAddress = _newPriceFeedAllocations[i].priceFeedAddress;\n                uint32 percentAllocation = _newPriceFeedAllocations[i].percentAllocation;\n                systemFeeds.changePriceFeedAllocation(priceFeedAddress, (percentAllocation * _currentIssuance) / LOAN_ALLOCATION_100_PERCENT, false);\n           }\n        }\n    }\n\n   function changeCurrencyIssuance\n   (\n       uint256 _currentIssuance,\n       uint256 _newIssuance,\n       uint256 ethBalance,\n       Loan.PriceFeedAllocation[5] memory _priceFeedAllocations,\n       bool isReturn\n    )\n    public\n    {\n        require(loanMap[msg.sender], \"sender should be loan contract\");\n\n        (System.InstantPriceReportingState instantPriceReportingState, uint256 price) = system.getInstantPrice();\n        emit ConsoleLog(\">SystemLoans.changeCurrencyIssuance instantPriceReportingState\");\n        emit ConsoleLogNumber(uint256(instantPriceReportingState));\n\n        //if(price == 0) {\n        if(System.InstantPriceReportingState.Empty == instantPriceReportingState) {\n            (System.DelayedPriceReportingState historicalPriceState, uint256 historicalPrice) = system.getDelayedPrice();\n            if(System .DelayedPriceReportingState.Empty == historicalPriceState) {\n                price = systemFeeds.getPriceFromAllocation(_priceFeedAllocations);\n            } else {\n                price = historicalPrice;\n            }\n        }\n\n        emit ConsoleLog(\">SystemLoans.changeCurrencyIssuance price _newIssuance ethBalance\");\n        emit ConsoleLogNumber(price);\n        emit ConsoleLogNumber(_newIssuance);\n        emit ConsoleLogNumber(ethBalance);\n\n        require(price != 0, \"ETH price cannot be 0\");\n        require(_newIssuance * 150 * 10 ** PRICE_DECIMALS <= ethBalance * price * 100, \"issuance should not exceed threshold\");\n\n        for (uint i = 0; i < LOAN_MAX_ALLOCATIONS - 1; i++) {\n            if(_priceFeedAllocations[i].isAllocation)\n            {\n                require(systemFeeds.isPriceFeed(_priceFeedAllocations[i].priceFeedAddress), \"allocation address must be valid price feed\");//.isPriceFeed, \"Used price feed should have a valid address.\");\n                //require(map[_priceFeedAllocations[i].priceFeedAddress].isPriceFeed, \"\");//.isPriceFeed, \"Used price feed should have a valid address.\");\n                address priceFeedAddress = _priceFeedAllocations[i].priceFeedAddress;\n                uint32 percentAllocation = _priceFeedAllocations[i].percentAllocation;\n                systemFeeds.changePriceFeedAllocation(priceFeedAddress, (percentAllocation * _currentIssuance) / LOAN_ALLOCATION_100_PERCENT, true);\n                systemFeeds.changePriceFeedAllocation(priceFeedAddress, (percentAllocation * _newIssuance) / LOAN_ALLOCATION_100_PERCENT, false);\n            }\n        }\n\n        if(isReturn) {\n            require(_currentIssuance > _newIssuance, \"return currrency operation should reduce issuance\");\n            peggedToken.burn(msg.sender, _currentIssuance - _newIssuance);\n        } else {\n            require(_newIssuance > _currentIssuance, \"issue currrency operation should increase issuance\");\n            peggedToken.mint(msg.sender, _newIssuance - _currentIssuance);\n        }\n\n        issuanceTotal -= _currentIssuance;\n        issuanceTotal += _newIssuance;\n    }\n\n    // function issueCurrency(uint256 _currentIssuance, uint256 _issuanceValue, uint256 ethBalance, Loan.PriceFeedAllocation[5] memory _priceFeedAllocations) public {\n    //     require(loanMap[msg.sender], \"sender should be loan contract\");\n    //     uint256 totalIssuance = _currentIssuance + _issuanceValue;\n    //     //uint256 pegPerEthRate = systemFeeds.getInstantPrice();\n    //     (System.InstantPriceReportingState instantPriceState, uint256 price) = system.getInstantPrice();\n\n    //     emit ConsoleLog(\">SystemLoans.issueCurrency instantPriceState\");\n    //     emit ConsoleLog(uint2str(uint(instantPriceState)));\n\n    //     if(System.InstantPriceReportingState.Empty == instantPriceState) {\n    //         (System .DelayedPriceReportingState historicalPriceState, uint256 historicalPrice) = system.getDelayedPrice();\n    //         if(System .DelayedPriceReportingState.Empty == historicalPriceState) {\n\n    //             emit ConsoleLog(\">SystemLoans.issueCurrency historicalPriceState\");\n    //             emit ConsoleLog(uint2str(uint(historicalPriceState)));\n\n    //             // Loan loan = Loan(msg.sender);\n    //             // Loan.PriceFeedAllocation[5] memory priceFeedAllocations = loan.priceFeedAllocations();\n    //             price = systemFeeds.getPriceFromAllocation(_priceFeedAllocations);\n    //         } else {\n    //             price = historicalPrice;\n    //         }\n    //     }\n\n\n\n    //     // emit ConsoleLog(\">SystemLoans.issueCurrency _currentIssuance _issuanceValue ethBalance\");\n    //     // emit ConsoleLog(uint2str(_currentIssuance));\n    //     // emit ConsoleLog(uint2str(_issuanceValue));\n    //     // emit ConsoleLog(uint2str(ethBalance));\n    //     // emit ConsoleLog(\">SystemLoans.issueCurrency price\");\n    //     // emit ConsoleLog(uint2str(price));\n\n    //     require(totalIssuance * 150 * 10 ** PRICE_DECIMALS <= ethBalance * price * 100, \"issuance should not exceed threshold\");\n    //     emit ConsoleLogNumber(_currentIssuance);\n    //     emit ConsoleLogNumber(_issuanceValue);\n    //     emit ConsoleLogNumber(totalIssuance);\n    //     emit ConsoleLogNumber(totalIssuance * 150);\n    //     emit ConsoleLogNumber(totalIssuance * 150 * 10 ** PRICE_DECIMALS);\n    //     emit ConsoleLogNumber(ethBalance * price * 100);\n\n    //     peggedToken.mint(msg.sender, _issuanceValue);\n\n    //     issuanceTotal += _issuanceValue;\n    // }\n\n    // function returnCurrency(uint256 currentIssuance, uint256 _returnValue, uint256 ethBalance) public {\n    //     require(loanMap[msg.sender], \"sender should be valid loan contract\");\n    //     require(currentIssuance >= _returnValue, \"cannot return more than current issuance\");\n\n    //     uint256 totalIssuance = currentIssuance - _returnValue;\n    //     //uint256 pegPerEthRate = systemFeeds.getInstantRate();\n    //     (System.InstantPriceReportingState state, uint256 pegPerEthRate) = system.getInstantPrice();\n\n    //     require(totalIssuance * 150 * 10 ** PRICE_DECIMALS <= ethBalance * pegPerEthRate * 100, \"issuance should not exceed threshold\");\n\n\n    //     peggedToken.burn(msg.sender, _returnValue);\n\n    //     issuanceTotal -= _returnValue;\n    // }\n\n    // function withdrawEth(uint256 currentIssuance, uint256 _withdrawValue, uint256 ethBalance) public {\n    //     require(loanMap[msg.sender], \"sender should be valid loan contract\");\n    //     require(ethBalance >= _withdrawValue, \"cannot withdraw more than current balance\");\n\n    //     uint256 rate = systemFeeds.getInstantRate();\n    //     uint256 netEthBalance = ethBalance - _withdrawValue;\n\n    //     require(currentIssuance * 150 * 10 ** PRICE_DECIMALS <= netEthBalance * rate * 100, \"withdrawal should not exceed threshold\");\n\n    //     depositTotal -= _withdrawValue;\n    // }\n\n    function withdrawCurrency(address _withdrawToAddress, uint256 _withdrawValue) public {\n        require(loanMap[msg.sender], \"sender should be valid loan contract\");\n    }\n\n    function payLoanFee(uint256 _feeValue, Loan.PriceFeedAllocation[LOAN_MAX_ALLOCATIONS] memory _priceFeedAllocations) public {\n        require(loanMap[msg.sender], \"sender should be valid loan contract\");\n\n        // emit ConsoleLog(\">SystemLoans.payLoanFee _feeValue\");\n        // emit ConsoleLog(uint2str(_feeValue));\n\n        uint remainingFeeValue = _feeValue;\n        for (uint i = 0; i < LOAN_MAX_ALLOCATIONS - 1; i++) {\n            if(_priceFeedAllocations[i].isAllocation) {\n                if(_priceFeedAllocations[i].percentAllocation != 0) {\n                    require(systemFeeds.isPriceFeed(_priceFeedAllocations[i].priceFeedAddress), \"allocation address must be valid price feed\");//.isPriceFeed, \"Used price feed should have a valid address.\");\n                    //require(systemFeeds.map[_oldPriceFeedAllocations[i].priceFeedAddress].isPriceFeed, \"De-allocated price feed should have a valid address.\");\n                    address priceFeedAddress = _priceFeedAllocations[i].priceFeedAddress;\n                    uint32 percentAllocation = _priceFeedAllocations[i].percentAllocation;\n                    uint256 feeAllocationValue = _feeValue * percentAllocation / 100 / 100; // /100 means 1% fee percent rate\n                    remainingFeeValue -= feeAllocationValue;\n\n                    // emit ConsoleLog(\">SystemLoans.payLoanFee i feeAllocationValue\");\n                    // emit ConsoleLog(uint2str(i));\n                    // emit ConsoleLog(uint2str(feeAllocationValue));\n\n                    peggedToken.transfer(address(systemFeeds), feeAllocationValue);\n                    systemFeeds.registerFeedRevenueTransfer(priceFeedAddress, feeAllocationValue);\n                }\n            }\n        }\n\n        // emit ConsoleLog(\">SystemLoans.payLoanFee remainingFeeValue\");\n        // emit ConsoleLog(uint2str(remainingFeeValue));\n\n        peggedToken.transfer(address(systemSavings), remainingFeeValue);\n        systemSavings.registerSavingsPoolTransfer(remainingFeeValue);\n    }\n\n\n    // function add2str(address x) public pure returns (string memory str) {\n    //     bytes memory s = new bytes(40);\n    //     for (uint i = 0; i < 20; i++) {\n    //         byte b = byte(uint8(uint(x) / (2**(8*(19 - i)))));\n    //         byte hi = byte(uint8(b) / 16);\n    //         byte lo = byte(uint8(b) - 16 * uint8(hi));\n    //         s[2*i] = char(hi);\n    //         s[2*i+1] = char(lo);\n    //     }\n    //     return string(s);\n    // }\n\n    // function char(byte b) public pure returns (byte c) {\n    //     if (uint8(b) < 10) return byte(uint8(b) + 0x30);\n    //     else return byte(uint8(b) + 0x57);\n    // }\n\n    function uint2str(uint value) public pure returns (string memory str) {\n        uint i = value;\n        if (i == 0) return \"0\";\n        uint j = i;\n        uint len;\n        while (j != 0){\n            len++;\n            j /= 10;\n        }\n        bytes memory bstr = new bytes(len);\n        uint k = len - 1;\n        while (i != 0){\n            bstr[k--] = byte(uint8(48 + i % 10));\n            i /= 10;\n        }\n        return string(bstr);\n    }\n\n    event ConsoleLog(string message);\n    event ConsoleLogNumber(uint number);\n}",
  "sourcePath": "/Users/nimakamoosi/repos/nimakam-private/stable-coin/ethereum/contracts/SystemLoans.sol",
  "compiler": {
    "name": "solc",
    "version": "0.5.12+commit.7709ece9.Emscripten.clang"
  },
  "schemaVersion": "3.0.19",
  "updatedAt": "2020-01-22T22:16:12.202Z",
  "devdoc": {
    "methods": {}
  },
  "userdoc": {
    "methods": {}
  }
}