{
  "contractName": "SystemLoans",
  "abi": [
    {
      "inputs": [
        {
          "internalType": "address",
          "name": "_peggedTokenAddress",
          "type": "address"
        },
        {
          "internalType": "address",
          "name": "_systemAddress",
          "type": "address"
        },
        {
          "internalType": "address",
          "name": "_systemFeedsAddress",
          "type": "address"
        }
      ],
      "payable": false,
      "stateMutability": "nonpayable",
      "type": "constructor"
    },
    {
      "constant": true,
      "inputs": [],
      "name": "LOAN_ALLOCATION_100_PERCENT",
      "outputs": [
        {
          "internalType": "uint32",
          "name": "",
          "type": "uint32"
        }
      ],
      "payable": false,
      "stateMutability": "view",
      "type": "function"
    },
    {
      "constant": true,
      "inputs": [],
      "name": "LOAN_LEVERAGE_THRESHOLD_PERCENT",
      "outputs": [
        {
          "internalType": "uint32",
          "name": "",
          "type": "uint32"
        }
      ],
      "payable": false,
      "stateMutability": "view",
      "type": "function"
    },
    {
      "constant": true,
      "inputs": [],
      "name": "LOAN_MAX_ALLOCATIONS",
      "outputs": [
        {
          "internalType": "uint32",
          "name": "",
          "type": "uint32"
        }
      ],
      "payable": false,
      "stateMutability": "view",
      "type": "function"
    },
    {
      "constant": true,
      "inputs": [],
      "name": "PRICE_RATE_DECIMALS",
      "outputs": [
        {
          "internalType": "uint256",
          "name": "",
          "type": "uint256"
        }
      ],
      "payable": false,
      "stateMutability": "view",
      "type": "function"
    },
    {
      "constant": true,
      "inputs": [],
      "name": "loan_depositPool",
      "outputs": [
        {
          "internalType": "uint256",
          "name": "",
          "type": "uint256"
        }
      ],
      "payable": false,
      "stateMutability": "view",
      "type": "function"
    },
    {
      "constant": true,
      "inputs": [],
      "name": "loan_fee",
      "outputs": [
        {
          "internalType": "uint256",
          "name": "",
          "type": "uint256"
        }
      ],
      "payable": false,
      "stateMutability": "view",
      "type": "function"
    },
    {
      "constant": true,
      "inputs": [],
      "name": "loan_issuancePool",
      "outputs": [
        {
          "internalType": "uint256",
          "name": "",
          "type": "uint256"
        }
      ],
      "payable": false,
      "stateMutability": "view",
      "type": "function"
    },
    {
      "constant": true,
      "inputs": [],
      "name": "loan_lastNewAddress",
      "outputs": [
        {
          "internalType": "address",
          "name": "",
          "type": "address"
        }
      ],
      "payable": false,
      "stateMutability": "view",
      "type": "function"
    },
    {
      "constant": true,
      "inputs": [
        {
          "internalType": "address",
          "name": "",
          "type": "address"
        }
      ],
      "name": "loan_map",
      "outputs": [
        {
          "internalType": "bool",
          "name": "",
          "type": "bool"
        }
      ],
      "payable": false,
      "stateMutability": "view",
      "type": "function"
    },
    {
      "constant": true,
      "inputs": [],
      "name": "loan_ratio",
      "outputs": [
        {
          "internalType": "uint256",
          "name": "",
          "type": "uint256"
        }
      ],
      "payable": false,
      "stateMutability": "view",
      "type": "function"
    },
    {
      "constant": true,
      "inputs": [],
      "name": "peggedToken",
      "outputs": [
        {
          "internalType": "contract PeggedToken",
          "name": "",
          "type": "address"
        }
      ],
      "payable": false,
      "stateMutability": "view",
      "type": "function"
    },
    {
      "constant": true,
      "inputs": [],
      "name": "system",
      "outputs": [
        {
          "internalType": "contract System",
          "name": "",
          "type": "address"
        }
      ],
      "payable": false,
      "stateMutability": "view",
      "type": "function"
    },
    {
      "constant": true,
      "inputs": [],
      "name": "systemFeeds",
      "outputs": [
        {
          "internalType": "contract SystemFeeds",
          "name": "",
          "type": "address"
        }
      ],
      "payable": false,
      "stateMutability": "view",
      "type": "function"
    },
    {
      "constant": false,
      "inputs": [],
      "name": "loan_createLoan",
      "outputs": [
        {
          "internalType": "address",
          "name": "",
          "type": "address"
        }
      ],
      "payable": false,
      "stateMutability": "nonpayable",
      "type": "function"
    },
    {
      "constant": false,
      "inputs": [
        {
          "internalType": "uint256",
          "name": "_oldDepositValue",
          "type": "uint256"
        },
        {
          "internalType": "uint256",
          "name": "_newDepositValue",
          "type": "uint256"
        },
        {
          "components": [
            {
              "internalType": "address",
              "name": "priceFeedAddress",
              "type": "address"
            },
            {
              "internalType": "uint32",
              "name": "percentAllocation",
              "type": "uint32"
            },
            {
              "internalType": "bool",
              "name": "isAllocation",
              "type": "bool"
            }
          ],
          "internalType": "struct Loan.PriceFeedAllocation[5]",
          "name": "_priceFeedAllocations",
          "type": "tuple[5]"
        }
      ],
      "name": "loan_changeDepositEth",
      "outputs": [],
      "payable": false,
      "stateMutability": "nonpayable",
      "type": "function"
    },
    {
      "constant": false,
      "inputs": [
        {
          "components": [
            {
              "internalType": "address",
              "name": "priceFeedAddress",
              "type": "address"
            },
            {
              "internalType": "uint32",
              "name": "percentAllocation",
              "type": "uint32"
            },
            {
              "internalType": "bool",
              "name": "isAllocation",
              "type": "bool"
            }
          ],
          "internalType": "struct Loan.PriceFeedAllocation[5]",
          "name": "_oldPriceFeedAllocations",
          "type": "tuple[5]"
        },
        {
          "components": [
            {
              "internalType": "address",
              "name": "priceFeedAddress",
              "type": "address"
            },
            {
              "internalType": "uint32",
              "name": "percentAllocation",
              "type": "uint32"
            },
            {
              "internalType": "bool",
              "name": "isAllocation",
              "type": "bool"
            }
          ],
          "internalType": "struct Loan.PriceFeedAllocation[5]",
          "name": "_newPriceFeedAllocations",
          "type": "tuple[5]"
        },
        {
          "internalType": "uint256",
          "name": "_currentDepositValue",
          "type": "uint256"
        }
      ],
      "name": "loan_changeAllocation",
      "outputs": [],
      "payable": false,
      "stateMutability": "nonpayable",
      "type": "function"
    },
    {
      "constant": false,
      "inputs": [
        {
          "internalType": "uint256",
          "name": "currentIssuance",
          "type": "uint256"
        },
        {
          "internalType": "uint256",
          "name": "_issuanceValue",
          "type": "uint256"
        },
        {
          "internalType": "uint256",
          "name": "ethBalance",
          "type": "uint256"
        }
      ],
      "name": "loan_issueCurrency",
      "outputs": [],
      "payable": false,
      "stateMutability": "nonpayable",
      "type": "function"
    },
    {
      "constant": false,
      "inputs": [
        {
          "internalType": "uint256",
          "name": "currentIssuance",
          "type": "uint256"
        },
        {
          "internalType": "uint256",
          "name": "_reverseIssuanceValue",
          "type": "uint256"
        },
        {
          "internalType": "uint256",
          "name": "ethBalance",
          "type": "uint256"
        }
      ],
      "name": "loan_reverseCurrencyIssuance",
      "outputs": [],
      "payable": false,
      "stateMutability": "nonpayable",
      "type": "function"
    },
    {
      "constant": false,
      "inputs": [
        {
          "internalType": "uint256",
          "name": "currentIssuance",
          "type": "uint256"
        },
        {
          "internalType": "uint256",
          "name": "_withdrawValue",
          "type": "uint256"
        },
        {
          "internalType": "uint256",
          "name": "ethBalance",
          "type": "uint256"
        }
      ],
      "name": "loan_withdrawEth",
      "outputs": [],
      "payable": false,
      "stateMutability": "nonpayable",
      "type": "function"
    },
    {
      "constant": false,
      "inputs": [
        {
          "internalType": "address",
          "name": "_withdrawToAddress",
          "type": "address"
        },
        {
          "internalType": "uint256",
          "name": "_withdrawValue",
          "type": "uint256"
        }
      ],
      "name": "loan_withdrawCurrency",
      "outputs": [],
      "payable": false,
      "stateMutability": "nonpayable",
      "type": "function"
    }
  ],
  "bytecode": "0x60806040523480156200001157600080fd5b5060405162004bfd38038062004bfd833981810160405262000037919081019062000272565b600073ffffffffffffffffffffffffffffffffffffffff168373ffffffffffffffffffffffffffffffffffffffff161415620000aa576040517f08c379a0000000000000000000000000000000000000000000000000000000008152600401620000a1906200041e565b60405180910390fd5b600073ffffffffffffffffffffffffffffffffffffffff168273ffffffffffffffffffffffffffffffffffffffff1614156200011d576040517f08c379a00000000000000000000000000000000000000000000000000000000081526004016200011490620003fc565b60405180910390fd5b600073ffffffffffffffffffffffffffffffffffffffff168173ffffffffffffffffffffffffffffffffffffffff16141562000190576040517f08c379a00000000000000000000000000000000000000000000000000000000081526004016200018790620003da565b60405180910390fd5b82600160006101000a81548173ffffffffffffffffffffffffffffffffffffffff021916908373ffffffffffffffffffffffffffffffffffffffff160217905550816000806101000a81548173ffffffffffffffffffffffffffffffffffffffff021916908373ffffffffffffffffffffffffffffffffffffffff16021790555080600260006101000a81548173ffffffffffffffffffffffffffffffffffffffff021916908373ffffffffffffffffffffffffffffffffffffffff1602179055505050506200049f565b6000815190506200026c8162000485565b92915050565b6000806000606084860312156200028857600080fd5b600062000298868287016200025b565b9350506020620002ab868287016200025b565b9250506040620002be868287016200025b565b9150509250925092565b6000620002d760238362000440565b91507f5f73797374656d4665656473416464726573732073686f756c64206e6f74206260008301527f65203000000000000000000000000000000000000000000000000000000000006020830152604082019050919050565b60006200033f601e8362000440565b91507f5f73797374656d416464726573732073686f756c64206e6f74206265203000006000830152602082019050919050565b60006200038160238362000440565b91507f5f706567676564546f6b656e416464726573732073686f756c64206e6f74206260008301527f65203000000000000000000000000000000000000000000000000000000000006020830152604082019050919050565b60006020820190508181036000830152620003f581620002c8565b9050919050565b60006020820190508181036000830152620004178162000330565b9050919050565b60006020820190508181036000830152620004398162000372565b9050919050565b600082825260208201905092915050565b60006200045e8262000465565b9050919050565b600073ffffffffffffffffffffffffffffffffffffffff82169050919050565b620004908162000451565b81146200049c57600080fd5b50565b61474e80620004af6000396000f3fe60806040523480156200001157600080fd5b5060043610620001475760003560e01c806395bf75fd11620000bd578063dcb66941116200007b578063dcb669411462000354578063e78c9fef1462000376578063eacf38451462000398578063eb8a79fe14620003ba578063ff0f0f8914620003da5762000147565b806395bf75fd146200029a57806399d9047114620002bc578063a83a462014620002dc578063b9ba934c1462000312578063dc10e84d14620003345762000147565b806362c1e542116200010b57806362c1e54214620001f45780636e7de39914620002165780637f9b1adf1462000236578063826d79511462000258578063904bc742146200027a5762000147565b8062e77aa6146200014c57806319d51d89146200016e57806336d7a7fe14620001905780633b7fa03414620001b05780634f5114bb14620001d2575b600080fd5b62000156620003fc565b60405162000165919062001ca2565b60405180910390f35b6200017862000422565b60405162000187919062001cbf565b60405180910390f35b620001ae6004803603620001a89190810190620017ea565b62000448565b005b620001ba620007cb565b604051620001c9919062001bd1565b60405180910390f35b620001dc62000934565b604051620001eb919062001de7565b60405180910390f35b620001fe6200093a565b6040516200020d919062001e04565b60405180910390f35b6200023460048036036200022e919081019062001841565b6200093f565b005b6200024062000bc2565b6040516200024f919062001e04565b60405180910390f35b6200026262000bc7565b60405162000271919062001de7565b60405180910390f35b62000298600480360362000292919081019062001739565b62000bcd565b005b620002a46200100c565b604051620002b3919062001cdc565b60405180910390f35b620002da6004803603620002d4919081019062001841565b62001031565b005b620002fa6004803603620002f49190810190620016cc565b62001221565b60405162000309919062001c85565b60405180910390f35b6200031c62001241565b6040516200032b919062001e04565b60405180910390f35b6200035260048036036200034c9190810190620016f8565b62001246565b005b6200035e620012d9565b6040516200036d919062001de7565b60405180910390f35b62000380620012df565b6040516200038f919062001de7565b60405180910390f35b620003a2620012e5565b604051620003b1919062001de7565b60405180910390f35b620003d86004803603620003d2919081019062001841565b620012ea565b005b620003e462001527565b604051620003f3919062001bd1565b60405180910390f35b600160009054906101000a900473ffffffffffffffffffffffffffffffffffffffff1681565b600260009054906101000a900473ffffffffffffffffffffffffffffffffffffffff1681565b600860003373ffffffffffffffffffffffffffffffffffffffff1673ffffffffffffffffffffffffffffffffffffffff16815260200190815260200160002060009054906101000a900460ff16620004d7576040517f08c379a0000000000000000000000000000000000000000000000000000000008152600401620004ce9062001d81565b60405180910390fd5b60008090505b600160050363ffffffff16811015620007b357818160058110620004fd57fe5b60200201516040015115620007a557600260009054906101000a900473ffffffffffffffffffffffffffffffffffffffff1673ffffffffffffffffffffffffffffffffffffffff166357a94beb8383600581106200055757fe5b6020020151600001516040518263ffffffff1660e01b81526004016200057e919062001bd1565b602060405180830381600087803b1580156200059957600080fd5b505af1158015620005ae573d6000803e3d6000fd5b505050506040513d601f19601f82011682018060405250620005d4919081019062001792565b62000616576040517f08c379a00000000000000000000000000000000000000000000000000000000081526004016200060d9062001dc5565b60405180910390fd5b60008282600581106200062557fe5b602002015160000151905060008383600581106200063f57fe5b6020020151602001519050600260009054906101000a900473ffffffffffffffffffffffffffffffffffffffff1673ffffffffffffffffffffffffffffffffffffffff16635e64bbb083606463ffffffff16898563ffffffff160281620006a257fe5b046040518363ffffffff1660e01b8152600401620006c292919062001c58565b600060405180830381600087803b158015620006dd57600080fd5b505af1158015620006f2573d6000803e3d6000fd5b50505050600260009054906101000a900473ffffffffffffffffffffffffffffffffffffffff1673ffffffffffffffffffffffffffffffffffffffff16635f5fef1683606463ffffffff16888563ffffffff1602816200074e57fe5b046040518363ffffffff1660e01b81526004016200076e92919062001c58565b600060405180830381600087803b1580156200078957600080fd5b505af11580156200079e573d6000803e3d6000fd5b5050505050505b8080600101915050620004dd565b50828203600560008282540192505081905550505050565b600080336000809054906101000a900473ffffffffffffffffffffffffffffffffffffffff16600160009054906101000a900473ffffffffffffffffffffffffffffffffffffffff1660405162000822906200154d565b620008309392919062001bee565b604051809103906000f0801580156200084d573d6000803e3d6000fd5b50905080600760006101000a81548173ffffffffffffffffffffffffffffffffffffffff021916908373ffffffffffffffffffffffffffffffffffffffff160217905550600160086000600760009054906101000a900473ffffffffffffffffffffffffffffffffffffffff1673ffffffffffffffffffffffffffffffffffffffff1673ffffffffffffffffffffffffffffffffffffffff16815260200190815260200160002060006101000a81548160ff021916908315150217905550600760009054906101000a900473ffffffffffffffffffffffffffffffffffffffff1691505090565b60035481565b606481565b600860003373ffffffffffffffffffffffffffffffffffffffff1673ffffffffffffffffffffffffffffffffffffffff16815260200190815260200160002060009054906101000a900460ff16620009ce576040517f08c379a0000000000000000000000000000000000000000000000000000000008152600401620009c59062001cf9565b60405180910390fd5b8183101562000a14576040517f08c379a000000000000000000000000000000000000000000000000000000000815260040162000a0b9062001d1b565b60405180910390fd5b600082840390506000600260009054906101000a900473ffffffffffffffffffffffffffffffffffffffff1673ffffffffffffffffffffffffffffffffffffffff1663185180bf6040518163ffffffff1660e01b8152600401602060405180830381600087803b15801562000a8857600080fd5b505af115801562000a9d573d6000803e3d6000fd5b505050506040513d601f19601f8201168201806040525062000ac39190810190620017be565b9050606481840202600a800a6096840202111562000b18576040517f08c379a000000000000000000000000000000000000000000000000000000000815260040162000b0f9062001d5f565b60405180910390fd5b600160009054906101000a900473ffffffffffffffffffffffffffffffffffffffff1673ffffffffffffffffffffffffffffffffffffffff16639dc29fac33866040518363ffffffff1660e01b815260040162000b7792919062001c2b565b600060405180830381600087803b15801562000b9257600080fd5b505af115801562000ba7573d6000803e3d6000fd5b50505050836006600082825403925050819055505050505050565b600581565b60045481565b60008090505b600160050363ffffffff16811015620010065783816005811062000bf357fe5b6020020151604001511562000def57600260009054906101000a900473ffffffffffffffffffffffffffffffffffffffff1673ffffffffffffffffffffffffffffffffffffffff166357a94beb85836005811062000c4d57fe5b6020020151600001516040518263ffffffff1660e01b815260040162000c74919062001bd1565b602060405180830381600087803b15801562000c8f57600080fd5b505af115801562000ca4573d6000803e3d6000fd5b505050506040513d601f19601f8201168201806040525062000cca919081019062001792565b62000d0c576040517f08c379a000000000000000000000000000000000000000000000000000000000815260040162000d039062001dc5565b60405180910390fd5b600084826005811062000d1b57fe5b6020020151600001519050600085836005811062000d3557fe5b6020020151602001519050600260009054906101000a900473ffffffffffffffffffffffffffffffffffffffff1673ffffffffffffffffffffffffffffffffffffffff16635e64bbb083606463ffffffff16878563ffffffff16028162000d9857fe5b046040518363ffffffff1660e01b815260040162000db892919062001c58565b600060405180830381600087803b15801562000dd357600080fd5b505af115801562000de8573d6000803e3d6000fd5b5050505050505b82816005811062000dfc57fe5b6020020151604001511562000ff857600260009054906101000a900473ffffffffffffffffffffffffffffffffffffffff1673ffffffffffffffffffffffffffffffffffffffff166357a94beb84836005811062000e5657fe5b6020020151600001516040518263ffffffff1660e01b815260040162000e7d919062001bd1565b602060405180830381600087803b15801562000e9857600080fd5b505af115801562000ead573d6000803e3d6000fd5b505050506040513d601f19601f8201168201806040525062000ed3919081019062001792565b62000f15576040517f08c379a000000000000000000000000000000000000000000000000000000000815260040162000f0c9062001dc5565b60405180910390fd5b600083826005811062000f2457fe5b6020020151600001519050600084836005811062000f3e57fe5b6020020151602001519050600260009054906101000a900473ffffffffffffffffffffffffffffffffffffffff1673ffffffffffffffffffffffffffffffffffffffff16635f5fef1683606463ffffffff16878563ffffffff16028162000fa157fe5b046040518363ffffffff1660e01b815260040162000fc192919062001c58565b600060405180830381600087803b15801562000fdc57600080fd5b505af115801562000ff1573d6000803e3d6000fd5b5050505050505b808060010191505062000bd3565b50505050565b6000809054906101000a900473ffffffffffffffffffffffffffffffffffffffff1681565b600860003373ffffffffffffffffffffffffffffffffffffffff1673ffffffffffffffffffffffffffffffffffffffff16815260200190815260200160002060009054906101000a900460ff16620010c0576040517f08c379a0000000000000000000000000000000000000000000000000000000008152600401620010b79062001cf9565b60405180910390fd5b8181101562001106576040517f08c379a0000000000000000000000000000000000000000000000000000000008152600401620010fd9062001da3565b60405180910390fd5b6000600260009054906101000a900473ffffffffffffffffffffffffffffffffffffffff1673ffffffffffffffffffffffffffffffffffffffff1663185180bf6040518163ffffffff1660e01b8152600401602060405180830381600087803b1580156200117357600080fd5b505af115801562001188573d6000803e3d6000fd5b505050506040513d601f19601f82011682018060405250620011ae9190810190620017be565b905060008383039050606482820202600a800a609687020211156200120a576040517f08c379a0000000000000000000000000000000000000000000000000000000008152600401620012019062001d3d565b60405180910390fd5b836005600082825403925050819055505050505050565b60086020528060005260406000206000915054906101000a900460ff1681565b609681565b600860003373ffffffffffffffffffffffffffffffffffffffff1673ffffffffffffffffffffffffffffffffffffffff16815260200190815260200160002060009054906101000a900460ff16620012d5576040517f08c379a0000000000000000000000000000000000000000000000000000000008152600401620012cc9062001cf9565b60405180910390fd5b5050565b60055481565b60065481565b600a81565b600860003373ffffffffffffffffffffffffffffffffffffffff1673ffffffffffffffffffffffffffffffffffffffff16815260200190815260200160002060009054906101000a900460ff1662001379576040517f08c379a0000000000000000000000000000000000000000000000000000000008152600401620013709062001d81565b60405180910390fd5b600082840190506000600260009054906101000a900473ffffffffffffffffffffffffffffffffffffffff1673ffffffffffffffffffffffffffffffffffffffff1663185180bf6040518163ffffffff1660e01b8152600401602060405180830381600087803b158015620013ed57600080fd5b505af115801562001402573d6000803e3d6000fd5b505050506040513d601f19601f82011682018060405250620014289190810190620017be565b9050606481840202600a800a609684020211156200147d576040517f08c379a0000000000000000000000000000000000000000000000000000000008152600401620014749062001d5f565b60405180910390fd5b600160009054906101000a900473ffffffffffffffffffffffffffffffffffffffff1673ffffffffffffffffffffffffffffffffffffffff166340c10f1933866040518363ffffffff1660e01b8152600401620014dc92919062001c2b565b600060405180830381600087803b158015620014f757600080fd5b505af11580156200150c573d6000803e3d6000fd5b50505050836006600082825401925050819055505050505050565b600760009054906101000a900473ffffffffffffffffffffffffffffffffffffffff1681565b6127128062001ffa83390190565b6000813590506200156c8162001f91565b92915050565b600082601f8301126200158457600080fd5b60056200159b620015958262001e4f565b62001e21565b91508183856060840282011115620015b257600080fd5b60005b83811015620015e65781620015cb88826200161e565b845260208401935060608301925050600181019050620015b5565b5050505092915050565b600081359050620016018162001fab565b92915050565b600081519050620016188162001fab565b92915050565b6000606082840312156200163157600080fd5b6200163d606062001e21565b905060006200164f848285016200155b565b60008301525060206200166584828501620016b5565b60208301525060406200167b84828501620015f0565b60408301525092915050565b600081359050620016988162001fc5565b92915050565b600081519050620016af8162001fc5565b92915050565b600081359050620016c68162001fdf565b92915050565b600060208284031215620016df57600080fd5b6000620016ef848285016200155b565b91505092915050565b600080604083850312156200170c57600080fd5b60006200171c858286016200155b565b92505060206200172f8582860162001687565b9150509250929050565b60008060006103e084860312156200175057600080fd5b6000620017608682870162001572565b9350506101e0620017748682870162001572565b9250506103c0620017888682870162001687565b9150509250925092565b600060208284031215620017a557600080fd5b6000620017b58482850162001607565b91505092915050565b600060208284031215620017d157600080fd5b6000620017e1848285016200169e565b91505092915050565b600080600061022084860312156200180157600080fd5b6000620018118682870162001687565b9350506020620018248682870162001687565b9250506040620018378682870162001572565b9150509250925092565b6000806000606084860312156200185757600080fd5b6000620018678682870162001687565b93505060206200187a8682870162001687565b92505060406200188d8682870162001687565b9150509250925092565b620018a28162001edd565b82525050565b620018b38162001e83565b82525050565b620018c48162001e97565b82525050565b620018d58162001ef1565b82525050565b620018e68162001f19565b82525050565b620018f78162001f41565b82525050565b60006200190c60248362001e72565b91507f73656e6465722073686f756c642062652076616c6964206c6f616e20636f6e7460008301527f72616374000000000000000000000000000000000000000000000000000000006020830152604082019050919050565b60006200197460298362001e72565b91507f63616e6e6f742072657665727365206d6f7265207468616e2063757272656e7460008301527f2069737375616e636500000000000000000000000000000000000000000000006020830152604082019050919050565b6000620019dc60268362001e72565b91507f7769746864726177616c2073686f756c64206e6f74206578636565642074687260008301527f6573686f6c6400000000000000000000000000000000000000000000000000006020830152604082019050919050565b600062001a4460248362001e72565b91507f69737375616e63652073686f756c64206e6f742065786365656420746872657360008301527f686f6c64000000000000000000000000000000000000000000000000000000006020830152604082019050919050565b600062001aac601e8362001e72565b91507f73656e6465722073686f756c64206265206c6f616e20636f6e747261637400006000830152602082019050919050565b600062001aee60298362001e72565b91507f63616e6e6f74207769746864726177206d6f7265207468616e2063757272656e60008301527f742062616c616e636500000000000000000000000000000000000000000000006020830152604082019050919050565b600062001b56602b8362001e72565b91507f616c6c6f636174696f6e2061646472657373206d7573742062652076616c696460008301527f20707269636520666565640000000000000000000000000000000000000000006020830152604082019050919050565b62001bba8162001ec3565b82525050565b62001bcb8162001ecd565b82525050565b600060208201905062001be86000830184620018a8565b92915050565b600060608201905062001c05600083018662001897565b62001c146020830185620018a8565b62001c236040830184620018a8565b949350505050565b600060408201905062001c42600083018562001897565b62001c51602083018462001baf565b9392505050565b600060408201905062001c6f6000830185620018a8565b62001c7e602083018462001baf565b9392505050565b600060208201905062001c9c6000830184620018b9565b92915050565b600060208201905062001cb96000830184620018ca565b92915050565b600060208201905062001cd66000830184620018db565b92915050565b600060208201905062001cf36000830184620018ec565b92915050565b6000602082019050818103600083015262001d1481620018fd565b9050919050565b6000602082019050818103600083015262001d368162001965565b9050919050565b6000602082019050818103600083015262001d5881620019cd565b9050919050565b6000602082019050818103600083015262001d7a8162001a35565b9050919050565b6000602082019050818103600083015262001d9c8162001a9d565b9050919050565b6000602082019050818103600083015262001dbe8162001adf565b9050919050565b6000602082019050818103600083015262001de08162001b47565b9050919050565b600060208201905062001dfe600083018462001baf565b92915050565b600060208201905062001e1b600083018462001bc0565b92915050565b6000604051905081810181811067ffffffffffffffff8211171562001e4557600080fd5b8060405250919050565b600067ffffffffffffffff82111562001e6757600080fd5b602082029050919050565b600082825260208201905092915050565b600062001e908262001ea3565b9050919050565b60008115159050919050565b600073ffffffffffffffffffffffffffffffffffffffff82169050919050565b6000819050919050565b600063ffffffff82169050919050565b600062001eea8262001f69565b9050919050565b600062001efe8262001f05565b9050919050565b600062001f128262001ea3565b9050919050565b600062001f268262001f2d565b9050919050565b600062001f3a8262001ea3565b9050919050565b600062001f4e8262001f55565b9050919050565b600062001f628262001ea3565b9050919050565b600062001f768262001f7d565b9050919050565b600062001f8a8262001ea3565b9050919050565b62001f9c8162001e83565b811462001fa857600080fd5b50565b62001fb68162001e97565b811462001fc257600080fd5b50565b62001fd08162001ec3565b811462001fdc57600080fd5b50565b62001fea8162001ecd565b811462001ff657600080fd5b5056fe60806040523480156200001157600080fd5b50604051620027123803806200271283398181016040526200003791908101906200015a565b826000806101000a81548173ffffffffffffffffffffffffffffffffffffffff021916908373ffffffffffffffffffffffffffffffffffffffff16021790555033600260006101000a81548173ffffffffffffffffffffffffffffffffffffffff021916908373ffffffffffffffffffffffffffffffffffffffff16021790555081600160006101000a81548173ffffffffffffffffffffffffffffffffffffffff021916908373ffffffffffffffffffffffffffffffffffffffff16021790555080600360006101000a81548173ffffffffffffffffffffffffffffffffffffffff021916908373ffffffffffffffffffffffffffffffffffffffff160217905550505050620001fe565b6000815190506200015481620001e4565b92915050565b6000806000606084860312156200017057600080fd5b6000620001808682870162000143565b9350506020620001938682870162000143565b9250506040620001a68682870162000143565b9150509250925092565b6000620001bd82620001c4565b9050919050565b600073ffffffffffffffffffffffffffffffffffffffff82169050919050565b620001ef81620001b0565b8114620001fb57600080fd5b50565b612504806200020e6000396000f3fe6080604052600436106101085760003560e01c80638da5cb5b11610095578063c61304fa11610064578063c61304fa14610325578063c90e3f1b14610362578063d4048089146103a1578063f76f950e146103cc578063fb9883cb1461040957610108565b80638da5cb5b1461027d57806395bf75fd146102a8578063a9e89871146102d3578063b9035b38146102fc57610108565b80631b9a91a4116100dc5780631b9a91a4146101b75780632cf0c896146101e05780632f62acbd1461020b578063439370b11461023657806369f9ad2f1461024057610108565b8062e77aa61461010d57806302dee45914610138578063086e2f7014610163578063120339a81461018c575b600080fd5b34801561011957600080fd5b50610122610432565b60405161012f9190611f6d565b60405180910390f35b34801561014457600080fd5b5061014d610458565b60405161015a9190611f37565b60405180910390f35b34801561016f57600080fd5b5061018a6004803603610185919081019061187f565b61046b565b005b34801561019857600080fd5b506101a1610863565b6040516101ae9190611f88565b60405180910390f35b3480156101c357600080fd5b506101de60048036036101d99190810190611807565b610889565b005b3480156101ec57600080fd5b506101f5610a0d565b604051610202919061216a565b60405180910390f35b34801561021757600080fd5b50610220610a12565b60405161022d919061216a565b60405180910390f35b61023e610a17565b005b34801561024c57600080fd5b50610267600480360361026291908101906118d2565b610c6c565b6040516102749190611f52565b60405180910390f35b34801561028957600080fd5b50610292610ca0565b60405161029f9190611e82565b60405180910390f35b3480156102b457600080fd5b506102bd610cc5565b6040516102ca9190611fa3565b60405180910390f35b3480156102df57600080fd5b506102fa60048036036102f591908101906118fb565b610ceb565b005b34801561030857600080fd5b50610323600480360361031e91908101906118fb565b610eab565b005b34801561033157600080fd5b5061034c600480360361034791908101906117de565b611102565b6040516103599190611fbe565b60405180910390f35b34801561036e57600080fd5b50610389600480360361038491908101906118fb565b611251565b60405161039893929190611ec6565b60405180910390f35b3480156103ad57600080fd5b506103b66112b8565b6040516103c391906120e0565b60405180910390f35b3480156103d857600080fd5b506103f360048036036103ee91908101906118fb565b6112be565b6040516104009190611fbe565b60405180910390f35b34801561041557600080fd5b50610430600480360361042b9190810190611843565b6113f2565b005b600360009054906101000a900473ffffffffffffffffffffffffffffffffffffffff1681565b600a60009054906101000a900460ff1681565b3373ffffffffffffffffffffffffffffffffffffffff166000809054906101000a900473ffffffffffffffffffffffffffffffffffffffff1673ffffffffffffffffffffffffffffffffffffffff16146104fa576040517f08c379a00000000000000000000000000000000000000000000000000000000081526004016104f190612040565b60405180910390fd5b7f0f8db0708c4e6b233e2c285fe1ed66015dee71bd374ac8e835534be5f592d6a260405161052790612080565b60405180910390a17f0f8db0708c4e6b233e2c285fe1ed66015dee71bd374ac8e835534be5f592d6a26105703073ffffffffffffffffffffffffffffffffffffffff16316112be565b60405161057d9190611fbe565b60405180910390a1600260009054906101000a900473ffffffffffffffffffffffffffffffffffffffff1673ffffffffffffffffffffffffffffffffffffffff1663904bc7426005833073ffffffffffffffffffffffffffffffffffffffff16316040518463ffffffff1660e01b81526004016105fc93929190611efd565b600060405180830381600087803b15801561061657600080fd5b505af115801561062a573d6000803e3d6000fd5b505050506001600a60006101000a81548160ff021916908315150217905550600080905060008090505b600160050363ffffffff1681101561080f5782816005811061067257fe5b6020020151604001511561079e5782816005811061068c57fe5b60200201516020015182019150606463ffffffff168263ffffffff1611156106e9576040517f08c379a00000000000000000000000000000000000000000000000000000000081526004016106e090612000565b60405180910390fd5b8281600581106106f557fe5b60200201516005826005811061070757fe5b0160008201518160000160006101000a81548173ffffffffffffffffffffffffffffffffffffffff021916908373ffffffffffffffffffffffffffffffffffffffff16021790555060208201518160000160146101000a81548163ffffffff021916908363ffffffff16021790555060408201518160000160186101000a81548160ff021916908315150217905550905050610802565b600581600581106107ab57fe5b01600080820160006101000a81549073ffffffffffffffffffffffffffffffffffffffff02191690556000820160146101000a81549063ffffffff02191690556000820160186101000a81549060ff021916905550505b8080600101915050610654565b50606463ffffffff168163ffffffff161461085f576040517f08c379a000000000000000000000000000000000000000000000000000000000815260040161085690612000565b60405180910390fd5b5050565b600260009054906101000a900473ffffffffffffffffffffffffffffffffffffffff1681565b3373ffffffffffffffffffffffffffffffffffffffff166000809054906101000a900473ffffffffffffffffffffffffffffffffffffffff1673ffffffffffffffffffffffffffffffffffffffff1614610918576040517f08c379a000000000000000000000000000000000000000000000000000000000815260040161090f90612040565b60405180910390fd5b600260009054906101000a900473ffffffffffffffffffffffffffffffffffffffff1673ffffffffffffffffffffffffffffffffffffffff166399d90471600454833073ffffffffffffffffffffffffffffffffffffffff16316040518463ffffffff1660e01b815260040161099093929190612133565b600060405180830381600087803b1580156109aa57600080fd5b505af11580156109be573d6000803e3d6000fd5b505050508173ffffffffffffffffffffffffffffffffffffffff166108fc829081150290604051600060405180830381858888f19350505050158015610a08573d6000803e3d6000fd5b505050565b606481565b600581565b3373ffffffffffffffffffffffffffffffffffffffff166000809054906101000a900473ffffffffffffffffffffffffffffffffffffffff1673ffffffffffffffffffffffffffffffffffffffff1614610aa6576040517f08c379a0000000000000000000000000000000000000000000000000000000008152600401610a9d90612040565b60405180910390fd5b600a60009054906101000a900460ff16610af5576040517f08c379a0000000000000000000000000000000000000000000000000000000008152600401610aec906120c0565b60405180910390fd5b7f0f8db0708c4e6b233e2c285fe1ed66015dee71bd374ac8e835534be5f592d6a2604051610b2290612020565b60405180910390a17f0f8db0708c4e6b233e2c285fe1ed66015dee71bd374ac8e835534be5f592d6a2610b6b3073ffffffffffffffffffffffffffffffffffffffff16316112be565b604051610b789190611fbe565b60405180910390a17f0f8db0708c4e6b233e2c285fe1ed66015dee71bd374ac8e835534be5f592d6a2610baa346112be565b604051610bb79190611fbe565b60405180910390a1600260009054906101000a900473ffffffffffffffffffffffffffffffffffffffff1673ffffffffffffffffffffffffffffffffffffffff166336d7a7fe343073ffffffffffffffffffffffffffffffffffffffff1631033460056040518463ffffffff1660e01b8152600401610c38939291906120fb565b600060405180830381600087803b158015610c5257600080fd5b505af1158015610c66573d6000803e3d6000fd5b50505050565b6000600a8260f81c60ff161015610c8e5760308260f81c0160f81b9050610c9b565b60578260f81c0160f81b90505b919050565b6000809054906101000a900473ffffffffffffffffffffffffffffffffffffffff1681565b600160009054906101000a900473ffffffffffffffffffffffffffffffffffffffff1681565b3373ffffffffffffffffffffffffffffffffffffffff166000809054906101000a900473ffffffffffffffffffffffffffffffffffffffff1673ffffffffffffffffffffffffffffffffffffffff1614610d7a576040517f08c379a0000000000000000000000000000000000000000000000000000000008152600401610d7190612040565b60405180910390fd5b7f0f8db0708c4e6b233e2c285fe1ed66015dee71bd374ac8e835534be5f592d6a2604051610da790611fe0565b60405180910390a17f0f8db0708c4e6b233e2c285fe1ed66015dee71bd374ac8e835534be5f592d6a2610dd9826112be565b604051610de69190611fbe565b60405180910390a1600260009054906101000a900473ffffffffffffffffffffffffffffffffffffffff1673ffffffffffffffffffffffffffffffffffffffff16636e7de399600454833073ffffffffffffffffffffffffffffffffffffffff16316040518463ffffffff1660e01b8152600401610e6693929190612133565b600060405180830381600087803b158015610e8057600080fd5b505af1158015610e94573d6000803e3d6000fd5b505050508060046000828254039250508190555050565b3373ffffffffffffffffffffffffffffffffffffffff166000809054906101000a900473ffffffffffffffffffffffffffffffffffffffff1673ffffffffffffffffffffffffffffffffffffffff1614610f3a576040517f08c379a0000000000000000000000000000000000000000000000000000000008152600401610f3190612040565b60405180910390fd5b7f0f8db0708c4e6b233e2c285fe1ed66015dee71bd374ac8e835534be5f592d6a2604051610f6790612060565b60405180910390a17f0f8db0708c4e6b233e2c285fe1ed66015dee71bd374ac8e835534be5f592d6a2610f9b6004546112be565b604051610fa89190611fbe565b60405180910390a17f0f8db0708c4e6b233e2c285fe1ed66015dee71bd374ac8e835534be5f592d6a2610fda826112be565b604051610fe79190611fbe565b60405180910390a17f0f8db0708c4e6b233e2c285fe1ed66015dee71bd374ac8e835534be5f592d6a26110303073ffffffffffffffffffffffffffffffffffffffff16316112be565b60405161103d9190611fbe565b60405180910390a1600260009054906101000a900473ffffffffffffffffffffffffffffffffffffffff1673ffffffffffffffffffffffffffffffffffffffff1663eb8a79fe600454833073ffffffffffffffffffffffffffffffffffffffff16316040518463ffffffff1660e01b81526004016110bd93929190612133565b600060405180830381600087803b1580156110d757600080fd5b505af11580156110eb573d6000803e3d6000fd5b505050508060046000828254019250508190555050565b60608060286040519080825280601f01601f1916602001820160405280156111395781602001600182028038833980820191505090505b50905060008090505b60148110156112475760008160130360080260020a8573ffffffffffffffffffffffffffffffffffffffff168161117557fe5b0460f81b9050600060108260f81c60ff168161118d57fe5b0460f81b905060008160f81c6010028360f81c0360f81b90506111af82610c6c565b8585600202815181106111be57fe5b60200101907effffffffffffffffffffffffffffffffffffffffffffffffffffffffffffff1916908160001a9053506111f681610c6c565b85600186600202018151811061120857fe5b60200101907effffffffffffffffffffffffffffffffffffffffffffffffffffffffffffff1916908160001a9053505050508080600101915050611142565b5080915050919050565b6005816005811061125e57fe5b016000915090508060000160009054906101000a900473ffffffffffffffffffffffffffffffffffffffff16908060000160149054906101000a900463ffffffff16908060000160189054906101000a900460ff16905083565b60045481565b60606000829050600081141561130c576040518060400160405280600181526020017f30000000000000000000000000000000000000000000000000000000000000008152509150506113ed565b600081905060005b60008214611336578080600101915050600a828161132e57fe5b049150611314565b6060816040519080825280601f01601f19166020018201604052801561136b5781602001600182028038833980820191505090505b50905060006001830390505b600085146113e457600a858161138957fe5b0660300160f81b828280600190039350815181106113a357fe5b60200101907effffffffffffffffffffffffffffffffffffffffffffffffffffffffffffff1916908160001a905350600a85816113dc57fe5b049450611377565b81955050505050505b919050565b3373ffffffffffffffffffffffffffffffffffffffff166000809054906101000a900473ffffffffffffffffffffffffffffffffffffffff1673ffffffffffffffffffffffffffffffffffffffff1614611481576040517f08c379a000000000000000000000000000000000000000000000000000000000815260040161147890612040565b60405180910390fd5b7f0f8db0708c4e6b233e2c285fe1ed66015dee71bd374ac8e835534be5f592d6a26040516114ae906120a0565b60405180910390a17f0f8db0708c4e6b233e2c285fe1ed66015dee71bd374ac8e835534be5f592d6a26114e083611102565b6040516114ed9190611fbe565b60405180910390a17f0f8db0708c4e6b233e2c285fe1ed66015dee71bd374ac8e835534be5f592d6a261151f826112be565b60405161152c9190611fbe565b60405180910390a1600360009054906101000a900473ffffffffffffffffffffffffffffffffffffffff1673ffffffffffffffffffffffffffffffffffffffff1663a9059cbb83836040518363ffffffff1660e01b8152600401611591929190611e9d565b602060405180830381600087803b1580156115ab57600080fd5b505af11580156115bf573d6000803e3d6000fd5b505050506040513d601f19601f820116820180604052506115e391908101906118a9565b50600260009054906101000a900473ffffffffffffffffffffffffffffffffffffffff1673ffffffffffffffffffffffffffffffffffffffff1663dc10e84d83836040518363ffffffff1660e01b8152600401611641929190611e9d565b600060405180830381600087803b15801561165b57600080fd5b505af115801561166f573d6000803e3d6000fd5b505050505050565b60008135905061168681612437565b92915050565b60008135905061169b8161244e565b92915050565b600082601f8301126116b257600080fd5b60056116c56116c0826121b2565b612185565b915081838560608402820111156116db57600080fd5b60005b8381101561170b57816116f18882611754565b8452602084019350606083019250506001810190506116de565b5050505092915050565b60008135905061172481612465565b92915050565b60008151905061173981612465565b92915050565b60008135905061174e8161247c565b92915050565b60006060828403121561176657600080fd5b6117706060612185565b9050600061178084828501611677565b6000830152506020611794848285016117c9565b60208301525060406117a884828501611715565b60408301525092915050565b6000813590506117c381612493565b92915050565b6000813590506117d8816124aa565b92915050565b6000602082840312156117f057600080fd5b60006117fe84828501611677565b91505092915050565b6000806040838503121561181a57600080fd5b60006118288582860161168c565b9250506020611839858286016117b4565b9150509250929050565b6000806040838503121561185657600080fd5b600061186485828601611677565b9250506020611875858286016117b4565b9150509250929050565b60006101e0828403121561189257600080fd5b60006118a0848285016116a1565b91505092915050565b6000602082840312156118bb57600080fd5b60006118c98482850161172a565b91505092915050565b6000602082840312156118e457600080fd5b60006118f28482850161173f565b91505092915050565b60006020828403121561190d57600080fd5b600061191b848285016117b4565b91505092915050565b60006119308383611dbc565b60608301905092915050565b60006119488383611dfe565b60608301905092915050565b61195d8161227c565b82525050565b61196c8161227c565b82525050565b61197b816121e8565b6119858184612223565b9250611990826121d4565b8060005b838110156119c15781516119a88782611924565b96506119b383612209565b925050600181019050611994565b505050505050565b6119d2816121f3565b6119dc8184612223565b92506119e7826121de565b8060005b83811015611a1757816119fe878261193c565b9650611a0983612216565b9250506001810190506119eb565b505050505050565b611a28816122a0565b82525050565b611a37816122a0565b82525050565b611a46816122ac565b82525050565b611a5581612312565b82525050565b611a6481612336565b82525050565b611a738161235a565b82525050565b6000611a84826121fe565b611a8e818561222e565b9350611a9e81856020860161237e565b611aa7816123ff565b840191505092915050565b6000611abf602e8361222e565b91507f3e7265766572736543757272656e637949737375616e6365205f72657665727360008301527f6549737375616e636556616c75650000000000000000000000000000000000006020830152604082019050919050565b6000611b25602d8361222e565b91507f53756d206f66206e657720616c6c6f636174696f6e2070657263656e7473207360008301527f686f756c642062652031303025000000000000000000000000000000000000006020830152604082019050919050565b6000611b8b602a8361222e565b91507f6465706f73697445746820616464726573732874686973292e62616c616e636560008301527f206d73672e76616c7565000000000000000000000000000000000000000000006020830152604082019050919050565b6000611bf160168361222e565b91507f73656e6465722073686f756c64206265206f776e6572000000000000000000006000830152602082019050919050565b6000611c3160438361222e565b91507f3e697373756543757272656e63792063757272656e7449737375616e6365205f60008301527f69737375616e636556616c756520616464726573732874686973292e62616c6160208301527f6e636500000000000000000000000000000000000000000000000000000000006040830152606082019050919050565b6000611cbd60208361222e565b91507f3e616c6c6f6361746550726963654665656473206c6f616e2062616c616e63656000830152602082019050919050565b6000611cfd60388361222e565b91507f3e6c6f616e5f776974686472617743757272656e6379205f776974686472617760008301527f546f41646472657373205f776974686472617756616c756500000000000000006020830152604082019050919050565b6000611d63602c8361222e565b91507f7072696365206665656420616c6c6f636174696f6e732073686f756c6420626560008301527f20696e697469616c697a656400000000000000000000000000000000000000006020830152604082019050919050565b606082016000820151611dd26000850182611954565b506020820151611de56020850182611e64565b506040820151611df86040850182611a1f565b50505050565b606082016000808301549050611e13816123b1565b611e206000860182611954565b50611e2a816123cb565b611e376020860182611e64565b50611e41816123e5565b611e4e6040860182611a1f565b5050505050565b611e5e816122f8565b82525050565b611e6d81612302565b82525050565b611e7c81612302565b82525050565b6000602082019050611e976000830184611963565b92915050565b6000604082019050611eb26000830185611963565b611ebf6020830184611e55565b9392505050565b6000606082019050611edb6000830186611963565b611ee86020830185611e73565b611ef56040830184611a2e565b949350505050565b60006103e082019050611f1360008301866119c9565b611f216101e0830185611972565b611f2f6103c0830184611e55565b949350505050565b6000602082019050611f4c6000830184611a2e565b92915050565b6000602082019050611f676000830184611a3d565b92915050565b6000602082019050611f826000830184611a4c565b92915050565b6000602082019050611f9d6000830184611a5b565b92915050565b6000602082019050611fb86000830184611a6a565b92915050565b60006020820190508181036000830152611fd88184611a79565b905092915050565b60006020820190508181036000830152611ff981611ab2565b9050919050565b6000602082019050818103600083015261201981611b18565b9050919050565b6000602082019050818103600083015261203981611b7e565b9050919050565b6000602082019050818103600083015261205981611be4565b9050919050565b6000602082019050818103600083015261207981611c24565b9050919050565b6000602082019050818103600083015261209981611cb0565b9050919050565b600060208201905081810360008301526120b981611cf0565b9050919050565b600060208201905081810360008301526120d981611d56565b9050919050565b60006020820190506120f56000830184611e55565b92915050565b6000610220820190506121116000830186611e55565b61211e6020830185611e55565b61212b60408301846119c9565b949350505050565b60006060820190506121486000830186611e55565b6121556020830185611e55565b6121626040830184611e55565b949350505050565b600060208201905061217f6000830184611e73565b92915050565b6000604051905081810181811067ffffffffffffffff821117156121a857600080fd5b8060405250919050565b600067ffffffffffffffff8211156121c957600080fd5b602082029050919050565b6000819050919050565b6000819050919050565b600060059050919050565b600060059050919050565b600081519050919050565b6000602082019050919050565b6000600182019050919050565b600081905092915050565b600082825260208201905092915050565b600073ffffffffffffffffffffffffffffffffffffffff82169050919050565b600060ff82169050919050565b600063ffffffff82169050919050565b6000612287826122d8565b9050919050565b6000612299826122d8565b9050919050565b60008115159050919050565b60007fff0000000000000000000000000000000000000000000000000000000000000082169050919050565b600073ffffffffffffffffffffffffffffffffffffffff82169050919050565b6000819050919050565b600063ffffffff82169050919050565b600061231d82612324565b9050919050565b600061232f826122d8565b9050919050565b600061234182612348565b9050919050565b6000612353826122d8565b9050919050565b60006123658261236c565b9050919050565b6000612377826122d8565b9050919050565b60005b8381101561239c578082015181840152602081019050612381565b838111156123ab576000848401525b50505050565b60006123c46123bf83612410565b61223f565b9050919050565b60006123de6123d98361241d565b61226c565b9050919050565b60006123f86123f38361242a565b61225f565b9050919050565b6000601f19601f8301169050919050565b60008160001c9050919050565b60008160a01c9050919050565b60008160c01c9050919050565b6124408161227c565b811461244b57600080fd5b50565b6124578161228e565b811461246257600080fd5b50565b61246e816122a0565b811461247957600080fd5b50565b612485816122ac565b811461249057600080fd5b50565b61249c816122f8565b81146124a757600080fd5b50565b6124b381612302565b81146124be57600080fd5b5056fea365627a7a72315820bcbc415b6b7e8129dff03246af51a4086ed652bd64bab825af075729ca20acc66c6578706572696d656e74616cf564736f6c634300050c0040a365627a7a72315820c125cacb7bac88fce2a9b0528a33b7d54112a35b97d662991a7c048ab5303cbb6c6578706572696d656e74616cf564736f6c634300050c0040",
  "source": "pragma solidity ^0.5.11;\npragma experimental ABIEncoderV2;\n\nimport \"./PeggedToken.sol\";\nimport \"./System.sol\";\nimport \"./SystemFeeds.sol\";\nimport \"./Loan.sol\";\n\ncontract SystemLoans {\n    System public system;\n    PeggedToken public peggedToken;\n    SystemFeeds public systemFeeds;\n\n    constructor(\n        address _peggedTokenAddress,\n        address _systemAddress,\n        address _systemFeedsAddress\n    ) public {\n        require(_peggedTokenAddress != address(0), \"_peggedTokenAddress should not be 0\");\n        require(_systemAddress != address(0), \"_systemAddress should not be 0\");\n        require(_systemFeedsAddress != address(0), \"_systemFeedsAddress should not be 0\");\n        peggedToken = PeggedToken(_peggedTokenAddress);\n        system = System(_systemAddress);\n        systemFeeds = SystemFeeds(_systemFeedsAddress);\n    }\n\n    uint256 public loan_ratio; // 1.0 = 10 ** 9 | if const 150% - normal range 120%-170% - down as stability period increases\n    uint256 public loan_fee; // 1.0 = 10 ** 9 | normal range 2%-20% - Up when pegged>reference - down when pegged<reference\n\n    uint256 constant public PRICE_RATE_DECIMALS = 10;\n\n    uint32 constant public LOAN_MAX_ALLOCATIONS = 5; // Maximum loan price feed allocations\n    uint32 constant public LOAN_ALLOCATION_100_PERCENT = 100; // Loan allocation percent value at 100% = 1024\n    uint32 constant public LOAN_LEVERAGE_THRESHOLD_PERCENT = 150;\n    uint256 public loan_depositPool;\n    uint256 public loan_issuancePool;\n    address public loan_lastNewAddress;\n    mapping (address => bool) public loan_map;\n\n    function loan_createLoan() public returns(address) {\n        Loan newLoan = new Loan(msg.sender, address(system), address(peggedToken));\n        loan_lastNewAddress = address(newLoan);\n        loan_map[loan_lastNewAddress] = true;\n        return loan_lastNewAddress;\n    }\n\n    function loan_changeDepositEth(\n        uint256 _oldDepositValue,\n        uint256 _newDepositValue,\n        Loan.PriceFeedAllocation[LOAN_MAX_ALLOCATIONS] memory _priceFeedAllocations\n    )\n    public\n    {\n        require(loan_map[msg.sender], \"sender should be loan contract\");\n\n        for (uint i = 0; i < LOAN_MAX_ALLOCATIONS - 1; i++) {\n            if(_priceFeedAllocations[i].isAllocation)\n            {\n                require(systemFeeds.isPriceFeed(_priceFeedAllocations[i].priceFeedAddress), \"allocation address must be valid price feed\");//.isPriceFeed, \"Used price feed should have a valid address.\");\n                //require(map[_priceFeedAllocations[i].priceFeedAddress].isPriceFeed, \"\");//.isPriceFeed, \"Used price feed should have a valid address.\");\n                address priceFeedAddress = _priceFeedAllocations[i].priceFeedAddress;\n                uint32 percentAllocation = _priceFeedAllocations[i].percentAllocation;\n                systemFeeds.decrementPriceFeedAllocation(priceFeedAddress, (percentAllocation * _oldDepositValue) / LOAN_ALLOCATION_100_PERCENT);\n                systemFeeds.incrementPriceFeedAllocation(priceFeedAddress, (percentAllocation * _newDepositValue) / LOAN_ALLOCATION_100_PERCENT);\n            }\n        }\n\n        loan_depositPool += _newDepositValue - _oldDepositValue;\n    }\n\n    function loan_changeAllocation(\n        Loan.PriceFeedAllocation[LOAN_MAX_ALLOCATIONS] memory _oldPriceFeedAllocations,\n        Loan.PriceFeedAllocation[LOAN_MAX_ALLOCATIONS] memory _newPriceFeedAllocations,\n        uint256 _currentDepositValue\n    )\n    public\n    {\n        for (uint i = 0; i < LOAN_MAX_ALLOCATIONS - 1; i++) {\n            if(_oldPriceFeedAllocations[i].isAllocation)\n            {\n                require(systemFeeds.isPriceFeed(_oldPriceFeedAllocations[i].priceFeedAddress), \"allocation address must be valid price feed\");//.isPriceFeed, \"Used price feed should have a valid address.\");\n                //require(systemFeeds.map[_oldPriceFeedAllocations[i].priceFeedAddress].isPriceFeed, \"De-allocated price feed should have a valid address.\");\n                address priceFeedAddress = _oldPriceFeedAllocations[i].priceFeedAddress;\n                uint32 percentAllocation = _oldPriceFeedAllocations[i].percentAllocation;\n                systemFeeds.decrementPriceFeedAllocation(priceFeedAddress, (percentAllocation * _currentDepositValue) / LOAN_ALLOCATION_100_PERCENT);\n            }\n\n            if(_newPriceFeedAllocations[i].isAllocation)\n            {\n                require(systemFeeds.isPriceFeed(_newPriceFeedAllocations[i].priceFeedAddress), \"allocation address must be valid price feed\");//.isPriceFeed, \"Used price feed should have a valid address.\");\n                //require(systemFeeds.map[_newPriceFeedAllocations[i].priceFeedAddress].isPriceFeed, \"Allocated price feed should have a valid address.\");\n                address priceFeedAddress = _newPriceFeedAllocations[i].priceFeedAddress;\n                uint32 percentAllocation = _newPriceFeedAllocations[i].percentAllocation;\n                systemFeeds.incrementPriceFeedAllocation(priceFeedAddress, (percentAllocation * _currentDepositValue) / LOAN_ALLOCATION_100_PERCENT);\n           }\n        }\n    }\n\n    function loan_issueCurrency(uint256 currentIssuance, uint256 _issuanceValue, uint256 ethBalance) public {\n        require(loan_map[msg.sender], \"sender should be loan contract\");\n        uint256 totalIssuance = currentIssuance + _issuanceValue;\n        uint256 pegPerEthRate = systemFeeds.getInstantRate();\n\n        require(totalIssuance * 150 * 10 ** PRICE_RATE_DECIMALS <= ethBalance * pegPerEthRate * 100, \"issuance should not exceed threshold\");\n\n        peggedToken.mint(msg.sender, _issuanceValue);\n\n        loan_issuancePool += _issuanceValue;\n    }\n\n    function loan_reverseCurrencyIssuance(uint256 currentIssuance, uint256 _reverseIssuanceValue, uint256 ethBalance) public {\n        require(loan_map[msg.sender], \"sender should be valid loan contract\");\n        require(currentIssuance >= _reverseIssuanceValue, \"cannot reverse more than current issuance\");\n\n        uint256 totalIssuance = currentIssuance - _reverseIssuanceValue;\n        uint256 pegPerEthRate = systemFeeds.getInstantRate();\n\n        require(totalIssuance * 150 * 10 ** PRICE_RATE_DECIMALS <= ethBalance * pegPerEthRate * 100, \"issuance should not exceed threshold\");\n\n        peggedToken.burn(msg.sender, _reverseIssuanceValue);\n\n        loan_issuancePool -= _reverseIssuanceValue;\n    }\n\n    function loan_withdrawEth(uint256 currentIssuance, uint256 _withdrawValue, uint256 ethBalance) public {\n        require(loan_map[msg.sender], \"sender should be valid loan contract\");\n        require(ethBalance >= _withdrawValue, \"cannot withdraw more than current balance\");\n\n        uint256 rate = systemFeeds.getInstantRate();\n        uint256 netEthBalance = ethBalance - _withdrawValue;\n\n        require(currentIssuance * 150 * 10 ** PRICE_RATE_DECIMALS <= netEthBalance * rate * 100, \"withdrawal should not exceed threshold\");\n\n        loan_depositPool -= _withdrawValue;\n    }\n\n    function loan_withdrawCurrency(address _withdrawToAddress, uint256 _withdrawValue) public {\n        require(loan_map[msg.sender], \"sender should be valid loan contract\");\n    }\n}",
  "sourcePath": "/Users/nimakamoosi/repos/nimakam-private/stable-coin/ethereum/contracts/SystemLoans.sol",
  "compiler": {
    "name": "solc",
    "version": "0.5.12+commit.7709ece9.Emscripten.clang"
  },
  "schemaVersion": "3.0.19",
  "updatedAt": "2020-01-09T23:54:50.756Z",
  "devdoc": {
    "methods": {}
  },
  "userdoc": {
    "methods": {}
  }
}