{
  "contractName": "TestSavingsAccountController",
  "abi": [
    {
      "inputs": [
        {
          "internalType": "address",
          "name": "_systemAddress",
          "type": "address"
        }
      ],
      "payable": false,
      "stateMutability": "nonpayable",
      "type": "constructor"
    },
    {
      "constant": true,
      "inputs": [],
      "name": "owner",
      "outputs": [
        {
          "internalType": "address",
          "name": "",
          "type": "address"
        }
      ],
      "payable": false,
      "stateMutability": "view",
      "type": "function"
    },
    {
      "constant": true,
      "inputs": [],
      "name": "savingsAccount",
      "outputs": [
        {
          "internalType": "contract SavingsAccount",
          "name": "",
          "type": "address"
        }
      ],
      "payable": false,
      "stateMutability": "view",
      "type": "function"
    },
    {
      "constant": false,
      "inputs": [
        {
          "internalType": "uint256",
          "name": "_currencyValue",
          "type": "uint256"
        }
      ],
      "name": "registerCurrencySkipInterest",
      "outputs": [],
      "payable": false,
      "stateMutability": "nonpayable",
      "type": "function"
    },
    {
      "constant": false,
      "inputs": [],
      "name": "accumulateInterest",
      "outputs": [],
      "payable": false,
      "stateMutability": "nonpayable",
      "type": "function"
    }
  ],
  "bytecode": "0x608060405234801561001057600080fd5b5060405161070d38038061070d83398181016040526100329190810190610175565b336000806101000a81548173ffffffffffffffffffffffffffffffffffffffff021916908373ffffffffffffffffffffffffffffffffffffffff160217905550600081905060008173ffffffffffffffffffffffffffffffffffffffff16905060008173ffffffffffffffffffffffffffffffffffffffff1663ecc2bffb6040518163ffffffff1660e01b8152600401602060405180830381600087803b1580156100dc57600080fd5b505af11580156100f0573d6000803e3d6000fd5b505050506040513d601f19601f820116820180604052506101149190810190610175565b905080600160006101000a81548173ffffffffffffffffffffffffffffffffffffffff021916908373ffffffffffffffffffffffffffffffffffffffff160217905550505050506101e7565b60008151905061016f816101d0565b92915050565b60006020828403121561018757600080fd5b600061019584828501610160565b91505092915050565b60006101a9826101b0565b9050919050565b600073ffffffffffffffffffffffffffffffffffffffff82169050919050565b6101d98161019e565b81146101e457600080fd5b50565b610517806101f66000396000f3fe608060405234801561001057600080fd5b506004361061004c5760003560e01c80638da5cb5b14610051578063bf95d0e01461006f578063e544368114610079578063ecced62314610095575b600080fd5b6100596100b3565b60405161006691906103db565b60405180910390f35b6100776100d8565b005b610093600480360361008e9190810190610345565b6101eb565b005b61009d61030a565b6040516100aa91906103f6565b60405180910390f35b6000809054906101000a900473ffffffffffffffffffffffffffffffffffffffff1681565b3373ffffffffffffffffffffffffffffffffffffffff166000809054906101000a900473ffffffffffffffffffffffffffffffffffffffff1673ffffffffffffffffffffffffffffffffffffffff1614610167576040517f08c379a000000000000000000000000000000000000000000000000000000000815260040161015e90610411565b60405180910390fd5b600160009054906101000a900473ffffffffffffffffffffffffffffffffffffffff1673ffffffffffffffffffffffffffffffffffffffff1663bf95d0e06040518163ffffffff1660e01b8152600401600060405180830381600087803b1580156101d157600080fd5b505af11580156101e5573d6000803e3d6000fd5b50505050565b3373ffffffffffffffffffffffffffffffffffffffff166000809054906101000a900473ffffffffffffffffffffffffffffffffffffffff1673ffffffffffffffffffffffffffffffffffffffff161461027a576040517f08c379a000000000000000000000000000000000000000000000000000000000815260040161027190610411565b60405180910390fd5b600160009054906101000a900473ffffffffffffffffffffffffffffffffffffffff1673ffffffffffffffffffffffffffffffffffffffff1663e5443681826040518263ffffffff1660e01b81526004016102d59190610431565b600060405180830381600087803b1580156102ef57600080fd5b505af1158015610303573d6000803e3d6000fd5b5050505050565b600160009054906101000a900473ffffffffffffffffffffffffffffffffffffffff1681565b60008135905061033f816104bd565b92915050565b60006020828403121561035757600080fd5b600061036584828501610330565b91505092915050565b6103778161045d565b82525050565b61038681610499565b82525050565b600061039960168361044c565b91507f73656e6465722073686f756c64206265206f776e6572000000000000000000006000830152602082019050919050565b6103d58161048f565b82525050565b60006020820190506103f0600083018461036e565b92915050565b600060208201905061040b600083018461037d565b92915050565b6000602082019050818103600083015261042a8161038c565b9050919050565b600060208201905061044660008301846103cc565b92915050565b600082825260208201905092915050565b60006104688261046f565b9050919050565b600073ffffffffffffffffffffffffffffffffffffffff82169050919050565b6000819050919050565b60006104a4826104ab565b9050919050565b60006104b68261046f565b9050919050565b6104c68161048f565b81146104d157600080fd5b5056fea365627a7a723158208f8ec6c3b97b17941ca75c64682b089ac3f7054789c13a8b13b62522c835e3b46c6578706572696d656e74616cf564736f6c634300050c0040",
  "source": "pragma solidity ^0.5.11;\npragma experimental ABIEncoderV2;\n\nimport \"../System.sol\";\nimport \"../SystemSavings.sol\";\nimport \"../SavingsAccount.sol\";\n\ncontract TestSavingsAccountController {\n    address public owner;\n    SavingsAccount public savingsAccount;\n\n    constructor(\n        address _systemAddress\n    ) public {\n        owner = msg.sender;\n        System system = System(_systemAddress);\n        SystemSavings systemSavings = SystemSavings(address(system.systemSavingsAddress));\n        address savingsAccountAddress = systemSavings.createSavingsAccount();\n        savingsAccount = SavingsAccount(savingsAccountAddress);\n    }\n\n    function registerCurrencySkipInterest(uint256 _currencyValue) public {\n        require(owner == msg.sender, \"sender should be owner\");\n\n        savingsAccount.registerCurrencySkipInterest(_currencyValue);\n    }\n\n    function accumulateInterest() public {\n        require(owner == msg.sender, \"sender should be owner\");\n\n        savingsAccount.accumulateInterest();\n    }\n\n}",
  "sourcePath": "/Users/nimakamoosi/repos/nimakam-private/stable-coin/ethereum/contracts/test/TestSavingsAccountController.sol",
  "compiler": {
    "name": "solc",
    "version": "0.5.12+commit.7709ece9.Emscripten.clang"
  },
  "schemaVersion": "3.0.19",
  "updatedAt": "2020-01-22T22:16:12.229Z",
  "devdoc": {
    "methods": {}
  },
  "userdoc": {
    "methods": {}
  }
}