{
  "contractName": "TestLoanController",
  "abi": [
    {
      "inputs": [
        {
          "internalType": "address",
          "name": "_systemAddress",
          "type": "address"
        }
      ],
      "payable": false,
      "stateMutability": "nonpayable",
      "type": "constructor"
    },
    {
      "constant": true,
      "inputs": [],
      "name": "MAX_ALLOCATIONS",
      "outputs": [
        {
          "internalType": "uint32",
          "name": "",
          "type": "uint32"
        }
      ],
      "payable": false,
      "stateMutability": "view",
      "type": "function"
    },
    {
      "constant": true,
      "inputs": [],
      "name": "loan",
      "outputs": [
        {
          "internalType": "contract Loan",
          "name": "",
          "type": "address"
        }
      ],
      "payable": false,
      "stateMutability": "view",
      "type": "function"
    },
    {
      "constant": true,
      "inputs": [],
      "name": "owner",
      "outputs": [
        {
          "internalType": "address",
          "name": "",
          "type": "address"
        }
      ],
      "payable": false,
      "stateMutability": "view",
      "type": "function"
    },
    {
      "constant": false,
      "inputs": [],
      "name": "depositEth",
      "outputs": [],
      "payable": true,
      "stateMutability": "payable",
      "type": "function"
    },
    {
      "constant": false,
      "inputs": [
        {
          "internalType": "address",
          "name": "_withdrawToAddress",
          "type": "address"
        },
        {
          "internalType": "uint256",
          "name": "_withdrawValue",
          "type": "uint256"
        }
      ],
      "name": "withdrawCurrency",
      "outputs": [],
      "payable": false,
      "stateMutability": "nonpayable",
      "type": "function"
    },
    {
      "constant": false,
      "inputs": [
        {
          "components": [
            {
              "internalType": "address",
              "name": "priceFeedAddress",
              "type": "address"
            },
            {
              "internalType": "uint32",
              "name": "percentAllocation",
              "type": "uint32"
            },
            {
              "internalType": "bool",
              "name": "isAllocation",
              "type": "bool"
            }
          ],
          "internalType": "struct Loan.PriceFeedAllocation[5]",
          "name": "newPriceFeedAllocations",
          "type": "tuple[5]"
        }
      ],
      "name": "allocatePriceFeeds",
      "outputs": [],
      "payable": false,
      "stateMutability": "nonpayable",
      "type": "function"
    }
  ],
  "bytecode": "0x608060405234801561001057600080fd5b50604051610c18380380610c1883398181016040526100329190810190610175565b336000806101000a81548173ffffffffffffffffffffffffffffffffffffffff021916908373ffffffffffffffffffffffffffffffffffffffff160217905550600081905060008173ffffffffffffffffffffffffffffffffffffffff16905060008173ffffffffffffffffffffffffffffffffffffffff16633b7fa0346040518163ffffffff1660e01b8152600401602060405180830381600087803b1580156100dc57600080fd5b505af11580156100f0573d6000803e3d6000fd5b505050506040513d601f19601f820116820180604052506101149190810190610175565b905080600160006101000a81548173ffffffffffffffffffffffffffffffffffffffff021916908373ffffffffffffffffffffffffffffffffffffffff160217905550505050506101e7565b60008151905061016f816101d0565b92915050565b60006020828403121561018757600080fd5b600061019584828501610160565b91505092915050565b60006101a9826101b0565b9050919050565b600073ffffffffffffffffffffffffffffffffffffffff82169050919050565b6101d98161019e565b81146101e457600080fd5b50565b610a22806101f66000396000f3fe6080604052600436106100555760003560e01c8063086e2f701461005a5780632f62acbd14610083578063439370b1146100ae5780638da5cb5b146100b8578063d285b7b4146100e3578063fb9883cb1461010e575b600080fd5b34801561006657600080fd5b50610081600480360361007c9190810190610640565b610137565b005b34801561008f57600080fd5b50610098610256565b6040516100a5919061085f565b60405180910390f35b6100b661025b565b005b3480156100c457600080fd5b506100cd61036f565b6040516100da91906107c4565b60405180910390f35b3480156100ef57600080fd5b506100f8610394565b6040516101059190610824565b60405180910390f35b34801561011a57600080fd5b5061013560048036036101309190810190610604565b6103ba565b005b3373ffffffffffffffffffffffffffffffffffffffff166000809054906101000a900473ffffffffffffffffffffffffffffffffffffffff1673ffffffffffffffffffffffffffffffffffffffff16146101c6576040517f08c379a00000000000000000000000000000000000000000000000000000000081526004016101bd9061083f565b60405180910390fd5b600160009054906101000a900473ffffffffffffffffffffffffffffffffffffffff1673ffffffffffffffffffffffffffffffffffffffff1663086e2f70826040518263ffffffff1660e01b81526004016102219190610808565b600060405180830381600087803b15801561023b57600080fd5b505af115801561024f573d6000803e3d6000fd5b5050505050565b600581565b3373ffffffffffffffffffffffffffffffffffffffff166000809054906101000a900473ffffffffffffffffffffffffffffffffffffffff1673ffffffffffffffffffffffffffffffffffffffff16146102ea576040517f08c379a00000000000000000000000000000000000000000000000000000000081526004016102e19061083f565b60405180910390fd5b600160009054906101000a900473ffffffffffffffffffffffffffffffffffffffff1673ffffffffffffffffffffffffffffffffffffffff1663439370b1346040518263ffffffff1660e01b81526004016000604051808303818588803b15801561035457600080fd5b505af1158015610368573d6000803e3d6000fd5b5050505050565b6000809054906101000a900473ffffffffffffffffffffffffffffffffffffffff1681565b600160009054906101000a900473ffffffffffffffffffffffffffffffffffffffff1681565b3373ffffffffffffffffffffffffffffffffffffffff166000809054906101000a900473ffffffffffffffffffffffffffffffffffffffff1673ffffffffffffffffffffffffffffffffffffffff1614610449576040517f08c379a00000000000000000000000000000000000000000000000000000000081526004016104409061083f565b60405180910390fd5b600160009054906101000a900473ffffffffffffffffffffffffffffffffffffffff1673ffffffffffffffffffffffffffffffffffffffff1663fb9883cb83836040518363ffffffff1660e01b81526004016104a69291906107df565b600060405180830381600087803b1580156104c057600080fd5b505af11580156104d4573d6000803e3d6000fd5b505050505050565b6000813590506104eb81610983565b92915050565b600082601f83011261050257600080fd5b6005610515610510826108a7565b61087a565b9150818385606084028201111561052b57600080fd5b60005b8381101561055b5781610541888261057a565b84526020840193506060830192505060018101905061052e565b5050505092915050565b6000813590506105748161099a565b92915050565b60006060828403121561058c57600080fd5b610596606061087a565b905060006105a6848285016104dc565b60008301525060206105ba848285016105ef565b60208301525060406105ce84828501610565565b60408301525092915050565b6000813590506105e9816109b1565b92915050565b6000813590506105fe816109c8565b92915050565b6000806040838503121561061757600080fd5b6000610625858286016104dc565b9250506020610636858286016105da565b9150509250929050565b60006101e0828403121561065357600080fd5b6000610661848285016104f1565b91505092915050565b60006106768383610755565b60608301905092915050565b61068b81610907565b82525050565b61069a81610907565b82525050565b6106a9816108d3565b6106b381846108eb565b92506106be826108c9565b8060005b838110156106ef5781516106d6878261066a565b96506106e1836108de565b9250506001810190506106c2565b505050505050565b61070081610919565b82525050565b61070f8161095f565b82525050565b60006107226016836108f6565b91507f73656e6465722073686f756c64206265206f776e6572000000000000000000006000830152602082019050919050565b60608201600082015161076b6000850182610682565b50602082015161077e60208501826107a6565b50604082015161079160408501826106f7565b50505050565b6107a081610945565b82525050565b6107af8161094f565b82525050565b6107be8161094f565b82525050565b60006020820190506107d96000830184610691565b92915050565b60006040820190506107f46000830185610691565b6108016020830184610797565b9392505050565b60006101e08201905061081e60008301846106a0565b92915050565b60006020820190506108396000830184610706565b92915050565b6000602082019050818103600083015261085881610715565b9050919050565b600060208201905061087460008301846107b5565b92915050565b6000604051905081810181811067ffffffffffffffff8211171561089d57600080fd5b8060405250919050565b600067ffffffffffffffff8211156108be57600080fd5b602082029050919050565b6000819050919050565b600060059050919050565b6000602082019050919050565b600081905092915050565b600082825260208201905092915050565b600061091282610925565b9050919050565b60008115159050919050565b600073ffffffffffffffffffffffffffffffffffffffff82169050919050565b6000819050919050565b600063ffffffff82169050919050565b600061096a82610971565b9050919050565b600061097c82610925565b9050919050565b61098c81610907565b811461099757600080fd5b50565b6109a381610919565b81146109ae57600080fd5b50565b6109ba81610945565b81146109c557600080fd5b50565b6109d18161094f565b81146109dc57600080fd5b5056fea365627a7a72315820eecc8bd2cb167c9acfdac737114a4c514cc18b8c238a1188c25864c5d62e45216c6578706572696d656e74616cf564736f6c634300050c0040",
  "source": "pragma solidity ^0.5.11;\npragma experimental ABIEncoderV2;\n\nimport \"../System.sol\";\nimport \"../SystemLoans.sol\";\nimport \"../Loan.sol\";\n\ncontract TestLoanController {\n    address public owner;\n    Loan public loan;\n\n    uint32 constant public MAX_ALLOCATIONS = 5; // Maximum price feed allocations\n\n    constructor(\n        address _systemAddress\n    ) public {\n        owner = msg.sender;\n        System system = System(_systemAddress);\n        SystemLoans systemLoans = SystemLoans(address(system.systemLoansAddress));\n        address loanAddress = systemLoans.loan_createLoan();\n        loan = Loan(loanAddress);\n    }\n\n    function depositEth() public payable {\n        require(owner == msg.sender, \"sender should be owner\");\n        loan.depositEth.value(msg.value)();\n    }\n\n    function withdrawCurrency(address _withdrawToAddress, uint256 _withdrawValue) public {\n        require(owner == msg.sender, \"sender should be owner\");\n\n        loan.withdrawCurrency(_withdrawToAddress, _withdrawValue);\n    }\n\n    function allocatePriceFeeds(\n        Loan.PriceFeedAllocation[MAX_ALLOCATIONS] memory newPriceFeedAllocations\n    )\n    public\n    {\n        require(owner == msg.sender, \"sender should be owner\");\n\n        loan.allocatePriceFeeds(newPriceFeedAllocations);\n    }\n}",
  "sourcePath": "/Users/nimakamoosi/repos/nimakam-private/stable-coin/ethereum/contracts/test/TestLoanController.sol",
  "compiler": {
    "name": "solc",
    "version": "0.5.12+commit.7709ece9.Emscripten.clang"
  },
  "schemaVersion": "3.0.19",
  "updatedAt": "2020-01-09T23:54:50.763Z",
  "devdoc": {
    "methods": {}
  },
  "userdoc": {
    "methods": {}
  }
}