{
  "contractName": "TestPriceFeedController",
  "abi": [
    {
      "inputs": [
        {
          "internalType": "address",
          "name": "_systemAddress",
          "type": "address"
        }
      ],
      "payable": false,
      "stateMutability": "nonpayable",
      "type": "constructor"
    },
    {
      "constant": true,
      "inputs": [],
      "name": "owner",
      "outputs": [
        {
          "internalType": "address",
          "name": "",
          "type": "address"
        }
      ],
      "payable": false,
      "stateMutability": "view",
      "type": "function"
    },
    {
      "constant": true,
      "inputs": [],
      "name": "priceFeed",
      "outputs": [
        {
          "internalType": "contract PriceFeed",
          "name": "",
          "type": "address"
        }
      ],
      "payable": false,
      "stateMutability": "view",
      "type": "function"
    },
    {
      "constant": false,
      "inputs": [
        {
          "components": [
            {
              "internalType": "uint256",
              "name": "ethPrice",
              "type": "uint256"
            },
            {
              "internalType": "uint256",
              "name": "pegPrice",
              "type": "uint256"
            },
            {
              "internalType": "uint256",
              "name": "priceTime",
              "type": "uint256"
            },
            {
              "internalType": "uint256",
              "name": "callTime",
              "type": "uint256"
            }
          ],
          "internalType": "struct PriceFeed.DelayedPrice",
          "name": "_historicalPrice",
          "type": "tuple"
        }
      ],
      "name": "reportDelayedPrices",
      "outputs": [],
      "payable": false,
      "stateMutability": "nonpayable",
      "type": "function"
    },
    {
      "constant": false,
      "inputs": [
        {
          "internalType": "uint256",
          "name": "ethPrice",
          "type": "uint256"
        }
      ],
      "name": "reportInstantPrice",
      "outputs": [],
      "payable": false,
      "stateMutability": "nonpayable",
      "type": "function"
    }
  ],
  "bytecode": "0x608060405234801561001057600080fd5b5060405161087438038061087483398181016040526100329190810190610175565b336000806101000a81548173ffffffffffffffffffffffffffffffffffffffff021916908373ffffffffffffffffffffffffffffffffffffffff160217905550600081905060008173ffffffffffffffffffffffffffffffffffffffff16905060008173ffffffffffffffffffffffffffffffffffffffff16635f1592bb6040518163ffffffff1660e01b8152600401602060405180830381600087803b1580156100dc57600080fd5b505af11580156100f0573d6000803e3d6000fd5b505050506040513d601f19601f820116820180604052506101149190810190610175565b905080600160006101000a81548173ffffffffffffffffffffffffffffffffffffffff021916908373ffffffffffffffffffffffffffffffffffffffff160217905550505050506101e7565b60008151905061016f816101d0565b92915050565b60006020828403121561018757600080fd5b600061019584828501610160565b91505092915050565b60006101a9826101b0565b9050919050565b600073ffffffffffffffffffffffffffffffffffffffff82169050919050565b6101d98161019e565b81146101e457600080fd5b50565b61067e806101f66000396000f3fe608060405234801561001057600080fd5b506004361061004c5760003560e01c806355145bba14610051578063741bef1a1461006d5780638da5cb5b1461008b578063bf211c71146100a9575b600080fd5b61006b60048036036100669190810190610400565b6100c5565b005b6100756101e4565b6040516100829190610515565b60405180910390f35b61009361020a565b6040516100a091906104fa565b60405180910390f35b6100c360048036036100be91908101906103d7565b61022f565b005b3373ffffffffffffffffffffffffffffffffffffffff166000809054906101000a900473ffffffffffffffffffffffffffffffffffffffff1673ffffffffffffffffffffffffffffffffffffffff1614610154576040517f08c379a000000000000000000000000000000000000000000000000000000000815260040161014b90610530565b60405180910390fd5b600160009054906101000a900473ffffffffffffffffffffffffffffffffffffffff1673ffffffffffffffffffffffffffffffffffffffff166355145bba826040518263ffffffff1660e01b81526004016101af919061056b565b600060405180830381600087803b1580156101c957600080fd5b505af11580156101dd573d6000803e3d6000fd5b5050505050565b600160009054906101000a900473ffffffffffffffffffffffffffffffffffffffff1681565b6000809054906101000a900473ffffffffffffffffffffffffffffffffffffffff1681565b3373ffffffffffffffffffffffffffffffffffffffff166000809054906101000a900473ffffffffffffffffffffffffffffffffffffffff1673ffffffffffffffffffffffffffffffffffffffff16146102be576040517f08c379a00000000000000000000000000000000000000000000000000000000081526004016102b590610530565b60405180910390fd5b600160009054906101000a900473ffffffffffffffffffffffffffffffffffffffff1673ffffffffffffffffffffffffffffffffffffffff1663bf211c71826040518263ffffffff1660e01b81526004016103199190610550565b600060405180830381600087803b15801561033357600080fd5b505af1158015610347573d6000803e3d6000fd5b5050505050565b60006080828403121561036057600080fd5b61036a6080610586565b9050600061037a848285016103c2565b600083015250602061038e848285016103c2565b60208301525060406103a2848285016103c2565b60408301525060606103b6848285016103c2565b60608301525092915050565b6000813590506103d181610624565b92915050565b6000608082840312156103e957600080fd5b60006103f78482850161034e565b91505092915050565b60006020828403121561041257600080fd5b6000610420848285016103c2565b91505092915050565b610432816105c4565b82525050565b61044181610600565b82525050565b60006104546016836105b3565b91507f73656e6465722073686f756c64206265206f776e6572000000000000000000006000830152602082019050919050565b60808201600082015161049d60008501826104dc565b5060208201516104b060208501826104dc565b5060408201516104c360408501826104dc565b5060608201516104d660608501826104dc565b50505050565b6104e5816105f6565b82525050565b6104f4816105f6565b82525050565b600060208201905061050f6000830184610429565b92915050565b600060208201905061052a6000830184610438565b92915050565b6000602082019050818103600083015261054981610447565b9050919050565b60006080820190506105656000830184610487565b92915050565b600060208201905061058060008301846104eb565b92915050565b6000604051905081810181811067ffffffffffffffff821117156105a957600080fd5b8060405250919050565b600082825260208201905092915050565b60006105cf826105d6565b9050919050565b600073ffffffffffffffffffffffffffffffffffffffff82169050919050565b6000819050919050565b600061060b82610612565b9050919050565b600061061d826105d6565b9050919050565b61062d816105f6565b811461063857600080fd5b5056fea365627a7a72315820bdc99856a5feb758e9a219d7c0f8831238483b69f250ad06df3bac983aeeb4486c6578706572696d656e74616cf564736f6c634300050c0040",
  "source": "pragma solidity ^0.5.11;\npragma experimental ABIEncoderV2;\n\nimport \"../System.sol\";\nimport \"../SystemFeeds.sol\";\nimport \"../PriceFeed.sol\";\n\ncontract TestPriceFeedController {\n    address public owner;\n    PriceFeed public priceFeed;\n\n    constructor(\n        address _systemAddress\n    ) public {\n        owner = msg.sender;\n        System system = System(_systemAddress);\n        SystemFeeds systemFeeds = SystemFeeds(address(system.systemFeedsAddress));\n        address priceFeedAddress = systemFeeds.createPriceFeed();\n        priceFeed = PriceFeed(priceFeedAddress);\n    }\n\n    function reportDelayedPrices(PriceFeed .DelayedPrice memory _historicalPrice) public {\n        require(owner == msg.sender, \"sender should be owner\");\n\n        priceFeed.reportDelayedPrices(_historicalPrice);\n    }\n\n    function reportInstantPrice(uint256 ethPrice) public {\n        require(owner == msg.sender, \"sender should be owner\");\n\n        priceFeed.reportInstantPrice(ethPrice);\n    }\n\n}",
  "sourcePath": "/Users/nimakamoosi/repos/nimakam-private/stable-coin/ethereum/contracts/test/TestPriceFeedController.sol",
  "compiler": {
    "name": "solc",
    "version": "0.5.12+commit.7709ece9.Emscripten.clang"
  },
  "schemaVersion": "3.0.19",
  "updatedAt": "2020-01-22T22:16:12.223Z",
  "devdoc": {
    "methods": {}
  },
  "userdoc": {
    "methods": {}
  }
}