{
  "contractName": "TestPriceFeedController",
  "abi": [
    {
      "inputs": [
        {
          "internalType": "address",
          "name": "_systemAddress",
          "type": "address"
        }
      ],
      "payable": false,
      "stateMutability": "nonpayable",
      "type": "constructor"
    },
    {
      "constant": true,
      "inputs": [],
      "name": "owner",
      "outputs": [
        {
          "internalType": "address",
          "name": "",
          "type": "address"
        }
      ],
      "payable": false,
      "stateMutability": "view",
      "type": "function"
    },
    {
      "constant": true,
      "inputs": [],
      "name": "priceFeed",
      "outputs": [
        {
          "internalType": "contract PriceFeed",
          "name": "",
          "type": "address"
        }
      ],
      "payable": false,
      "stateMutability": "view",
      "type": "function"
    },
    {
      "constant": false,
      "inputs": [
        {
          "components": [
            {
              "internalType": "uint256",
              "name": "medianEthRate",
              "type": "uint256"
            },
            {
              "internalType": "uint256",
              "name": "medianPegRate",
              "type": "uint256"
            },
            {
              "internalType": "uint256",
              "name": "priceTime",
              "type": "uint256"
            },
            {
              "internalType": "uint256",
              "name": "callTime",
              "type": "uint256"
            }
          ],
          "internalType": "struct PriceFeed.HistoricalPrice",
          "name": "_historicalPrice",
          "type": "tuple"
        }
      ],
      "name": "postHistoricalPrice",
      "outputs": [],
      "payable": false,
      "stateMutability": "nonpayable",
      "type": "function"
    },
    {
      "constant": false,
      "inputs": [
        {
          "components": [
            {
              "internalType": "uint256",
              "name": "medianEthRate",
              "type": "uint256"
            },
            {
              "internalType": "uint256",
              "name": "priceTime",
              "type": "uint256"
            },
            {
              "internalType": "uint256",
              "name": "callTime",
              "type": "uint256"
            }
          ],
          "internalType": "struct PriceFeed.InstantPrice",
          "name": "_instantPrice",
          "type": "tuple"
        }
      ],
      "name": "postInstantPrice",
      "outputs": [],
      "payable": false,
      "stateMutability": "nonpayable",
      "type": "function"
    }
  ],
  "bytecode": "0x608060405234801561001057600080fd5b5060405161090738038061090783398181016040526100329190810190610175565b336000806101000a81548173ffffffffffffffffffffffffffffffffffffffff021916908373ffffffffffffffffffffffffffffffffffffffff160217905550600081905060008173ffffffffffffffffffffffffffffffffffffffff16905060008173ffffffffffffffffffffffffffffffffffffffff16635f1592bb6040518163ffffffff1660e01b8152600401602060405180830381600087803b1580156100dc57600080fd5b505af11580156100f0573d6000803e3d6000fd5b505050506040513d601f19601f820116820180604052506101149190810190610175565b905080600160006101000a81548173ffffffffffffffffffffffffffffffffffffffff021916908373ffffffffffffffffffffffffffffffffffffffff160217905550505050506101e7565b60008151905061016f816101d0565b92915050565b60006020828403121561018757600080fd5b600061019584828501610160565b91505092915050565b60006101a9826101b0565b9050919050565b600073ffffffffffffffffffffffffffffffffffffffff82169050919050565b6101d98161019e565b81146101e457600080fd5b50565b610711806101f66000396000f3fe608060405234801561001057600080fd5b506004361061004c5760003560e01c806310aefb91146100515780633d4887bb1461006d578063741bef1a146100895780638da5cb5b146100a7575b600080fd5b61006b60048036036100669190810190610437565b6100c5565b005b61008760048036036100829190810190610460565b6101e4565b005b610091610303565b60405161009e91906105a8565b60405180910390f35b6100af610329565b6040516100bc919061058d565b60405180910390f35b3373ffffffffffffffffffffffffffffffffffffffff166000809054906101000a900473ffffffffffffffffffffffffffffffffffffffff1673ffffffffffffffffffffffffffffffffffffffff1614610154576040517f08c379a000000000000000000000000000000000000000000000000000000000815260040161014b906105c3565b60405180910390fd5b600160009054906101000a900473ffffffffffffffffffffffffffffffffffffffff1673ffffffffffffffffffffffffffffffffffffffff166310aefb91826040518263ffffffff1660e01b81526004016101af91906105e3565b600060405180830381600087803b1580156101c957600080fd5b505af11580156101dd573d6000803e3d6000fd5b5050505050565b3373ffffffffffffffffffffffffffffffffffffffff166000809054906101000a900473ffffffffffffffffffffffffffffffffffffffff1673ffffffffffffffffffffffffffffffffffffffff1614610273576040517f08c379a000000000000000000000000000000000000000000000000000000000815260040161026a906105c3565b60405180910390fd5b600160009054906101000a900473ffffffffffffffffffffffffffffffffffffffff1673ffffffffffffffffffffffffffffffffffffffff16633d4887bb826040518263ffffffff1660e01b81526004016102ce91906105fe565b600060405180830381600087803b1580156102e857600080fd5b505af11580156102fc573d6000803e3d6000fd5b5050505050565b600160009054906101000a900473ffffffffffffffffffffffffffffffffffffffff1681565b6000809054906101000a900473ffffffffffffffffffffffffffffffffffffffff1681565b60006080828403121561036057600080fd5b61036a6080610619565b9050600061037a84828501610422565b600083015250602061038e84828501610422565b60208301525060406103a284828501610422565b60408301525060606103b684828501610422565b60608301525092915050565b6000606082840312156103d457600080fd5b6103de6060610619565b905060006103ee84828501610422565b600083015250602061040284828501610422565b602083015250604061041684828501610422565b60408301525092915050565b600081359050610431816106b7565b92915050565b60006080828403121561044957600080fd5b60006104578482850161034e565b91505092915050565b60006060828403121561047257600080fd5b6000610480848285016103c2565b91505092915050565b61049281610657565b82525050565b6104a181610693565b82525050565b60006104b4601683610646565b91507f73656e6465722073686f756c64206265206f776e6572000000000000000000006000830152602082019050919050565b6080820160008201516104fd600085018261057e565b506020820151610510602085018261057e565b506040820151610523604085018261057e565b506060820151610536606085018261057e565b50505050565b606082016000820151610552600085018261057e565b506020820151610565602085018261057e565b506040820151610578604085018261057e565b50505050565b61058781610689565b82525050565b60006020820190506105a26000830184610489565b92915050565b60006020820190506105bd6000830184610498565b92915050565b600060208201905081810360008301526105dc816104a7565b9050919050565b60006080820190506105f860008301846104e7565b92915050565b6000606082019050610613600083018461053c565b92915050565b6000604051905081810181811067ffffffffffffffff8211171561063c57600080fd5b8060405250919050565b600082825260208201905092915050565b600061066282610669565b9050919050565b600073ffffffffffffffffffffffffffffffffffffffff82169050919050565b6000819050919050565b600061069e826106a5565b9050919050565b60006106b082610669565b9050919050565b6106c081610689565b81146106cb57600080fd5b5056fea365627a7a72315820eb3404461d537b91b7c51c76bf7b26dd0d2606a5a3d6b1693227d00cec2c99326c6578706572696d656e74616cf564736f6c634300050c0040",
  "source": "pragma solidity ^0.5.11;\npragma experimental ABIEncoderV2;\n\nimport \"../System.sol\";\nimport \"../SystemFeeds.sol\";\nimport \"../PriceFeed.sol\";\n\ncontract TestPriceFeedController {\n    address public owner;\n    PriceFeed public priceFeed;\n\n    constructor(\n        address _systemAddress\n    ) public {\n        owner = msg.sender;\n        System system = System(_systemAddress);\n        SystemFeeds systemFeeds = SystemFeeds(address(system.systemFeedsAddress));\n        address priceFeedAddress = systemFeeds.createPriceFeed();\n        priceFeed = PriceFeed(priceFeedAddress);\n    }\n\n    function postHistoricalPrice(PriceFeed.HistoricalPrice memory _historicalPrice) public {\n        require(owner == msg.sender, \"sender should be owner\");\n\n        priceFeed.postHistoricalPrice(_historicalPrice);\n    }\n\n    function postInstantPrice(PriceFeed.InstantPrice memory _instantPrice) public {\n        require(owner == msg.sender, \"sender should be owner\");\n\n        priceFeed.postInstantPrice(_instantPrice);\n    }\n\n}",
  "sourcePath": "/Users/nimakamoosi/repos/nimakam-private/stable-coin/ethereum/contracts/test/TestPriceFeedController.sol",
  "compiler": {
    "name": "solc",
    "version": "0.5.12+commit.7709ece9.Emscripten.clang"
  },
  "schemaVersion": "3.0.19",
  "updatedAt": "2020-01-09T23:54:50.764Z",
  "devdoc": {
    "methods": {}
  },
  "userdoc": {
    "methods": {}
  }
}